:020000040800F2
:10000000787900209D1C0208991C0208991C02089E
:10001000991C0208991C0208991C020800000000A3
:10002000000000000000000000000000991C020811
:10003000991C020800000000991C02082D100008FD
:10004000991C0208991C0208991C0208991C0208B4
:10005000991C0208991C0208991C0208991C0208A4
:10006000991C0208991C0208991C0208991C020894
:10007000991C0208991C0208991C0208991C020884
:10008000991C0208991C0208991C0208991C020874
:1000900095CC000831CD0008991C0208991C020873
:1000A000991C0208991C0208991C0208991C020854
:1000B000991C0208991C0208991C0208991C020844
:1000C000991C0208991C0208991C0208991C020834
:1000D000991C0208851000083D15000889320008A7
:1000E000991C0208991C0208991C0208991C020814
:1000F000991C0208991C0208F9220008991C0208A0
:10010000991C0208991C0208991C0208991C0208F3
:1001100051B10008E9120008991C0208991C020854
:10012000991C0208991C0208991C0208991C0208D3
:100130005FF808F10449054BCA6802F4E062134312
:10014000CB60BFF34F8FFEE700ED00E00400FA053F
:10015000410746BFC30843F00043430D820748BF31
:1001600043F08043184670470A88504080EA0010E8
:10017000C0B2030983EA122343EA002383EAC000E2
:100180000880704713B5044623786278084643EA2E
:10019000022302A921F8023DFFF7E6FFBDF8063071
:1001A000238002B010BD0000024A0C2303FB002094
:1001B00080687047285F0208034A0C2303FB002075
:1001C000D0F8E408704700BF285F0208034A0C23F8
:1001D00003FB0020D0F80809704700BF285F020821
:1001E000034A0C2303FB0020D0F80C0B704700BF20
:1001F000285F0208034A0C2303FB0020D0F8280DD7
:10020000704700BF285F02082DE9F04F044688467A
:1002100017460568DDB005EBC2039D42036088BF49
:100220004368C5F3C50584BF0133436000F128036B
:100230000193002F00F0BB80C5F14006BE4228BFED
:100240003E46019B414658193246354425F0CCFACA
:10025000402DB044A7EB0607EBD10CAB1D4601992E
:100260000022C878043305F822008878043103F8A6
:10027000030C11F8030C03F8020C019810F822008B
:100280000132102A03F8010CEBD1A368002002937D
:10029000E3681CA903932369049363690593A36925
:1002A0000693E3690793236A0893636A09930CAB87
:1002B00053F8203041F8203001301028F7D18A6BF4
:1002C0004E684FEAF24585EA724383EA92254A6A0C
:1002D0000B684FEAB64E13448EEAF61E1D448EEAB2
:1002E000D6060130354440280D6401F10401E6D101
:1002F000059B04980B93039D0299089EDDF81CE072
:10030000DDF824B0069B4FF0000C4FEAF32926EAF3
:10031000030A89EAB31903EA0E028AEA020289EAA9
:10032000736991441CAA52F82C204FEA713A914407
:10033000204A8AEAB10A52F82C208AEAB15A91443A
:10034000D94480EA050B0BEA010B05EA00028BEAAF
:10035000020292440B9A0CF1010C4A44BCF1400F8A
:100360000A92D144B3460B9006D0284676460D46F5
:100370009E4649460A9BC8E7029A4A44A260039AED
:100380000A44E260049A0A992A442261059A0025E7
:1003900002446261069A0A44A261079A1A44089BC1
:1003A000E26173442362099B3344636241E75DB0B9
:1003B000BDE8F08F606C02082DE9F04104460E465E
:1003C000056892B0C5F3C5070DF1480880234722A0
:1003D00000210DF10100C7F1770708F8483D07F04B
:1003E0003F0725F0DBFA12AB3B442A0A03F8412C05
:1003F0002A0C03F8422C626803F8405C110A03F8E7
:10040000442C03F8451C110C120E03F8461C03F88B
:10041000472C2D0E07F109024146204603F8435CA4
:10042000FFF7F2FEE37A3370A37A7370637AB370E6
:10043000237AF370E37B3371A37B737112B0BDE851
:10044000F08109B925F0AABA25F0CEB970B50D46EC
:100450000646C4781722172C28BF172400212846E7
:1004600025F09CFA224606F10C012846BDE87040B2
:1004700025F0BAB970B50D460646C4782322232C60
:1004800028BF23240021284625F088FA224606F1B9
:100490000C012846BDE8704025F0A6B970B50D46A0
:1004A0000646C4782122212C28BF21240021284679
:1004B00025F074FA224606F10C012846BDE870408A
:1004C00025F092B970B50D460646C478FE22FE2C82
:1004D00028BFFE240021284625F060FA224606F1B6
:1004E0000C012846BDE8704025F07EB970B50D4678
:1004F0000646C4781422142C28BF14240021284650
:1005000025F04CFA224606F10C012846BDE8704061
:1005100025F06AB970B50D460646C4788522852C4B
:1005200028BF85240021284625F038FA224606F106
:100530000C012846BDE8704025F056B9094B9A6970
:1005400012F0700F0DD000229A61074A51680131F4
:100550005160127F12B99B695B0702D5034A014BB8
:100560009A60704700640040181D00208080800061
:10057000022B0AD140F2DA739A4236D11CA3D3E996
:1005800000230120C1E900237047012B2DD1013A3E
:100590000A2A2AD8DFE802F00629290D1429292978
:1005A000291B220014A3D3E900230120C1E9002361
:1005B000704713A3D3E900230120C1E9002370474A
:1005C00011A3D3E900230120C1E90023704710A340
:1005D000D3E900230120C1E9002370470EA3D3E92A
:1005E00000230120C1E9002370470020704700BFAD
:1005F000851E4BCFD9D4A25A9E6AC421818A46EE69
:10060000042B31ECA7766FBEF017304A39059E56A1
:10061000CDD269EBC51A133BD5A4D139F922B6A7BF
:1006200010B5074C40F22551204622F056FD2046D9
:10063000BDE81040012240F2255122F029BD00BF43
:100640000038014010B5074C40F22551204622F0F9
:1006500044FD2046BDE81040012240F2255122F021
:1006600017BD00BF0050004010B5074C40F22551A7
:10067000204622F032FD2046BDE81040012240F223
:10068000255122F005BD00BF0044004010B5074CC5
:1006900040F22551204622F020FD2046BDE81040C2
:1006A000012240F2255122F0F3BC00BF0048004077
:1006B000024A538C43F0100353847047D26F0020DA
:1006C00010B5074C40F22551204622F006FD204689
:1006D000BDE81040012240F2255122F0D9BC00BFF4
:1006E000004C004010B50E4C3823E36020462361D7
:1006F000022122F077F92046102122F073F9094AED
:1007000000231380084A204613800221012222F090
:1007100061F92046BDE810400122102122F05AB9AB
:1007200000640040F03300202C3700202DE9F04F0A
:10073000724FA7B03C7C0546A4079DF8C0009DF809
:10074000C46005D47C6994B1247804F001040EE0FF
:10075000FE242C706870BC7A05F10609AC70E97053
:100760002A716B71064600244FF0060A1EE005F15F
:100770000A09012E11D8FD20287000206E70AC707F
:10078000E870B87AAA71EB711A0A1B0C28716971AA
:100790002A726B724FF00A0A08E009EB060010F8A3
:1007A000010C0028E7D1013EF6B2E2E74FF6FF71F7
:1007B0001FFA8AFBBB7A0BF1FF381FFA88F8013366
:1007C00026AA08F10108BB7222F8681D6B1CA84418
:1007D000984509D013F8010B114602920193FFF7D7
:1007E000C3FC029A019BF3E7C846BDF8302026AB54
:1007F00023F8822DB2B2019209EB0602904509D08E
:10080000194618F8010B03920293FFF7ADFC039A07
:10081000029BF3E719469DF8C800FFF7A5FCBDF859
:10082000163088F800301B0A88F80130002C5AD0A6
:100830007C69002C57D0207810F0010052D06378EA
:1008400026A98DF82030D4E90223CDE9062351F8FA
:10085000800D0132898843F10003ADF82510C4E909
:10086000022300230C930D93254BCDF821000E930A
:10087000244B04F110010F93234B0CA81093234B2E
:1008800020221193224B0D241293224B1393224BBF
:10089000149303F17453A3F52303A3F69243159322
:1008A000FFF7B2FC524629460CA8FFF7ADFC3246D2
:1008B00049460CA8FFF7A8FC41460CA80222FFF706
:1008C000A3FC072208A90CA8FFF79EFC0DF1270145
:1008D0000CA8FFF771FD224608A908F1020024F0D8
:1008E00083FF00E00446019B9B440BF1020B0BEBE2
:1008F000040080B227B0BDE8F08F00BF9022002036
:1009000067E6096A85AE67BB72F36E3C3AF54FA5A0
:100910007F520E518C68059BABD9831FF0B50546FD
:100920000E461746154A6FF03701127C85B012F05B
:10093000020F14BF06200A202C182954002264201C
:100940006270A070E270217162711946A01D0822C8
:10095000FFF777FD0A9904F10E000822FFF771FDF9
:10096000D92302931623019300933A464FF49673CA
:1009700031462846FFF7DAFE05B0F0BD9022002090
:1009800000EB8000430018460138FDD8704740282E
:1009900008B5024609D8BDE80840C0EB401002EB9C
:1009A0008000C00080B2FFF7EBBF4FF47A70FFF712
:1009B000E7FF013A92B2002AF7D108BD0288838886
:1009C00010B5541C234044889C421FBF8468A15426
:1009D0000380012008BF002010BD438802889A428E
:1009E00009D08268D35C0B7043885A1C83881340FB
:1009F00043800120704700207047428803889B1A7B
:100A00009BB21A0441BF808801301B1898B258BFAE
:100A10001846704770B5044625F06AF980B2002187
:100A2000431E8AB29A4203DAA65C4D1C302E08D0CF
:100A3000821A89B221442046BDE87040013224F078
:100A400049BF2946EDE710B530240C70632805D95D
:100A50000C78643801340C70C0B2F7E730211170A3
:100A6000092805D911780A3801311170C0B2F7E7A9
:100A70003030187010BD70B542F20F763025049CEE
:100A80000D70B04207D90D78A0F51C500135103813
:100A90000D7080B2F5E730211170B0F57A7F06D382
:100AA0001178A0F57A700131117080B2F5E730222B
:100AB0001A70632805D91A78643801321A7080B226
:100AC000F7E730232370092805D923780A38013342
:100AD000237080B2F7E7059B3030187070BD0000BE
:100AE0002DE9F043DDF81CC04FF03008DDF820E0C0
:100AF000099F0A9E0B9D0C9CDFF8049181F80080F1
:100B000048450CD991F8008000F1444008F10108F3
:100B100000F5CA0081F8008000F55850F0E7302158
:100B2000DFF8E0801170404509D9117800F17A4072
:100B3000013100F52120117000F57060F3E73022DB
:100B40002C491A70884207D91A78A0F51900013289
:100B50001A7000F5D340F5E73023274A8CF80030AF
:100B6000904209D99CF80030A0F5742001338CF82C
:100B70000030A0F51070F3E73023204A8EF80030E3
:100B8000904208D99EF80030A0F5C33001338EF8AA
:100B90000030A038F4E742F20F7230233B709042ED
:100BA00006D93B78A0F51C5001333B701038F6E7AE
:100BB00030233370B0F57A7F05D33378A0F57A709F
:100BC00001333370F6E730232B70632804D92B7878
:100BD000643801332B70F8E730232370092804D9D7
:100BE00023780A3801332370F8E70D9B30301870F2
:100BF000BDE8F0837F9698003F420F009F8601007A
:100C0000FFC99A3BFFE0F50510B50C468B1C4A1C4A
:100C1000FFF719FF0023E37010BD13B50028B5BF1F
:100C20002D2320230B700B70B8BF404201F1050348
:100C3000B8BF00B201930B1D0C4600938A1CCB1C5D
:100C400080B20131FFF717FF0023A37102B010BD7E
:100C500010B501F1090388B0069301F1080305936B
:100C6000CB1D04938B1D03934B1D02930B1D01930E
:100C7000CB1C00934A1C8B1C0C46FFF731FF002352
:100C8000A37208B010BD10B50028B5BF2D232023D6
:100C90000B700B7088B001F10A03069301F1090390
:100CA000059301F10803049301F10703039301F194
:100CB0000603029301F10503019301F104030C46BD
:100CC000009301F1020201F10303B8BF4042013178
:100CD000FFF706FF0023E37208B010BD0A2330B50A
:100CE0001C460122834203D8013292B26343F9E7E2
:100CF000531E1BB20A24002B09DBB0FBF4F504FBE6
:100D000015003030C854013B28461BB2F3E70023DE
:100D10008B5430BD10B5034C2146FFF7DFFF204652
:100D200010BD00BFCD600020014608B5064822F086
:100D3000A5FB0121044822F0B2FB0028F9D00248AB
:100D400022F09EFBC0B208BD003C004030B51F4BF6
:100D50008DB0ADF8020058681D4D40F0F0005860AD
:100D60005868002440F470605860A3F5E333A3F59D
:100D7000FA7301934FF4805301320A930291802356
:100D800001A92846049205940794089409940B94A9
:100D90000394069322F0C4FA06940E4C0DF102035C
:100DA000029301A910232046039322F0B9FA2846A2
:100DB000012122F0D3FA2046012122F0CFFA0122AC
:100DC0000321054822F051FB0DB030BD0004024064
:100DD000080402401C040240003C004008B50A48D8
:100DE00022F0D6FA70B100220321084822F03DFB20
:100DF0000021074822F0B2FA0021064822F0AEFA9C
:100E0000002008BD012008BD02000010003C004089
:100E1000080402401C04024070B506460A4C0D4608
:100E200020464FF4004121F0CEFE46F08000FFF74F
:100E30007BFFFF20FFF778FF4FF40041287020462A
:100E400021F0BFFE012070BD0008014073B51646B9
:100E50000C460DF107011D46FFF7DEFF0121A01B27
:100E600001FA06F201309DF80730013A82401A403B
:100E700042FA00F0287002B070BD000070B506465E
:100E80000D460A4C4FF40041204621F09CFE06F02E
:100E90007F00FFF749FF2846FFF746FF20464FF443
:100EA000004121F08EFE012070BD00BF000801400E
:100EB000F7B517460D461E4604460DF10701FFF72C
:100EC000ABFF012101FA07F2E81B0130013A9DF85E
:100ED0000710824006FA00F0C0B221EA0201024087
:100EE000114320468DF80710FFF7C8FF03B0F0BD8F
:100EF000054AC000138800F0380023F038031B04B3
:100F00001B0C034313807047003C004070B5012167
:100F100088B04FF4004021F01BFF0121092021F08F
:100F20000BFF01213B4821F055FE0121042021F057
:100F300003FF4FF40041384821F043FE03241025FD
:100F40004FF4004602A934488DF80B508DF80A4042
:100F5000ADF8086021F0E0FD31462F4821F031FE68
:100F60002823ADF8083002A918232C488DF80B303F
:100F70008DF80A4021F0D0FD482302A92748ADF89A
:100F800008508DF80B308DF80A4021F0C5FD4FF464
:100F90008273ADF80E300223ADF812304FF40073B7
:100FA000ADF81630382300240125ADF8183003A918
:100FB00007231B48ADF81C30ADF80C40ADF81040CD
:100FC000ADF81450ADF81A4022F024FA2146144826
:100FD00022F059FA2946124822F03BFA0221104821
:100FE00022F05DFA0028F9D00D4822F049FAADF858
:100FF0000600BDF806300B489BB2ADF8063022F073
:1010000017F9094822F014F90121022021F088FE85
:1010100008B070BD0002300000080140000C014023
:10102000003C0040080402401C040240034B012223
:10103000DA831A6A01321A62704700BF181D002055
:101040000B4B0021D98319620A4B0B4A1B68F02015
:10105000B3FBF2F340F2DC525343084A013B5360C6
:10106000074B83F82300072391601360704700BF8C
:10107000181D0020BC18002040420F0010E000E0C6
:1010800000ED00E0194B10B5198889B28A060FD51A
:10109000174C18489A88238800880133C3F3080343
:1010A00080B2834292B21FBF1348D2B2C25423808F
:1010B0000B061AD5114B124A1988138889B29BB2B4
:1010C00099420BD013880133C3F3080313801388AC
:1010D0000C4A9BB2D35C054A938010BD034A9389A6
:1010E00023F080031B041B0C938110BD00380140CA
:1010F000A6580020881D00208C20002014350020D8
:10110000C0420020102D00200B490C4A0B88128889
:101110000133C3F3080392B293420AD0084AD05471
:10112000084A0B80938901209BB243F0800393818E
:1011300070470020704700BF14350020C0420020D7
:10114000102D002000380140013938B5451E4418E3
:10115000A54204D015F8010FFFF7D6FFF8E738BD18
:10116000044B1888044B80B21B889BB2C01A18BF6E
:1011700001207047A6580020881D002010B509489E
:10118000094C2188038889B29BB29942054AF8D05C
:1011900013880133C3F3080313801388034A9BB2F7
:1011A000D05C10BD881D0020A65800208C20002097
:1011B000024A00231380024A13807047881D0020D2
:1011C000A65800201FB5002300900C22694608484D
:1011D000ADF80430ADF80630ADF80830ADF80A20AF
:1011E000ADF80C3021F0DEFE05B05DF804FB00BF69
:1011F000003801407FB5334C012144F2050021F055
:101200009BFD4FF40073ADF80030032518236946A9
:1012100020468DF803308DF8025021F07DFC4FF40C
:1012200080636946ADF800302046482304F54054F9
:101230008DF803308DF8025021F06EFC02A821F0E9
:1012400015FF02A9204621F001FF4FF4E130FFF71E
:10125000B9FF25238DF8043001260F2301A88DF84E
:1012600005308DF806308DF8076022F09DF80022D9
:10127000204640F2277121F00BFF204640F22771F3
:1012800021F02BFF204640F2266121F026FF0E4B75
:1012900000251D800D4B2A46204640F225511D8019
:1012A00021F0F6FE204640F2255121F016FF084BB2
:1012B00031461D80074B20461D8021F0DDFE04B025
:1012C00070BD00BF00080140C0420020143500205E
:1012D000881D0020A658002008B5FFF78BFFBDE849
:1012E0000840FFF79DB90000194B10B5198889B265
:1012F0008A060FD5174C18489A882388008801332E
:10130000C3F3080380B2834292B21FBF1348D2B224
:10131000C25423800B061AD5114B124A1988138820
:1013200089B29BB299420BD013880133C3F30803EF
:10133000138013880C4A9BB2D35C054A938010BD7E
:10134000034A938923F080031B041B0C938110BD77
:1013500000500040B6400020E840002048690020CE
:10136000FE330020BA6500205C6B00200B490C4A5C
:101370000B8812880133C3F3080392B293420AD058
:10138000084AD054084A0B80938901209BB243F04D
:101390008003938170470020704700BFFE33002018
:1013A000BA6500205C6B002000500040044B188898
:1013B000044B80B21B889BB2C01A18BF0120704733
:1013C000B6400020E840002010B50948094C2188AB
:1013D000038889B29BB29942054AF8D01388013339
:1013E000C3F3080313801388034A9BB2D05C10BD7B
:1013F000E8400020B640002048690020024A00234F
:101400001380024A13807047E8400020B640002055
:101410001FB5002300900C2269460848ADF804303F
:10142000ADF80630ADF80830ADF80A20ADF80C3054
:1014300021F0B8FD05B05DF804FB00BF005000408E
:101440007FB501214FF4801021F082FC0121312071
:1014500021F072FC4FF48053ADF8003003241823C0
:1014600069462B488DF803308DF8024021F054FB7B
:1014700004236946ADF800308DF802404823254C1E
:1014800025488DF8033021F047FB02A821F0EEFD3E
:1014900002A9204621F0DAFD4FF4E130FFF7B8FF52
:1014A00035238DF8043001260F2301A88DF805306F
:1014B0008DF806308DF8076021F076FF0022204677
:1014C00040F2277121F0E4FD204640F2277121F01F
:1014D00004FE204640F2266121F0FFFD0F4B00255F
:1014E0001D800F4B2A46204640F225511D8021F0D9
:1014F000CFFD204640F2255121F0EFFD094B31464A
:101500001D80094B20461D8021F0B6FD04B070BD42
:10151000001001400050004000140140BA65002056
:10152000FE330020E8400020B640002008B5FFF759
:1015300087FFBDE80840FFF785B80000194B10B5DC
:10154000198889B28A060FD5174C18489A882388BB
:1015500000880133C3F3080380B2834292B21FBFF5
:101560001348D2B2C25423800B061AD5114B124A2B
:101570001988138889B29BB299420BD01388013322
:10158000C3F30803138013880C4A9BB2D35C054A4B
:10159000938010BD034A938923F080031B041B0C26
:1015A000938110BD004400402E6E0020084E0020A4
:1015B000D21D0020D0420020AE600020122F00205B
:1015C0000B490C4A0B8812880133C3F3080392B20B
:1015D00093420AD0084AD054084A0B8093890120CC
:1015E0009BB243F08003938170470020704700BF97
:1015F000D0420020AE600020122F002000440040A6
:10160000044B1888044B80B21B889BB2C01A18BFC9
:10161000012070472E6E0020084E002010B50948AA
:10162000094C2188038889B29BB29942054AF8D0B7
:1016300013880133C3F3080313801388034A9BB252
:10164000D05C10BD084E00202E6E0020D21D002060
:10165000024A00231380024A13807047084E00207C
:101660002E6E00201FB5002300900C22694608480A
:10167000ADF80430ADF80630ADF80830ADF80A200A
:10168000ADF80C3021F08EFC05B05DF804FB00BF16
:10169000004400407FB501214FF4003021F058FB99
:1016A000314C0121052021F047FB0423ADF8003027
:1016B00003251823694620468DF803308DF8025023
:1016C00021F02AFA08236946ADF800302046482365
:1016D000A4F544448DF803308DF8025021F01CFA33
:1016E00002A821F0C3FC02A9204621F0AFFC4FF470
:1016F000E130FFF7B7FF26238DF8043001260F23D2
:1017000001A88DF805308DF806308DF8076021F0BE
:101710004BFE0022204640F2277121F0B9FC204602
:1017200040F2277121F0D9FC204640F2266121F0D9
:10173000D4FC0E4B00251D800D4B2A46204640F25E
:1017400025511D8021F0A4FC204640F2255121F0B6
:10175000C4FC084B31461D80074B20461D8021F0FC
:101760008BFC04B070BD00BF00080140AE600020DB
:10177000D0420020084E00202E6E002008B5FFF752
:1017800089FFBDE80840FEF76FBF01231A46072115
:101790006B20FFF78DBB01231A4603216A20FFF758
:1017A00087BB0023012206216B20FFF781BB034684
:1017B000032202216B20FFF77BBB01461920FFF7B4
:1017C0005DBB01461920FFF727BB03460322022118
:1017D0001A20FFF76DBB0346032202211A20FFF7F0
:1017E00035BB0346022204211B20FFF761BB0346E1
:1017F000022204211B20FFF729BB034602220421F9
:101800001C20FFF755BB0346022204211C20FFF7D2
:101810001DBB10B5044600F00703032202211A2065
:10182000FFF746FBC4F30113022201211B20BDE890
:101830001040FFF73DBB13B5032204460DF106032C
:1018400002211A20FFF702FB0DF1070302220121FA
:101850001B20FFF7FBFA9DF8063003F00703237007
:1018600002B010BD10B5044600F0070303220221A8
:101870001D20FFF71DFBC4F30013012203211D20CF
:10188000BDE81040FFF714BB13B5032204460DF169
:10189000060302211D20FFF7D9FA0DF107030122EB
:1018A00003211D20FFF7D2FA9DF807301B0103F03A
:1018B00010029DF8063003F007031344237002B0B2
:1018C00010BD000038B50D4C00252146752025704F
:1018D000FFF7A2FA01280BD12378682B0DD0712BCA
:1018E00008D0122B08D0422B14BF2846042038BD44
:1018F000284638BD022038BD032038BD0034002002
:101900002DE9F04180460F4616461D460A209DF8F7
:101910001840FFF735F84046FFF749FF3846FFF714
:1019200060FF3046FFF751FF2846FFF766FF20466D
:10193000FFF743FFBDE8F041FFF733BF73B50C4637
:101940000A2016461D46FFF71BF80DF10700FFF7AA
:101950004EFF9DF807300A20A34214BF0224002442
:10196000FFF70EF80DF10700FFF735FF9DF8073080
:101970000A20B3421CBF44F00404A4B2FFF700F8ED
:101980000DF10700FFF73FFF9DF807300A20AB423B
:1019900018BF44F00804FEF7F3FF0DF10700FFF74E
:1019A00010FF9DF807209DF818309A4218BF44F0A8
:1019B0001004204602B070BD2DE9F84381468846E8
:1019C00017461E460A209DF820509DF82440FEF739
:1019D000D7FF4846FFF7EBFE4046FFF702FF3846C9
:1019E000FFF717FF3046FFF708FF2846FFF73AFFDB
:1019F0002046FFF7E2FEBDE8F843FFF7D2BE73B51D
:101A00000C460A2016461D46FEF7BAFF0DF10700E8
:101A1000FFF7EDFE9DF807300A20A34214BF022411
:101A20000024FEF7ADFF0DF10700FFF704FF9DF85E
:101A300007300A20B3421CBF44F00404A4B2FEF7EE
:101A40009FFF0DF10700FFF7DEFE9DF807300A202B
:101A5000AB4218BF44F00804FEF792FF0DF10700F7
:101A6000FFF7AFFE9DF807209DF81C300A209A4230
:101A700018BF44F01004FEF783FF0DF10700FFF7D5
:101A800003FF9DF807209DF818309A4218BF44F0D4
:101A90002004204602B070BDF7B5144607460E4636
:101AA000112001211D46FFF7E9F942F21070FEF7FF
:101AB00067FF0A20FEF764FF0DF107011320FFF70F
:101AC000ABF99DF80710132021F0070141F0050143
:101AD000FFF7D4F90A20FEF753FF0DF107014C2060
:101AE000FFF79AF99DF807104C2041F00301FFF72A
:101AF000C5F90A20FEF744FF0DF107014E20FFF75C
:101B00008BF99DF807104E2021F03F0141F00F01A5
:101B1000FFF7B4F94FF47A70FEF732FF0A20FEF7B0
:101B20002FFF0DF107014F20FFF776F99DF8071001
:101B300004F00F0401F01001214341EA4711C9B23A
:101B40004F20FFF79BF90A20FEF71AFF0DF107015E
:101B50005020FFF761F99DF8071044EA461401F0A0
:101B600010012143C9B25020FFF788F90A20FEF77F
:101B700007FF0DF107015120FFF74EF99DF82430C2
:101B80009DF807109B0003F00C0321F00C01194392
:101B90005120FFF773F90A20FEF7F2FE0DF107015D
:101BA0005220FFF739F99DF8071005F00F050D4396
:101BB0009DF82010522045EA0111C9B2FFF75EF9E5
:101BC0000A20FEF7DDFE0DF107015320FFF724F98F
:101BD0009DF828309DF80710DB0003F0180321F072
:101BE000180119435320FFF749F903B0F0BD2DE95F
:101BF000FF418046002303800A240A20FEF7C0FE2E
:101C0000FFF760FE80B2A8F8000028B9013CA4B23A
:101C1000002CF2D1002041E00A250024B8F8007021
:101C20000026042F0CD1012318460293019300963D
:101C300006220221FFF730FF6420FEF7A8FE2CE009
:101C4000022F13D132463946012301940094032018
:101C5000FFF7B2FE6420FEF79AFE01940094012380
:101C6000324639460320FFF7CAFE10E00123324610
:101C7000022103200094FFF743FE6420FEF787FE55
:101C800000940123324602210320FFF757FE20B1C2
:101C9000013DADB2002DC1D1BCE7032004B0BDE8C9
:101CA000F081B0F90020642353434FF4AA7293FBF0
:101CB000F2F303F6456303807047B0F90020642314
:101CC00053434FF4AA7293FBF2F303F634030380F9
:101CD000704742F21073B0F9002053434FF44F5253
:101CE00093FBF2F303F6C413038070472DE9F84F1A
:101CF000254B264D01281CBFAA461D468946144681
:101D00002349244A06BF9A468846904621F0FAF9AC
:101D1000284621F06FFA0428074630D14FF6FF7BA2
:101D2000B9F1000F08BF4FF4FD64013405F110064E
:101D300024F001043444C5EB0A0AA64217D0B9F1D5
:101D4000000F03D13AF8061089B203E0731B4B442D
:101D500033F8101C594501D10236EEE7B0450DD9D4
:101D6000304621F001FA04280746F5D007E04FF08D
:101D70001131284621F014FA074600E0802721F0AF
:101D8000CBF93846BDE8F88F00D0070800D807081F
:101D9000FFDF0708FFD7070810B521F0B3F90748A0
:101DA00021F028FA0428044603D1054821F022FA3C
:101DB000044621F0B1F9204610BD00BF00D007084D
:101DC00000D807080131C1F34F0100239AB29142B4
:101DD0000AD9B3F57E7F09D0054A1A445200128809
:101DE00020F813200133F1E704207047802070476A
:101DF00008E8030438B50A4604460D4601460020AB
:101E0000FFF774FFC0B2042801D080B238BD2A4663
:101E100021460120FFF76AFFC0B238BD38B5164B26
:101E20001D68D3F80048B5F1113F07D1B4F1113F57
:101E300001D104201DE0621C0ED104E06B1C0BD10B
:101E4000B4F1113F08D1002211460120FFF74EFFE7
:101E5000C0B204280DD1ECE7FFF79EFFC0B2042802
:101E600007D1013504D1013414BF4020202000E007
:101E7000402080B238BD00BF00D007081FB5012147
:101E8000082020F065FF0023ADF80A30ADF80630D9
:101E90004FF6FF73ADF80830094B0A4A1B680A4C2D
:101EA000B3FBF2F304A9013B21F80C3D20461FF0DF
:101EB0002BFC012120461FF06FFD04B010BD00BFB8
:101EC000BC18002040420F00000C004072B6074BC7
:101ED0009B8C9BB262B6064A91881068994284BF77
:101EE00001301060938003EB00407047000C00400D
:101EF000F040002072B6094B9A8C92B262B6084943
:101F000008488B888A8093420B6884BF01330B603A
:101F100002EB0343A0FB033080097047000C004034
:101F2000F0400020D34D621030B472B60D4B988C47
:101F300080B262B60C490B8AD1E90245834204D9CA
:101F4000013445F10005C1E902452B04220443EAAE
:101F50001443141843F1000508822046294630BC7A
:101F6000704700BF000C0040F040002008B5012081
:101F7000FFF784FF064B00219A8C064B92B2196042
:101F8000002000219A80C3E902011A8208BD00BF27
:101F9000000C0040F04000200AB91FF0FFBB042AEB
:101FA00001D11FF03FBC082A01D11FF07FBC1FF0F8
:101FB000BFBC000030B5012185B042F2100020F016
:101FC000BBFE4FF6FF73ADF80830134B134A1B6886
:101FD000134DB3FBF2F304A9013B002421F80C3D9F
:101FE0002846ADF80A40ADF806401FF08DFB0121F0
:101FF00028461FF0D1FC2E238DF800300F238DF8DA
:102000000130684601238DF802408DF8033021F03D
:10201000CBF905B030BD00BFBC18002040420F0016
:102020000034014007B50323ADF8041001A98DF871
:1020300007208DF8063020F06FFD03B05DF804FB3B
:102040001FB50123ADF808300023ADF80A300F2387
:10205000ADF80C3004AB23F80C1D1946ADF8062082
:102060001FF0E2FC05B05DF804FB000010B50B4C5E
:10207000282240210A48FFF7D5FF022220460021EE
:10208000FFF7DEFF204602211FF081FD2046BDE85C
:102090001040012202211FF094BC00BF0034014017
:1020A0000010014030B5302385B0ADF8003000237A
:1020B0000D460446ADF80C30ADF80E30ADF80830E2
:1020C000ADF80A30ADF80230ADF804301FF051FD24
:1020D00000F51C501030ADF806002A46694620462F
:1020E000FFF75AFF05B030BD10B50F4C1022204647
:1020F0004FF40071FFF796FF002220464FF4007165
:1021000004F5105420F061FD20460C21FFF7CAFFB2
:10211000204610211FF03BFD2046BDE81040012263
:1021200010211FF04EBC00BF0010014010B50C463E
:10213000032800F2A480DFE800F002295279012987
:1021400014D1282280214E48FFF76CFF0022042181
:102150004C48FFF775FF04214A481FF018FD22463E
:10216000BDE81040042147481FF02BBC0022042189
:1021700044481FF026FC042142481FF008FDBDE83A
:102180001040482280213E48FFF74CBF012915D15D
:1021900028224FF400713A48FFF744FF00220C2137
:1021A0003848FFF74DFF102136481FF0F0FC22465B
:1021B000BDE81040102133481FF003BC002210215D
:1021C00030481FF0FEFB10212E481FF0E0FCBDE858
:1021D000104048224FF400712948FFF723BF01291E
:1021E00014D1282240212648FFF71CFF0022114667
:1021F0002448FFF725FF022122481FF0C8FC224691
:10220000BDE8104002211F481FF0DBBB0022022165
:102210001C481FF0D6FB02211A481FF0B8FCBDE88D
:102220001040482240211648FFF7FCBE012915D175
:1022300028224FF480711248FFF7F4FE0022082193
:102240001048FFF7FDFE08210E481FF0A0FC2246B3
:10225000BDE8104008210B481FF0B3BB0022082145
:1022600008481FF0AEFB082106481FF090FCBDE8AF
:10227000104048224FF480710148FFF7D3BE10BDD3
:102280000010014000340140012808B503D1BDE829
:102290000840FFF7EBBE0022022107481FF091FB28
:1022A000022105481FF073FCBDE808404822402188
:1022B0000248FFF7B7BE00BF0034014000100140E4
:1022C000012808B503D1BDE80840FFF70DBF002283
:1022D000102107481FF075FB102105481FF057FC1F
:1022E000BDE8084048224FF400710248FFF79ABE4B
:1022F0000034014000100140F8B5624D022128462B
:102300002C8C1FF039FC0128A4B22CD15E4E022186
:1023100028461FF03CFC3368DA050ED55B4A284698
:102320001388013303F01F03138016881FF014FC79
:10233000574BB6B223F8160015E014F0020F554FB4
:102340000BD028461FF008FC7881336824F0020483
:1023500043F00403A4B2336005E028461FF0FCFB01
:1023600044F002043881042146481FF005FC01288E
:102370001AD1042143481FF00AFC14F0200F454DE8
:102380000CD040481FF0EBFB3F4A6880136824F0F4
:10239000200443F00103A4B2136005E039481FF0A4
:1023A000DEFB44F020042880082136481FF0E4FBBF
:1023B00001281AD1082133481FF0E9FB14F4007FEB
:1023C000344D0CD02F481FF0CDFB2F4AE881136805
:1023D00024F4007443F00803A4B2136005E0294814
:1023E0001FF0C0FB44F40074A881264D102128463C
:1023F0001FF0C2FB012842D1234E102128461FF0B6
:10240000C6FB33689B0524D52348244AC36813F4CC
:10241000007F0BD01388B5F840204FF400711344AF
:102420009BB2A5F8403020F0CEFB28E01C490B8879
:10243000B5F8406033449BB2A5F84030194B1B8877
:1024400009885B1A9BB24FF40071138020F0B9FB2E
:1024500015E014F4005F0F4F0BD028461FF085FBEA
:10246000F880336824F4005443F00203A4B23360CC
:1024700005E028461FF079FB44F40054B880014B76
:102480001C84F8BD0034014090420020C06500204B
:10249000B82C0020A663002000100140A463002097
:1024A0001E280020AC6D0020394B3A4A1968F0B460
:1024B000CF0710680FD540F2EA451968364C21F075
:1024C0000101196026886188891B89B2A1F27B34D9
:1024D000A4B2AC424ED900241D682D49AE070FD5D9
:1024E00040F2EA470D682C4E25F002050D60B588D4
:1024F000F188491B89B2A1F27B35ADB2BD4240D90A
:102500001D6823496D070FD540F2EA470D68224E3A
:1025100025F004050D6035897189491B89B2A1F246
:102520007B35ADB2BD421ED91968194B090716D5C6
:1025300040F2EA461968184D21F008011960A9898E
:10254000EB895B1A9BB2A3F27B3189B2B14206D808
:102550006421538240F400605181106001E0002C3E
:10256000FBD1F0BC704764241481118240F4807068
:102570000124D9E764249480918140F0040001246F
:10258000AAE76424D480D18140F020000124B7E779
:1025900090420020F4600020A6630020D648016825
:1025A000CB0140F113822DE9F041D44C8AB0278849
:1025B000102F00F20C8272B6D14BD24A1B88928C3B
:1025C0009BB292B262B6D04EB58C9D4200F0FB81B8
:1025D00040F6853ECD4D35F813C0CCEB020292B2E9
:1025E000724540F2F081102FB38400F2FB8135F880
:1025F000132092B2002F00F03C8140F2EC4E013BE0
:1026000003F01F0335F81360B6B2921B92B2A2F228
:102610007A3C1FFA8CFCF445ADF8042000F2D3811B
:10262000012F00F0E583013B03F01F0335F8132071
:1026300092B2B61AB6B2A6F27A3C1FFA8CFCF445F6
:10264000ADF8066000F2BF81022F00F01281013B5D
:1026500003F01F0335F81360B6B2921B92B2A2F2D8
:102660007A3C1FFA8CFCF445ADF8082000F2AB81EF
:10267000032F00F0BD83013B03F01F0335F8132047
:1026800092B2B61AB6B2A6F27A381FFA88F8F045B6
:10269000ADF80A6000F29781042F00F0EA80013B58
:1026A00003F01F0335F81360B6B2921B92B2A2F288
:1026B0007A381FFA88F8F045ADF80C2000F28381D3
:1026C000052F00F09583013B03F01F0335F813201D
:1026D00092B2B61AB6B2A6F27A381FFA88F8F04566
:1026E000ADF80E6000F26F81062F00F0C280013B52
:1026F00003F01F0335F81360B6B2921B92B2A2F238
:102700007A381FFA88F8F045ADF8102000F25B81A6
:10271000072F00F06D83013B03F01F0335F81320F2
:1027200092B2B61AB6B2A6F27A3C1FFA8CFCF44505
:10273000ADF8126000F24781082F00F09A80013B4B
:1027400003F01F0335F81360B6B2921B92B2A2F2E7
:102750007A381FFA88F8F045ADF8142000F233817A
:10276000092F00F04583013B03F01F0335F81320C8
:1027700092B2B61AB6B2A6F27A381FFA88F8F045C5
:10278000ADF8166000F21F810A2F72D0013B03F0F2
:102790001F0335F81360B6B2921B92B2A2F27A38D8
:1027A0001FFA88F8F045ADF8182000F20C810B2FC5
:1027B00000F01E83013B03F01F0335F8132092B293
:1027C000B61AB6B2A6F27A381FFA88F8F045ADF814
:1027D0001A6000F2F8800C2F4BD0013B03F01F036E
:1027E00035F81360B6B2921B92B2A2F27A3C1FFA8D
:1027F0008CFCF445ADF81C2000F2E5800D2F00F0B4
:10280000F782013B03F01F0335F8132092B2B61A8A
:10281000B6B2A6F27A381FFA88F8F045ADF81E6015
:1028200000F2D1800E2F24D0013B03F01F0335F8B6
:102830001360B6B2921B92B2A2F27A381FFA88F8ED
:10284000F045ADF8202000F2BE80102F40F0D0827D
:10285000013B03F01F0335F8132092B2B61AB6B24B
:10286000A6F27A3C1FFA8CFCF445ADF8226000F227
:10287000AA8040F66D76013B03F01F0335F8133054
:10288000D21A92B2B24240F29E80214B03FB07F370
:1028900003F5D24378339A4200F39580002F00F07D
:1028A0008D800AAB03EB470333F8262C012F134B23
:1028B000A28000F083800AAA02EB470232F8282C9B
:1028C000022FDA807AD00AAA02EB470232F82A2CC9
:1028D000032F1A8172D00AAA02EB470232F82C2C7D
:1028E000042F5A816AD00AAA02EB470232F82E2C32
:1028F000052F9A8162D00DE0F46000205C6D00200D
:10290000C065002000340140181D0020B82C0020B4
:1029100086FCFFFF0AAA02EB470232F8302C062F92
:10292000DA814BD00AAA02EB470232F8322C072F89
:102930001A8243D00AAB03EB470333F8342C082F39
:10294000274B62823AD00AAA02EB470232F8362CB1
:10295000092F9A8232D00AAA02EB470232F8382CA9
:102960000A2FDA822AD00AAA02EB470232F83A2C5E
:102970000B2F1A8322D00AAA02EB470232F83C2C12
:102980000C2F5A831AD00AAA02EB470232F83E2CC7
:102990000D2F9A8312D00AAA02EB470232F8402C7C
:1029A0000E2FDA830AD00AAA02EB470232F8422C31
:1029B000102F1A8402D1BDF804205A8441F000611E
:1029C0006423016063800AB0BDE8F08170474AF675
:1029D00055239F423FF4EFAD0AB0BDE8F08100BF40
:1029E0005C6D002040F66D775A1E02F01F0235F82C
:1029F00013C035F812309BB2C3EB0C0C1FFA8CFCE1
:102A0000BC45ADF804C000F2F58140F2EC4EACF2EA
:102A10007A3C1FFA8CFCF445D5D8013A02F01F022B
:102A200035F812C01FFA8CFCCCEB03039BB2BB42FF
:102A3000ADF8063000F21282A3F27A339BB27345EE
:102A4000C1D8013A02F01F0235F812801FFA88F847
:102A5000C8EB0C0C1FFA8CFCBC45ADF808C000F2AA
:102A6000C481ACF27A3C1FFA8CFCF445ABD8531EFF
:102A700003F01F0335F8132092B2C2EB08081FFAC7
:102A800088F8B845ADF80A8000F2EE81A8F27A38ED
:102A90001FFA88F8F045774695D840F66D7E013BE1
:102AA00003F01F0335F81380DFF804C41FFA88F819
:102AB000C8EB020292B27245ADF80C2000F2D1814F
:102AC000A2F27A3292B2BA423FF67DAF013B03F0F6
:102AD0001F033CF8132092B2C2EB08081FFA88F8D3
:102AE000F045ADF80E8000F2C281A8F27A381FFAE4
:102AF00088F8B8453FF667AF013B03F01F033CF889
:102B000013801FFA88F8C8EB020292B27245ADF842
:102B1000102000F2AF81A2F27A3292B2BA423FF6AE
:102B200052AF013B03F01F033CF8132092B2C2EBFB
:102B300008081FFA88F8F045ADF8128000F2A0816D
:102B4000A8F27A381FFA88F8B8453FF63CAF013B47
:102B500003F01F033CF81370BFB2D21B92B2724550
:102B6000ADF8142000F2898140F2EC4EA2F27A32E4
:102B700092B272453FF627AF40F66D72013B03F00B
:102B80001F0335F813801FFA88F8C8EB0707BFB298
:102B90009742ADF8167000F27681A7F27A37BFB28D
:102BA00077453FF610AF013B03F01F033CF813706D
:102BB000BFB2C7EB08081FFA88F89045ADF8188037
:102BC00000F26481A8F27A381FFA88F8F0453FF6DF
:102BD000FAAE013B03F01F033CF813801FFA88F89C
:102BE000C8EB0707BFB29742ADF81A7000F25181E7
:102BF000A7F27A37BFB277453FF6E5AE013B03F067
:102C00001F033CF81370BFB2C7EB08081FFA88F81F
:102C10009045ADF81C8000F23F81A8F27A381FFA87
:102C200088F8F0453FF6CFAE013B03F01F033CF8B8
:102C300013E01FFA8EFECEEB0707BFB29742ADF846
:102C40001E7000F22C8140F2EC4CA7F27A37BFB232
:102C500067453FF6B8AE1746013B03F01F0835F84D
:102C60001830934D9BB2C3EB0E0292B2BA42ADF84C
:102C7000202000F21A81A2F27A3292B262453FF627
:102C8000A2AE08F1FF3808F01F0835F8182092B2FC
:102C90009B1A9BB2BB42ADF8223000F20381A3F233
:102CA0007A339BB263453FF68EAE08F1FF3808F0E9
:102CB0001F0835F81830D21A92B2BA42ADF8242063
:102CC0007FF681AE10252B46F28CF58495427FF479
:102CD0007AAE0AAD05EB430535F8266C012A754D31
:102CE000A68000F090800AAE06EB430636F8286C0A
:102CF000022AEE8040F28A800AAE06EB430636F8DE
:102D00002A6C032A2E8140F284800AAE06EB430629
:102D100036F82C6C042A6E817ED90AAE06EB430687
:102D200036F82E6C052AAE8179D90AAE06EB430639
:102D300036F8306C062AEE8174D90AAE06EB4306EB
:102D400036F8326C072A2E826FD90AAE06EB43069C
:102D500036F8346C082A6E826AD90AAE06EB43064E
:102D600036F8366C092AAE8265D90AAD05EB430503
:102D700035F8386C0A2A4F4DE6825FD90AAE06EB69
:102D8000430636F83A6C0B2A2E835AD90AAE06EB64
:102D9000430636F83C6C0C2A6E8355D90AAE06EB16
:102DA000430636F83E6C0D2AAE8350D90AAE06EBC8
:102DB000430636F8406C0E2AEE834BD9102A0AAE31
:102DC00006EB430614BF40F2DC530AAA36F8426C05
:102DD00004BF02EB430333F8443C2E8441F000610E
:102DE0006422016063846280EDE502252B466BE777
:102DF00032463EE5F38C0022F284002B7FF4E3ADF3
:102E000040F2DC53A38040F2DC53E38040F2DC5319
:102E1000238140F2DC53638140F2DC53A38140F212
:102E2000DC53E38140F2DC53238240F2DC536382C3
:102E300040F2DC53A38240F2DC53E38240F2DC53E5
:102E4000238340F2DC53638340F2DC53A38340F2DC
:102E5000DC53E38340F2DC532384BFE701252B4698
:102E600032E704252B462FE703252B462CE70525C3
:102E70002B4629E706252B4626E708252B4623E780
:102E800007252B4620E709252B461DE70A252B465B
:102E90001AE70B252B4617E70C252B4614E70D25C3
:102EA0002B4611E70F252B460EE70E252B460BE789
:102EB000B82C00205C6D0020044B1B68DB0003D5A0
:102EC00072B6034B188062B6704700BFF4600020F2
:102ED0001E2800204C4A10B49388116843B1013B6E
:102EE0009BB2012B21F0020042D9014693800123BD
:102EF000D088454C40B1013880B2012821F0100340
:102F00001ED91946E080012310893F4C40B1013899
:102F100080B2012821F0800342D919462081012383
:102F20005089394C40B1013880B2012821F48063C6
:102F30004ED96081136001E0002B62D110BC704754
:102F40000020E080080701D541F0100323F02001A4
:102F500072B62E48036823F00203036062B62C4C5D
:102F60000123208C20F400500004000C2084CBE7C7
:102F70000023CC07938001D541F0020020F004012A
:102F800072B62248036823F00103036062B6204C46
:102F90000123208C20F020000004000C2084A7E7EF
:102FA000002020814C0601D541F0800323F480717C
:102FB00072B61648036823F00403036062B6144C2B
:102FC0000123208C20F002000004000C2084A7E7DD
:102FD00000206081880548BF41F4806372B60B48C9
:102FE000016821F00801016062B6094923F4006319
:102FF00013600B8C10BC23F400731B041B0C0B849C
:1030000070470B4696E700BFF46000209042002016
:10301000003401400D4A53885BB10D4810B4013BA8
:1030200004689BB224F00071012B016002D910BC2E
:103030005380704700235380E30148BF41F0007183
:1030400021F00061016010BCF3E700BF5C6D00205F
:10305000F46000200A4A002313600A4A136040F219
:10306000DC539381D38113825382074A02F12001FA
:1030700022F8023F8A42FBD10120FEF79BBF00BF2E
:1030800090420020F46000205E6D002003282DE9AE
:10309000F84305460F463AD84FEA400808EB0009C6
:1030A000012303FA09F61B4C21B923681E4206D1FD
:1030B000BDE8F883012902D123681E4227D10021EF
:1030C0002846FFF733F872B6134B01221968AA405D
:1030D00021EA02021A6062B60723226803FA09F3A2
:1030E00022EA0303A0446422A8F8042040F2DC5240
:1030F0002360012F04EB4504A28108D1054A334324
:10310000136039462846BDE8F843FFF70FB8BDE81D
:10311000F88300BFF4600020904200202DE9F041C8
:1031200007468846244E21B93368DA010AD4BDE83F
:10313000F081012906D13368DB0103D51F4B1B88C1
:10314000834237D00020FFF79FF872B61C4803680F
:1031500023F48073036062B63368044623F030655D
:1031600000231846154A64215180164935600B80AA
:103170001549138021F813000133202BFAD140F2B6
:10318000DC51124800F1200320F8021F9842FBD1C5
:10319000B8F1010F0ED16FB145F080731780336025
:1031A00072B6236843F48073236062B6BDE8F041D1
:1031B000FEF75CBFBDE8F081F46000205C6D00208C
:1031C00090420020C0650020B82C00205E6D0020D9
:1031D0002DE9F843074688469146254D22B92B68CC
:1031E000DA000AD4BDE8F883012A06D12B68DB0097
:1031F00003D5204B1B88834238D00020FFF760F8AE
:1032000072B61D4C236823F40073236062B644F643
:10321000206140F2DC502B68184E23F080532B6065
:10322000174D144A28803180308811802988B9F1DF
:10323000010FA0EB0100134980B2088016D1A5F858
:103240000080378017803288288843F08053121A14
:1032500092B20A80064A136072B6236843F4007380
:10326000236062B6BDE8F843FEF73EBFBDE8F883D1
:10327000F4600020B663002090420020AC6D002076
:103280001E280020A4630020194B10B519889A88C5
:1032900089B2880692B20DD5164C1748238800884B
:1032A000013303F07F0380B283421FBF1348D2B2C1
:1032B000C25423800B061AD5114B124A1988138861
:1032C00089B29BB299420BD01388013303F07F037C
:1032D000138013880C4A9BB2D35C054A938010BDBF
:1032E000034A938923F080031B041B0C938110BDB8
:1032F00000480040386F00208C220020C868002061
:10330000EA4000203C730020202800200B490C4A92
:103310000B881288013303F07F0392B293420AD0E4
:10332000084AD054084A0B80938901209BB243F08D
:103330008003938170470020704700BFEA4000205F
:103340003C7300202028002000480040013938B597
:10335000451E4418A54204D015F8010FFFF7D6FF0B
:10336000F8E738BD024A00231380024A13807047F1
:103370003C730020EA400020044B1888044B80B2C4
:103380001B889BB2C01A18BF01207047386F0020FD
:103390008C22002010B50948094C2188038889B285
:1033A0009BB29942054AF8D01388013303F07F039A
:1033B00013801388034A9BB2D05C10BD8C2200207E
:1033C000386F0020C8680020024A00231380024A98
:1033D000138070478C220020386F00201FB521F425
:1033E0000073B3F5806F0CBF4FF480530023ADF82A
:1033F00004300C230090ADF80810ADF80A3069468F
:1034000000230548ADF80620ADF80C301FF0CAFDCA
:1034100005B05DF804FB00BF004800401FB5002365
:1034200000900C2269460848ADF80430ADF806302B
:10343000ADF80830ADF80A20ADF80C301FF0B2FD41
:1034400005B05DF804FB00BF0048004007B54FF42D
:1034500080630128ADF804300CBF182300238DF8D9
:10346000073001A9032304488DF806301FF054FBF0
:1034700003B05DF804FB00BF000C0140012808B553
:1034800003D1BDE80840FDF701B940F225510548D8
:1034900000221FF0FDFDBDE8084040F22551014823
:1034A0001FF01BBE004800407FB501214FF4802073
:1034B0001FF04EFC324C012109201FF03DFC4FF45F
:1034C0008063ADF8003003251823694620468DF847
:1034D00003308DF802501FF01FFB4FF40063694664
:1034E000ADF8003020464823A4F544448DF803305D
:1034F0008DF802501FF010FB02A81FF0B7FD02A9C3
:1035000020461FF0A3FD4FF4E130FFF787FF27238C
:103510008DF8043001260F2301A88DF805308DF8B1
:1035200006308DF807601FF03FFF0022204640F272
:1035300027711FF0ADFD204640F227711FF0CDFD31
:10354000204640F226611FF0C8FD0E4B00251D806D
:103550000D4B2A46204640F225511D801FF098FD54
:10356000204640F225511FF0B8FD084B31461D8022
:10357000074B20461D801FF07FFD04B070BD00BFCB
:10358000000C01403C730020EA4000208C22002007
:10359000386F002010B514460022FFF71FFF3CB91A
:1035A0002246BDE810404FF4807105481FF00DBB66
:1035B00001224FF480710248BDE810401FF005BBA6
:1035C00000080140012808B505D1FFF7FDFEBDE860
:1035D0000840FDF75BB80020FFF750FFBDE808404A
:1035E00000224FF4807101481FF0EFBA000801403B
:1035F00037B5114C012104201FF09EFB10234FF41E
:1036000080758DF8073001A9032320468DF8063018
:10361000ADF804501FF080FA0022294620461FF022
:10362000D4FAFFF741FF0020FFF710FF0020FFF75B
:10363000C9FF03B030BD00BF000801402DE9F04FC5
:10364000AD4B87B0B3F800B01BF0010F46D072B697
:10365000AA4B9B8C9BB262B6A949AA4C88880F687A
:103660009842A9482688058888BF0137B6B2ADB20E
:1036700088BF0F60AE428B8003EB074C9E4B30D06F
:1036800005469E8DDFF884E24FF000089A4B9F19A3
:103690002188038889B29BB2994218D02188038877
:1036A00089B29BB29942F9D02B887E2E03F1010397
:1036B00003F07F032B802B889BB21EF8033087F822
:1036C0002E30E5D80136B6B24FF00108DEE7B8F18A
:1036D000000F40F06E85884BC3F828C007B0BDE8E6
:1036E000F08F598C9B6A881E0128C3EB0C0340F2B3
:1036F000FD80B3F57A6FF1D3062900F2F180DFE89F
:1037000011F0E00327030902090207002401070161
:10371000794B9C8DA4F109011C2900F2E18093F8FA
:103720002E10A82940F0DC8093F82F1001F07F01C3
:10373000012940F0D58093F8301048000530A042B0
:1037400040F0CE8040F2DC5058809880D8801881BC
:1037500058819881D881188258829882D88218839B
:1037600058839883D8831884002900F0B38093F895
:10377000314093F83200012900EB04204FEAE000C9
:10378000588040F2A78093F8334093F83400022920
:1037900000EB04204FEAE000988000F09B8093F853
:1037A000354093F83600032900EB04204FEAE0008F
:1037B000D88000F08F8093F8374093F838000429C0
:1037C00000EB04204FEAE000188100F0838093F8BA
:1037D000394093F83A00052900EB04204FEAE00055
:1037E000588177D0444B062993F83B4093F83C002E
:1037F0001A4600EB04204FEAE00098816AD093F863
:103800003D4093F83E00072900EB04204FEAE0001A
:10381000D8815FD093F83F4093F84000082900EB2F
:1038200004204FEAE000188254D093F8414093F806
:103830004200092900EB04204FEAE000588249D0F9
:1038400093F8434093F844000A2900EB04204FEA20
:10385000E00098823ED093F8454093F846000B294B
:1038600000EB04204FEAE000D88233D093F84740C1
:1038700093F848000C2900EB04204FEAE00018837D
:1038800028D093F8494093F84A000D2900EB042012
:103890004FEAE00058831DD093F84B4093F84C005A
:1038A0000E2900EB04204FEAE000988312D093F831
:1038B0004D4093F84E000F2900EB04204FEAE00042
:1038C000D88307D093F84F1093F8503003EB0123BF
:1038D000DB101384084A4BF00401642311809384A5
:1038E000054A0023938507B0BDE8F08FB3F5FA6F62
:1038F000BFF402AFF2E600BF6C270020000C0040CE
:10390000F0400020386F00208C220020C868002082
:103910007C4B7D49D86A8842E2D140F2DC514BF0C1
:10392000040464201C8059809980D98019815981B0
:103930009981D981198259829982D98219835983AF
:103940009983D98319849884CAE76E4B6F48D96AE2
:1039500021F07F41814200F06D836D488142BFD1EB
:1039600093F8340093F833C093F835E000EB0C2C57
:1039700093F8360093F8377000EB0E2E93F838006A
:1039800093F8396000EB072793F83A0093F8324038
:1039900093F8318000EB062693F83B5093F83C00F7
:1039A00004EB082800EB052593F83D4093F83E0012
:1039B00093F8301093F83FA093F82F9000EB042475
:1039C00093F8400001EB092900EB0A204FF4AF61A6
:1039D00001FB00F001FB09F901FB08F893F841A095
:1039E000020B4FEA193993F8420009F5487900EBC8
:1039F0000A20A3F8029093F843A093F844904FEA6A
:103A0000183808F54878A3F8048009EB0A2801FB68
:103A10000CFC01FB0EFE01FB07F701FB06F601FBA8
:103A200005F501FB04F401FB00F001FB08F84FEA87
:103A30001C3C4FEA1E3E3F0B360B2D0B240B000B9C
:103A40004FEA18380EF5487E07F5487706F54876B0
:103A500005F5487504F5487400F548700CF5487C88
:103A600002F5487208F54878A3F808E05F819E8166
:103A7000DD811C829882A3F806C05A82A3F81680C2
:103A800093F8460093F8456093F8477000EB0626DC
:103A900093F8485093F84A0093F8494005EB0725FE
:103AA00000EB042493F84B7093F84C0093F84DE02E
:103AB00000EB072093F84E7001FB06F607EB0E278C
:103AC00001FB05F501FB04F401FB00F001FB07F12C
:103AD000360B4BF004072D0B240B000B090B06F5DE
:103AE000487605F5487504F5487400F5487001F509
:103AF00048711F8064271E835D839C83D88319844B
:103B00009F84EDE66C270020200020401B00A100D0
:103B10002300A2008C4B8D48DB6A23F07F41814259
:103B2000894B7FF4DDAE93F8461000297FF4D8AEC0
:103B300093F845100A0700F1288393F8345093F85E
:103B4000380093F8378093F8401093F8337005F0FD
:103B50000F0500F01F0093F830E0ED01800193F8AD
:103B60002FC093F83C4045EA570701F07F0140EA37
:103B7000980593F83F0093F8446009010EF0070E92
:103B800093F83B904CEA0E2E41EA101093F843C094
:103B9000196B04F03F04F60064017F0844EAD9047D
:103BA00046EA5C1CC1F3C93940084FF49671A7F589
:103BB000007701FB07F74FEA5C0CA0F50070ACF54D
:103BC000007C01FB00F06D0801FB0CF2A5F500750F
:103BD00001FB05F53F12640800970012A4F500747C
:103BE00001FB04F403901012009A2D120195059028
:103BF00002F2DC52186C0092019A2412C0F30920E0
:103C0000029402F2DC52A0F5007001FB00F0019278
:103C1000029AB3F838C0DC8F02F2DC52B3F830A05D
:103C2000B3F834805E6BCCF38917DD6BB3F83AC020
:103C30000292039AC4F38904001202F2DC5200F2E9
:103C4000DC50A4F5007401FB04F40492059A05907D
:103C5000BDF800004FEA5E0E1881B3F84200CAF3C7
:103C6000091AC8F34918C6F30946CCF3490CC5F341
:103C7000C9152412C0F3C90004F2DC54AEF5007E6D
:103C8000AAF5007AA9F50079A8F50078A6F50076DE
:103C9000A7F50077ACF5007CA5F50075A0F50070E0
:103CA00001FB0EFE01FB0AFA01FB09F901FB08F812
:103CB00001FB06F601FB07F701FB0CFC01FB05F518
:103CC000039401FB00F1BDF8044002F2DC52DC81F8
:103CD0001A84BDF80840BDF80C204FEA2E2E4FEA9A
:103CE0002A2A4FEA29294FEA282836123F124FEA9A
:103CF0002C2C2D1209129C821A83BDF81040BDF89D
:103D000014200EF2DC5E0AF2DC5A09F2DC5908F2E9
:103D1000DC5806F2DC5607F2DC570CF2DC5C05F2EC
:103D2000DC5501F2DC51A3F802E0A3F804A0A3F8EB
:103D30000690A3F80A809E811F82A3F812C0DD823C
:103D40005C839A83D983C5E56C27002019000F0096
:103D5000B74B998D10297FF4C3AD93F8309093F849
:103D6000328093F831104FEA092000F4E0600844F3
:103D70004FEA082193F834C001F4E06493F833105B
:103D800093F836E021444FEA0C2404F4E06A93F8F7
:103D9000354093F8387054446410A4F5FF724FEA2C
:103DA0000E2A93F837400AF4E06A54446410A4F5EC
:103DB000FF7400944FEA072A93F839400AF4E06A46
:103DC000544493F83A606410A4F5FF7401944FEAE8
:103DD000062A93F83B400AF4E06A93F83C505444B6
:103DE0006410A4F5FF7A2C02C5F3C30503EB450567
:103DF00040100495A0F5FF704FF4967505FB00F098
:103E00004910A1F5FF7105FB01F1C9F3C3090012C7
:103E100000F2DC50C6F3C30603EB4909A9F802001F
:103E200003EB460693F83D00C8F3C3080912039656
:103E300001F2DC5105FB02F6C7F3C307009A04F454
:103E4000E06403EB4808A8F8021003EB47072118C9
:103E50000297491005FB02F7019A4BF0040BA1F5FC
:103E6000FF71A3F800B005FB0AFA05FB02FB05FB96
:103E700001F1CCF3C30CCEF3C30E36123F1206F29F
:103E8000DC5607F2DC5703EB4C0C03EB4E0EACF8A0
:103E900002604FEA2B2BAEF80270039E029F4FEA9E
:103EA0002A2A0912049D0BF2DC5B0AF2DC5A01F2A9
:103EB000DC516420A7F802B09884A6F802A06980BB
:103EC0000EE55B4B998D10297FF40AAD40F2DC5171
:103ED00093F8309093F836E093F838704FEA092061
:103EE0004FEA0E2A93F8328093F831400AF4407A70
:103EF00000F44070AAF5FF72A0F5FF704FEA072AA0
:103F0000C7F3830793F834C004444FEA08264FF4FC
:103F1000967003EB470700FB04F4019706F4407624
:103F200093F833704FEA0C25A6F5FF763E4405F46E
:103F3000407593F83570A5F5FF752F44241293F85A
:103F400037500C44CEF3830E009403EB4E0402EB87
:103F5000050E00FB06F600FB07F700FB0EFE93F8CC
:103F600039500AF4407AAAF5FF7A5544BDF800208A
:103F700000FB05F5C9F38309C8F38308CCF3830C70
:103F800036123F124FEA2E2E0E440F448E4403EB9E
:103F9000490903EB480803EB4C0C59809980D98000
:103FA000198159819981D981198259829982D9823D
:103FB000198359839983D9831984A9F80220A8F811
:103FC0000260ACF80270A4F802E093F83A7093F83B
:103FD0003C603C022D12019A0D4404F4407493F8A5
:103FE0003B105580A4F5FF7435020C4405F4407570
:103FF00093F83D10A5F5FF75294400FB04F400FB80
:1040000001F1C7F3830520120912C6F383044BF0B4
:10401000040700F2DC5003EB450503EB440401F216
:10402000DC51642668801F809E84618058E400BF54
:104030006C27002040F2DC5A93F8320093F831806C
:1040400093F833C000EB082893F8340093F835E078
:1040500000EB0C2C93F8360093F8377000EB0E2E23
:1040600093F8380093F8396000EB072793F83A008B
:1040700093F83B5000EB062693F83C0093F83D4044
:1040800000EB052593F83E0093F8301093F82F903D
:1040900000EB042493F83F2093F8400001EB09293A
:1040A00000EB02204FF4AF6101FB09F901FB08F8B6
:1040B00001FB0CFC01FB0EFE01FB07F701FB06F602
:1040C00001FB05F501FB04F401FB00F04FEA19398F
:1040D0004FEA18384FEA1C3C4FEA1E3E3F0B360BA6
:1040E0002D0B240B000B06F5487605F5487504F5F5
:1040F000487400F5487009F5487908F548780CF5DA
:10410000487C0EF5487E07F548779E81DD8193F85F
:1041100041605882A3F80290A3F80480A3F806C077
:10412000A3F808E05F811C82A3F81AA0A3F81CA0E2
:10413000A3F81EA0A3F820A093F8424093F84350A0
:1041400093F8440004EB062400EB052093F8456047
:1041500093F8465001FB04F405EB062501FB00F043
:1041600001FB05F1240B000B090B4BF0040604F5D1
:10417000487400F5487001F5487164251E809C82E2
:10418000D88219839D84FFF7ABBB40F2DC51598084
:104190009980D980198159819981D981198259824F
:1041A0009982D982198359839983D9831984FFF716
:1041B00091BB024B9E85FFF78EBA00BF6C27002093
:1041C0000B4A938C9BB11088013B20F002019BB2FB
:1041D00089B2012B118001D9938470470023938405
:1041E000C30748BF41F0020121F00401118070476C
:1041F0006C27002010B50B4C64230021A38480227F
:10420000072304F12E0063842180A18521F0C6FBE1
:1042100040F2DC52A31C223423F8022BA342FBD130
:1042200010BD00BF6C270020174B062824D8DFE8FC
:1042300000F0040B0D151D1F2100002211464FF444
:10424000E1305A84FFF7A6B9012216E002225A840F
:104250004FF4806101220D48FFF79CB903225A8474
:104260004FF4806100220948FFF794B9042204E06A
:10427000052202E0062200E007225A8400221146AD
:104280004FF4E130FFF786B96C270020A0860100CB
:1042900008B5FFF7AFFF044B00229A840120BDE868
:1042A0000840FFF7A5B900BF6C27002070B5054690
:1042B0000C4621B9134B1B88DA0710D470BD0129B5
:1042C0000DD1104E3388DB0709D5738C834218D08B
:1042D000FFF790FF2846FFF7A7FF348070BD00204E
:1042E000FFF770F9FFF786FF012C0AD12846FFF788
:1042F0009BFF044B1C80FFF767F8BDE87040FCF79C
:10430000C5B970BD6C270020030223F0404323F0A1
:10431000FF0303F160432DE9F04383FB0345A40F42
:1043200044EA8504354EAD17C4F1000E06FB05ECDA
:10433000A4FB066767444FEA967C314E4CEA870C33
:10434000664406FB05FC4FEAE67904FB09CCA6FBB4
:10435000046767444FEA967C2A4E4CEA870C664411
:1043600006FB05FC4FEAE67904FB09CCA6FB0467D3
:104370006744B60FDFF898C046EA8706B444224E79
:10438000C0F3815006FB05EEA4FB06677744B60F29
:10439000DFF880E046EA8706B64476460EFB05F570
:1043A000F71704FB0756AEFB04453544A60F174C20
:1043B00046EA8506344483FB0445A40F44EA850499
:1043C0000228C4EB0C050CEB04030BD003280FD020
:1043D00001280BBF6D420D600B60136008BF1560B4
:1043E000BDE8F0836D425B420D601360BDE8F08371
:1043F0005B420B601560BDE8F08300BF9D2B16FF8C
:1044000060DC780B00732BC81CBB8CFC00C7EAB8BF
:10441000C03C412D20B5311D08B520F019FD4FF0ED
:104420004E5120F069FD1FF0BFF84FF0974120F08A
:1044300063FD20F03DFF08BD10F1005041F1000187
:1044400020F0404001F00041002871F1000308DA3B
:1044500010F1FF3040F040404FF0FF31013041F1AA
:104460000001002871F1000304DB10F1604041F10C
:10447000FF31704710F1005041F100017047002AF0
:1044800073F100012DE9F04308DA524263EB430374
:10449000002809DA40424FF0000E0AE0002806DA50
:1044A00040424FF0010E04E04FF0010E01E04FF0EA
:1044B000000E14464FEAE07902FB09F2002500FBEA
:1044C0000522A4FB004503FB09F11544DA1700FBA4
:1044D0000211A3FB0023A60F0B4446EA85069900B0
:1044E0009000AF0F41EA927180197941BEF1000F3F
:1044F00002D0404261EB4101BDE8F083002A73F134
:1045000000012DE9F04308DA524263EB430300282F
:1045100009DA40424FF0000E0AE0002806DA404275
:104520004FF0010E04E04FF0010E01E04FF0000EDD
:1045300014464FEAE07902FB09F2002500FB052250
:10454000A4FB004503FB09F11544DA1700FB021137
:10455000A3FB0023260C0B4446EA0546190410046D
:104560002F0C41EA124180197941BEF1000F02D0AF
:10457000404261EB4101BDE8F083002A73F1000184
:104580002DE9F04308DA524263EB4303002809DACD
:1045900040424FF0000E0AE0002806DA40424FF099
:1045A000010E04E04FF0010E01E04FF0000E144642
:1045B0004FEAE07902FB09F2002500FB0522A4FB8B
:1045C000004503FB09F11544DA1700FB0211A3FBB8
:1045D0000023260E0B4446EA0526190210022F0E70
:1045E00041EA126180197941BEF1000F02D04042C8
:1045F00061EB4101BDE8F083800A40EA815010B5CB
:104600004FF4B474A0FB0423891204FB0133920A13
:1046100042EA83526420A2FB000140F38F2010BDC8
:1046200010B5FFF709FF800A40EA81504FF4B474D7
:10463000A0FB0423891204FB0133920A42EA83524D
:104640006420A2FB000140F38F2010BD800A4FF4CC
:10465000B47240EA81508B12A0FB020102FB0311ED
:10466000820A42EA815288124FF47A71A2FB012336
:1046700001FB0033900A40EA835070470B680360E7
:104680004B685B4243608B685B428360CB685B42F4
:10469000C36070472DE9F0470F681668D1F804C071
:1046A00087FB0667D2F804804FEA967949EA8709C2
:1046B0008CFB0867D1F808E09568B60F46EA8706D4
:1046C000C6EB09098EFB0567D368CC68B60F46EACE
:1046D0008706C6EB090984FB0367B60F46EA87061F
:1046E000C6EB09060660D2F800A0D1F800908AFB5C
:1046F0000C674FEA967C4CEA870C89FB0867B60F7B
:1047000046EA8706B44483FB0E67B60F46EA87067F
:10471000B44484FB0567B60F46EA8706C6EB0C0671
:1047200046608AFB0E674FEA967E4EEA870E89FB4B
:104730000567D2F80480B50F45EA870588FB046752
:10474000D1F804C0AE44B50F45EA87058CFB03677A
:10475000B60F46EA87067544AD1B85608AFB0445A3
:10476000A70F47EA850789FB03459668A20F89686A
:1047700042EA850286FB0C4581FB0889A30F3A4477
:1047800043EA850313444FEA987242EA89029B1A6E
:10479000C360BDE8F0872DE9F04FD2F80490D1F85E
:1047A00004A00D6814688AFB096785FB0445D1F8ED
:1047B00008C0D2F80880B60FA40F46EA870644EA7C
:1047C000850426448CFB0845CB68D2F80CE0A40F86
:1047D00044EA8504264483FB0E45A40F44EA85047D
:1047E000344404600F68166887FB094586FB0AABF2
:1047F000A40F4FEA9A7944EA850449EA8B09C9EB88
:1048000004098EFB0C45A40F44EA8504C4EB090996
:1048100083FB0845A40F44EA85044C44446087FBAD
:10482000088986FB0C45D2F804B04FEA9878A40FAB
:1048300044EA850448EA8908C4EB08088BFB034571
:10484000D1F804A0A40F44EA8504C4EB08088AFB4D
:104850000E45A40F44EA85044444846087FB0E455A
:10486000D2F808C086FB0367A20F42EA85028CFBE0
:104870000A45B30F896843EA8703D21AA30F43EAB4
:10488000850381FB0B45D21AA30F43EA85031A4423
:10489000C260BDE8F08F2DE9F04FD1F80490D2F856
:1048A00004A00D68146889FB0A6785FB0445D2F8EB
:1048B00008C0D1F80880B60FA40F46EA870644EA7C
:1048C0008504264488FB0C45D368D1F80CE0A40F7E
:1048D00044EA850426448EFB0345A40F44EA85047C
:1048E0003444046017680E6887FB094586FB0AABF1
:1048F000A40F4FEA9A7944EA850449EA8B09C9EB87
:10490000040983FB0845A40F44EA8504C4EB0909A4
:104910008EFB0C45A40F44EA85044C44446087FB9D
:10492000088986FB0C45D2F804B04FEA9878A40FAA
:1049300044EA850448EA8908C4EB08088BFB0E4565
:10494000D1F804A0A40F44EA8504C4EB08088AFB4C
:104950000345A40F44EA85044444846087FB0E4564
:10496000D2F808C086FB0367A20F42EA85028CFBDF
:104970000A45B30F896843EA8703D21AA30F43EAB3
:10498000850381FB0B45D21AA30F43EA85031A4422
:10499000C260BDE8F08F2DE9F04F91E8180083FB6D
:1049A0000467B50F45EA870587B06D0001958D68EE
:1049B00085FB0367B60F85FB04AB46EA87067600E6
:1049C0000296CE6886FB03894FEA9A7343EA8B030B
:1049D00086FB04AB4FEA9A7747EA8B0785FB05AB6A
:1049E0004FEA987141EA89014FEA9A7E86FB058970
:1049F0004EEA8B0E7F0003974FEA4E07049786FB23
:104A000006674FEA987545EA89056D0005954FEAF6
:104A1000967A049D4AEA870A4FEA4A0A029FC5F13C
:104A20008046039DCAEB0606C7EB050B92E82050B3
:104A300086FB056749005B0001EB030888FB0C89D6
:104A4000B50F45EA87058BFB0E674FEA987848EA71
:104A50008908A844B50F45EA87054544056084FBED
:104A60000445A40F5B1A44EA85040199059D64007E
:104A70004D191168C4F1804483FB0167CAEB040A35
:104A80008AFB0CABB30F43EA870385FB0E674FEA43
:104A90009A7C4CEA8B0C9C44B30F43EA8703634433
:104AA0004360039D029B019E2B44059DAE1B049D0C
:104AB000641B556883FB012385FB066784FB0E4559
:104AC000920F42EA8302B30F43EA87031A44A30F0B
:104AD00043EA85031344836007B0BDE8F08F00000C
:104AE0002DE9F84F0F684C6887FB0723CE68950FB8
:104AF00045EA830580468B6884FB06014FEA907E79
:104B000083FB06AB4EEA810E83FB0701820F4FEA5F
:104B10009A7040EA8B0084FB07AB42EA8102C2EB49
:104B20000E0E4FEA9A7242EA8B0200EB020986FBF4
:104B300006014FEA907C4CEA810C83FB040186FB62
:104B40000767840F44EA810483FB0301B20F42EA42
:104B50008702AC44A41A820F0CF1604C42EA810235
:104B60001544BCF1000F05F1604563DDBEF1000F97
:104B70004FEA6E034FEA6C01D94E2DDB591ACB1761
:104B80009F070EEB0C02D317880747EA910120F02C
:104B9000D5FB80FB00AB4FEA9A7343EA8B0383FBA0
:104BA0000667B20FCF4E42EA8702164483FB0667C0
:104BB000CD4AB10F41EA87010A4483FB0223920FD9
:104BC00042EA8302C94B134480FB0301820F42EA8D
:104BD000810202F180529DE01944CB179F07CCEB74
:104BE0000E02D317880747EA910120F0A7FB80FB4C
:104BF00000AB4FEA9A7343EA8B0383FB0667B20F5D
:104C0000B84E42EA8702164483FB0667B64AB10FE4
:104C100041EA87010A4483FB0223920F42EA83029E
:104C2000B24B134480FB0301820F42EA8102C2F1BE
:104C300070426FE063D0BEF1000F4FEA6E014FEAA1
:104C40006C03A74E2DDB1944CB179F07CCEB0E024C
:104C5000D317880747EA910120F070FB80FB00AB77
:104C60004FEA9A7343EA8B0383FB0667B20F9D4EAC
:104C700042EA8702164483FB06679B4AB10F41EA6A
:104C800087010A4483FB0223920F42EA8302974B77
:104C9000134480FB0301820F42EA8102C2F14052B9
:104CA00038E0C91ACB179F070EEB0C02D317880701
:104CB00047EA910120F042FB80FB00AB4FEA9A7378
:104CC00043EA8B0383FB0667B20F864E42EA8702F4
:104CD000164483FB0667844AB10F41EA87010A4400
:104CE00083FB0223920F42EA8302804B134480FB32
:104CF0000301820F42EA810202F150420AE0BEF152
:104D0000000F02DC04D1724604E04FF0804201E063
:104D10004FF04042521052424FEA4900D317B0F1CF
:104D2000804FC8E9002370DAB0F1404F70DD80FB9E
:104D30000067B30F43EA87036D4EBA17C3F1000E45
:104D400006FB02E1A3FB06670F44B10F694E41EA7F
:104D500087010E4406FB02F14FEAE67B03FB0B11D1
:104D6000A6FB03670F44B10F634E41EA87010E446F
:104D700006FB02F14FEAE67B03FB0B11A6FB036780
:104D80000F44B60F5D4946EA870631445C4E06FB88
:104D900002EEA3FB066777444FEA967E594E4EEA31
:104DA000870E764406FB02FE4FEAE67B03FB0BEE22
:104DB000A6FB03677744B60FDFF850E146EA8706A3
:104DC000B64476460EFB02F2F71703FB0722AEFB52
:104DD00003671744B20F42EA87024B4B02F10052BD
:104DE000994202DC89009200FAE7CF17BE074FEA2A
:104DF0006009D317880746EA910120F09FFA89FBE2
:104E00000001820F42EA810204E04FF0005201E00B
:104E10004FF060425210D317002DC8E9022377DD0E
:104E2000002C2F4E4FEA64034FEA65012BDB591A21
:104E3000CB1762199F078807D31747EA910120F023
:104E40007DFA80FB0045A30F43EA850383FB0667D9
:104E5000244CB20F42EA8702144483FB0445224AE1
:104E6000A10F41EA85010A4483FB0223920F42EA23
:104E700083021E4B134480FB0301820F42EA81022E
:104E800002F18052AEE01944CB17621B9F078807DE
:104E9000D31747EA910120F051FA80FB0045A30F98
:104EA00043EA850383FB06670E4CB20F42EA870292
:104EB000144483FB04450C4AA10F41EA85010A44CE
:104EC00083FB0223920F42EA8302084B134480FBC8
:104ED0000301820F42EA8102C2F1704282E000BF08
:104EE00000D1249B80812A5F807EAACBC01BB6287C
:104EF00052EDEBFE60643B0EC060D4DE60305F14A8
:104F0000548C43FC4045871D13AE4701400990C6B1
:104F10005ED0002C374E4FEA64014FEA65032BDB6D
:104F20001944CB17621B9F078807D31747EA9101E3
:104F300020F004FA80FB0045A30F43EA850383FBBE
:104F400006672D4CB20F42EA8702144483FB0445E6
:104F50002A4AA10F41EA85010A4483FB0223920FEA
:104F600042EA8302264B134480FB0301820F42EA8C
:104F70008102C2F1405235E0C91ACB1762199F076E
:104F80008807D31747EA910120F0D8F980FB004544
:104F9000A30F43EA850383FB0667174CB20F42EA6F
:104FA0008702144483FB0445144AA10F41EA85019A
:104FB0000A4483FB0223920F42EA8302104B1344FC
:104FC00080FB0301820F42EA810202F1504209E0B4
:104FD000002C02DC04D1224604E04FF0804201E0C4
:104FE0004FF0404254106442E517C8E90445BDE85B
:104FF000F88F00BF00D1249B80812A5F807EAACBDE
:10500000C01BB6282DE9F843044691E8490083FB0C
:105010000689C9684FEA987242EA890280FB0189D1
:1050200086FB066780FB00014FEA987343EA890319
:10503000D31AB50F820F45EA870542EA81022A4456
:1050400002F16042002A5EDD002B4FEA63004FEA66
:105050006201654D2BDB411ACF171A44BE07D317E7
:10506000880746EA910120F069F980FB0067B30FD9
:1050700043EA870383FB0567B20F5C4E42EA87026F
:10508000164483FB06675A4AB10F41EA87010A4476
:1050900083FB0223920F42EA8302564B134480FBA8
:1050A0000301820F42EA810202F1805295E001443D
:1050B000CF179A1ABE07D317880746EA910120F046
:1050C0003DF980FB0067B30F43EA870383FB056765
:1050D000B20F464E42EA8702164483FB0667444AF3
:1050E000B10F41EA87010A4483FB0223920F42EA8F
:1050F0008302404B134480FB0301820F42EA81028A
:10510000C2F1704269E05ED0002B4FEA63014FEAC2
:105110006200354D2BDB0144CF179A1ABE07D31717
:10512000880746EA910120F009F980FB0067B30F78
:1051300043EA870383FB0567B20F2C4E42EA8702DE
:10514000164483FB06672A4AB10F41EA87010A44E5
:1051500083FB0223920F42EA8302264B134480FB17
:105160000301820F42EA8102C2F1405235E0091A7E
:10517000CF171A44BE07D317880746EA910120F0DB
:10518000DDF880FB0067B30F43EA870383FB056705
:10519000B20F164E42EA8702164483FB0667144A92
:1051A000B10F41EA87010A4483FB0223920F42EACE
:1051B0008302104B134480FB0301820F42EA8102F9
:1051C00002F1504209E0002B02DC04D11A4604E04F
:1051D0004FF0804201E04FF0404252105242D3174C
:1051E000C4E90023BDE8F88300D1249B80812A5FB5
:1051F000807EAACBC01BB6282DE9F04F89460B68EC
:105200000446486887B0DB0943EA406001AA694662
:10521000FFF77AF8D9F80830D9F80C00DB0943EA2F
:10522000406003AA02A9FFF76FF8019A0398029B56
:1052300082FB006783FB02AB009A4FEA967882FB01
:10524000000183FB022348EA8708950F4FEA9A770B
:1052500047EA8B07860F45EA8305D9E904AB5AEA8A
:105260000B0346EA810605D1C4F800806760A6609A
:10527000E5603EE04FEADA1005AA04A940EA4B6077
:10528000FFF742F80598049988FB00234FEA927EC5
:105290004EEA830E85FB0123920F42EA8302C2EBA2
:1052A0000E03236087FB00234FEA927E4EEA830EB3
:1052B00086FB0123920F42EA8302C2EB0E03636076
:1052C00087FB012386FB006781FB0889920F85FB22
:1052D000000142EA8302B30F43EA87031344A36049
:1052E0004FEA9872830F42EA890243EA810313442A
:1052F000E36007B0BDE8F08F002170B503460446B7
:105300000A4604310C295A63DA601A601A64DA64B6
:105310009A614FF0000503F10403F2D14FF080735E
:105320004FF08042A360636523626262A36500223E
:105330000023C4E91A232563E562A56204F170061F
:1053400004F124030FCBA4F85C502566656686E85B
:105350000F00C4F88450C4F88850C4F88C50C4F8C6
:10536000A050C4F89C50C4F89850C4F89450A4F8C5
:105370008050A4F8905070BD2DE9F84FC26C0446DF
:105380009301426D0D469201002A60DD002B4FEA29
:1053900063014FEA6207CA4E2CDBCF1BF9171A4490
:1053A0008907D31741EA970100201FF0C7FF80FB50
:1053B00000894FEA987343EA890383FB0667B20FBB
:1053C000C04E42EA8702164483FB0667BE4AB10F0D
:1053D00041EA87010A4483FB0223920F42EA8302D7
:1053E000BA4B134480FB0301820F42EA810202F1AF
:1053F000805396E00F44F9179A1A8907D31741EAA8
:10540000970100201FF09AFF80FB00894FEA9873F4
:1054100043EA890383FB0667B20FAA4E42EA87027A
:10542000164483FB0667A84AB10F41EA87010A4484
:1054300083FB0223920F42EA8302A44B134480FBB6
:105440000301820F42EA8102C2F1704369E060D039
:10545000002B4FEA63074FEA6201994E2CDB0F44A1
:10546000F9179A1A8907D317B80741EA97011FF06D
:1054700065FF80FB00894FEA987343EA890383FB49
:105480000667B20F8F4E42EA8702164483FB066717
:105490008D4AB10F41EA87010A4483FB0223920F30
:1054A00042EA8302894B134480FB0301820F42EAE4
:1054B0008102C2F1405334E07F1AF9171A44890778
:1054C000D317B80741EA97011FF038FF80FB008926
:1054D0004FEA987343EA890383FB0667B20F794E5C
:1054E00042EA8702164483FB0667774AB10F41EA16
:1054F00087010A4483FB0223920F42EA8302734B23
:10550000134480FB0301820F42EA810202F15043FF
:1055100007E0002B03DC04D04FF0404301E04FF0E4
:1055200080435A105242D317C5E90023206D8001F1
:10553000B0F1804F71DAB0F1404F71DD80FB006750
:10554000B30F43EA8703624EBA17C3F1000E06FB9E
:1055500002E1A3FB06670F44B10F5E4E41EA8701EB
:105560000E4406FB02F14FEAE67903FB0911A6FBA4
:1055700003670F44B10F584E41EA87010E4406FB02
:1055800002F14FEAE67903FB0911A6FB03670F441A
:10559000B60F524946EA87063144514E06FB02EEE9
:1055A000A3FB066777444FEA967E4E4E4EEA870E7F
:1055B000764406FB02FE4FEAE67903FB09EEA6FB02
:1055C00003677744B60FDFF824E146EA8706B6445E
:1055D00076460EFB02F2F71703FB0722AEFB0367CA
:1055E0001744B20F42EA87023F4B02F10052994240
:1055F00002DC89009200FAE74FEAE1794FEA897705
:105600004610D317880747EA91011FF097FE86FBE3
:105610000001820F42EA810204E04FF0005201E0F3
:105620004FF060425210D317C5E9022304F124065B
:10563000002200233046C5E90423294604F17007FF
:10564000FFF7DAFD96E80F0087E80F00226B606A2B
:10565000E16AA66A80FB018986FB02AB4FEA987774
:105660004FEA9A7347EA890743EA8B0381FB028971
:10567000DB1B80FB066743F35913A3614FEA987164
:10568000B30F41EA890143EA87030B4443F35913FB
:10569000E36182FB022380FB0001920F42EA830256
:1056A000830F43EA8103134403F1604343F3591327
:1056B0002362D5E90423C4E91A23BDE8F88F00BFAB
:1056C00000D1249B80812A5F807EAACBC01BB62894
:1056D00052EDEBFE60643B0EC060D4DE60305F14C0
:1056E000548C43FC4045871D13AE4701400990C6CA
:1056F0002DE9F0470446D1E90489B8EB020886B0E9
:1057000069EB03094FEAD81016460D4601AA69460F
:1057100040EA49601F46FEF7F7FDDDF800E004F1BE
:10572000280292E804038EFB0901D4F824C0019BEF
:105730004FEA907A4AEA810A83FB0C01800F40EA23
:1057400081005044606288FB0E014FEA907A4AEA79
:10575000810A82FB0301800F40EA81005044A0626D
:1057600088FB03014FEA907848EA810882FB0E012A
:10577000820F42EA8102C2EB0802E26289FB032344
:10578000910F41EA83018EFB0C23920F42EA8302C0
:10579000891A2163C5E90467C4E91A6706B0BDE840
:1057A000F0870000000000002DE9F04F9A461B8AA8
:1057B0008BB003F010039BB204468846174633B102
:1057C000B0F880302BB1013BA0F8803001E0A0F8A8
:1057D0008030B4F88030A4F85C3063B92368236467
:1057E00063686364A368A36404F13C0904F1480B93
:1057F000494600260CE0231F04F1080153F8042F4A
:10580000D3F884009942A2EB00021A64F6D1EBE7C8
:1058100051F8042F82FB0223120E42EA03228B4529
:105820001644F5D126EAE6763046FEF7F5FD4FF44C
:10583000803105460246C31700201FF07FFD59F84E
:10584000042F80FB0223120E42EA0322CB45C9F843
:105850000C20F4D1DAF80020CD4B25669A4206DC04
:10586000414620460BB0BDE8F04FFFF785BD226AE8
:10587000D4F85090D4F854C082FB0901E3694FEA90
:10588000106E4EEA012E83FB0C01000E40EA01204F
:10589000D4F818B0C0EB0E0100918CFB0B01D4F8CA
:1058A0004CE04FEA106C4CEA012C82FB0E01020E18
:1058B00042EA0122C2EB0C02019283FB0E2389FB18
:1058C0000B01120E42EA0322030E43EA0123D21A0D
:1058D000BAF812300292012B40F09B8000231A4646
:1058E0005DF82300013380FB0001000E40EA012037
:1058F000032B0244F4D186FB0223100E40EA03205E
:10590000A4F1040E04F1080600215EF8042FDEF86D
:105910001830764583FB02234FEA126242EA0322E3
:105920001144F2D101F17F42002AB8BF524282FBFA
:105930000223DAF82010120E42EA032281FB02232E
:10594000120E42EA03221044FEF766FD04F1140130
:105950004FF0000C56F8042FF368B14282FB03238A
:105960004FEA126242EA03229444F3D105F17F45E3
:10597000002DDAF81830B8BF6D42AB4225DC44F296
:105980008813DAF81CE09E4522DD72468CEAEC733F
:10599000A3EBEC73DAF824501B1A85FB03562B0E8D
:1059A00043EA0623C118CB171D060806D31745EA9C
:1059B00011211FF0C3FCC0F18070B0F1807FA8BF3F
:1059C0004FF0807020EAE07203E04FF0807200E058
:1059D0000022A16D8A42A2EB010208DA6D4B82FB24
:1059E0000323120E42EA03220A44A26508E0DAF811
:1059F000285085FB02562B0E43EA06230B44A36571
:105A0000A36D4FF0C07283FB0223110E41EA032104
:105A100025E0DAF81420604B9A421EDD05F17F453F
:105A2000002DB8BF6D42A5F52335A5F55775E917CB
:105A3000A2F52332A2F557720906D317280641EAC8
:105A400015211FF07BFCC0F18070B0F1807FA8BFF2
:105A50004FF0807020EAE07101E04FF08071BAF8F9
:105A60001050B4F8803015F0020F18BF4FF080715D
:105A7000002BE36818BF4FF08071039323696166C0
:105A8000049363690593EB0707D4039B6363049B4B
:105A9000A363059BE363002382E0DAF80000B0F122
:105AA000C45F35DDDAF804203C4B9A42EDDDD317B4
:105AB00000204FF480311FF041FCD4E91A23064640
:105AC0008946DAE90201801A61EB0301FEF7B4FCB2
:105AD0002BA3D3E90023824273EB010EBCBF104617
