:020000040800F2
:10000000287C002095070008910700089107000848
:100010009107000891070008910700080000000000
:100020000000000000000000000000009107000830
:10003000910700080000000091070008252B000828
:100040009107000891070008910700089107000830
:100050009107000891070008910700089107000820
:100060009107000891070008910700089107000810
:100070009107000891070008910700089107000800
:1000800091070008910700089107000891070008F0
:100090007DE7000819E800089107000891070008AB
:1000A00091070008910700089107000891070008D0
:1000B00091070008910700089107000891070008C0
:1000C00091070008910700089107000891070008B0
:1000D000910700087D2B00082D300008FD4C00081A
:1000E0009107000891070008910700089107000890
:1000F0009107000891070008DD3D000891070008FE
:10010000910700089107000891070008910700086F
:10011000B1CC0008DD2D0008910700089107000808
:10012000910700089107000891070008910700084F
:100130005FF808F130B5048C42EA031324F001049F
:100140002404240C0484048B058C24F0F30424047C
:10015000240C1C43114BADB29842A4B241F00101F2
:1001600012D003F5006398420ED0B0F1804F0BD04F
:10017000A3F59833984207D003F58063984203D0E3
:1001800003F58063984205D125F0020529430483D5
:10019000018430BD25F00A05F8E700BF002C0140BE
:1001A00030B5058C120225F010052D042D0C0584A8
:1001B000058B42EA033325F440752D052D0D1D43B3
:1001C000144B048C9842A4B2ADB212D003F5006374
:1001D00098420ED0B0F1804F0BD0A3F598339842DF
:1001E00007D003F58063984203D003F580639842FB
:1001F00009D124F0200444EA011444F01004A4B20C
:100200000583048430BD24F0A00441F010010C43A8
:10021000F6E700BF002C0140224A038890429BB2BF
:1002200012D002F5006290420ED0B0F1804F0BD098
:10023000A2F59832904207D002F58062904203D036
:1002400002F58062904203D14A8823F07003134381
:10025000154A904208D002F5806290421FBF23F4F5
:100260004073CA889BB2134303808B8883850B88B5
:1002700003850C4B98420FD003F5006398420BD0D6
:1002800003F54063984207D003F58063984203D09A
:1002900003F58063984201D10B7A038601238382A0
:1002A000704700BF002C014000100040038C70B567
:1002B00023F001031B041B0C0384038C8488028B32
:1002C0000D8822F073021204120C2A4323F0020359
:1002D0000D894E881B0435431B0C2B43144DA4B2CF
:1002E000A8429BB20FD005F50065A8420BD005F5DA
:1002F0004065A84207D005F58065A84203D005F502
:100300008065A8420ED14D8923F008032B438D88C8
:1003100023F004032B43CE898D8924F440743543A4
:100320002C43A4B284800283CA888286038470BD71
:10033000002C0140038C70B523F010031B041B0C30
:100340000384038C8488028B0D8822F4E642120415
:10035000120C42EA052223F020030D894E881B046B
:1003600035431B0C43EA0513114DA4B2A84292B2C7
:100370009BB203D005F50065A84213D14D8923F047
:10038000800343EA05134FF6BF751D408B88CE8965
:1003900045EA03138D8924F44064354344EA850417
:1003A0009BB2A4B284800283CA880287038470BD92
:1003B000002C0140038C70B523F480731B041B0CCC
:1003C0000384038C8288848B0D8824F073042404B6
:1003D000240C2C4323F400730D894E881B043543F1
:1003E0001B0C43EA0523114D92B2A8429BB203D0E5
:1003F00005F50065A84213D14D8923F4006343EA53
:1004000005234FF6FF351D408B88CE8945EA03232F
:100410008D8922F44052354342EA05129BB292B2D2
:100420008280CA8884838287038470BD002C014047
:10043000038C70B523F480531B041B0C0384038CC2
:100440008488828B0D8822F4E6421204120C42EA60
:10045000052223F400530D894E881B0435431B0CE1
:1004600043EA05330B4DA4B2A84292B29BB203D02B
:1004700005F50065A84205D18D8924F4804444EA3D
:100480008514A4B284808283CA88A0F840200384A3
:1004900070BD00BF002C0140038821B19BB243F026
:1004A00001030380704723F001031B041B0CF8E7D2
:1004B00083899BB212B119438181704723EA0101FC
:1004C000FAE7FFF7F5BF038B23F00C031B041B0CAB
:1004D0000383038B9BB2194301837047038B23F47F
:1004E00040631B041B0C0383038B9BB243EA012173
:1004F00089B201837047838B23F00C031B041B0C10
:100500008383838B9BB2194381837047838B23F44E
:1005100040631B041B0C8383838B9BB243EA012142
:1005200089B281837047000070B50E880D460B8933
:100530008A880446498836B9FFF7FCFDE988BDE89A
:100540007040FFF7C0BF042E06D1FFF729FEE988EF
:10055000BDE87040FFF7C2BF082EED88008C39D18E
:1005600020F480700004000C2084A68B208CB6B28E
:1005700026F0F306324342EA0313354A80B294422E
:100580009BB212D002F5006294420ED0B4F1804FBB
:100590000BD0A2F59832944207D002F580629442C3
:1005A00003D002F5806294420ED120F4007242F42E
:1005B000807242EA012292B2A38329462284204615
:1005C000BDE87040FFF797BF20F420620A4342F471
:1005D0008072F1E720F480500004000C2084A68B88
:1005E0001B0326F4407643EA02233605184A208C82
:1005F000360D3343944280B29BB212D002F50062B2
:1006000094420ED0B4F1804F0BD0A2F598329442B0
:1006100007D002F58062944203D002F580629442D2
:100620000ED120F4005242F4805242EA013292B2DA
:10063000A383294622842046BDE87040FFF766BFA9
:1006400047F6FF5202400A4342F48052F0E700BFEF
:10065000002C0140808E80B27047008F80B27047BE
:10066000808F80B27047B0F8400080B27047808CB5
:1006700080B27047038A828911EA030092B203D0E4
:10068000114214BF012000207047C94389B2018282
:10069000704780F30888704780F310887047000027
:1006A000374B82B01A6842F001021A605968354A25
:1006B0000A405A601A6822F0847222F480321A606A
:1006C0001A6822F480221A605A6822F4FE025A60E4
:1006D0004FF41F029A600022009201921A6842F4BD
:1006E00080321A601A6802F400320192009A0132D4
:1006F0000092019A1AB9009AB2F5A06FF2D11A6865
:1007000012F4003218BF01220192019A012A05D089
:100710004FF000621C4B9A6002B070471B4A116890
:1007200041F010011160116821F00301116011689E
:1007300041F0020111605A685A605A685A605A685A
:1007400042F480625A605A6822F47C125A605A68F5
:1007500042F4E8125A601A6842F080721A601A680D
:100760009201FCD55A6822F003025A605A6842F09E
:1007700002025A605A6802F00C02082AFAD1C7E74E
:10078000001002400000FFF800ED00E000200240F1
:10079000FEE7000008B50C4A0C4B0D498B420ED306
:1007A0000C480D494FF000028842B8BF40F8042BB6
:1007B000FADBFFF775FFBDE808401FF011BC52F8E7
:1007C000040F43F8040BE9E764500308000000201D
:1007D000841E0020881E0020287800204FF47F4CC3
:1007E0002DE9F047089E01F007054FEAD60E2A448E
:1007F00006F0070600EBD100954201D1BDE8F08775
:1008000006F0070905F0070ACA45574638BF4F46A4
:10081000511BC7F108078F4228BF0F46EC08045D43
:100820002CFA07F80EEBD6015FFA88F804FA0AF4FE
:1008300048FA09F844FA09F413F8019004EA0804A4
:1008400029EA080844EA08045C543D443E44D3E7DE
:100850000246006848B1036811891360D3880133E8
:100860009BB29942D38038BF1381704770B504465C
:100870000D4688B020220021684625F027FA204640
:100880000495FFF7E5FF054658B16B46044608AEF0
:100890001A4603CAB24220606160134604F108049C
:1008A000F6D1284608B070BD2DE9F041056885B93C
:1008B0000160BDE8F081002B29DA930CB34229D105
:1008C000A54201D10D60F3E7C8F800100C60BDE847
:1008D000F0818B68A84623F06047BE0C16EA230619
:1008E00038BF3E462C464FEAD37EC3F3807CA368D4
:1008F000BEEBD37F23F06042DDD1974203D1C3F337
:1009000080739C450AD1974205E01C46EFE7B2424E
:1009100006D013469E422CBF00230123002BCFD1CB
:100920002368A046002BF0D12160BDE8F0812DE9BD
:10093000F04106460F464FF6FF74002541F22108AC
:100940002A463046394623F019FF0823C0B284EA0C
:10095000002414F4004F4FEA4404A4B218BF84EA00
:100960000804013BF5D10835402DE9D12046BDE80A
:10097000F08110B54B6833B90A8B002063F309028C
:100980000A83002110BDC4681A681C60C360438AD2
:10099000013B43824A60EDE710B541F221040A446D
:1009A000914200D110BD11F8013B80EA03200823D9
:1009B00010F4004F4FEA400080B218BF6040013B86
:1009C000F6D1EDE72DE9F04F85B081468DE80A00BC
:1009D000BDF83C409346002A00F0838024B10E9B72
:1009E000002B7ED0072C2AD809F10C00FFF730FF2E
:1009F000054628B96FF00206304605B0BDE8F08F15
:100A00002022002125F062F922460E9905F11000FE
:100A100025F082F8631C2B769BF800302C4403F001
:100A20001F0363F03F032374009B294643F00043F8
:100A3000AB6009F11C00FFF737FF0126DCE74FF040
:100A400000084FF0800A45464646019B1B0A029368
:100A500000F10C0303930398FFF7FAFE0746002802
:100A6000C8D02022002125F031F9C5BB02229DF813
:100A700004303B749DF808307B740E9B691E19444A
:100A8000AC420AD9B818013211F801EFD2B20135DF
:100A9000072A80F810E0ADB2F2D1AC4208BF4FF0A7
:100AA000400A9BF80010B81801F01F0141EA4811F4
:100AB00041EA0A030374009B013243F00043BB6028
:100AC0003A76394609F11C00FFF7EEFEAC4206F11A
:100AD000010688F001084FF0000ABCD18CE7002223
:100AE000CBE76FF0010687E72DE9F04717460A8B41
:100AF0009946C2F30902C2F10603002B0646884656
:100B00001ADD00201FFA89F185B253199BB2052B1B
:100B10000BD9A94211D8B8F818300A4462F3090376
:100B2000A8F818300120BDE8F087A942F1D93C5C53
:100B300043449C760130E7E700251C23911FB1FB5D
:100B4000F3FA03FB1A1AD8F804405FFA8AF134B3B7
:100B50000123206890BB1C204A44063AB2FBF0F205
:100B60000132D2B293420CD2BAF1000F09D1304611
:100B7000FFF76EFE08B1C0F800A02060D0B10446B7
:100B800000214FF0000A1FFA89F94D451AD3B8F831
:100B90001830C3F30902914469F30903C0E73046F2
:100BA000FFF756FE044608B100230360C8F804406E
:100BB000002CE5D16FF00200BDE8F0870133DBB215
:100BC0000446C6E76A1E8BB23A44E018013312F8B5
:100BD00001EF9BB201351C2B80F804E0ADB202D0CE
:100BE000A945F2D8D1E7A945CFD93046FFF730FE65
:100BF00008B1C0F800A020600028DBD00446002126
:100C0000C3E7F8B5044615460E46242200211F46C8
:100C100025F05CF8069B00206360079B6A0923624D
:100C20004FF6FF739A4228BF1A460346A76020700A
:100C300097B204F10C059A4205D100232B6027825C
:100C40006382A382F8BD2E60013335462036F2E779
:100C500003781BB94BB2002BC8BF017070470078F6
:100C600070472DE9F7430D9E074619461046BDF81B
:100C700028900B9D9DF83040BDF8388016B9B8F12A
:100C8000000F40D11F2C3ED83B78D3B9B8F1070FE5
:100C900036D839F0030336D1424631464FF6FF705D
:100CA000FFF77AFE4FEA092920F0010009F44079A4
:100CB000400449EA0464400C44EA40244FF6FF73C0
:100CC0000DE043EA0923B8F1070F43EA0464F5D9BC
:100CD000FFF72DFE42463146FFF75EFE03468DE8E4
:100CE00040012A4621463846FFF76CFE2B78013337
:100CF000DBB21F2B88BF00232B7003B0BDE8F0834D
:100D00006FF00300F9E76FF00100F6E72DE9F74314
:100D10000E9F81460B9D9DF830009DF83480BDF8F4
:100D20003C6007B9AEBB1F2833D899F800E0BEF18C
:100D3000000F31D00C0244F080049DF8281044EAE2
:100D4000C83444EA014444EA0E04072E44EA00642D
:100D50001CD919461046FFF7EAFD32463946FFF71F
:100D60001BFE0346019600972A4621464846FFF798
:100D700029FEB8F1010F06D12B780133DBB21F2B0E
:100D800088BF00232B7003B0BDE8F0834FF6FF73DC
:100D9000E8E76FF00100F6E76FF00300F3E7C069E2
:100DA00000B108307047C3691A68C261C2681A602E
:100DB000C360438A013B4382704700002DE9F0473E
:100DC000D0F818A0044616461F4655464FF00009B5
:100DD000DFF860800DB9BDE8F087D5E90223B21ACB
:100DE00067EB0303994508BF904520D2A3692946C4
:100DF0009D4220460FD1FFF7BCFDA369D3F800A0A8
:100E0000E368C4F818A02B60638AE560013B638245
:100E100053461D46DEE7FFF7ACFD2B68E268CAF8D3
:100E200000302A60628AE560013A6282F1E72B684D
:100E3000AA46EEE780841E002DE9F04F8BB00E46E7
:100E400014460793149F8346002800F01181002F59
:100E500000F00E81531E3F2B00F20A81012A03D1BC
:100E6000079B002B40F004810023BBF8145008932B
:100E7000ED00AE42099304D3002528460BB0BDE82F
:100E8000F08F33199D42DBF80C303ABFAD1BEDB249
:100E9000254623B9DBF81030002B00F097802F2E69
:100EA00065D8C6F13008A8454FF0000328BFA84612
:100EB00000934246314608ABDBF80800FFF78EFC92
:100EC0005FFA88F94644A5EB09085FFA88F83021F3
:100ED000BBF8143003F10053063BDB000493DBF84E
:100EE0000C300393039B13B1B8F1000F43D1DBF82F
:100EF000100048B1B8F1000F06D04246CDF800907E
:100F000008AB711AFFF76AFC002DB5D060070AD054
:100F10000AAB03EBD40111F8083C624202F007026D
:100F2000134101F8083C082C57D9102C57D9202C14
:100F30008CBF08230423079A002A00F09F80B4EB9B
:100F4000C30F00F09E80082C4BD89DF92030621E04
:100F500023FA02F2D10706D54FF0FF3202FA04F469
:100F600023438DF820309DF820303B7085E7A8465C
:100F70004FF00009ABE7049BE02B28BFE02306936A
:100F80000B44B342059318D9A3EB060AD04538BFEA
:100F9000C246039828BF5FFA8AFACDF80090711A0A
:100FA00008AB52460430FFF719FCD144A8EB0A08FD
:100FB00056445FFA89F95FFA88F8049B069A059906
:100FC0009B1A0493039B1B6803938BE700932A46A9
:100FD00008AB3146DBF8080094E70123ABE70223B6
:100FE000A9E7102C11D8BDF92030621E23FA02F2B5
:100FF000D20706D54FF0FF3202FA04F42343ADF8CE
:101000002030BDF820303B8037E7202C0ED8089ADE
:10101000631E22FA03F3DB0705D54FF0FF3303FA13
:1010200004F414430894089B3B6026E7402C22D02C
:10103000DDE90889621E4046494623F09FFB0021F6
:1010400000F0010050EA01030DD0224601200021EA
:1010500023F0A0FB404261EB410140EA080041EA75
:101060000901CDE90801DDE90823C7E9002304E708
:101070006FF0010501E76FF00805FEE6012C3FF473
:1010800072AF082C7FF66FAF102CBAD9202CEAD89B
:10109000C9E730B5402A85B01FD8002A08BF012211
:1010A0000024012A0294039419D11B788DF808308A
:1010B00053070AD004AB03EBD20515F8083C5442A1
:1010C00004F00704A34005F8083C00910346002102
:1010D00002A8FFF783FB05B030BD4022E0E7082AF5
:1010E000E3D9102A03D81B88ADF80830E0E7202A9E
:1010F00002D81B680293DBE7D3E90045CDE902453E
:10110000D6E710B5CB681BB98B600B618B8210BD25
:10111000C4681A681C60C360438A013B4382CA608A
:10112000F0E700002DE9F04FD1F8009091B0C9F33D
:10113000C01504460E46CDE90223002D00F0B7800D
:10114000C9F3C03AC9F30625B9F1000F80F2C78090
:1011500019F0C04F40F0C380337C002B00F0BF80FB
:10116000BAF1020F03D02278AA4240F0B88009F009
:101170007F02BAF1020F059240F09C8019F07F0FB8
:10118000C9F30F2B01D10BF0030B33446D06059A05
:1011900093F8078045EA0A4545EA82455FEAD81395
:1011A00045EA0B05049300F098800022002310A963
:1011B00061E90823059B676800935A465346204619
:1011C000B847002800F08B80A769002F75D1294609
:1011D00004F10C00FFF74AFB074600287FD0A76107
:1011E000DDE90801FFF7A3FBF8827D7E08F01F010F
:1011F000C5F384054D1B0691C9F30461D7E90223A9
:1012000048BF2035079152EA030100F05C81DDE917
:101210000201801A61EB03010B4600210246B5482A
:10122000994208BF9042C0F04E81049B002B5FD0D2
:10123000012D00F3488118F0400F59D0DDE9022359
:10124000C7E90223202200210DEB020024F03EFD1D
:10125000DDE90223CDE9082306F108030A93337C74
:10126000ADF836B0013BDBB2ADF834309DF8183044
:101270008DF838A08DF839309DF81C3008A98DF80C
:101280003A309DF8143020468DF83B30A3689847DB
:101290007B7EC3F38402013262F386037B763B8B51
:1012A0006FF309033B831B0A6FF3C7131FE14FF072
:1012B000020A49E7C9F3074B67E73B699D428FD0B4
:1012C0003F68002FF9D1294604F10C00FFF7CEFA50
:1012D000074620B1A3693B6081E7A76917B911B040
:1012E000BDE8F08F3B699D423FF47FAF3F68F5E773
:1012F0007B7EC8F34012B2EBD31FF0D1069AC3F342
:1013000084039342EBD10499327C4FEA981300296D
:101310003AD013F001085CD1032AE0D9DDE90201DB
:10132000D31E06F10A05C7E90201DBB22A46394697
:1013300004F10C00FFF7D8FB002812DA39462046EA
:10134000FFF717FB7B7EC3F38402013262F386034F
:101350007B763B8B68F309033B831B0A68F3C71357
:10136000C5E0727A337A43EA0223BB82327C033AC5
:10137000D2B2F88A2946FFF70FFB7B7EF882C3F3CF
:10138000C01282F001021EE01BBB531E06F10805CD
:10139000DBB22A46394604F10C00FFF7A5FB002812
:1013A00014DA39462046FFF7E4FA7B7EC3F3840261
:1013B000013262F386037B76049A3B8B62F3090366
:1013C0003B83049A1B0A62F3C71390E0327C013A14
:1013D000CEE73B8B551EC3F30903052BEDB24AD86C
:1013E0001846002106F1080E8D420AD907EB000CC1
:1013F0001EF8018B0130013106288CF81A80C9B221
:10140000F2D107F11A002B440A907868ADF8343015
:101410009DF81830A9428DF839309DF81C3028BF4E
:101420000021DDE902898DF83A309DF8143038BF8B
:1014300008318DF83B304FF0000338BF89198DF823
:1014400038A00B900C91CDE90889ADF836B0F88A38
:101450007B60013A06F10801FFF79EFABB8AF88229
:10146000834203D1A36808A92046984708A92046CB
:10147000FFF747FE0CE7D7F804E0BEF1000F20D0DD
:101480004FF0060CDEF80000B8B98146A3EB0C0162
:10149000049106F1080C04985FFA89F100EB090841
:1014A000B8F11B0FADD8A942ABD21CF8011BF04418
:1014B00088F8041009F10109EDE70CF11C0C8646CF
:1014C000E0E771469DE77B7E394668F386036FF35C
:1014D000C7137B762046FFF74CFA049B002B7FF462
:1014E000AAAE7B7EC3F38402013262F386037B766D
:1014F000F5E600BF80841E0003468A8A08699A8048
:10150000186018467047436912B11943416170472A
:1015100023EA0101FAE70000B1F5807F23D00CD85F
:10152000082928D004D801291FD0042920D07047C9
:10153000202922D0402923D07047B1F5006F10D068
:1015400006D8B1F5007F0ED0B1F5806F0BD0704793
:10155000B1F5803F16D0B1F5003F16D0B1F5004F80
:1015600012D10023836104230DE0094B836070478F
:101570000823C36070471023FBE70823036170470B
:101580001023FBE70823436070471023FBE700BFED
:101590000101010008B5264B984209D10121042020
:1015A00000F07CF900210420BDE8084000F076B985
:1015B000204B984206D10121082000F06FF900214C
:1015C0000820F1E71C4B984206D10121102000F0C1
:1015D00065F900211020E7E7184B984206D1012158
:1015E000202000F05BF900212020DDE7144B984219
:1015F00006D10121402000F051F900214020D3E71D
:10160000104B984206D10121802000F047F90021BB
:101610008020C9E70C4B984208D101214FF480701B
:1016200000F03CF900214FF48070BDE708BD00BF19
:1016300000080140000C014000100140001401406E
:1016400000180140001C014000200140CB782DE92A
:10165000F041DA0648BF8A780E8803F00F0548BFCC
:10166000154316F0FF0F1AD000214FF0010E4FF076
:101670000F0C02680EFA01F737EA06040BD18C0052
:101680000CFA04F822EA080205FA04F4282B42EACC
:10169000040225D1476101310829EBD10260FF2EF8
:1016A0001CD900214FF0010E4FF00F0C426801F1E0
:1016B00008040EFA04F434EA06070BD18F000CFA82
:1016C00007F822EA080205FA07F7282B42EA070280
:1016D0000AD1446101310829E9D14260BDE8F081B5
:1016E000482B08BF0761D6E7482B08BF0461F1E724
:1016F000806880B2704701617047416170470AB1EC
:1017000001617047416170470028164A30B500F406
:101710004015B4BFD3695368B5F5401F84B210D1EA
:10172000556823F0706325F07065556019B1420D5E
:101730001201944023430B4A0028B4BFD361536085
:1017400030BDC2024DBF0322420D1201C0F303455A
:101750004CBFAA4004FA02F223EA020343F070638A
:10176000E4E700BF000001400D4B1A6842F001029F
:101770001A6059680B4A0A405A601A6822F084724B
:1017800022F480321A601A6822F480221A605A68A1
:1017900022F4FE025A604FF41F029A60704700BFA5
:1017A000001002400000FFF8034A536823F00303CF
:1017B00018435060704700BF00100240034A53684E
:1017C00023F4404318435060704700BF00100240AC
:1017D0001C4A10B5536803F00C03042B01D0082BEE
:1017E0001FD0194B036053681849C3F30313CC5C33
:1017F0000368E34043605468C4F302240C5D23FA99
:1018000004F484605468C4F3C2240C5DE340C360F4
:101810005268C2F3813211440A7CB3FBF2F30361D4
:1018200010BD53685168C3F38343CC0303F1020333
:1018300002D407494B43D5E751688903F9D40249DB
:10184000F8E700BF0010024000127A0014000020E8
:1018500000093D00044B5A6911B1104358617047AB
:1018600022EA0000FAE700BF00100240044B9A6928
:1018700011B110439861704722EA0000FAE700BFF7
:1018800000100240044BDA6911B11043D86170476F
:1018900022EA0000FAE700BF00100240044BDA68B9
:1018A00011B11043D860704722EA0000FAE700BF88
:1018B00000100240044B1A6911B1104318617047BF
:1018C00022EA0000FAE700BF001002404209012AA4
:1018D000074B07D11B6800F01F0023FA00F000F04F
:1018E00001007047022A0CBF1B6A5B6AF3E700BF66
:1018F00000100240024A536A43F0807353627047FB
:101900000010024043680A7923F4702323F48073A3
:1019100043EA02230A6810B5134343608A68CB6820
:1019200084681343084A224013434A7943EA420336
:1019300083600A7CC36A013A23F47003D2B243EA9B
:101940000253C36210BD00BFFDF7F1FF836819B1F8
:1019500043F001038360704723F00103FAE78368D3
:1019600019B143F480738360704723F48073FAE7FE
:10197000836843F00803836070478068C0F3C00049
:101980007047836843F00403836070478068C0F346
:1019900080007047836819B143F4A00383607047E7
:1019A00023F4A003FAE7092970B51BD90726A1F192
:1019B0000A04C56804EB4404A64025EA060503FAB8
:1019C00004F42C43C460062A18D81F24013A436B40
:1019D00002EB8202944023EA040301FA02F21A4362
:1019E000426370BD0724056901EB4106B44025EA56
:1019F000040503FA06F42C430461E4E70C2A0CD82E
:101A00001F24073A036B02EB8202944023EA04038B
:101A100001FA02F21A43026370BD1F240D3AC36A31
:101A200002EB8202944023EA040391401943C1620D
:101A300070BDC06C80B2704708B5214B98420BD185
:101A400001214FF48040FFF729FFBDE80840002145
:101A50004FF48040FFF722BF1A4B98420BD101216F
:101A60004FF40030FFF726FF00214FF40030BDE8AF
:101A70000840FFF71FBF144B984208D101214FF4D3
:101A80008020FFF717FF00214FF48020EFE70F4B76
:101A9000984208D101214FF40020FFF70BFF0021ED
:101AA0004FF40020E3E70A4B984208D101214FF49C
:101AB0008010FFF7FFFE00214FF48010D7E708BD2C
:101AC000003801400044004000480040004C004005
:101AD0000050004030B50D460446038A8A899BB207
:101AE000C98823F440530B4303828389A98823F4D4
:101AF000B05323F00C031B041B0C0B43298987B044
:101B00000B4369890B439BB28381838A9BB223F485
:101B100040731343838201A8FFF75AFE174A039BC1
:101B20000499944218BF19461922A3894A4313F411
:101B3000004F2B684FF0640514BF5B009B00B2FBA5
:101B4000F3F1B1FBF5F3A2891801120405FB13139D
:101B50000BD5DA003232B2FBF5F202F0070242EAAC
:101B600000039BB2238107B030BD1B013233B3FBAE
:101B7000F5F303F00F030343F3E700BF0038014020
:101B80000B8810B54C88028A23438C88C98892B28E
:101B900023430B4322F4706213439BB2038210BDB4
:101BA0000023038043808380C3807047838921B1F1
:101BB0009BB243F400538381704723F400531B040A
:101BC0001B0CF8E701F01F0310B5C1F3421401210B
:101BD000012C01FA03F105D10C3003683AB1194325
:101BE000016010BD022C0CBF10301430F5E723EA61
:101BF0000101F5E7838A9BB212B1194381827047D4
:101C000023EA0101FAE7C94389B2018070470B0A50
:101C100001219940C94389B2018070470449054BAD
:101C2000CA6802F4E0621343CB60BFF34F8FFEE754
:101C300000ED00E00400FA05410746BFC30843F089
:101C40000043430D820748BF43F080431846704766
:101C50000A88504080EA0010C0B2030983EA1223C8
:101C600043EA002383EAC0000880704713B50446A6
:101C700023786278084643EA022302A921F8023D4C
:101C8000FFF7E6FFBDF80630238002B010BD00006C
:101C90000C23024A03FB002080687047BC620208E4
:101CA0000C23034A03FB0020D0F8E408704700BF70
:101CB000BC6202080C23034A03FB0020D0F8080989
:101CC000704700BFBC6202080C23034A03FB0020DC
:101CD000D0F80C0B704700BFBC6202080C23034A0B
:101CE00003FB0020D0F8280D704700BFBC6202083B
:101CF0002DE9F04F0446154689460668DDB006EB2F
:101D0000C2039E42036088BF4368C6F3C50684BF12
:101D10000133436000F128030A9300F168030B9339
:101D200015B95DB0BDE8F08FC6F14007AF4228BFDE
:101D30002F460A9B494698193A463E4423F0ECFE4A
:101D4000402EB944A5EB0705EAD10A9B0CAAD97825
:101D5000043202F8041C997802F8031C597802F83E
:101D6000021C13F8041B02F8011C0B999942EED1D6
:101D70000022A3680193E3680293236903936369D4
:101D80000493A3690593E3690693236A0793636A3F
:101D900008931CAB0CA951F8221043F82210013211
:101DA000102AF7D14CAF1E469A6B53F8040F4FEA36
:101DB000F24181EA724181EA9221726A36689F4259
:101DC00032444FEAB04686EAF016114486EAD00063
:101DD0000144D963E7D14FF0000E049B039E029F9C
:101DE0000198DDF81CC0DDF81880DDF820A0059909
:101DF00009934FEAF12301EA080B83EAB1132CEAB5
:101E0000010282EA0B0283EA716313441CAA52F8AE
:101E10002E2007EA060B13441E4A52F82E200EF11C
:101E2000010E1344534486EA07024FEA703A8AEAE5
:101E3000B00A024082EA0B028AEAB05A9244099A36
:101E4000BEF1400F1A44934653440996E24619D115
:101E5000019A1A44029BA2600344E360039B3B4443
:101E60002361049B33446361059B00265B44A361AB
:101E7000069B0B44E361079B43442362089B634436
:101E800063624DE73E46C4460746884618465946B3
:101E9000AFE700BFF46F020880232DE9F04104464C
:101EA0000E46056892B0C5F3C5070DF148084722F4
:101EB00000210DF10100C7F1770708F8483D07F050
:101EC0003F0723F003FF12AB3B442A0A03F8412CDF
:101ED0002A0C03F8422C626803F8405C110A03F8EC
:101EE000442C03F8451C110C120E03F8461C03F891
:101EF000472C2D0E07F109024146204603F8435CAA
:101F0000FFF7F6FEE37A3370A37A7370637AB370E7
:101F1000237AF370E37B3371A37B737112B0BDE856
:101F2000F08109B923F0D2BE23F0F6BD70B5C478B4
:101F30000D46142C064628BF1424142200212846DE
:101F400023F0C4FE224606F10C012846BDE870408D
:101F500023F0E2BD70B5C4780D46172C064628BFA5
:101F6000172417220021284623F0B0FE224606F14E
:101F70000C012846BDE8704023F0CEBD70B5C47892
:101F80000D46232C064628BF232423220021284661
:101F900023F09CFE224606F10C012846BDE8704065
:101FA00023F0BABD70B5C4780D46212C064628BF73
:101FB000212421220021284623F088FE224606F112
:101FC0000C012846BDE8704023F0A6BD70B5C4786A
:101FD0000D46FE2C064628BFFE24FE220021284680
:101FE00023F074FE224606F10C012846BDE870403D
:101FF00023F092BD70B5C4780D46852C064628BFE7
:10200000852485220021284623F060FE224606F121
:102010000C012846BDE8704023F07EBD094B9A694B
:1020200012F0700F0DD000229A61074A51680131F9
:102030005160127F12B99B695B0702D5034A014BBD
:102040009A60704700640040881E002080808000F5
:10205000022B0AD140F2DA739A4236D11CA3D3E99B
:1020600000230120C1E900237047012B2DD1013A43
:102070000A2A2AD8DFE802F00629290D142929297D
:10208000291B220014A3D3E900230120C1E9002366
:10209000704713A3D3E900230120C1E9002370474F
:1020A00011A3D3E900230120C1E90023704710A345
:1020B000D3E900230120C1E9002370470EA3D3E92F
:1020C00000230120C1E9002370470020704700BFB2
:1020D000851E4BCFD9D4A25A9E6AC421818A46EE6E
:1020E000042B31ECA7766FBEF017304A39059E56A7
:1020F000CDD269EBC51A133BD5A4D139F922B6A7C5
:1021000010B5074C40F225512046FFF780FD2046D0
:10211000BDE81040012240F22551FFF753BD00BF3A
:102120000038014010B5074C40F225512046FFF71A
:102130006EFD2046BDE81040012240F22551FFF718
:1021400041BD00BF0050004010B5074C40F2255182
:102150002046FFF75CFD2046BDE81040012240F21A
:102160002551FFF72FBD00BF0044004010B5074CBC
:1021700040F225512046FFF74AFD2046BDE81040B9
:10218000012240F22551FFF71DBD00BF004800406D
:10219000024A538C43F0100353847047827200202C
:1021A00010B5074C40F225512046FFF730FD204680
:1021B000BDE81040012240F22551FFF703BD00BFEA
:1021C000004C0040382310B50D4C0221E36020463E
:1021D0002361FFF7A1F920461021FFF79DF90023A5
:1021E000084A20461380084A022113800122FFF783
:1021F0008AF92046BDE8104001221021FFF783B97B
:1022000000640040D0350020343800202DE9F04F24
:10221000784DA7B02E7C044616F0020F9DF8C00042
:102220009DF8C470A9461FD16D6915B12D7805F0D0
:10223000010507F10A0004F10A0A2044012F00F207
:10224000BA80FD20207000206770A570E07099F8BA
:102250000A00A271E3711A0A1B0C207161712272CB
:1022600063724FF00A0B0EE0FE256070257099F83E
:102270000A500746A5704FF0060B002504F1060A28
:10228000E170227163714FF6FF7299F80A301FFAFC
:102290008BF808F1FF360133B6B289F80A300136FF
:1022A00026AB23F8682D2644621C964240F08B80B2
:1022B0005646BDF8302026AB23F8822DBAB20192E3
:1022C0000AEB0702964240F0888019469DF8C80044
:1022D000FFF7BEFCBDF8163033701B0A7370002D7B
:1022E00060D0D9F81410002900F081800B78DB074A
:1022F0007DD54B7810318DF8203051E90223CDE99E
:102300000623CDF82120BDF81C00013243F1000363
:10231000ADF8250041E9022300230C930D93364BC1
:1023200020220E93354B0CA80F93354B1093354B51
:102330001193354B1293354B1393354B149303F193
:102340007453A3F52303A3F692431593FFF7D0FC30
:1023500021465A460CA8FFF7CBFC3A4651460CA83A
:10236000FFF7C6FC314602220CA8FFF7C1FC07228A
:1023700008A90CA8FFF7BCFC0DF127010CA8FFF77A
:102380008BFD023608AB0AAC1A4603CAA242306083
:102390007160134606F10806F6D10D25106830600D
:1023A00013793371019B4344184602300544A8B2A7
:1023B00027B0BDE8F08F10F8016D002E7FF441AF1B
:1023C000013FFFB23AE712F8010B1946029301925E
:1023D000FFF73EFC029B019A67E7194616F8010BCE
:1023E00003920293FFF734FC039A029B6AE70025ED
:1023F000D8E700BFF423002067E6096A85AE67BB13
:1024000072F36E3C3AF54FA57F520E518C68059BD6
:10241000ABD9831FF0B51746164A0546127C0E4607
:1024200012F0020F14BF06200A206FF037012C189B
:1024300029540022642085B06270A070E27021717E
:1024400062711946A01D0822FFF76BFD0A9904F17D
:102450000E000822FFF765FDD923029316233A46A2
:102460000193009331464FF496732846FFF7CEFE52
:1024700005B0F0BDF423002000EB800043001846B7
:102480000138FDD87047402808B5024609D8BDE894
:102490000840C0EB401002EB8000C00080B2FFF7A4
:1024A000EBBF4FF47A70FFF7E7FF013A92B2002AD0
:1024B000F7D108BD028810B58488531C2340448896
:1024C0009C421FBF8468A1540380012008BF0020E4
:1024D00010BD438802889A4209D08268D35C0B7091
:1024E00043888288013313404380012070470020D5
:1024F0007047428803889B1A9BB21A0441BF8088A8
:1025000001301B1898B258BF1846704770B5044682
:1025100023F086FD002180B2431E8AB29A4203DA7C
:10252000A65C4D1C302E08D0821A89B22144204668
:10253000BDE87040013223F065BB2946EDE710B5D8
:1025400030240C70632806D830211170092808D86F
:102550003030187010BD0C78643801340C70C0B283
:10256000F0E711780A3801311170C0B2EEE770B5AA
:10257000302542F20F76049C0D70B04210D8302105
:102580001170B0F57A7F13D230221A70632816D8F2
:1025900030232370092818D8059B3030187070BD7F
:1025A0000D78A0F51C50013510380D7080B2E4E7AD
:1025B0001178A0F57A700131117080B2E1E71A78D4
:1025C000643801321A7080B2E0E723780A380133A8
:1025D000237080B2DEE700002DE9F0474FF03008AD
:1025E000DDF820C0DDF824E00A9F0B9E0C9D0D9CB9
:1025F000DFF8F890DFF8F8A081F80080484532D87D
:102600003021DFF8F080DFF8F0901170404532D8CB
:1026100030223349DFF8E4801A70884230D8302302
:10262000304A8CF8003090422FD830232E4A8EF852
:102630000030904233D8302342F20F723B70904208
:1026400036D830233370B0F57A7F38D230232B70F0
:1026500063283AD83023237009283BD80E9B3030AA
:102660001870BDE8F08791F80080504408F1010827
:1026700081F80080C2E71178484401311170C5E744
:102680001A78404401321A70C7E79CF80030A0F570
:10269000742001338CF80030A0F51070C3E79EF869
:1026A0000030A0F5C33001338EF80030A038C0E709
:1026B0003B78A0F51C5001333B701038BFE73378EE
:1026C000A0F57A7001333370BDE72B78643801339D
:1026D0002B70BDE723780A3801332370BCE700BFB5
:1026E0007F9698003F420F009F860100FFC99A3BEA
:1026F000003665C4FFE0F505001F0AFA806967FF30
:1027000010B58B1C4A1C0C46FFF719FF0023E37021
:1027100010BD13B50028B5BF2D2320230B700B70FF
:10272000B8BF404201F10503B8BF00B201930B1DD1
:102730000C4600938A1CCB1C80B20131FFF717FFB7
:102740000023A37102B010BD10B501F1090388B0D8
:10275000069301F108030593CB1D04938B1D03938E
:102760004B1D02930B1D0193CB1C00934A1C8B1C29
:102770000C46FFF731FF0023A37208B010BD0028FC
:10278000B4BF2D23202310B5B4BF0B700B7088B0DD
:1027900001F10A03069301F10903059301F108030E
:1027A000049301F10703039301F10603029301F17E
:1027B0000503019301F104030C46009301F10202A9
:1027C00001F10303B8BF40420131FFF705FF0023C9
:1027D000E37208B010BD0A2330B501221C468342C3
:1027E00007D90A24531E1BB2002B06DA00238B5490
:1027F00030BD013292B26343F1E7B0FBF4F504FB64
:1028000015003030C854013B28461BB2ECE70000ED
:1028100010B5034C2146FFF7DEFF204610BD00BF78
:10282000B9620020014608B5064820F09BFF01214F
:10283000044820F0A8FF0028F9D0024820F094FFB7
:10284000C0B208BD003C004030B51F4B8DB0ADF8A4
:1028500002005868002440F0F000586058681B4D92
:1028600040F470605860A3F5E333A3F5FA73019365
:102870004FF480530A93802301320291284601A924
:10288000049205940794089409940B940394069376
:1028900020F0C2FE0DF102030293102306940C4CAB
:1028A00001A92046039320F0B7FE2846012120F01D
:1028B000D1FE2046012120F0CDFE01220321054852
:1028C00020F047FF0DB030BD000402400804024074
:1028D0001C040240003C004008B50A4820F0D4FE29
:1028E00070B100220321084820F033FF002107487F
:1028F00020F0B0FE0021064820F0ACFE002008BD0C
:10290000012008BD02000010003C00400804024005
:102910001C04024070B506460A4C0D4620464FF492
:102920000041FEF7EAFE46F08000FFF77BFFFF2044
:10293000FFF778FF4FF4004128702046FEF7DBFEDA
:10294000012070BD0008014073B516460C460DF11C
:1029500007011D46FFF7DEFFA11B481C0121B14006
:102960009DF807300139814019400141297002B0BA
:1029700070BD000070B506460D460A4C4FF400418C
:102980002046FEF7BAFE06F07F00FFF74BFF284611
:10299000FFF748FF20464FF40041FEF7ACFE012050
:1029A00070BD00BF00080140F7B517460E460DF197
:1029B000070105461C46FFF7ADFF0121F31B01335C
:1029C00001FA07F29C409DF80710013A9A40E4B2E0
:1029D00021EA02012240114328468DF80710FFF733
:1029E000C9FF03B0F0BD0000054AC000138800F025
:1029F000380023F038031B041B0C0343138070477B
:102A0000003C004070B5032410254FF4004688B008
:102A100001214FF40040FEF735FF01210920FEF7A8
:102A200025FF01213948FEF76FFE01210420FEF742
:102A30001DFF4FF400413648FEF75DFE02A9344801
:102A40008DF80B508DF80A40ADF80860FEF7FEFDDA
:102A500031462F48FEF74FFE2823ADF808301823E3
:102A600002A92C488DF80B308DF80A40FEF7EEFDD8
:102A7000482302A92748ADF808508DF80B308DF88F
:102A80000A40FEF7E3FD4FF48273ADF80E300223E7
:102A9000ADF812304FF40073ADF81630382300242F
:102AA0000125ADF81830072303A91B48ADF81C30E9
:102AB000ADF80C40ADF81040ADF81450ADF81A4028
:102AC00020F01CFE2146144820F051FE29461248F1
:102AD00020F033FE0221104820F055FE0028F9D0E6
:102AE0000D4820F041FEADF80600BDF806300B4859
:102AF0009BB2ADF8063020F015FD094820F012FD1C
:102B000001210220FEF7A6FE08B070BD00023000D1
:102B100000080140000C0140003C00400804024055
:102B20001C0402400122034BDA831A6A01321A6242
:102B3000704700BF881E002000210B4B0B4AD98331
:102B400019620B4BF0201B68B3FBF2F240F2DC532E
:102B50005343084A013B5360074B83F82300072384
:102B600091601360704700BF881E002040420F0034
:102B70000000002010E000E000ED00E0194B10B56F
:102B8000198889B28A060FD5174C18489A88238865
:102B900000880133C3F3080380B2834292B21FBF9F
:102BA0001348D2B2C25423800B061AD5114B124AD5
:102BB0001988138889B29BB299420BD013880133CC
:102BC000C3F30803138013880C4A9BB2D35C054AF5
:102BD000938010BD034A938923F080031B041B0CD0
:102BE000938110BD003801408A5A0020F81E002051
:102BF000F02100200C360020A0440020F02E002000
:102C00000B490C4A0B8812880133C3F3080392B2B4
:102C100093420AD0084AD054084A0B809389012075
:102C20009BB243F08003938170470020704700BF40
:102C30000C360020A0440020F02E00200038014077
:102C4000013938B5451E4418A54200D138BD15F8E4
:102C5000010FFFF7D5FFF7E7044B1888044B80B24C
:102C60001B889BB2C01A18BF012070478A5A0020E7
:102C7000F81E00200848094A0188138889B29BB2CF
:102C80009942F9D013880133C3F3080313801388E2
:102C9000034A9BB2D05C70478A5A0020F81E00207D
:102CA000F02100200023024A1380024A138070475B
:102CB000F81E00208A5A00201FB500230C22009025
:102CC00069460848ADF80430ADF80630ADF8083074
:102CD000ADF80A20ADF80C30FEF7FCFE05B05DF84B
:102CE00004FB00BF003801407FB5012144F205001C
:102CF000FEF7BCFD4FF400730325ADF80030182338
:102D00002D4C694620468DF803308DF80250FEF7B1
:102D10009DFC4FF48063ADF800304823694620469F
:102D20008DF8033004F540548DF80250FEF78EFC08
:102D300002A8FEF735FF02A92046FEF721FF4FF457
:102D4000E130FFF7B9FF252301268DF804300F236A
:102D5000002501A88DF805308DF806308DF8076044
:102D600020F09EFC0022204640F22771FEF72AFF49
:102D7000204640F22771FEF74AFF204640F22661C6
:102D8000FEF745FF0D4B2A461D800D4B204640F2B5
:102D900025511D80FEF716FF204640F22551FEF713
:102DA00036FF084B31461D80074B20461D80FEF73D
:102DB000FDFE04B070BD00BF00080140A04400202B
:102DC0000C360020F81E00208A5A002008B5FFF7B4
:102DD0008BFFBDE80840FFF793B90000194B10B511
:102DE000198889B28A060FD5174C18489A88238803
:102DF00000880133C3F3080380B2834292B21FBF3D
:102E00001348D2B2C25423800B061AD5114B124A72
:102E10001988138889B29BB299420BD01388013369
:102E2000C3F30803138013880C4A9BB2D35C054A92
:102E3000938010BD034A938923F080031B041B0C6D
:102E4000938110BD0050004096420020C8420020EF
:102E5000F06B0020DE350020E6670020046E0020C5
:102E60000B490C4A0B8812880133C3F3080392B252
:102E700093420AD0084AD054084A0B809389012013
:102E80009BB243F08003938170470020704700BFDE
:102E9000DE350020E6670020046E00200050004070
:102EA000044B1888044B80B21B889BB2C01A18BF11
:102EB0000120704796420020C84200200848094A75
:102EC0000188138889B29BB29942F9D013880133E3
:102ED000C3F3080313801388034A9BB2D05C704786
:102EE00096420020C8420020F06B00200023024AD6
:102EF0001380024A13807047C84200209642002087
:102F00001FB500230C22009069460848ADF8043034
:102F1000ADF80630ADF80830ADF80A20ADF80C3049
:102F2000FEF7D8FD05B05DF804FB00BF005000407F
:102F30007FB501214FF48010FEF7A4FC0121312060
:102F4000FEF794FC4FF480530324ADF800301823AF
:102F500069462B488DF803308DF80240FEF776FB6A
:102F60000423ADF80030482369468DF80240254817
:102F7000254C8DF80330FEF769FB02A8FEF710FE22
:102F800002A92046FEF7FCFD4FF4E130FFF7B8FF41
:102F9000352301268DF804300F23002501A88DF874
:102FA00005308DF806308DF8076020F079FB00229F
:102FB000204640F22771FEF705FE204640F22771B9
:102FC000FEF725FE204640F22661FEF720FE0F4B5D
:102FD0002A461D800E4B204640F225511D80FEF7EB
:102FE000F1FD204640F22551FEF711FE094B314616
:102FF0001D80094B20461D80FEF7D8FD04B070BD32
:10300000001001400014014000500040E66700201D
:10301000DE350020C84200209642002008B5FFF7A8
:1030200087FFBDE80840FFF77DB80000194B10B5D9
:10303000198889B28A060FD5174C18489A882388B0
:1030400000880133C3F3080380B2834292B21FBFEA
:103050001348D2B2C25423800B061AD5114B124A20
:103060001988138889B29BB299420BD01388013317
:10307000C3F30803138013880C4A9BB2D35C054A40
:10308000938010BD034A938923F080031B041B0C1B
:10309000938110BD00440040D6700020E84F00200E
:1030A000421F0020B04400209A620020F23000202D
:1030B0000B490C4A0B8812880133C3F3080392B200
:1030C00093420AD0084AD054084A0B8093890120C1
:1030D0009BB243F08003938170470020704700BF8C
:1030E000B04400209A620020F230002000440040EA
:1030F000044B1888044B80B21B889BB2C01A18BFBF
:1031000001207047D6700020E84F00200848094A87
:103110000188138889B29BB29942F9D01388013390
:10312000C3F3080313801388034A9BB2D05C704733
:10313000D6700020E84F0020421F00200023024AE2
:103140001380024A13807047E84F0020D670002099
:103150001FB500230C22009069460848ADF80430E2
:10316000ADF80630ADF80830ADF80A20ADF80C30F7
:10317000FEF7B0FC05B05DF804FB00BF0044004062
:103180007FB501214FF40030FEF77CFB01210520C3
:10319000FEF76CFB04230325ADF8003018232D4CFB
:1031A000694620468DF803308DF80250FEF74EFA3E
:1031B0000823ADF800304823694620468DF80330D7
:1031C000A4F544448DF80250FEF740FA02A8FEF739
:1031D000E7FC02A92046FEF7D3FC4FF4E130FFF7ED
:1031E000B7FF262301268DF804300F23002501A800
:1031F0008DF805308DF806308DF8076020F050FA14
:103200000022204640F22771FEF7DCFC204640F207
:103210002771FEF7FCFC204640F22661FEF7F7FC22
:103220000D4B2A461D800D4B204640F225511D8036
:10323000FEF7C8FC204640F22551FEF7E8FC084B9B
:1032400031461D80074B20461D80FEF7AFFC04B0C1
:1032500070BD00BF000801409A620020B044002009
:10326000E84F0020D670002008B5FFF789FFBDE8C1
:103270000840FEF769BF012307211A466B20FFF7BC
:1032800093BB012303211A466A20FFF78DBB00235D
:10329000012206216B20FFF787BB03460322022190
:1032A0006B20FFF781BB01461920FFF763BB014686
:1032B0001920FFF72FBB0346032202211A20FFF734
:1032C00073BB0346032202211A20FFF73DBB0346CE
:1032D000022204211B20FFF767BB034602220421C0
:1032E0001B20FFF731BB0346022204211C20FFF7FD
:1032F0005BBB0346022204211C20FFF725BB10B54F
:10330000044600F00703032202211A20FFF74CFBBA
:10331000C4F301130222BDE8104001211B20FFF776
:1033200043BB13B5032204460DF1060302211A2004
:10333000FFF70AFB0DF10703022201211B20FFF713
:1033400003FB9DF8063003F00703237002B010BDA5
:1033500010B5044600F00703032202211D20FFF7E9
:1033600023FBC4F300130122BDE8104003211D20FC
:10337000FFF71ABB13B5032204460DF10603022121
:103380001D20FFF7E1FA0DF10703012203211D20A3
:10339000FFF7DAFA9DF807309DF806201B0102F0CE
:1033A000070203F010031343237002B010BD0000A6
:1033B00038B500250C4C752021462570FFF7AAFA78
:1033C00001280BD12378682B0DD0712B08D0122B3C
:1033D00008D0422B14BF2846042038BD284638BDEB
:1033E000022038BD032038BDE03500202DE9F04132
:1033F00080460F4616461D460A209DF81840FFF7E6
:103400003BF84046FFF749FF3846FFF760FF30467C
:10341000FFF751FF2846FFF766FF2046FFF743FFFF
:10342000BDE8F041FFF733BFF7B50F460A20164657
:103430001D46FFF721F80DF10700FFF74EFF9DF83D
:1034400007400A20BC4214BF02240024FFF714F8EE
:103450000DF10700FFF735FF9DF807300A20B34252
:1034600018BF44F00404FFF707F80DF10700FFF759
:1034700040FF9DF807300A20AB4218BF44F0080413
:10348000FEF7FAFF0DF10700FFF711FF9DF8072087
:103490009DF820309A4218BF44F01004204603B033
:1034A000F0BD2DE9F8438146884617461E460A209E
:1034B0009DF820509DF82440FEF7DEFF4846FFF7B8
:1034C000ECFE4046FFF703FF3846FFF718FF304693
:1034D000FFF709FF2846FFF73BFF2046FFF7E3FE13
:1034E000BDE8F843FFF7D3BEF7B50F460A201646EE
:1034F0001D46FEF7C1FF0DF10700FFF7EEFE9DF838
:1035000007400A20BC4214BF02240024FEF7B4FF87
:103510000DF10700FFF705FF9DF807300A20B342C1
:1035200018BF44F00404FEF7A7FF0DF10700FFF7F2
:10353000E0FE9DF807300A20AB4218BF44F00804B3
:10354000FEF79AFF0DF10700FFF7B1FE9DF8072087
:103550009DF824300A209A4218BF44F01004FEF768
:103560008BFF0DF10700FFF705FF9DF807209DF881
:1035700020309A4218BF44F02004204603B0F0BD2A
:10358000F7B5144607460E46112001211D46FFF7E8
:10359000F1F942F21070FEF76FFF0A20FEF76CFFA0
:1035A0000DF107011320FFF7B5F99DF8071013205F
:1035B00021F0070141F00501FFF7DCF90A20FEF7D1
:1035C0005BFF0DF107014C20FFF7A4F99DF80710F0
:1035D0004C2041F00301FFF7CDF90A20FEF74CFF24
:1035E0000DF107014E20FFF795F99DF807104E20C9
:1035F00021F03F0141F00F01FFF7BCF94FF47A7061
:10360000FEF73AFF0A20FEF737FF0DF107014F20C2
:10361000FFF780F99DF8071004F00F0401F0100186
:10362000214341EA4711C9B24F20FFF7A3F90A200D
:10363000FEF722FF0DF107015020FFF76BF99DF80F
:10364000071044EA461401F010012143C9B250208A
:10365000FFF790F90A20FEF70FFF0DF10701512047
:10366000FFF758F99DF824209DF80710920002F00A
:103670000C0221F00C0111435120FFF77BF90A20C5
:10368000FEF7FAFE0DF107015220FFF743F99DF80E
:1036900007109DF8203005F00F05294341EA03117A
:1036A000C9B25220FFF766F90A20FEF7E5FE0DF1D8
:1036B00007015320FFF72EF99DF828309DF80710D9
:1036C000DB0003F0180321F0180119435320FFF722
:1036D00051F903B0F0BD0023F0B507460A2485B0C8
:1036E00003800A20FEF7C8FEFFF762FE80B2388032
:1036F00030B9013CA4B2002CF3D1002005B0F0BDDC
:103700000A2500243E88042E0DD1012306221846E6
:103710000293019302210094FFF732FF6420FEF729
:10372000B2FE0320EAE7022E18D10123002231461F
:10373000032001940094FFF7B4FE6420FEF7A3FE7B
:10374000019400940123002231460320FFF7CCFEB0
:10375000B0B1013DADB2002DD4D1CEE7012300229E
:10376000022100940320FFF741FE6420FEF78BFE48
:1037700000940123002202210320FFF755FEE7E712
:103780000320BBE76423B0F9002053434FF4AA722F
:1037900093FBF2F303F64563038070476423B0F9AB
:1037A000002053434FF4AA7293FBF2F303F6340361
:1037B0000380704742F21073B0F9002053434FF476
:1037C0004F5293FBF2F303F6C413038070470000DB
:1037D0002DE9F84F254B264D01281CBFAA461D4652
:1037E000894614462349244A06BF9A46884690468D
:1037F0001FF0FEFD28461FF075FE042807462ED157
:10380000B9F1000F08BF4FF4FD644FF6FF7B0134A0
:1038100005F1100624F001043444AAEB050AA6427F
:1038200006D14FF0113128461FF030FE074616E052
:10383000B9F1000F06D13AF8061089B2594506D100
:103840000236ECE7731B4B4433F8101CF6E7B04527
:103850000AD930461FF0FEFD04280746F0D01FF0BD
:10386000D1FD3846BDE8F88F8027F8E700D007087B
:1038700000D80708FFDF0708FFD7070810B51FF0BB
:10388000B7FD07481FF02EFE0428044603D1054863
:103890001FF028FE04461FF0B5FD204610BD00BFF6
:1038A00000D0070800D80708002310B501310A4CE2
:1038B000C1F34F019AB2914201D8042010BDB3F573
:1038C0007E7F06D01A195200128820F81320013387
:1038D000F0E7802010BD00BF08E8030438B50A46B1
:1038E00004460D4601460020FFF772FFC0B20428CF
:1038F00001D080B238BD2A4621460120FFF768FF7B
:10390000C0B238BD38B5154B1D68D3F80048B5F1C5
:10391000113F10D1B4F1113F02D1042080B238BD63
:10392000621C0DD1002201201146FFF751FFC0B2E9
:103930000428F3D1F1E76B1C02D1B4F1113FF1D0AF
:10394000FFF79CFFC0B20428E8D1013504D101344F
:1039500014BF40202020E1E74020DFE700D0070827
:103960001FB501210820FDF78DFF0023ADF80A30B7
:10397000ADF806304FF6FF73ADF80830094B0A4A30
:103980001B680A4CB3FBF2F304A9013B21F80C3D80
:103990002046FCF741FC01212046FCF77DFD04B0E8
:1039A00010BD00BF0000002040420F00000C00408E
:1039B00072B6074B9B8C9BB262B6064A9188106820
:1039C000994284BF01301060938003EB0040704740
:1039D000000C0040D042002072B6094B9A8C92B283
:1039E00062B6084908488B888A8093420B6884BF76
:1039F00001330B6002EB0343A0FB033080097047E7
:103A0000000C0040D0420020D34D621030B472B69A
:103A10000D4B988C80B262B60C490B8AD1E90245F5
:103A2000834204D9013445F10005C1E902452B0464
:103A3000220443EA1443141843F100050882204687
:103A4000294630BC704700BF000C0040D042002027
:103A500008B50120FFF784FF0021064B00209A8C57
:103A6000054B92B2196000219A80C3E902011A82C3
:103A700008BD00BF000C0040D04200200AB9FCF78E
:103A800015BC042A01D1FCF755BC082A01D1FCF76A
:103A900091BCFCF7CDBC000030B5012185B042F2ED
:103AA0001000FDF7E3FE4FF6FF73ADF80830134B3F
:103AB000134A1B680024B3FBF2F3124D013B04A927
:103AC00021F80C3D2846ADF80A40ADF80640FCF759
:103AD000A3FB01212846FCF7DFFC2E238DF80030E4
:103AE0000F238DF80130012368468DF802408DF8D0
:103AF00003301FF0D5FD05B030BD00BF0000002031
:103B000040420F0000340140032307B5ADF8041014
:103B100001A98DF807208DF80630FDF797FD03B059
:103B20005DF804FB1FB50123ADF808300023ADF8A4
:103B30000A300F23ADF80C3004AB23F80C1D1946E6
:103B4000ADF80620FCF7F0FC05B05DF804FB0000C2
:103B500010B50B4C282240210A48FFF7D5FF02225E
:103B600020460021FFF7DEFF20460221FCF78DFDF5
:103B70002046BDE8104001220221FCF7A2BC00BF94
:103B80000034014000100140302330B585B0ADF85D
:103B9000003000230D460446ADF80C30ADF80E3071
:103BA000ADF80830ADF80A30ADF80230ADF80430A9
:103BB000FCF75DFD00F51C501030ADF806002A46FC
:103BC00069462046FFF75AFF05B030BD10B50F4CCF
:103BD000102220464FF40071FFF796FF0022204686
:103BE0004FF4007104F51054FDF789FD20460C21B7
:103BF000FFF7CAFF20461021FCF747FD2046BDE82D
:103C0000104001221021FCF75CBC00BF00100140F5
:103C100010B50C46032800F2A480DFE800F002296A
:103C20005279012914D1282280214E48FFF76CFFD8
:103C3000002204214C48FFF775FF04214A48FCF795
:103C400024FD2246BDE8104004214748FCF739BC5A
:103C5000002204214448FCF734FC04214248FCF7CC
:103C600014FDBDE81040482280213E48FFF74CBFBC
:103C7000012915D128224FF400713A48FFF744FF7B
:103C800000220C213848FFF74DFF10213648FCF781
:103C9000FCFC2246BDE8104010213348FCF711BC63
:103CA000002210213048FCF70CFC10212E48FCF7B4
:103CB000ECFCBDE8104048224FF400712948FFF7A2
:103CC00023BF012914D1282240212648FFF71CFFD9
:103CD000002225481146FFF725FF02212248FCF764
:103CE000D4FC2246BDE8104002211F48FCF7E9BB86
:103CF000002202211C48FCF7E4FB02211A48FCF7D1
:103D0000C4FCBDE81040482240211648FFF7FCBE25
:103D1000012915D128224FF480711248FFF7F4FED3
:103D2000002208211048FFF7FDFE08210E48FCF78D
:103D3000ACFC2246BDE8104008210B48FCF7C1BB93
:103D4000002208210848FCF7BCFB08210648FCF7C4
:103D50009CFCBDE8104048224FF480710148FFF7F9
:103D6000D3BE10BD0010014000340140012808B549
:103D700003D1BDE80840FFF7EBBE0022022107484F
:103D8000FCF79FFB02210548FCF77FFCBDE80840DB
:103D9000482240210248FFF7B7BE00BF003401406F
:103DA00000100140012808B503D1BDE80840FFF725
:103DB0000DBF002210210748FCF783FB10210548A6
:103DC000FCF763FCBDE8084048224FF4007102484C
:103DD000FFF79ABE0034014000100140F8B5624D73
:103DE000022128462C8CFCF745FC0128A4B215D1F1
:103DF0005E4E02212846FCF748FC3368DA0564D59C
:103E00005B4A28461388013303F01F03138016888A
:103E1000FCF720FC574BB6B223F816000421524899
:103E2000FCF728FC012813D104214F48FCF72DFC96
:103E300014F0200F504D5FD04B48FCF70EFC4B4A5E
:103E40006880136824F0200443F00103A4B21360D7
:103E500008214548FCF70EFC012813D108214248EF
:103E6000FCF713FC14F4007F434D4CD03E48FCF7A4
:103E7000F7FB3E4AE881136824F4007443F008031A
:103E8000A4B21360384D10212846FCF7F3FB01283B
:103E900018D1364E10212846FCF7F7FB33689B05F6
:103EA0004BD53648364AC36813F4007F32D01288A7
:103EB000B5F840304FF4007113449BB2A5F8403080
:103EC000FDF71BFC284B1C84F8BD14F0020F2A4F91
:103ED0000BD02846FCF7BEFB7881336824F002043F
:103EE00043F00403A4B2336098E72846FCF7B2FB22
:103EF00044F00204388191E71B48FCF7AEFB44F024
:103F000020042880A4E71848FCF7AAFB44F40074B6
:103F1000A881B7E71B490E88B5F8403033449BB2FF
:103F2000A5F84030184B1B8809885B1A9BB24FF4E8
:103F300000711380FDF7DFFBC4E714F4005F0E4F40
:103F40000BD02846FCF78FFBF880336824F400542C
:103F500043F00203A4B23360B4E72846FCF783FBC6
:103F600044F40054B880ADE70034014070440020B0
:103F7000EC670020982E0020D26500200010014040
:103F8000D06500207E29002054700020384B394A2B
:103F90001968F0B4CF0710680FD540F2EA451968E8
:103FA000354C21F00101196026886188891B89B28E
:103FB000A1F27B34A4B2AC424BD9002419688E071D
:103FC0000FD540F2EA4619682B4D21F00201196025
:103FD000AF88E988C91B89B2A1F27B35ADB2B54281
:103FE0003ED919684D070FD540F2EA461968224DAF
:103FF00021F0040119602F896989C91B89B2A1F2D6
:104000007B35ADB2B5421DD91968090716D540F206
:10401000EA461968184D21F008011960A989EB8951
:104020005B1A9BB2A3F27B3189B2B14206D86421FC
:10403000538240F400605181106001E0002CFBD1FC
:10404000F0BC704764250124118240F48070158112
:10405000DAE764249181948040F004000124ADE704
:1040600064250124D18140F02000D580B9E700BF4C
:1040700070440020E0620020D2650020D54801682D
:10408000CB0140F110822DE9F043D34C8BB027884F
:10409000102F00F2098272B6D04BD14A1B88928C45
:1040A0009BB292B262B6CF4EB58C9D4200F0F881C1
:1040B00040F6853ECC4D35F813C0A2EB0C0292B20F
:1040C000724540F2ED81102FB38400F2F58135F88E
:1040D000132092B2002F00F03C8140F2EC4E013BE5
:1040E00003F01F0335F81360B6B2921B92B2A2F22E
:1040F0007A3C1FFA8CFCF445ADF8042000F2D08124
:10410000012F00F0BF83013B03F01F0335F813209C
:1041100092B2B61AB6B2A6F27A3C1FFA8CFCF445FB
:10412000ADF8066000F2BC81022F00F01281013B65
:1041300003F01F0335F81360B6B2921B92B2A2F2DD
:104140007A3C1FFA8CFCF445ADF8082000F2A881F7
:10415000032F00F09783013B03F01F0335F8132072
:1041600092B2B61AB6B2A6F27A3C1FFA8CFCF445AB
:10417000ADF80A6000F29481042F00F0EA80013B60
:1041800003F01F0335F81360B6B2921B92B2A2F28D
:104190007A3C1FFA8CFCF445ADF80C2000F28081CB
:1041A000052F00F06F83013B03F01F0335F8132048
:1041B00092B2B61AB6B2A6F27A3C1FFA8CFCF4455B
:1041C000ADF80E6000F26C81062F00F0C280013B5A
:1041D00003F01F0335F81360B6B2921B92B2A2F23D
:1041E0007A3C1FFA8CFCF445ADF8102000F258819F
:1041F000072F00F04783013B03F01F0335F813201E
:1042000092B2B61AB6B2A6F27A3C1FFA8CFCF4450A
:10421000ADF8126000F24481082F00F09A80013B53
:1042200003F01F0335F81360B6B2921B92B2A2F2EC
:104230007A3C1FFA8CFCF445ADF8142000F2308172
:10424000092F00F01F83013B03F01F0335F81320F3
:1042500092B2B61AB6B2A6F27A3C1FFA8CFCF445BA
:10426000ADF8166000F21C810A2F72D0013B03F0FA
:104270001F0335F81360B6B2921B92B2A2F27A3CD9
:104280001FFA8CFCF445ADF8182000F209810B2FC1
:1042900000F0F882013B03F01F0335F8132092B2BF
:1042A000B61AB6B2A6F27A3C1FFA8CFCF445ADF809
:1042B0001A6000F2F5800C2F4BD0013B03F01F0376
:1042C00035F81360B6B2921B92B2A2F27A3C1FFA92
:1042D0008CFCF445ADF81C2000F2E2800D2F00F0BC
:1042E000D182013B03F01F0335F8132092B2B61AB6
:1042F000B6B2A6F27A3C1FFA8CFCF445ADF81E600B
:1043000000F2CE800E2F24D0013B03F01F0335F8BE
:104310001360B6B2921B92B2A2F27A3C1FFA8CFCE6
:10432000F445ADF8202000F2BB80102F40F0AA82A7
:10433000013B03F01F0335F8132092B2B61AB6B250
:10434000A6F27A3C1FFA8CFCF445ADF8226000F22C
:10435000A78040F66D76013B03F01F0335F813305C
:10436000D21A92B2B24240F29B8046F678151F4BA9
:1043700003FB07539A4200F39380002F00F08B80D9
:104380000AAB03EB470333F8263C012FA38000F070
:1043900082800AAB03EB470333F8283C022FE3800B
:1043A00079D00AAB03EB470333F82A3C032F238170
:1043B00071D00AAB03EB470333F82C3C042F638125
:1043C00069D00AAB03EB470333F82E3C052FA381DA
:1043D00061D00DE0E062002004700020EC67002056
:1043E00000340140881E0020982E002086FCFFFF2C
:1043F0000AAB03EB470333F8303C062FE3814AD086
:104400000AAB03EB470333F8323C072F238242D039
:104410000AAB03EB470333F8343C082F63823AD0EE
:104420000AAB03EB470333F8363C092FA38232D0A3
:104430000AAB03EB470333F8383C0A2FE3822AD058
:104440000AAB03EB470333F83A3C0B2F238322D00C
:104450000AAB03EB470333F83C3C0C2F63831AD0C1
:104460000AAB03EB470333F83E3C0D2FA38312D076
:104470000AAB03EB470333F8403C0E2FE3830AD02B
:104480000AAB03EB470333F8423C102F238402D1DD
:10449000BDF804306384642341F0006101606380EF
:1044A0000BB0BDE8F08370474AF655239F423FF4B6
:1044B000F2AD0BB0BDE8F08340F66D7E5A1E02F0FF
:1044C0001F0235F8137035F812301FFA83F8A7EB86
:1044D0000807BFB27745ADF8047000F2D58140F20D
:1044E000EC4CA7F27A37BFB26745D9D8013A02F04F
:1044F0001F0235F812309FB2A8EB07039BB2734539
:10450000ADF8063000F2F481A3F27A339BB2634532
:10451000C6D8013A02F01F0835F8182092B2BB1A2B
:104520009BB27345ADF8083000F2A981A3F27A334B
:104530009BB26345B4D808F1FF3303F01F0335F88D
:104540001370BFB2D21B92B27245ADF80A2000F2CE
:10455000D581A2F27A3292B26245E646A0D840F600
:104560006D7C013B03F01F0335F8132092B2BF1A94
:10457000BFB26745ADF80C7000F2BD81A7F27A3783
:10458000BFB277458CD8013B03F01F0335F8137099
:10459000BFB2D21B92B26245ADF80E2000F2B181DB
:1045A000A2F27A3292B272453FF67AAF013B03F043
:1045B0001F0335F813201FFA82F9A7EB090292B204
:1045C0006245ADF8102000F29F81A2F27A3292B2D9
:1045D00072453FF665AF013B03F01F0335F813202A
:1045E0001FFA82F8A9EB080292B26245ADF81220D8
:1045F00000F29081A2F27A3292B272453FF650AF49
:10460000013B03F01F0335F81370BFB2A8EB07029C
:1046100092B26245ADF8142000F27981A2F27A32AA
:1046200092B272453FF63CAF013B03F01F0335F8F1
:10463000132092B2BF1ABFB26745ADF8167000F2F0
:104640006C81A7F27A37BFB277453FF629AF013BBD
:1046500003F01F0335F81370BFB2D21B92B262454C
:10466000ADF8182000F25C81A2F27A3292B2724563
:104670003FF616AF013B03F01F0335F8132092B24B
:10468000BF1ABFB26745ADF81A7000F24C81A7F2AD
:104690007A37BFB277453FF603AF013B03F01F0304
:1046A00035F81370BFB2D21B92B26245ADF81C2030
:1046B00000F23C81A2F27A3292B272453FF6F0AE3D
:1046C000013B03F01F0335F813E01FFA8EFEA7EB42
:1046D0000E0292B26245ADF81E2000F22A8140F22D
:1046E000EC47A2F27A3292B2BA423FF6D9AE013B1F
:1046F00003F01F0335F813201FFA82F8AEEB08020F
:1047000092B26245ADF8202000F21981A2F27A320D
:1047100092B2BA423FF6C4AE013B03F01F0335F834
:1047200013E01FFA8EFEA8EB0E0292B26245ADF8BE
:10473000222000F20181A2F27A3292B2BA423FF60E
:10474000AFAE013B03F01F0335F81330AEEB0303AC
:104750009BB26345ADF824307FF6A2AE10252B4600
:10476000F28CF58495427FF49BAE0AAD05EB4305D0
:1047700035F8265C012AA58000F08F800AAD05EB94
:10478000430535F8285C022AE58040F289800AADAD
:1047900005EB430535F82A5C032A258140F2838026
:1047A0000AAD05EB430535F82C5C042A65817DD9FB
:1047B0000AAD05EB430535F82E5C052AA58178D9AD
:1047C0000AAD05EB430535F8305C062AE58173D95F
:1047D0000AAD05EB430535F8325C072A25826ED910
:1047E0000AAD05EB430535F8345C082A658269D9C2
:1047F0000AAD05EB430535F8365C092AA58264D974
:104800000AAD05EB430535F8385C0A2AE5825FD925
:104810000AAD05EB430535F83A5C0B2A25835AD9D6
:104820000AAD05EB430535F83C5C0C2A658355D988
:104830000AAD05EB430535F83E5C0D2AA58350D93A
:104840000AAD05EB430535F8405C0E2AE5834BD9EC
:10485000102A0AAD05EB430514BF40F2DC530AAA47
:1048600035F8425C04BF02EB430333F8443C258433
:10487000642241F0006101606384628010E60225D9
:104880002B466DE7324664E50022F38CF284002B60
:104890007FF406AE40F2DC53A38040F2DC53E380A9
:1048A00040F2DC53238140F2DC53638140F2DC535D
:1048B000A38140F2DC53E38140F2DC53238240F2D7
:1048C000DC53638240F2DC53A38240F2DC53E38288
:1048D00040F2DC53238340F2DC53638340F2DC5329
:1048E000A38340F2DC53E38340F2DC532384BFE72D
:1048F00001252B4634E704252B4631E703252B46BB
:104900002EE705252B462BE706252B4628E708250D
:104910002B4625E707252B4622E709252B461FE7CF
:104920000A252B461CE70B252B4619E70C252B46A1
:1049300016E70D252B4613E70F252B4610E70E250E
:104940002B460DE7044B1B68DB0003D572B6034B07
:10495000188062B6704700BFE06200207E29002008
:104960004A4B10B49A88196842B1013A92B2012AAE
:1049700021F002003FD99A8001460122D88840B137
:10498000013880B2012821F010021CD91146012201
:10499000D880188940B1013880B2012821F0800206
:1049A00041D9114601221881588940B1013880B29D
:1049B000012821F480624ED958811A6001E0002A52
:1049C00062D110BC70470020D880080701D541F0A3
:1049D000100222F0200172B62D48026822F0020275
:1049E000026062B62B4C0122208C20F4005000049F
:1049F000000C2084CDE70022CC079A8001D541F03D
:104A0000020020F0040172B62148026822F001027F
:104A1000026062B61F4C0122208C20F020000004AE
:104A2000000C2084AAE700204C06188101D541F033
:104A3000800222F4807172B61548026822F00402E6
:104A4000026062B6134C0122208C20F002000004A8
:104A5000000C2084A8E700205881880548BF41F455
:104A6000806272B60A48016821F00801016062B6EE
:104A7000084922F400621A600B8C10BC23F4007306
:104A80001B041B0C0B8470470A4696E7E06200206B
:104A900070440020003401400D4A53885BB10D483A
:104AA00010B4013B04689BB224F00071012B01603B
:104AB00002D910BC5380704700235380E30148BFE4
:104AC00041F0007121F00061016010BCF3E700BF0C
:104AD00004700020E06200200023094A09491360A5
:104AE00040F2DC5208480B608A81CA810A824A82FD
:104AF00019180233202B8A80FAD10120FEF7CCBF8F
:104B000070440020E06200200470002003282DE99A
:104B1000F84304460F4639D801264FEA400808EB0F
:104B2000000906FA09F61A4D21B92B681E4206D172
:104B3000BDE8F883012902D12B681E4226D100214D
:104B40002046FFF765F872B60120124BA0401968A5
:104B500021EA0001196062B6072303FA09F22B6803
:104B600040F2DC5123EA02036422A844A8F804209E
:104B7000012F05EB44022B60918107D11E432E606B
:104B800039462046BDE8F843FFF742B8BDE8F88350
:104B9000E0620020704400202DE9F041074688467D
:104BA000234E21B93368DA010AD4BDE8F081012926
:104BB00006D13368DB0103D51E4B1B88834235D0F9
:104BC0000020FFF7D3F872B61B4C236823F48073E0
:104BD000236062B63368642123F0306500231846F1
:104BE000144A35605180154913800B80144921F80F
:104BF00013000133202BFAD1002040F2DC511318AE
:104C0000023020289980FAD1B8F1010F0ED16FB18E
:104C100045F080751780356072B6236843F4807361
:104C2000236062B6BDE8F041FEF792BFBDE8F081B7
:104C3000E06200200470002070440020EC67002037
:104C4000982E00202DE9F047804689469246254C53
:104C500022B92368DA000AD4BDE8F087012A06D118
:104C60002368DB0003D5204B1B88834238D000200B
:104C7000FFF798F872B61D4D2B6823F400732B6074
:104C800062B644F6206140F2DC50194E194F164AC4
:104C9000308039803888118031882368401A16495D
:104CA00023F0805380B2BAF1010F2360088017D13E
:104CB000A6F80090A7F80080A2F800803A88308813
:104CC00043F08053121A92B20A80236072B62B68A6
:104CD00043F400732B6062B6BDE8F047FEF776BF81
:104CE000BDE8F087E0620020E2650020704400200B
:104CF0007E29002054700020D0650020184B10B58C
:104D000019889A8889B2880692B20CD5154C164833
:104D1000238800880133DBB280B283421FBF13486F
:104D2000D2B2C25423800B0619D5114B114A1988EF
:104D3000138889B29BB299420AD013880133DBB23F
:104D4000138013880C4A9BB2D35C054A938010BD34
:104D5000034A938923F080031B041B0C938110BD2D
:104D600000480040E8710020F0230020F06A002095
:104D7000CA420020EC750020802900200A490B4A15
:104D80000B8812880133DBB292B293420AD0084AF0
:104D9000D054084A0B80938901209BB243F08003D2
:104DA0009381704700207047CA420020EC750020B4
:104DB00080290020004800400023024A1380024A54
:104DC00013807047EC750020CA420020044B1888FD
:104DD000044B80B21B889BB2C01A18BF01207047D9
:104DE000E8710020F02300200848094A0188138850
:104DF00089B29BB29942F9D013880133DBB2138098
:104E00001388044A9BB2D05C704700BFE871002051
:104E1000F0230020F06A00200023024A1380024A97
:104E200013807047F0230020E87100201FB521F4A3
:104E30000073B3F5806F0CBF4FF480530023ADF8BF
:104E400004300C23ADF80A3000230090ADF80810B0
:104E500005486946ADF80620ADF80C30FCF73AFE7F
:104E600005B05DF804FB00BF004800401FB50023FB
:104E70000C22009069460848ADF80430ADF80630C1
:104E8000ADF80830ADF80A20ADF80C30FCF722FE82
:104E900005B05DF804FB00BF004800404FF480639C
:104EA00007B50128ADF804300CBF182300238DF896
:104EB0000730032301A904488DF80630FCF7C6FB30
:104EC00003B05DF804FB00BF000C0140012808B5E9
:104ED00003D1BDE80840FDF749B940F22551054826
:104EE0000022FCF76FFEBDE8084040F22551014862
:104EF000FCF78DBE004800407FB501214FF48020B3
:104F0000FCF7C0FC01210920FCF7B0FC4FF48063E2
:104F10000325ADF8003018232D4C694620468DF846
:104F200003308DF80250FCF791FB4FF40063ADF8AD
:104F300000304823694620468DF80330A4F54444E8
:104F40008DF80250FCF782FB02A8FCF729FE02A9AB
:104F50002046FCF715FE4FF4E130FFF787FF2723CB
:104F600001268DF804300F23002501A88DF80530A7
:104F70008DF806308DF807601EF092FB0022204667
:104F800040F22771FCF71EFE204640F22771FCF725
:104F90003EFE204640F22661FCF739FE0D4B2A46C4
:104FA0001D800D4B204640F225511D80FCF70AFE66
:104FB000204640F22551FCF72AFE084B31461D8061
:104FC000074B20461D80FCF7F1FD04B070BD00BF0B
:104FD000000C0140EC750020CA420020F0230020A4
:104FE000E871002010B514460022FFF71FFF3CB9FE
:104FF0002246BDE810404FF480710548FCF77FBBA6
:105000000122BDE810404FF480710148FCF777BBE6
:1050100000080140012808B505D1FFF7FDFEBDE8F5
:105020000840FDF7A3B80020FFF750FFBDE8084097
:1050300000224FF480710148FCF761BB0008014079
:1050400037B501210420FCF711FC10234FF48075C3
:105050008DF8073003230C4C01A920468DF806304B
:10506000ADF80450FCF7F2FA002229462046FCF77E
:1050700046FBFFF741FF0020FFF710FF0020FFF77E
:10508000C9FF03B030BD00BF000801402DE9F04F5B
:10509000B54B87B0B3F800A01AF0010F42D072B63A
:1050A000B24AB2F824E01FFA8EFE62B6B04AB14CA2
:1050B0009188B148714516682588018888BF0136F6
:1050C000ADB289B288BF16608D42A2F804E00EEB43
:1050D000064E2AD04FF0000C9D8DA84F5E192188F6
:1050E000028889B292B2914216D02188028889B290
:1050F00092B29142F9D002887E2D02F10102D2B221
:105100000280028892B2BA5C86F82E20E7D84FF06F
:10511000010C6544ADB2E1E7BCF1000F40F06485DD
:10512000C3F828E007B0BDE8F08F5A8C986A911E4A
:105130000129AEEB000E40F2F780BEF57A6FF1D395
:10514000062A00F2EC80DFE812F0D7031F03090201
:10515000090207001F01F400988DA0F109021C2A22
:1051600000F2DD8093F82E20A82A40F0D88093F832
:105170002F2002F07F02012A40F0D18093F83020E6
:1051800051000531814240F0CA807D49C3F80210C8
:10519000C3F80610C3F80A10C3F80E10C3F81210B3
:1051A000C3F81610C3F81A10C3F81E10002A00F036
:1051B000B18093F8310093F83210012A01EB0021FD
:1051C0004FEAE101598040F2A58093F8330093F84B
:1051D0003410022A01EB00214FEAE101998000F02E
:1051E000998093F8350093F83610032A01EB0021DB
:1051F0004FEAE101D98000F08D8093F8370093F8F1
:105200003810042A01EB00214FEAE101198100F076
:10521000818093F8390093F83A10052A01EB0021B8
:105220004FEAE101598175D093F83B0093F83C10A7
:10523000062A01EB00214FEAE10199816AD093F837
:105240003D0093F83E10072A01EB00214FEAE101EF
:10525000D9815FD093F83F0093F84010082A01EB02
:1052600000214FEAE101198254D093F8410093F8EC
:105270004210092A01EB00214FEAE101598249D08D
:1052800093F8430093F844100A2A01EB00214FEAF7
:10529000E10199823ED093F8450093F846100B2A1D
:1052A00001EB00214FEAE101D98233D093F84700A6
:1052B00093F848100C2A01EB00214FEAE101198311
:1052C00028D093F8490093F84A100D2A01EB0021E9
:1052D0004FEAE10159831DD093F84B0093F84C102D
:1052E0000E2A01EB00214FEAE101998312D093F8D5
:1052F0004D0093F84E100F2A01EB00214FEAE10117
:10530000D98307D093F84F1093F8502002EB012275
:10531000D2101A8464224AF0040119809A8400226F
:105320009A8507B0BDE8F08FBEF5FA6FBFF408AFFD
:10533000F8E6144AD96A9142F1D16421104A4AF040
:10534000040018809984C3F80220C3F80620C3F82B
:105350000A20C3F80E20C3F81220C3F81620C3F8A1
:105360001A20C3F81E20DAE7CC280020000C0040E9
:10537000D0420020E8710020F0230020F06A0020D5
:10538000DC05DC0520002040DA6A724922F07F4209
:105390008A4200F06F8370498A42C0D14FF4AF62F5
:1053A00093F8310093F8329093F836C009EB002956
:1053B00093F8350093F838E00CEB002C93F83700A5
:1053C00093F83A700EEB002E93F8390093F82F40C3
:1053D00093F8301007EB002793F83C6093F83B00FC
:1053E00001EB042193F8348093F8334002FB01F180
:1053F00006EB002693F83E5093F83D0008EB042896
:1054000005EB002593F83F4093F84000090B00EBB3
:10541000042493F8410000910190009893F8421001
:1054200000F54870009001984FF0640B01EB0020EC
:1054300002FB00F0000B00F548700190BDF8000081
:1054400093F84310588093F8440002FB09F902FBDB
:1054500008F802FB0CFC00EB012102FB05F502FB46
:1054600004F402FB01F14FEA19394FEA18384FEA08
:105470001C3C09F5487908F548780CF5487C02FB96
:1054800006F62D0B240BA3F80490090BA3F8068055
:10549000A3F808C0BDF8040005F5487504F5487484
:1054A00001F5487102FB07F71D825C829882D98260
:1054B00093F8470093F8451093F8465093F8484006
:1054C00005EB012504EB002493F84910360B93F803
:1054D0004A0006F5487600EB01203F0BDE8193F889
:1054E0004C1093F84B6007F5487701EB06219F813C
:1054F00093F84E6093F84D7002FB0EFE06EB072604
:1055000002FB05F502FB04F402FB00F002FB01F1D3
:1055100002FB06F24FEA1E3E2D0B240B000B090B7B
:10552000120B0EF5487E4AF0040605F5487504F5A1
:10553000487400F5487001F5487102F54872A3F807
:105540000AE01E801D835C839883D9831A84A3F8A4
:1055500024B0E4E61B00A1002300A200DA6AE549BA
:1055600022F07F428A427FF4DAAE93F84620002A86
:105570007FF4D5AE93F84520120700F122834FF453
:10558000967293F8344093F8337093F83C0004F02B
:105590000F04E40144EA570B93F8401093F83B7072
:1055A00000F03F00400140EAD70001F07F0193F88E
:1055B0003F7093F8386093F84450090141EA17119D
:1055C00093F8437093F8374006F01F06ED00B601DC
:1055D00045EA571546EA94046D086408A5F5007578
:1055E00002FB05F5A4F5007402FB04F400955D8F41
:1055F000241201944908C5F34904A4F50074A1F5E7
:10560000007102FB04F502FB01F1DC6B0912C4F32B
:10561000C914A4F5007402FB04F440080591A0F538
:105620000070291202FB00F00291009924120D1261
:10563000196C0494019C0012C1F3092103901F6BA3
:1056400004F2DC54A1F5007193F830E002FB01F1A3
:105650000094039C93F82F60C7F3C9385F6B0EF07A
:10566000070E04F2DC5446EA0E26B3F83090B3F885
:1056700034C0C7F3094ED88F1F8F0394059C4FEA9F
:105680005B0B091204F2DC5401F2DC51ABF5007B38
:1056900002FB0BFB05947608029C0291B3F84210C2
:1056A000A6F5007602FB06F6C9F30919CCF3491CEE
:1056B000C7F38917C0F38900C1F3C901A1F50071CF
:1056C000A9F50079A8F50078ACF5007CAEF5007E70
:1056D000A7F50077A0F5007002FB09F902FB08F8B6
:1056E00002FB0CFC02FB0EFE02FB07F702FB00F0C4
:1056F00004F2DC5402FB01F24FEA2B2B0BF2DC5BD1
:105700000194049C3612A3F808B0BDF800B006F26C
:10571000DC5604F2DC544FEA29294FEA28284FEAE4
:105720002C2C4FEA2E2E3F120012A3F80EB01212AC
:10573000BDF80CB05E80DC82BDF80460BDF814409A
:10574000BDF8081009F2DC5908F2DC580CF2DC5CF8
:105750000EF2DC5E07F2DC5705F2DC5500F2DC509D
:1057600002F2DC52A3F814B0A3F80490A3F8068068
:10577000A3F80AC0A3F80CE01F825E825C831D843C
:1057800018839983DA83C5E59A8D102A7FF4C7AD13
:105790004FF4967193F830E093F83C0093F832B0F0
:1057A00000904FEA0E2293F8310002F4E0620244C6
:1057B00093F833404FEA0B2000F4E06005196D10B8
:1057C00093F83490A5F5FF7501FB05F54FEA092024
:1057D00093F8354093F8368000F4E06052100444AA
:1057E000A2F5FF7201FB02F24FEA082093F837603E
:1057F0002D126410019500F4E060A4F5FF74851982
:1058000001FB04F4019ECEF3C30E06F2DC56121225
:1058100003EB4E0E02F2DC520196AEF80220CBF3FF
:10582000C30BBDF804E0C9F3C309241204F2DC542D
:1058300003EB4B0B03EB4909ABF802E0A9F802407C
:105840004FF064046D10A5F5FF7501FB05F593F8A5
:1058500038C02D1293F83A704FEA0C20029593F855
:10586000395000F4E060054493F83B20380200F41E
:10587000E0601044009A93F83DE0120202F4E06206
:1058800072446D1040105210A5F5FF75A0F5FF7021
:10589000A2F5FF7201FB05F501FB00F001FB02F22E
:1058A0000099029EC8F3C308CCF3C30C2D12C7F3B2
:1058B000C3070012C1F3C30112124AF0040A03EB3A
:1058C000480806F2DC5603EB4C0C05F2DC5503EB02
:1058D000470700F2DC5003EB410102F2DC52A8F86A
:1058E0000260A3F800A0ACF802509C8478804A8043
:1058F00015E500BF19000F009A8D102A7FF40FAD37
:1059000093F8325093F836804FF4967229024FEA9A
:10591000082901F44071A1F5FF7109F44079009163
:10592000C8F38308A9F5FF71019103EB48014FF01B
:10593000640893F838C093F830604FEA0C29CCF330
:10594000830C300203EB4C0CCDF80CC000F440701B
:1059500093F831C0A0F5FF70844402FB0CFCA3F85F
:105960002480C6F38306DFF888824FEA2C2C93F854
:10597000344003EB46060CF2DC5CC3F80280C3F84B
:105980000680C3F80A80C3F80E80C3F81280C3F8FB
:105990001680C3F81A80C3F81E800291A6F802C0D0
:1059A000009993F833604FEA042B31440BF4407BA9
:1059B00093F83560ABF5FF7B5E4402FB01F102FB1F
:1059C00006F6C5F38305C4F383040912361203EB0C
:1059D000450503EB440401F2DC5106F2DC56698014
:1059E00093F837106680019C09F440790C4493F8D1
:1059F0003910A9F5FF7993F83AE0494402FB01F127
:105A000093F83C704FEA0E204AF0040ACEF3830E5E
:105A100093F83B6000F44070A3F800A0A0F5FF707D
:105A200003EB4E0A4FEA072E0D120EF4407E811949
:105A300093F83D0002FB04F4AEF5FF7E864402FBC2
:105A400001F102FB0EF20298241204F2DC544480AD
:105A5000C7F3830709121212039803EB470705F2F5
:105A6000DC5501F2DC5102F2DC524580AAF802104A
:105A70007A8054E44FF4AF6293F82F4093F83010DB
:105A800093F8387001EB042102FB01F993F8371009
:105A900093F83A6007EB012793F8391093F8310037
:105AA00093F8334093F8328093F834C006EB012624
:105AB00093F83C5093F83B1008EB00280CEB042CB7
:105AC00093F8350093F836E005EB012593F83E4056
:105AD00093F83D100EEB002E04EB012493F83F00E9
