:020000040800F2
:10000000E8760020E91F0008E51F0008E51F00084A
:10001000E51F0008E51F0008E51F000800000000BC
:10002000000000000000000000000000E51F0008C4
:10003000E51F000800000000E51F0008F53B000870
:10004000E51F0008E51F0008E51F0008E51F000880
:10005000E51F0008E51F0008E51F0008E51F000870
:10006000E51F0008E51F0008E51F0008E51F000860
:10007000E51F0008E51F0008E51F0008E51F000850
:10008000190D0008250D0008E51F0008E51F0008F0
:10009000513C0008E51F0008E51F0008E51F0008A7
:1000A000E51F0008E51F0008E51F00088549000856
:1000B000E51F0008E51F0008E51F0008FD0C00080B
:1000C000090D0008E51F0008E51F0008E51F0008EE
:1000D000E51F00081D5B0008E51F00080DE700088C
:1000E000E51F0008E51F0008E51F0008E51F0008E0
:1000F000E51F0008E51F0008ED4A0008E51F00089D
:10010000E51F0008E51F000861B10008E51F0008B1
:10011000713C0008E51F0008E51F0008E51F000806
:10012000E51F0008E51F0008E51F0008E51F00089F
:100130005FF808F110B5064C18B9012223681A823D
:1001400010BD044B1B681B68984720680A3010BD1F
:10015000742400207024002010B5064C18B9012228
:1001600023681A8210BD044B1B689B68984720685F
:100170000C3010BD742400207024002010B5204BDA
:1001800018B902221B681A8210BD00201D491C6884
:10019000088023780A4613F07F0313D1637A990607
:1001A00044BF0221117013F0400F137814BF43F0C5
:1001B000010323F001031370134B1B681B6998475D
:1001C000104810BD012B18D0022B17D1617901F016
:1001D0000F039B0003F1804303F5B84311F0800F38
:1001E0001B6805D003F03003102BE5D10123E2E7B3
:1001F00003F44053B3F5805FF7E7084610BD00BF36
:100200007424002002200020702400202DE9F843EF
:10021000234FDFF8A0803D682C8AD4B92E7A042EB3
:1002200017D120490B78012B0ED11F4B1A681F4B99
:1002300092B213445B001C6030230C70A8F80030AD
:100240003B681E72BDE8F88310230726A8F800302B
:10025000F6E7AB8A9C4294BF042602269C4228BF44
:100260001C46AB69204698478146002001F0E6FF16
:1002700022460146484622F0EDFD2146002001F0CD
:100280007DFF2B8A4FF440521B1B2B826B8A1C4430
:100290003023A8F80030064B6C821A80D0E700BFEC
:1002A00074240020C01F0020505C00400230002059
:1002B000402000204220002010B50A4B0A491B684C
:1002C0004978DA7891420AD3997841B99C8834B94F
:1002D0009A72064B1B685B689847204610BD022047
:1002E00010BD00BF742400201401002070240020E1
:1002F00038B50F4A0F4D12682B689269D978587932
:1003000090472B6804469A7A7AB170B91A7962B923
:100310009B7853B9084B1B68DB6898472B685A7960
:10032000DA72DA781A73204638BD0224FBE700BF80
:100330004C240020742400207024002038B5304B59
:100340001B68187810F07F0004D15A7A22F020023E
:100350005A7238BD022850D15A88002A4ED11A79D3
:10036000002A4BD15979274D21F08000840004F1F7
:10037000804202F5B842126849B22D780029B4BF14
:1003800002F0300202F44052A84236D2002A34D0A1
:100390009B7A93B304F1804404F5B84400292368A0
:1003A00011DA03F03003102B07D1C4B2204601F05C
:1003B000D2FE3021204601F051FE134B1B685B69D1
:1003C0009847002038BD03F44053B3F5805FF4D163
:1003D0000E4D78B90E4B93F82C1001F0DDFE23681A
:1003E0002B409BB283F4405343F4004343F080031B
:1003F0002360E2E701F09CFEF1E7022038BD00BF78
:100400007424002014010020702400208FBFFFFFFF
:100410009000002038B51F4B1F4D18682D7841798A
:1004200021F08004A30003F1804202F5B842126873
:1004300049B20029B4BF02F0300202F44052AC428B
:1004400025D244881CBB12B3827A02B303F18043E5
:1004500003F5B8431A680029B5BF22F4E04222F43C
:10046000804222F0400222F07002B5BF92B292B2F6
:1004700082F0100282F4805242F4004242F0800284
:100480001A60064B1B689B699847002038BD022004
:1004900038BD00BF74240020140100207024002007
:1004A00008B5064B1A68537A43F020035372044B85
:1004B0001B68DB699847002008BD00BF742400203A
:1004C00070240020054B10B51C68628A18B98B880F
:1004D0009B1A238210BD0868104410BD74240020AC
:1004E00008B50B4B002093F82C1001F055FE094B7A
:1004F0001B68187A082806D14FF48052064B1A80E0
:100500001022064B1A80A0F109035842584108BD39
:100510009000002074240020402000204220002071
:10052000F7B5974C974E276832683B7A092B19D05C
:10053000954B92B213445B001D886D0005F1804518
:1005400005F5C0452B783B706B787B70A88801F06F
:1005500099FE78802889276801F094FEB880AA89DE
:100560002368DA80012223681A72DA885D78002A0B
:1005700060D11A7812F07F0249D1092D03D1FFF71B
:100580009BFEB0B126E0052D1FD193F90320002A70
:1005900006DA082322681372FFF7A2FF03B0F0BD4A
:1005A0009A78002AF5D19A88002AF2D19B7A002BFA
:1005B000EFD13268754B92B2134400225B001A608F
:1005C0003022734B1A800623E4E7032D11D1DA7829
:1005D000012A08D06F4B28461B685B69984703289F
:1005E00025D10923D6E79B88002BF3D1FFF758FFCD
:1005F000C7E7012DEED1DA78012AEBD19A88002ADB
:10060000E8D15B7A9906E5D5FFF798FEB9E7012AAC
:1006100004D10B2DDED1FFF76BFEB2E7022AD9D150
:10062000012DF1D0032DD5D1FFF7F4FEA9E7002865
:10063000AFD1BEE7062D14D11A7852065DD19A7853
:10064000544B012A03D11B68DB69EBB955E0022A40
:1006500002D11B681B6AF8E7032A4ED11B685B6A4C
:10066000F3E7002D55D15988002946D15A6822F464
:100670007F42B2F5003F40D11A7812F07F0216D1C6
:100680009B88002B39D1444B00252268284655828F
:100690009361984728464FF6FF7123681A8A8A4269
:1006A00034D0022801D0002A56D108222FE0012A96
:1006B0000AD1384A5879126892699047E8B9236894
:1006C0009B7A002BDFD118E0022A16D15A793348E1
:1006D00002F00F018B0003F1804303F5B8431B6860
:1006E000007812F0800F14BF03F0300303F440537E
:1006F000814202D212F0700FE3D0264B22681B68B1
:1007000050781B6998470328C5D1236809221A72BB
:1007100042E7082D04D11B785B06EED1204BB3E7EE
:100720000A2DEAD11A7802F07F02012AE5D19A7ADD
:10073000002AE2D059880029DFD15A6822F47F428A
:10074000B2F5803FD9D1134A58791268926990471F
:100750000028D2D1134B97E793F90010002936DA1D
:10076000D9880C4C0191019882421DD9019A1A82B4
:10077000226892F82C209A82FFF748FD0CE700BF10
:1007800074240020505C004004300020023000201F
:10079000422000204C2400207D010008140100208C
:1007A00035010008590100088A42E1D2216891F818
:1007B0002C00824203D20021084A1170D8E792FB34
:1007C000F0F100FB1122002AD2D10121F4E703222B
:1007D0001A724FF44052024B1A80DDE6C01F00200F
:1007E00040200020F8B52C4D2C68237A022B50D0E5
:1007F000042B4ED0032B01D0052B44D1A369268AAC
:10080000ABB1A6B1A28A964228BF16463046984799
:10081000238A07469B1B2382638A0020334463821A
:1008200001F01CFD32460146384622F025FB238AA2
:1008300053B100214FF44052184B08461A8001F082
:100840009DFC3022164B1A80A38A228A93422B6881
:1008500009D803221A722B681B7A2A681372BDE822
:10086000F840FFF73DBE0AB10522F3E706211972F1
:100870000C4B19680C4B89B20B445B001A60302298
:10088000074B1A80E7E7072B03D1084B1B68DB688F
:1008900098470823E1E700BF74240020402000208F
:1008A00042200020505C0040023000204C240020F8
:1008B000F0B5002240F60F7548F280060A4B1C780E
:1008C000A24204D3094B40F080001860F0BD02F151
:1008D000805303F5B8539B00196842EA0607294084
:1008E000394319600132EBE7140100204C5C0040F1
:1008F00010B5134C23681A7A022A01D0042A09D1B0
:10090000FFF784FC23681B7A22681372BDE810404D
:10091000FFF7E6BD062A10D15A78052A09D11A78C0
:10092000520606D1D878FFF7C3FF064B1B681B6A37
:100930009847054B1B689B6898470823E4E700BF6E
:1009400074240020702400204C24002070470000F4
:10095000084B10B553F820400121204602F082F8E0
:100960002046002102F07EF82046BDE8104001211B
:1009700002F060B8D0590208084B10B553F8204077
:100980000121204602F06EF82046002102F06AF8AC
:100990002046BDE81040002102F04CB8D0590208B2
:1009A0002DE9F341144C4FEA800804EB0803074695
:1009B00098681B690121184302F030F803238DF871
:1009C00006301C2304EB47048DF80730238B02AE5E
:1009D0000A4D26F8043D55F82700314601F0F4FD94
:1009E0004544A38B3146A868ADF8043001F0ECFD16
:1009F00002B0BDE8F08100BFD0590208000000201D
:100A00000323F7B58DF80630042307460C4E8DF806
:100A1000073006EB4006338B02AD0A4C25F8043D47
:100A2000294654F8200001F0CFFD04EB8704B38B76
:100A30002946A068ADF8043001F0C6FD03B0F0BD52
:100A4000D05902080000002070B5184C85002C44D5
:100A50000E46206A012101F0D5FF4FF6FF73802278
:100A6000134916F0010FCB604FF000034A614FF4B9
:100A700040520B618B61CB618B62A36A4A620B604F
:100A80000C4606D010238B600A4B2B44186922F0C9
:100A900001F9B30709D500230648A3602844044997
:100AA0008069BDE8704022F0F5B870BDD0590208E9
:100AB000042000200000002012F4804218BF2022F1
:100AC0000A4B10B40C6849681A621022D9600849B0
:100AD00080000144896A5C6019609A60054B034993
:100AE0001844006910BC22F0D5B800BF04200020D3
:100AF000D05902080000002012F4004218BF202242
:100B00000A4B10B40C6849681A620022D96008497F
:100B100080000144896A5C6019609A60054B034952
:100B20001844806910BC22F0B5B800BF0420002032
:100B3000D059020800000020CA0738B504460D4607
:100B400005D5084B03EB8003186922F029F8AB07A1
:100B500007D5044800EB84008069BDE8384022F0E6
:100B60001FB838BD000000202DE9F74305460F46A9
:100B70009046994622F0C8F801233E4C8DF8073084
:100B8000661996F8303001A88DF8043096F83230A6
:100B90008DF8053096F834308DF8063022F0C2F822
:100BA000780217D496F8363001A88DF8043096F8FC
:100BB00038308DF8053096F83A308DF8063022F04E
:100BC000B1F82D4B03EB85031A6A93889BB243F46B
:100BD00080739380B9F1020F49D118F0010F21D031
:100BE000631993F83C2001A88DF8042093F83E2067
:100BF00093F840308DF805208DF8063022F092F8F9
:100C00001D4BB90503EB85031B691A6842F002020C
:100C10001A601A6842F008021A6042BF1A6842F06D
:100C200004021A6018F0020F21D0631993F84220D1
:100C300001A88DF8042093F8442093F846308DF8ED
:100C400005208DF8063022F06DF80B4B03EB85057F
:100C5000AB691A6842F002021A601A6842F0080290
:100C60001A60FA0442BF1A6842F004021A6003B024
:100C7000BDE8F083D0590208000000202DE9F347B9
:100C8000994600238A461C4C8DF8053026188DF8AD
:100C900006308DF8073096F8303002AD05F8043D87
:100CA00007462846904622F03DF81AF4800F06D1F8
:100CB00096F8363028468DF8043022F033F8B9F132
:100CC000020F15D118F0010F07D0E31993F83C304B
:100CD00028468DF8043022F025F818F0020F07D0CE
:100CE0003C4494F8423028468DF8043022F01AF83B
:100CF00002B0BDE8F08700BFD0590208014800F0FB
:100D0000C3BE00BF2800002008B5024800F096FBD3
:100D1000002008BD28000020014800F0FFBB00BFF4
:100D200028000020014800F087BC00BF28000020F8
:100D300030B5048C42EA031324F001042404240C8B
:100D40000484048B058C24F0F3042404240C1C4339
:100D5000114BADB29842A4B241F0010112D003F59B
:100D6000006398420ED0B0F1804F0BD0A3F59833BA
:100D7000984207D003F58063984203D003F580635F
:100D8000984205D125F0020529430483018430BD32
:100D900025F00A05F8E700BF002C014030B5058CAE
:100DA000120225F010052D042D0C0584058B42EA56
:100DB000033325F440752D052D0D1D43144B048C74
:100DC0009842A4B2ADB212D003F5006398420ED09F
:100DD000B0F1804F0BD0A3F59833984207D003F5BC
:100DE0008063984203D003F58063984209D124F0D0
:100DF000200444EA011444F01004A4B205830484DE
:100E000030BD24F0A00441F010010C43F6E700BF10
:100E1000002C0140224A038890429BB212D002F576
:100E2000006290420ED0B0F1804F0BD0A2F5983204
:100E3000904207D002F58062904203D002F58062B2
:100E4000904203D14A8823F070031343154A90421D
:100E500008D002F5806290421FBF23F44073CA8815
:100E60009BB2134303808B8883850B8803850C4BCF
:100E700098420FD003F5006398420BD003F540630E
:100E8000984207D003F58063984203D003F580634E
:100E9000984201D10B7A038601238382704700BFF9
:100EA000002C014000100040038C70B523F00103BA
:100EB0001B041B0C0384038C8488028B0D8822F096
:100EC00073021204120C2A4323F002030D894E8888
:100ED0001B0435431B0C2B43144DA4B2A8429BB2F8
:100EE0000FD005F50065A8420BD005F54065A84276
:100EF00007D005F58065A84203D005F58065A842B6
:100F00000ED14D8923F008032B438D8823F0040371
:100F10002B43CE898D8924F4407435432C43A4B2ED
:100F200084800283CA888286038470BD002C0140BD
:100F3000038C70B523F010031B041B0C0384038C7B
:100F40008488028B0D8822F4E6421204120C42EAD5
:100F5000052223F020030D894E881B0435431B0C0A
:100F600043EA0513114DA4B2A84292B29BB203D03A
:100F700005F50065A84213D14D8923F0800343EAAB
:100F800005134FF6BF751D408B88CE8945EA0313C4
:100F90008D8924F44064354344EA85049BB2A4B2AD
:100FA00084800283CA880287038470BD002C0140BC
:100FB000038C70B523F480731B041B0C0384038C17
:100FC0008288848B0D8824F073042404240C2C4321
:100FD00023F400730D894E881B0435431B0C43EA30
:100FE0000523114D92B2A8429BB203D005F50065CE
:100FF000A84213D14D8923F4006343EA05234FF639
:10100000FF351D408B88CE8945EA03238D8922F464
:101010004052354342EA05129BB292B28280CA889E
:1010200084838287038470BD002C0140038C70B5DB
:1010300023F480531B041B0C0384038C8488828B51
:101040000D8822F4E6421204120C42EA052223F42F
:1010500000530D894E881B0435431B0C43EA0533AE
:101060000B4DA4B2A84292B29BB203D005F5006525
:10107000A84205D18D8924F4804444EA8514A4B2A1
:1010800084808283CA88A0F84020038470BD00BF9A
:10109000002C0140038821B19BB243F0010303807F
:1010A000704723F001031B041B0CF8E783899BB2F4
:1010B00012B119438181704723EA0101FAE7FFF772
:1010C000F5BF038B23F00C031B041B0C0383038B62
:1010D0009BB2194301837047038B23F440631B04C5
:1010E0001B0C0383038B9BB243EA012189B201836A
:1010F0007047838B23F00C031B041B0C8383838BAF
:101100009BB2194381837047838B23F440631B0494
:101110001B0C8383838B9BB243EA012189B28183B9
:101120007047000070B50E880D460B898A8804460A
:10113000498836B9FFF7FCFDE988BDE87040FFF744
:10114000C0BF042E06D1FFF729FEE988BDE8704034
:10115000FFF7C2BF082EED88008C39D120F48070D3
:101160000004000C2084A68B208CB6B226F0F30677
:10117000324342EA0313354A80B294429BB212D002
:1011800002F5006294420ED0B4F1804F0BD0A2F56C
:101190009832944207D002F58062944203D002F55F
:1011A000806294420ED120F4007242F4807242EACE
:1011B000012292B2A383294622842046BDE87040D2
:1011C000FFF797BF20F420620A4342F48072F1E7F0
:1011D00020F480500004000C2084A68B1B0326F40E
:1011E000407643EA02233605184A208C360D3343F5
:1011F000944280B29BB212D002F5006294420ED0AB
:10120000B4F1804F0BD0A2F59832944207D002F58A
:101210008062944203D002F5806294420ED120F4A1
:10122000005242F4805242EA013292B2A38329462C
:1012300022842046BDE87040FFF766BF47F6FF52A4
:1012400002400A4342F48052F0E700BF002C014004
:10125000808E80B27047008F80B27047808F80B2DE
:101260007047B0F8400080B27047808C80B2704701
:10127000038A828911EA030092B203D0114214BF9B
:10128000012000207047C94389B20182704780F372
:101290000888704780F3108870474FF0FF328261F2
:1012A00010220273FF22026102F0B4BA037B70B510
:1012B000012B044605D0037B102B02D0037B002BAF
:1012C00061D12078314D55F82020138823F0010397
:1012D0001B041B0C1380FFF793FB2078FFF74CFBDC
:1012E000E378022B03D161782078FFF725FC207882
:1012F000FFF72EFB2078FFF753FB2378E16955F8C1
:10130000230003889BB243F00103038021F038FDE2
:101310006269207812F4801F06D055F820100B88DF
:101320009BB243F040030B80D10712D555F8201033
:101330008B899BB243F001038B818B8923F0FE03E1
:101340001B041B0C8B818B899EB202F0FE0333437E
:101350008B81530007D555F820100B8823F4806348
:101360001B041B0C0B80E378022B02D16178FFF782
:101370006BFBE378207862786169FFF7F5FB012366
:101380000020237370BD012070BD00BF200000202D
:10139000037B10B5012B044604D0037B102B01D036
:1013A000037B13BB2078FFF72BFB2078104B53F8FF
:1013B0002020138823F001031B041B0C1380FFF76C
:1013C000DBFAE378022B03D161782078FFF7B4FBD6
:1013D000E378207862786169FFF750FC00204FF0D5
:1013E000FF3320732061A36110BD012010BD00BF39
:1013F000200000200F4A1049034611604BF6FF7190
:10140000D1804FF4806151814FF48041002091815F
:1014100003211081908059700221D9704FF0FF3163
:101420001873987018615860986058619961DA6112
:10143000704700BF30200020A0860100837810B5DF
:10144000012B0478344B39D142685268002A35D1D7
:10145000027B012A02D0027B062A2FD153F82420D6
:101460004FF2FF039382C378012B25D1938823F495
:1014700000731B041B0C9380938823F480631B046C
:101480001B0C938006238361138B9C0705D583690E
:10149000012B02D083690133F6D18369012B02D07D
:1014A0008369013303D1BDE81040FFF7F6BE4FF06A
:1014B000FF33836101230373002010BD53F82430F0
:1014C0009A8A02F470620261102202734FF2FF02E4
:1014D0009A820269D1050AD51A886FEA42426FEAF8
:1014E000524292B21A801A88C2F30E021A8002691E
:1014F00092050AD51A886FEA42426FEA524292B2C6
:101500001A801A88C2F30E021A80036903690169FE
:10151000204602F09BF9CFE7200000204FF0FF3378
:1015200070B43F4A836103783E4952F8235051F822
:1015300023402A6822425ED00021426846695160F9
:1015400072044CD48278002A49D1374A52F82320B9
:10155000918821F400610904090C918005218161C1
:10156000918A490705D48169012902D08169013135
:10157000F6D18169012902D08169013102D170BCA3
:10158000FFF78BBE4FF0FF313602816118D411880E
:1015900089B241F40071118006218161118B8907A4
:1015A00005D58169012902D081690131F6D18169AE
:1015B0000129E4D081690131E1D04FF0FF3181612F
:1015C0001A4951F82360316821F001013160918896
:1015D00021F400710904090C918001220273144A5C
:1015E000002052F823201443124A52F823301C439F
:1015F0006C6070BC70470E4A296852F82320114273
:10160000EDD10C4A296852F823201142E7D010226C
:101610000649027351F82310426849685160DEE7B9
:1016200048000020405A020820000020100000203E
:10163000385A0208305A02084FF0FF3370B4374A64
:1016400083610378364952F8235051F823402A68C1
:1016500022424ED0002182685160426916043CD477
:101660008278002A39D12F4A52F82320118889B272
:1016700041F400711180918821F400610904090C82
:10168000918006218161118B890705D58169012926
:1016900002D081690131F6D18169012902D08169C5
:1016A000013102D170BCFFF7F8BD4FF0FF3181610D
:1016B0001D4951F82360316821F0010131609188A2
:1016C00021F400710904090C9180918821F4805162
:1016D0000904090C918001220273144A002052F877
:1016E00023201443124A52F823301C436C6070BC10
:1016F00070470E4A296852F823201142EDD10C4A56
:10170000296852F823201142E7D0102206490273BB
:1017100051F82310826849685160DEE748000020D4
:10172000285A02082000002018000020205A020831
:10173000185A0208F8B500244FF0FF3610270D4D57
:1017400055F8240048B183695BB986610773036962
:101750001BB9FF23036102F05DF80134022CEFD1C5
:10176000F8BD836901331EBF836903F1FF338361D1
:10177000F3E700BF5000002038B5C3780446012BC2
:1017800005D0022B0ED010230373012038BD027840
:10179000234B53F8222093889BB243F480639380B9
:1017A000002038BD00781E4D55F82020938823F482
:1017B00000731B041B0C938093889BB243F400635B
:1017C0009380237B062B01D0012914D162696168C3
:1017D000FFF772F9227855F822108B8823F4805392
:1017E0001B041B0C8B800F4B53F82220136843F013
:1017F00001031360D4E7237B0A2B01D00229CFD148
:101800006269A168FFF778F9A378227833B955F8AF
:1018100022108B889BB243F480538B80024BE3E70A
:1018200020000020100000201800002038B5037BA5
:10183000044698074BD4237B032B48D0237B052BEE
:1018400045D0237B002B42D0237B102B3FD002239B
:101850006269237312F0807F1E4D23781AD106210E
:1018600055F82300A161018B890705D5A1690129DC
:1018700002D0A1690131F6D1A169012902D0A16983
:10188000013104D12046BDE83840FFF706BD4FF0D6
:10189000FF31A161A17881B955F823100B889BB263
:1018A00043F480730B80D30303D501212046FFF757
:1018B00063FF032323731F23A3612378002055F8BC
:1018C000232093889BB243F40073938038BD01209A
:1018D00038BD00BF2000002038B5037B04469907BF
:1018E00000F1CE80037B032B00F0CA80037B052B25
:1018F00000F0C680037B002B00F0C280037B102B1E
:1019000000F0BE800223037343695E4D13F0807FB5
:101910001BD106228261027855F822100A8B9207A9
:1019200005D5A269012A02D0A2690132F6D1A269C5
:10193000012A02D0A269013204D12046BDE8384014
:10194000FFF7ABBC4FF0FF32A261E278022A07D169
:10195000A2685268012A02BF43F400136361E27077
:101960006169CB0300F18580A378002B40F0818072
:10197000237855F823301A8892B242F480721A8084
:101980001F22A2619A8AD00705D4A269012A02D037
:10199000A2690132F6D1A269012ACED0A269013230
:1019A000CBD04FF0FF32A261E2699289B2F5804F4D
:1019B00018D1A268926802F0FE021A820422A26183
:1019C0009A8A920705D4A269012A02D0A26901323B
:1019D000F6D1A269012AB0D0A2690132ADD04FF090
:1019E000FF32A2619A8A1A8B0322A2619A8A100698
:1019F00005D4A269012A02D0A2690132F6D1A269F6
:101A0000012A9AD0A269013297D04FF0FF328903A0
:101A1000A26117D4A268127B1A820322A2619A8A59
:101A2000120605D4A269012A02D0A2690132F6D1B8
:101A3000A369012B81D0A36901333FF47EAF4FF03E
:101A4000FF33A36105232373A378227843B955F8A4
:101A500022100B889BB243F480730B801F23A36179
:101A600055F82220002093889BB243F400739380A2
:101A700038BDE1780229E5D12046FFF77DFEE1E798
:101A8000012038BD20000020002337B57A4DADF885
:101A900006300378044655F823309A8A02F0DF02B4
:101AA000ADF8062082780AB1002042E0BDF8062099
:101AB000D2071CD54FF0FF328261C2699289B2F51C
:101AC000804FF1D1027B052A0AD18268926842F0E8
:101AD0000102D2B21A820A2323730423A361E3E72B
:101AE0004268926802F0FE021A820623F4E7BDF80B
:101AF000060010F002006BD0E178022902D04FF00E
:101B0000FF3205E0227B062A15D162685268013255
:101B1000A261227B0A2A13D1012911D1A26850683F
:101B200070B91A8892B242F400721A809A8A1B8B9A
:101B3000217303B030BD227B0A2AE0D1A268E5E719
:101B4000237B0A2B05D1012903D102212046FFF76F
:101B500013FE237855F823309A8A1A8B227B0A2A9F
:101B60000ED1A2685268012A0AD11A8822F4806232
:101B70001204120C1A801A8892B242F400721A806F
:101B80006269D50390D4217B06291CD190031AD415
:101B90006268127B1A820322A2619A8A110605D416
:101BA000A269012A02D0A2690132F6D1A369012BF0
:101BB00002D0A369013303D12046FFF76EFBB8E7DB
:101BC0004FF0FF33A36103212046FFF7D5FD6BE7FC
:101BD000BDF80620120651D5227B062A4ED1E278A6
:101BE000012A7FF461AF6268516861B111680C78B5
:101BF0001C825368013B53605368002B3FF454AF81
:101C00000131116095E7626912F4000101BF1A8881
:101C100092B242F400721A809A8822F4007212047E
:101C2000120C9A809A8822F480621204120C9A8014
:101C30000622A261A9B99A8A02F084022AB1A26995
:101C4000012A02D0A2690132F5D1A369012BB3D0D8
:101C5000A3690133B0D04FF0FF33A3610123237395
:101C600022E79A8A1506F0D5A269012AEDD0A26969
:101C70000132F6D1E9E700BF20000020BDF80620C0
:101C800050067FF511AF227B0A2A7FF40DAFE27870
:101C9000012A7FF409AFA1684A68022A0A6856D16E
:101CA0001B8A1370237855F82320138823F480634C
:101CB0001B041B0C138013889BB243F40073138026
:101CC000A3685A68013A5A601A6801321A60A36818
:101CD0005B68002B7FF4E8AE237855F823209388C7
:101CE00023F400731B041B0C9380938823F48063FC
:101CF0001B041B0C9380938A138A6369990241BF6A
:101D000023F4001363610223E3700623A361138BA2
:101D10009B0705D5A369012B02D0A3690133F6D136
:101D2000A369012B3FF448AFA36901333FF444AFEB
:101D30004FF0FF33A36113889BB243F48063138099
:101D4000138823F400631B041B0C138086E7496887
:101D50001B8A0129137004D1A2685368013B5360A8
:101D6000B5E7A3681A6801321A605A68013A5A60E6
:101D7000ADE700BF00232DE9F743DFF87091DFF8EE
:101D80007081ADF80630D9F80030524A99B21B0480
:101D900011804CD5138803F00F0388F80030002B16
:101DA00065D14BF6BF764C4C4C4D23684C4F9BB2E3
:101DB0002B802B8803F030033B802B8803F44053A7
:101DC0002B802368334083F4005383F0200343F4D3
:101DD000004343F080032360138813F0100F23683F
:101DE00028D123F4E14323F070031B041B0C236070
:101DF000FEF77EFD23682A883340D6042A8848BF30
:101E000083F4805395043A8848BF83F40053D40682
:101E10003A8848BF83F01003900648BF83F0200340
:101E200043F4004343F080032B4A9BB2136003B09A
:101E3000BDE8F0839BB2ADF80630BDF806301A0558
:101E400008D5236823F070031B051B0D2360FEF7E4
:101E500067FBCFE7BDF806301B0494D5236823F059
:101E600070031B051B0D2360FEF7BCFCC2E79A0044
:101E700002F1804202F5B842116889B2ADF806104D
:101E8000BDF8061009040AD51168013B21F0700164
:101E90000905090D1160134A52F823309847BDF81F
:101EA00006301A067FF56FAF98F80020930003F113
:101EB000804303F5B8431968013A21F4E14121F068
:101EC00070010904090C1960074B53F82230984738
:101ED00059E700BFE0720020005C00404020002075
:101EE00042200020E8190020041A0020445C004031
:101EF00050240020374B82B01A6842F001021A6069
:101F00005968354A0A405A601A6822F0847222F4ED
:101F100080321A601A6822F480221A605A6822F409
:101F2000FE025A604FF41F029A6000220092019252
:101F30001A6842F480321A601A6802F40032019280
:101F4000009A01320092019A1AB9009AB2F5A06F74
:101F5000F2D11A6812F4003218BF01220192019ADC
:101F6000012A05D04FF000621C4B9A6002B0704706
:101F70001B4A116841F010011160116821F0030142
:101F80001160116841F0020111605A685A605A6884
:101F90005A605A6842F480625A605A6822F47C128D
:101FA0005A605A6842F4E8125A601A6842F0807225
:101FB0001A601A689201FCD55A6822F003025A602E
:101FC0005A6842F002025A605A6802F00C02082A6B
:101FD000FAD1C7E7001002400000FFF800ED00E072
:101FE00000200240FEE7000008B50C4A0C4B0D49EA
:101FF0008B420ED30C480D494FF000028842B8BF07
:1020000040F8042BFADBFFF775FFBDE808401DF030
:10201000D5BB52F8040F43F8040BE9E7084B03085B
:1020200000000020BC1F0020C01F0020E472002020
:102030004FF6F873014A034013607047505C00404C
:10204000800000F1804000F5B840036823F4EC43C1
:1020500023F07003194389B201607047800000F1DA
:10206000804000F5B8400368CA0623F4E04323F03B
:1020700040039BB248BF83F010038A0648BF83F039
:10208000200343F4004343F0800303607047800063
:1020900000F1804000F5B8400368CA0423F480438F
:1020A00023F070039BB248BF83F480538A0448BF77
:1020B00083F4005343F4004343F08003036070470C
:1020C000800000F1804000F5B840036823F4E0434D
:1020D00023F040039BB283F0300343F4004343F00A
:1020E000800303607047800000F1804000F5B84035
:1020F000036823F4804323F070039BB283F44053BE
:1021000043F4004343F0800303607047800000F114
:10211000804000F5B840036823F4F8731B051B0DDD
:1021200043F4004343F0800303607047FFF7EEBFC2
:10213000800000F1804000F5B84003685B0409D5D9
:10214000036823F0F0031B051B0D43F4404343F0E9
:10215000800303607047800000F1804000F5B840C4
:1021600003685B0609D5036823F0F0031B051B0D0C
:1021700043F4004343F0C00303607047044B1B6803
:102180009BB203EBC000034B03445B001960704734
:10219000505C0040023000200D4B0E4A1B683E2967
:1021A0009BB203EBC00002444FEA42020AD94B093A
:1021B000C80604BF03F1FF339BB29B0243F4004304
:1021C000136070474B08C90748BF01339B02F7E70C
:1021D000505C004006300020064B49081B6849004F
:1021E0009BB203EBC00000F1005000F540504000EE
:1021F00001607047505C0040FFF7EEBF054B490897
:102200001B6849009BB203EBC000034B03445B0017
:1022100019607047505C004004300020FFF7EEBFAB
:10222000054B1B689BB203EBC00000F1005000F5AA
:102230004050400000887047505C0040FFF7F0BFFE
:10224000044B1B689BB203EBC000034B03445B00D1
:1022500018887047505C004004300020FFF7F0BF42
:10226000054B1B689BB203EBC000044B03445B00AF
:102270001868C0F309007047505C00400630002029
:10228000FFF7EEBFC3B2000A40EA03207047002305
:1022900030B51D46DCB2A24200D830BD040F092C77
:1022A00094BF3034373401F8134001EB430400018C
:1022B00065700133EEE7000038B5114B1A685968B4
:1022C0003C2A88B215D93C253C313C3A59601A6009
:1022D00001241C720B4B2A461844C02120F0BAFD81
:1022E00020462946FFF74AFF2046BDE83840FFF761
:1022F000E7BE95B20A445A6000221A60E8E700BFC0
:10230000C41F00204420002007B50121082000F050
:1023100085FB2023ADF8043003238DF80630142309
:1023200001A904488DF8073000F04EF903B05DF8BC
:1023300004FB00BF000C014008B5002000F010FBBA
:10234000BDE8084001214FF4000000F073BB07B561
:102350004FF4A06020F0DCFC14238DF8043002233D
:102360008DF805308DF80630012301A88DF807306F
:1023700020F0D8FC03B05DF804FB0000202110B170
:10238000024800F076B9014800F075B9000C014030
:10239000094B10B518685C6808331B68C0180AD070
:1023A00008220649FFF773FF2046BDE810400422CB
:1023B0000349FFF76CBF10BDE8F7FF1F6E00002058
:1023C0007E0000200246F0B50A4D0B4E0B4F131A4B
:1023D0009BB2994200D8F0BD2B8834880133C3F3F7
:1023E0000803A4B2A342F6D012F8014BFC542B8090
:1023F000EDE700BF462400204422002046220020B2
:10240000054B1A7A012A05D11A680AB91A7270475F
:10241000FFF752BF704700BFC41F00200C4B1A7A51
:10242000012A13D05A68D968B2F5007F04BF002290
:102430005A605A688A4202D100221A7270478CBFD1
:10244000C2F500728A1A1A60FFF736BF704700BFE4
:10245000C41F0020064B10B5D968064C4A1CB2F5C3
:10246000007FDA6008BF0022605408BFDA6010BD48
:10247000C41F002044200020013938B5451E4418EF
:10248000A54200D138BD15F8010FFFF7E3FFF7E7CC
:10249000044B1888044B80B21B889BB2C01A18BF2B
:1024A0000120704746240020442200200848094AA1
:1024B0000188138889B29BB29942F9D013880133FD
:1024C000C3F3080313801388034A9BB2D05C7047A0
:1024D0004624002044220020462200200023024AF5
:1024E0001380024A138070474422002046240020B3
:1024F0000023044A1380044A1380044A1360536083
:10250000D36070474422002046240020C41F0020CE
:1025100008B5264B984209D10121042000F096FA13
:1025200000210420BDE8084000F090BA204B9842FA
:1025300006D10121082000F089FA00210820F1E7E6
:102540001C4B984206D10121102000F07FFA002197
:102550001020E7E7184B984206D10121202000F017
:1025600075FA00212020DDE7144B984206D10121A5
:10257000402000F06BFA00214020D3E7104B984236
:1025800006D10121802000F061FA00218020C9E7F6
:102590000C4B984208D101214FF4807000F056FA9C
:1025A00000214FF48070BDE708BD00BF0008014066
:1025B000000C0140001001400014014000180140CF
:1025C000001C014000200140CB782DE9F041DA06E3
:1025D00048BF8A780E8803F00F0548BF154316F0F0
:1025E000FF0F1AD000214FF0010E4FF00F0C0268C0
:1025F0000EFA01F737EA06040BD18C000CFA04F846
:1026000022EA080205FA04F4282B42EA040225D142
:10261000476101310829EBD10260FF2E1CD900214E
:102620004FF0010E4FF00F0C426801F108040EFA52
:1026300004F434EA06070BD18F000CFA07F822EAFB
:10264000080205FA07F7282B42EA07020AD144617B
:1026500001310829E9D14260BDE8F081482B08BF6B
:102660000761D6E7482B08BF0461F1E7806880B2B4
:10267000704701617047416170470AB1016170475D
:1026800041617047034B9B7A13B10522024B1A60DC
:10269000704700BF54240020D81F00200422014BA3
:1026A0001A607047D81F0020034B1A78202A04BFF5
:1026B00000221A70704700BFD41F0020704700002E
:1026C000212810B508D1114B1B681B7803F07F033C
:1026D000212B19D0022010BD2028FBD10B4B0C4A16
:1026E0001B681B78107003F07F03212B094B18BF68
:1026F0000023002BEED00024044A20461268936188
:1027000054829847204610BD034BF4E77424002000
:10271000D41F00205127000869270008074B1B68B9
:102720001B7803F07F03212B06D100F0DF00022885
:1027300014BF02200020704702207047742400203C
:1027400021B901288CBF0220002070470220704769
:1027500020B90822024B1B681A8270470148704753
:102760007424002088000020FFF7F2BF10B5002479
:10277000FFF70EFE044B1B689C7200F095F800F00A
:1027800025FB024B1C6010BD74240020D81F0020C4
:1027900010B50024324B334A1B68D2799C725A72AE
:1027A000DC722046FFF744FC4FF400712046FFF72F
:1027B00047FC10212046FFF751FC40212046FFF73F
:1027C0002DFD80212046FFF717FD2046FFF7AEFCC8
:1027D000254B204693F83410FFF7DEFC2046FFF728
:1027E00082FC21460120FFF72BFCC0210120FFF7CE
:1027F00003FD20210120FFF731FC21460120FFF7D6
:1028000046FC4FF4C0610220FFF71AFC4FF48071C0
:102810000220FFF7F1FC21460220FFF738FC2021BF
:102820000220FFF71BFC21460320FFF709FC4FF4B1
:1028300088710320FFF7F2FC40210320FFF7ACFC76
:102840004FF440510320FFF722FC21460320FFF7FD
:1028500005FC2046FEF72CF80122044B1A6010BD3F
:1028600074240020A45A020888000020D81F0020E9
:102870000149FDF727BE00BFC00000200149FDF758
:1028800021BE00BFC8000020054B1B68DB78042B6D
:1028900004D8044901EBC301FDF714BE00207047C2
:1028A00074240020D000002008B50120FFF766FD49
:1028B00001220020054B06491A60064A1860106084
:1028C0004FF4E0520A801A6008BD00BF405C00402F
:1028D00078240020445C0040064B074A07491360F7
:1028E00002221A72064B074A1360074A1B681160DE
:1028F000184700BF5424002074240020F00000205A
:10290000900000204C240020702400200D4B1A68F9
:1029100042F001021A6059680B4A0A405A601A686C
:1029200022F0847222F480321A601A6822F4802223
:102930001A605A6822F4FE025A604FF41F029A602D
:10294000704700BF001002400000FFF8034A5368C0
:1029500023F0030318435060704700BF001002408B
:10296000014B1860704700BFD8004242034A5368C9
:1029700023F4404318435060704700BF00100240EA
:102980001C4A10B5536803F00C03042B01D0082B2C
:102990001FD0194B036053681849C3F30313CC5C71
:1029A0000368E34043605468C4F302240C5D23FAD7
:1029B00004F484605468C4F3C2240C5DE340C36033
:1029C0005268C2F3813211440A7CB3FBF2F3036113
:1029D00010BD53685168C3F38343CC0303F1020372
:1029E00002D407494B43D5E751688903F9D402491A
:1029F000F8E700BF0010024000127A001601002024
:102A000000093D00044B5A6911B1104358617047E9
:102A100022EA0000FAE700BF00100240044B9A6966
:102A200011B110439861704722EA0000FAE700BF35
:102A300000100240044BDA6911B11043D8617047AD
:102A400022EA0000FAE700BF00100240044BDA68F7
:102A500011B11043D860704722EA0000FAE700BFC6
:102A600000100240044B1A6911B1104318617047FD
:102A700022EA0000FAE700BF001002404209012AE2
:102A8000074B07D11B6800F01F0023FA00F000F08D
:102A900001007047022A0CBF1B6A5B6AF3E700BFA4
:102AA00000100240024A536A43F080735362704739
:102AB0000010024043680A7923F4702323F48073E2
:102AC00043EA02230A6810B5134343608A68CB685F
:102AD00084681343084A224013434A7943EA420375
:102AE00083600A7CC36A013A23F47003D2B243EADA
:102AF0000253C36210BD00BFFDF7F1FF836819B137
:102B000043F001038360704723F00103FAE7836811
:102B100019B143F480738360704723F48073FAE73C
:102B2000836843F00803836070478068C0F3C00087
:102B30007047836843F00403836070478068C0F384
:102B400080007047836819B143F4A0038360704725
:102B500023F4A003FAE7092970B51BD90726A1F1D0
:102B60000A04C56804EB4404A64025EA060503FAF6
:102B700004F42C43C460062A18D81F24013A436B7E
:102B800002EB8202944023EA040301FA02F21A43A0
:102B9000426370BD0724056901EB4106B44025EA94
:102BA000040503FA06F42C430461E4E70C2A0CD86C
:102BB0001F24073A036B02EB8202944023EA0403CA
:102BC00001FA02F21A43026370BD1F240D3AC36A70
:102BD00002EB8202944023EA040391401943C1624C
:102BE00070BDC06C80B2704708B5214B98420BD1C4
:102BF00001214FF48040FFF729FFBDE80840002184
:102C00004FF48040FFF722BF1A4B98420BD10121AD
:102C10004FF40030FFF726FF00214FF40030BDE8ED
:102C20000840FFF71FBF144B984208D101214FF411
:102C30008020FFF717FF00214FF48020EFE70F4BB4
:102C4000984208D101214FF40020FFF70BFF00212B
:102C50004FF40020E3E70A4B984208D101214FF4DA
:102C60008010FFF7FFFE00214FF48010D7E708BD6A
:102C7000003801400044004000480040004C004043
:102C80000050004030B50D460446038A8A899BB245
:102C9000C98823F440530B4303828389A98823F412
:102CA000B05323F00C031B041B0C0B43298987B082
:102CB0000B4369890B439BB28381838A9BB223F4C4
:102CC00040731343838201A8FFF75AFE174A039B00
:102CD0000499944218BF19461922A3894A4313F450
:102CE000004F2B684FF0640514BF5B009B00B2FBE4
:102CF000F3F1B1FBF5F3A2891801120405FB1313DC
:102D00000BD5DA003232B2FBF5F202F0070242EAEA
:102D100000039BB2238107B030BD1B013233B3FBEC
:102D2000F5F303F00F030343F3E700BF003801405E
:102D30000B8810B54C88028A23438C88C98892B2CC
:102D400023430B4322F4706213439BB2038210BDF2
:102D50000023038043808380C3807047838921B12F
:102D60009BB243F400538381704723F400531B0448
:102D70001B0CF8E701F01F0310B5C1F34214012149
:102D8000012C01FA03F105D10C3003683AB1194363
:102D9000016010BD022C0CBF10301430F5E723EA9F
:102DA0000101F5E7838A9BB212B119438182704712
:102DB00023EA0101FAE7C94389B2018070470B0A8F
:102DC00001219940C94389B2018070470020044B1A
:102DD000044A18604FF406431380034A1360704797
:102DE000445C004078240020405C004070B500F056
:102DF0007F0528460E46FFF743FA04462846FFF7AC
:102E00002DFA22460146304620F036F8204670BDA5
:102E10000A88504080EA0010C0B2030983EA1223F6
:102E200043EA002383EAC0000880704713B50446D4
:102E300023786278084643EA022302A921F8023D7A
:102E4000FFF7E6FFBDF80630238002B010BD00009A
:102E50000C23024A03FB002080687047FC5A0208DA
:102E60000C23034A03FB0020D0F8E408704700BF9E
:102E7000FC5A02080C23034A03FB0020D0F808097F
:102E8000704700BFFC5A02080C23034A03FB0020D2
:102E9000D0F80C0B704700BFFC5A02080C23034A01
:102EA00003FB0020D0F8280D704700BFFC5A020831
:102EB0002DE9F04F0446154689460668DDB006EB5D
:102EC000C2039E42036088BF4368C6F3C50684BF41
:102ED0000133436000F128030A9300F168030B9368
:102EE00015B95DB0BDE8F08FC6F14007AF4228BF0D
:102EF0002F460A9B494698193A463E4422F096F9D5
:102F0000402EB944A5EB0705EAD10A9B0CAAD97853
:102F1000043202F8041C997802F8031C597802F86C
:102F2000021C13F8041B02F8011C0B999942EED104
:102F30000022A3680193E368029323690393636902
:102F40000493A3690593E3690693236A0793636A6D
:102F500008931CAB0CA951F8221043F8221001323F
:102F6000102AF7D14CAF1E469A6B53F8040F4FEA64
:102F7000F24181EA724181EA9221726A36689F4287
:102F800032444FEAB04686EAF016114486EAD00091
:102F90000144D963E7D14FF0000E049B039E029FCA
:102FA0000198DDF81CC0DDF81880DDF820A0059937
:102FB00009934FEAF12301EA080B83EAB1132CEAE3
:102FC000010282EA0B0283EA716313441CAA52F8DD
:102FD0002E2007EA060B13441E4A52F82E200EF14B
:102FE000010E1344534486EA07024FEA703A8AEA14
:102FF000B00A024082EA0B028AEAB05A9244099A65
:10300000BEF1400F1A44934653440996E24619D143
:10301000019A1A44029BA2600344E360039B3B4471
:103020002361049B33446361059B00265B44A361D9
:10303000069B0B44E361079B43442362089B634464
:1030400063624DE73E46C4460746884618465946E1
:10305000AFE700BF3468020880232DE9F041044641
:103060000E46056892B0C5F3C5070DF14808472222
:1030700000210DF10100C7F1770708F8483D07F07E
:103080003F0722F0ADF912AB3B442A0A03F8412C6A
:103090002A0C03F8422C626803F8405C110A03F81A
:1030A000442C03F8451C110C120E03F8461C03F8BF
:1030B000472C2D0E07F109024146204603F8435CD8
:1030C000FFF7F6FEE37A3370A37A7370637AB37016
:1030D000237AF370E37B3371A37B737112B0BDE885
:1030E000F08109B922F07CB922F0A0B870B5C4789B
:1030F0000D46142C064628BF14241422002128460D
:1031000022F06EF9224606F10C012846BDE8704017
:1031100022F08CB870B5C4780D46172C064628BF2F
:10312000172417220021284622F05AF9224606F1D8
:103130000C012846BDE8704022F078B870B5C4781C
:103140000D46232C064628BF23242322002128468F
:1031500022F046F9224606F10C012846BDE87040EF
:1031600022F064B870B5C4780D46212C064628BFFD
:10317000212421220021284622F032F9224606F19C
:103180000C012846BDE8704022F050B870B5C478F4
:103190000D46FE2C064628BFFE24FE2200212846AE
:1031A00022F01EF9224606F10C012846BDE87040C7
:1031B00022F03CB870B5C4780D46852C064628BF71
:1031C000852485220021284622F00AF9224606F1AC
:1031D0000C012846BDE8704022F028B810B5074C15
:1031E00040F225512046FFF7EAFD2046BDE8104099
:1031F000012240F22551FFF7BDBD00BF004C004049
:1032000010B5074C40F225512046FFF7D8FD204667
:10321000BDE81040012240F22551FFF7ABBD00BFD1
:1032200000380140034AB2F8E83F43F01003A2F827
:10323000E83F7047385D002010B5074C40F225513B
:103240002046FFF7BCFD2046BDE81040012240F2B9
:103250002551FFF78FBD00BF004800402DE9F04F1A
:10326000784DA7B02E7C044616F0020F9DF8C000E2
:103270009DF8C470A9461FD16D6915B12D7805F070
:10328000010507F10A0004F10A0A2044012F00F2A7
:10329000BA80FD20207000206770A570E07099F85A
:1032A0000A00A271E3711A0A1B0C2071617122726B
:1032B00063724FF00A0B0EE0FE256070257099F8DE
:1032C0000A500746A5704FF0060B002504F1060AC8
:1032D000E170227163714FF6FF7299F80A301FFA9C
:1032E0008BF808F1FF360133B6B289F80A3001369F
:1032F00026AB23F8682D2644621C964240F08B8052
:103300005646BDF8302026AB23F8822DBAB2019282
:103310000AEB0702964240F0888019469DF8C800E3
:10332000FFF776FDBDF8163033701B0A7370002D61
:1033300060D0D9F81410002900F081800B78DB07E9
:103340007DD54B7810318DF8203051E90223CDE93D
:103350000623CDF82120BDF81C00013243F1000303
:10336000ADF8250041E9022300230C930D93364B61
:1033700020220E93354B0CA80F93354B1093354BF1
:103380001193354B1293354B1393354B149303F133
:103390007453A3F52303A3F692431593FFF788FD17
:1033A00021465A460CA8FFF783FD3A4651460CA821
:1033B000FFF77EFD314602220CA8FFF779FD0722B8
:1033C00008A90CA8FFF774FD0DF127010CA8FFF761
:1033D00043FE023608AB0AAC1A4603CAA24230606A
:1033E0007160134606F10806F6D10D2510683060AD
:1033F00013793371019B4344184602300544A8B247
:1034000027B0BDE8F08F10F8016D002E7FF441AFBA
:10341000013FFFB23AE712F8010B194602930192FD
:10342000FFF7F6FC029B019A67E7194616F8010BB5
:1034300003920293FFF7ECFC039A029B6AE70025D4
:10344000D8E700BFA825002067E6096A85AE67BBFC
:1034500072F36E3C3AF54FA57F520E518C68059B76
:10346000ABD9831FF0B51746164A0546127C0E46A7
:1034700012F0020F14BF06200A206FF037012C183B
:1034800029540022642085B06270A070E27021711E
:1034900062711946A01D0822FFF723FE0A9904F164
:1034A0000E000822FFF71DFED923029316233A4689
:1034B0000193009331464FF496732846FFF7CEFEF2
:1034C00005B0F0BDA825002000EB800043001846A1
:1034D0000138FDD87047402808B5024609D8BDE834
:1034E0000840C0EB401002EB8000C00080B2FFF744
:1034F000EBBF4FF47A70FFF7E7FF013A92B2002A70
:10350000F7D108BD028810B58488531C2340448835
:103510009C421FBF8468A1540380012008BF002083
:1035200010BD438802889A4209D08268D35C0B7030
:103530004388828801331340438001207047002074
:103540007047428803889B1A9BB21A0441BF808847
:1035500001301B1898B258BF1846704770B5302517
:1035600042F20F76049C0D70B04210D830211170D9
:10357000B0F57A7F13D230221A70632816D8302320
:103580002370092818D8059B3030187070BD0D784D
:10359000A0F51C50013510380D7080B2E4E71178A9
:1035A000A0F57A700131117080B2E1E71A786438C1
:1035B00001321A7080B2E0E723780A3801332370B1
:1035C00080B2DEE72DE9F0474FF03008DDF820C08B
:1035D000DDF824E00A9F0B9E0C9D0D9CDFF8F8900F
:1035E000DFF8F8A081F80080484532D83021DFF8B4
:1035F000F080DFF8F0901170404532D83022334926
:10360000DFF8E4801A70884230D83023304A8CF8D2
:10361000003090422FD830232E4A8EF8003090424E
:1036200033D8302342F20F723B70904236D83023A9
:103630003370B0F57A7F38D230232B7063283AD8B4
:103640003023237009283BD80E9B30301870BDE81A
:10365000F08791F80080504408F1010881F800805B
:10366000C2E71178484401311170C5E71A78404427
:1036700001321A70C7E79CF80030A0F574200133BE
:103680008CF80030A0F51070C3E79EF80030A0F56C
:10369000C33001338EF80030A038C0E73B78A0F586
:1036A0001C5001333B701038BFE73378A0F57A70B7
:1036B00001333370BDE72B78643801332B70BDE7DD
:1036C00023780A3801332370BCE700BF7F96980047
:1036D0003F420F009F860100FFC99A3B003665C438
:1036E000FFE0F505001F0AFA806967FF13B500289F
:1036F000B5BF2D2320230B700B70B8BF404201F1E2
:103700000503B8BF00B201930B1D0C4600938A1C41
:10371000CB1C80B20131FFF721FF0023A37102B05F
:1037200010BD0028B4BF2D23202310B5B4BF0B70EB
:103730000B7088B001F10A03069301F109030593A8
:1037400001F10803049301F10703039301F1060358
:10375000029301F10503019301F104030C46009368
:1037600001F1020201F10303B8BF40420131FFF74A
:1037700029FF0023E37208B010BD0A2330B50122EF
:103780001C46834207D90A24531E1BB2002B06DABB
:1037900000238B5430BD013292B26343F1E7B0FB9A
:1037A000F4F504FB15003030C854013B28461BB229
:1037B000ECE7000010B5034C2146FFF7DEFF204682
:1037C00010BD00BFC84D002070B504460E4615461A
:1037D000FDF7DEFD2046FDF70DFE03236370022397
:1037E00000204BF6FF72E370E369A0706660A5608D
:1037F000DA804FF480625A814FF480429A81044A01
:10380000988018811A602046FDF750FD80B270BD87
:1038100000350C00084A08B51388084901339BB2EB
:103820001380074A0748136801331360064AFFF7FD
:10383000CBFF002008BD00BFD0280020A835002005
:103840001C5D002028000020AC340020064A0749F7
:103850001388074801339BB21380064A136801336B
:103860001360054AFFF7B0BFD0280020A83500201C
:10387000280000201C5D0020AC340020024A0349CF
:103880000348FFF7A1BF00BFAC340020A8350020DB
:1038900028000020024A136801331360704700BFFC
:1038A0001C5D002073B50446002852D10121082078
:1038B000FFF7B4F803238DF8063014238DF8073092
:1038C000402302AD25F8043D29464E48FEF77CFE14
:1038D00004238DF807304FF4006329464948ADF8BA
:1038E0000430FEF771FE474D012240212846FEF7C5
:1038F000C4FE0A20FFF7E8FD002240212846FEF71B
:10390000BCFE0A20FFF7E0FD092C1DD92846FEF772
:10391000ADFE020618D5012240213A48FEF7ADFE61
:103920000A20FFF7D1FD002280213648FEF7A5FED0
:103930000A20FFF7C9FD012280213248FEF79DFED3
:103940000124204602B070BD0134142CCCD10024D7
:10395000F7E70128FBD101460820FFF75FF80323B2
:103960008DF8063014238DF807304FF4806302ADD4
:1039700025F8043D29462348FEF726FE04238DF84A
:1039800007304FF4006329461E48ADF80430002587
:10399000FEF71AFE1B4E01224FF480613046FEF7FF
:1039A0006CFE0A20FFF790FD00224FF48061304644
:1039B000FEF763FE0A20FFF787FD092D1DD930466B
:1039C000FEF754FE030518D501224FF480610D481F
:1039D000FEF753FE0A20FFF777FD00224FF4006147
:1039E0000848FEF74AFE0A20FFF76EFD01224FF459
:1039F00000610448FEF741FEA3E70135142DCAD14A
:103A0000A5E700BF000C0140024608B506490B7B44
:103A1000012B01D1002008BD0120FFF755FD0AB19F
:103A2000013AF4E7012008BD2800002010B50E4C33
:103A30004000A0600D4822606360E160FDF74CFF2C
:103A400028B10B4A012013680133136010BDBDF883
:103A50000830012B06D142F21070FFF7D5FF00307D
:103A600018BF012010BD00BFAC340020280000208A
:103A70001C5D002010B50E4C4000A0600D48226077
:103A80006360E160FDF7D2FE28B10B4A01201368A4
:103A90000133136010BDBDF80830012B06D142F28E
:103AA0001070FFF7B1FF003018BF012010BD00BF3C
:103AB000A8350020280000201C5D002013B5064B0F
:103AC0001C780023009313460A4601462046FFF760
:103AD000ADFF02B010BD00BF065C002013B5064B61
:103AE0001C780123009313460A4601462046FFF73F
:103AF0009DFF02B010BD00BF065C002013B5064B51
:103B00001C780123009313460A4601462046FFF71E
:103B1000B1FF02B010BD00BF065C002008B5012255
:103B2000FFF7DCFF20B10120024A13680133136064
:103B300008BD00BF1C5D0020F7B50D461E461746A8
:103B40001AB91046327003B0F0BD0DF10701FFF74E
:103B5000E5FF012460B9291904FA07F2C9B2C91BAB
:103B6000013A9DF807408A4022400A413270EAE754
:103B70002046E8E707B502AB03F8011D012219460C
:103B8000FFF7BCFF20B10120034A13680133136023
:103B900003B05DF804FB00BF1C5D00202DE9F3417C
:103BA00007460E46984615460AB30DF10701FFF782
:103BB000B5FF0124C8B93219D2B2AC40521B013C46
:103BC00094409DF8071008FA02F2D2B221EA0401EB
:103BD0001440214338468DF80710FFF7CBFF003023
:103BE00018BF012002B0BDE8F0812046FAE7104678
:103BF000F8E700000122034B1A805A6801325A602C
:103C0000FDF798BDDC1F002000220C4B0C491A80E8
:103C10005A600C4BF0201B68B3FBF1F140F2DC530F
:103C20004B430949013B4B60084B83F823000720B5
:103C30008A60086083F82320704700BFDC1F0020E3
:103C400040420F005800002010E000E000ED00E0CE
:103C50001FF024B908B5FEF757FBFEF76DFBFEF722
:103C60003BFEFEF745FCBDE80840FEF770BB0000D8
:103C7000194B10B5198889B28A060FD5174C184808
:103C80009A88238800880133C3F3080380B28342F3
:103C900092B21FBF1348D2B2C25423800B061AD56A
:103CA000114B124A1988138889B29BB299420BD0E2
:103CB00013880133C3F30803138013880C4A9BB2A3
:103CC000D35C054A938010BD034A938923F0800397
:103CD0001B041B0C938110BD004C00401E3C0020B7
:103CE000303C002018570020603300200C53002087
:103CF0002C5900200B490C4A0B8812880133C3F35E
:103D0000080392B293420AD0084AD054084A0B8062
:103D1000938901209BB243F0800393817047002078
:103D2000704700BF603300200C5300202C59002046
:103D3000004C0040044B1888044B80B21B889BB297
:103D4000C01A18BF012070471E3C0020303C0020E4
:103D50000848094A0188138889B29BB29942F9D070
:103D600013880133C3F3080313801388034A9BB2FB
:103D7000D05C70471E3C0020303C002018570020CB
:103D80000023024A1380024A13807047303C00200F
:103D90001E3C00201FB500230C22009069460848F5
:103DA000ADF80430ADF80630ADF80830ADF80A20B3
:103DB000ADF80C30FEF766FF05B05DF804FB00BF00
:103DC000004C00407FB501214FF40020FEF732FE89
:103DD00001211120FEF722FE4FF480630325ADF888
:103DE000003018232D4C694620468DF803308DF89D
:103DF0000250FEF7E9FB4FF40063ADF800304823B2
:103E0000694620468DF80330A4F544448DF80250ED
:103E1000FEF7DAFB02A8FEF79BFF02A92046FEF799
:103E200087FF4FF4E130FFF7B5FF342301268DF80B
:103E300004300F23002501A88DF805308DF80630D9
:103E40008DF807601EF06EFF0022204640F22771B9
:103E5000FEF790FF204640F22771FEF7B0FF2046A4
:103E600040F22661FEF7ABFF0D4B2A461D800D4B3D
:103E7000204640F225511D80FEF77CFF204640F28F
:103E80002551FEF79CFF084B31461D80074B20460D
:103E90001D80FEF763FF04B070BD00BF001001403D
:103EA0000C53002060330020303C00201E3C0020DA
:103EB00008B5FFF787FFBDE80840FFF78FB901237A
:103EC00007211A466B20FFF769BE00230122062155
:103ED0006B20FFF763BE0346032202216B20FFF72E
:103EE0005DBE01461920FFF745BE01461920FFF7C8
:103EF00015BE0346032202211A20FFF74FBE0346D8
:103F0000032202211A20FFF717BE034602220421D2
:103F10001B20FFF743BE0346022204211B20FFF7AC
:103F20000BBE0346022204211C20FFF737BE0346C6
:103F3000022204211C20FFF7FFBD10B5044600F04B
:103F40000703032202211A20FFF728FEC4F30113FE
:103F50000222BDE8104001211B20FFF71FBE13B550
:103F6000032204460DF1060302211A20FFF7E4FDA7
:103F70000DF10703022201211B20FFF7DDFD9DF853
:103F8000063003F00703237002B010BD10B50446DD
:103F900000F00703032202211D20FFF7FFFDC4F3F9
:103FA00000130122BDE8104003211D20FFF7F6BDDC
:103FB00013B5032204460DF1060302211D20FFF76D
:103FC000BBFD0DF10703012203211D20FFF7B4FD06
:103FD0009DF807309DF806201B0102F0070203F050
:103FE00010031343237002B010BD000038B5002445
:103FF0000D4D752029462C70FFF790FD58B92B7890
:10400000682B0AD0712B0AD0122B0AD0422B14BF76
:104010002046042038BD204638BD012038BD02208E
:1040200038BD032038BD00BF623300202DE9F041C8
:1040300080460F4616461D460A209DF81840FFF799
:1040400043FA4046FFF747FF3846FFF75EFF30462A
:10405000FFF74FFF2846FFF764FF2046FFF741FFB9
:10406000BDE8F041FFF731BFF7B50F460A2016460D
:104070001D46FFF729FA0DF10700FFF74CFF9DF8E9
:1040800007400A20BC4214BF02240024FFF71CFA98
:104090000DF10700FFF733FF9DF807300A20B34208
:1040A00018BF44F00404FFF70FFA0DF10700FFF703
:1040B0003EFF9DF807300A20AB4218BF44F00804C9
:1040C000FFF702FA0DF10700FFF70FFF9DF8072039
:1040D0009DF820309A4218BF44F01004204603B0E7
:1040E000F0BD2DE9F8438146884617461E460A2052
:1040F0009DF820509DF82440FFF7E6F94846FFF769
:10410000EAFE4046FFF701FF3846FFF716FF30464C
:10411000FFF707FF2846FFF739FF2046FFF7E1FECC
:10412000BDE8F843FFF7D1BEF7B50F460A201646A3
:104130001D46FFF7C9F90DF10700FFF7ECFE9DF8EA
:1041400007400A20BC4214BF02240024FFF7BCF938
:104150000DF10700FFF703FF9DF807300A20B34277
:1041600018BF44F00404FFF7AFF90DF10700FFF7A3
:10417000DEFE9DF807300A20AB4218BF44F0080469
:10418000FFF7A2F90DF10700FFF7AFFE9DF807203A
:104190009DF824300A209A4218BF44F01004FFF71B
:1041A00093F90DF10700FFF703FF9DF807209DF835
:1041B00020309A4218BF44F02004204603B0F0BDDE
:1041C0002DE9F743334D002307460A24A846038010
:1041D0000A20FFF779F968232B70FFF707FF80B2F9
:1041E000388048BB0A20FFF76FF969232B70FFF76F
:1041F000FDFE80B23880002847D1013CA4B2002CDB
:10420000E6D10024244B88F800401C60204603B00F
:10421000BDE8F08301230022022100960320FFF76E
:1042200005FF6420FFF757F90096012300220221C1
:104230000320FFF719FF1DE001243B88002BE0D08D
:104240000A250026B7F80090B9F1020FE2D1012348
:1042500000224946032001960096FFF742FF6420A2
:10426000FFF739F901960096012300224946032001
:10427000FFF75AFF58B1013DADB2002DE2D1064B18
:1042800088F800501D602C46C0E70224D5E7024B99
:104290001860BBE7065C00201C5D0020002208B50A
:1042A000064B07491A803B200E22FFF707FC18B186
:1042B000BDE80840FFF7EEBA08BD00BFD0280020D7
:1042C000623300206423B0F9002053434FF4AA72F4
:1042D00093FBF2F303F64563038070472DE9F84F33
:1042E000254B264D01281CBFAA461D46894614466B
:1042F0002349244A06BF9A46884690461EF08CFB06
:1043000028461EF003FC042807462ED1B9F1000F01
:1043100008BF4FF4FD644FF6FF7B013405F1100632
:1043200024F001043444AAEB050AA64206D14FF05A
:10433000113128461EF0BEFB074616E0B9F1000F0A
:1043400006D13AF8061089B2594506D10236ECE793
:10435000731B4B4433F8101CF6E7B0450AD93046BE
:104360001EF08CFB04280746F0D01EF05FFB384699
:10437000BDE8F88F8027F8E700D0070800D80708C5
:10438000FFDF0708FFD7070810B51EF045FB0748F9
:104390001EF0BCFB0428044603D105481EF0B6FB02
:1043A00004461EF043FB204610BD00BF00D00708A6
:1043B00000D80708002310B501310A4CC1F34F01A2
:1043C0009AB2914201D8042010BDB3F57E7F06D089
:1043D0001A195200128820F813200133F0E78020C8
:1043E00010BD00BF08E8030438B50A4604460D4670
:1043F00001460020FFF772FFC0B2042801D080B24E
:1044000038BD2A4621460120FFF768FFC0B238BDFB
:1044100038B5154B1D68D3F80048B5F1113F10D1E0
:10442000B4F1113F02D1042080B238BD621C0DD11D
:10443000002201201146FFF751FFC0B20428F3D13A
:10444000F1E76B1C02D1B4F1113FF1D0FFF79CFFF3
:10445000C0B20428E8D1013504D1013414BF402092
:104460002020E1E74020DFE700D0070872B6074BC5
:104470009B8C9BB262B6064A91881068994284BFB1
:1044800001301060938003EB00407047002C014026
:10449000343C00200021034B9A8C034B19609A8016
:1044A000704700BF002C0140343C00200AB9FCF7E3
:1044B000FBBC042A01D1FCF73BBD082A01D1FCF763
:1044C00077BDFCF7B3BD000030B5012185B040F6E3
:1044D0000400FEF7A3FA4FF6FF73ADF80830134B54
:1044E000134A1B680024B3FBF2F3124D013B04A9ED
:1044F00021F80C3D2846ADF80A40ADF80640FCF71F
:1045000089FC01212846FCF7C5FD1B238DF80030EE
:104510000F238DF80130012368468DF802408DF895
:1045200003301EF0FFFB05B030BD00BF5800002077
:1045300040420F00002C014030B5012185B042F20D
:104540001000FEF76BFA4FF6FF73ADF80830134B0F
:10455000134A1B680024B3FBF2F3124D013B04A97C
:1045600021F80C3D2846ADF80A40ADF80640FCF7AE
:1045700051FC01212846FCF78DFD2E238DF80030DB
:104580000F238DF80130012368468DF802408DF825
:1045900003301EF0C7FB05B030BD00BF580000203F
:1045A00040420F0000340140032307B5ADF804106A
:1045B00001A98DF807208DF80630FEF705F803B045
:1045C0005DF804FB1FB50123ADF808300023ADF8FA
:1045D0000A300F23ADF80C3004AB23F80C1D19463C
:1045E000ADF80620FCF79EFD05B05DF804FB000069
:1045F00010B50B4C28224FF480710A48FFF7D4FF06
:10460000022220460021FFF7DDFF20460221FCF7B1
:104610003AFE2046BDE8104001220221FCF74FBDC2
:10462000002C014000080140302330B585B0ADF8C2
:10463000003000230D460446ADF80C30ADF80E30C6
:10464000ADF80830ADF80A30ADF80230ADF80430FE
:10465000FCF70BFE00F51C501030ADF806002A46A2
:1046600069462046FFF722FF05B030BD10B50F4C5C
:10467000102220464FF40071FFF796FF00222046DB
:104680004FF4007104F51054FDF7F7FF20460421A4
:10469000FFF7CAFF20460421FCF7F5FD2046BDE8E0
:1046A000104001220421FCF70ABD00BF00080140B0
:1046B00010B50C46062800F22481DFE810F0070050
:1046C000300059008200A900D000F900012915D15D
:1046D00028224FF480618B48FFF766FF00220821F3
:1046E0008948FFF76FFF08218748FCF7CCFD224679
:1046F000BDE8104008218448FCF7E1BC00220821F5
:104700008148FCF7DCFC08217F48FCF7BCFDBDE8D4
:10471000104048224FF480617A48FFF745BF0129D5
:1047200015D128224FF400717648FFF73DFF002293
:1047300004217548FFF746FF04217348FCF7A3FDE9
:104740002246BDE8104004216F48FCF7B8BC0022A7
:1047500004216D48FCF7B3FC04216B48FCF793FD82
:10476000BDE8104048224FF400716648FFF71CBFB7
:10477000012915D128224FF480716248FFF714FFF8
:10478000002261481146FFF71DFF02215E48FCF739
:104790007AFD2246BDE8104002215B48FCF78FBC41
:1047A000002202215848FCF78AFC02215648FCF7F7
:1047B0006AFDBDE8104048224FF480715148FFF770
:1047C000F3BE012914D1282240215048FFF7ECFE06
:1047D00000224F481146FFF7F5FE02214C48FCF736
:1047E00052FD2246BDE8104002214948FCF767BC53
:1047F000002202214648FCF762FC02214448FCF7F3
:1048000042FDBDE81040482240214048FFF7CCBEA1
:10481000012914D1282280213C48FFF7C5FE00223F
:1048200004213B48FFF7CEFE04213948FCF72BFD5D
:104830002246BDE8104004213548FCF740BC002268
:1048400004213348FCF73BFC04213148FCF71BFDF5
:10485000BDE81040482280212C48FFF7A5BE012961
:1048600015D128224FF480712848FFF79DFE0022C1
:1048700008212748FFF7A6FE08212548FCF703FD7D
:104880002246BDE8104008212148FCF718BC002250
:1048900008211F48FCF713FC08211D48FCF7F3FC16
:1048A000BDE8104048224FF480711848FFF77CBEE5
:1048B000012915D128224FF400711448FFF774FE26
:1048C00000220C211248FFF77DFE10211048FCF752
:1048D000DAFC2246BDE8104010210D48FCF7EFBB82
:1048E000002210210A48FCF7EAFB10210848FCF7D7
:1048F000CAFCBDE8104048224FF400710348FFF79E
:1049000053BE10BD00080140002C014000100140C2
:1049100000340140012808B503D1BDE80840FFF785
:1049200067BE002202210748FCF7C9FB02210548A7
:10493000FCF7A9FCBDE8084048224FF4807102480A
:10494000FFF732BE002C014000080140012808B5E5
:1049500003D1BDE80840FFF789BE002204210748C3
:10496000FCF7ADFB04210548FCF78DFCBDE80840D1
:1049700048224FF400710248FFF716BE002C014098
:1049800000080140F8B5504D022128462C8CFCF758
:104990006FFC0128A4B215D14C4E02212846FCF729
:1049A00072FC3368DA0548D5494A28461388013332
:1049B00003F01F0313801688FCF74AFC454BB6B280
:1049C00023F81600404D04212846FCF751FC01282D
:1049D00016D13E4E04212846FCF755FC33689B0552
:1049E00053D53D483D4AC36813F4007F3CD012883C
:1049F0002B8F4FF4007113449BB22B87FDF73BFEC6
:104A000008213148FCF734FC012813D108212E4835
:104A1000FCF739FC14F4007F314D4DD02A48FCF7E7
:104A20001DFC2A4A6880136824F4007443F00103D3
:104A3000A4B21360244B1C84F8BD14F0020F284F5D
:104A40000BD02846FCF704FC7881336824F002047C
:104A500043F00403A4B23360B4E72846FCF7F8FB44
:104A600044F002043881ADE71E490E882B8F334491
:104A70009BB22B871C4B1B8809885B1A9BB24FF497
:104A800000711380FDF7F5FDBAE714F0200F144F05
:104A90000BD02846FCF7DFFBF880336824F02004B5
:104AA00043F00203A4B23360AAE72846FCF7D3FB25
:104AB00044F02004B880A3E70348FCF7CFFB44F49C
:104AC00000742880B6E700BF002C0140583D00204C
:104AD000125300202830002000080140EC50002034
:104AE000EE5000201E2B0020845B0020F8B5484DBE
:104AF000022128462C8CFCF7BBFB0128A4B216D15E
:104B0000444E02212846FCF7BEFB3368DA050ED47A
:104B100014F0020F404F5ED02846FCF799FBF88155
:104B2000336824F0020443F00803A4B23360042184
:104B30003748FCF79DFB012813D104213448FCF7CA
:104B4000A2FB14F0200F344D4CD03148FCF783FB0E
:104B5000304A6882136824F0200443F01003A4B2A2
:104B6000136008212A48FCF783FB012813D1082190
:104B70002748FCF788FB14F4007F274D39D02448E0
:104B8000FCF76CFB234AE882136824F4007443F0BA
:104B90002003A4B2136010211D48FCF769FB012813
:104BA00016D11C4D10211A48FCF76DFB2B689B0594
:104BB0000ED414F4005F184E22D01548FCF751FBB8
:104BC00070832B6824F4005443F04003A4B22B609C
:104BD0000F4B1C84F8BD2846FCF73AFB44F0020456
:104BE000B881A4E70A48FCF736FB44F02004288289
:104BF000B7E70748FCF732FB44F40074A882CAE721
:104C00000348FCF72EFB44F400543083E0E700BF78
:104C100000340140583D0020EE500020604B614AB6
:104C20001868F0B4C607116810D540F2EA45186854
:104C30005D4C20F00100186026886088801B80B2DF
:104C4000A0F27B34A4B2AC4240F29B8000241868EE
:104C5000850710D540F2EA461868534D20F002004F
:104C60001860AF88E888C01B80B2A0F27B35ADB277
:104C7000B54240F28D80186840070FD540F2EA46F1
:104C80001868494D20F0040018602F896889C01BFE
:104C900080B2A0F27B35ADB2B5426BD91868070778
:104CA0000FD540F2EA4618683F4D20F00800186022
:104CB000AF89E889C01B80B2A0F27B35ADB2B542A6
:104CC00051D91868C6060FD540F2EA461868364D25
:104CD00020F0100018602F8A688AC01B80B2A0F2F2
:104CE0007B35ADB2B54237D9186885060FD540F28D
:104CF000EA4618682C4D20F020001860AF8AE88A38
:104D0000C01B80B2A0F27B35ADB2B5421DD9186888
:104D1000400616D540F2EA461868234D20F04000C0
:104D20001860288B6B8B1B1A9BB2A3F27B3080B26E
:104D3000B04206D86420D38341F480111082116000
:104D400001E0002CFBD1F0BC704764250124908366
:104D500041F40031D581DAE764250124508341F420
:104D600080419581C0E764250124108341F40061EE
:104D70005581A6E764250124D08241F48071158114
:104D80008CE764245082948041F0040101245EE7A2
:104D900064250124908241F02001D5806BE700BF9B
:104DA000583D0020F04D0020EE500020D54801680D
:104DB000CB0140F110822DE9F043D34C8BB0278812
:104DC000102F00F2098272B6D04BD14A1B88928C08
:104DD0009BB292B262B6CF4E35899D4200F0F88107
:104DE00040F6853ECC4D35F813C0A2EB0C0292B2D2
:104DF000724540F2ED81102F338100F2F58135F8D4
:104E0000132092B2002F00F03C8140F2EC4E013BA7
:104E100003F01F0335F81360B6B2921B92B2A2F2F0
:104E20007A3C1FFA8CFCF445ADF8042000F2D081E6
:104E3000012F00F0BF83013B03F01F0335F813205F
:104E400092B2B61AB6B2A6F27A3C1FFA8CFCF445BE
:104E5000ADF8066000F2BC81022F00F01281013B28
:104E600003F01F0335F81360B6B2921B92B2A2F2A0
:104E70007A3C1FFA8CFCF445ADF8082000F2A881BA
:104E8000032F00F09783013B03F01F0335F8132035
:104E900092B2B61AB6B2A6F27A3C1FFA8CFCF4456E
:104EA000ADF80A6000F29481042F00F0EA80013B23
:104EB00003F01F0335F81360B6B2921B92B2A2F250
:104EC0007A3C1FFA8CFCF445ADF80C2000F280818E
:104ED000052F00F06F83013B03F01F0335F813200B
:104EE00092B2B61AB6B2A6F27A3C1FFA8CFCF4451E
:104EF000ADF80E6000F26C81062F00F0C280013B1D
:104F000003F01F0335F81360B6B2921B92B2A2F2FF
:104F10007A3C1FFA8CFCF445ADF8102000F2588161
:104F2000072F00F04783013B03F01F0335F81320E0
:104F300092B2B61AB6B2A6F27A3C1FFA8CFCF445CD
:104F4000ADF8126000F24481082F00F09A80013B16
:104F500003F01F0335F81360B6B2921B92B2A2F2AF
:104F60007A3C1FFA8CFCF445ADF8142000F2308135
:104F7000092F00F01F83013B03F01F0335F81320B6
:104F800092B2B61AB6B2A6F27A3C1FFA8CFCF4457D
:104F9000ADF8166000F21C810A2F72D0013B03F0BD
:104FA0001F0335F81360B6B2921B92B2A2F27A3C9C
:104FB0001FFA8CFCF445ADF8182000F209810B2F84
:104FC00000F0F882013B03F01F0335F8132092B282
:104FD000B61AB6B2A6F27A3C1FFA8CFCF445ADF8CC
:104FE0001A6000F2F5800C2F4BD0013B03F01F0339
:104FF00035F81360B6B2921B92B2A2F27A3C1FFA55
:105000008CFCF445ADF81C2000F2E2800D2F00F07E
:10501000D182013B03F01F0335F8132092B2B61A78
:10502000B6B2A6F27A3C1FFA8CFCF445ADF81E60CD
:1050300000F2CE800E2F24D0013B03F01F0335F881
:105040001360B6B2921B92B2A2F27A3C1FFA8CFCA9
:10505000F445ADF8202000F2BB80102F40F0AA826A
:10506000013B03F01F0335F8132092B2B61AB6B213
:10507000A6F27A3C1FFA8CFCF445ADF8226000F2EF
:10508000A78040F66D76013B03F01F0335F813301F
:10509000D21A92B2B24240F29B8046F678151F4B6C
:1050A00003FB07539A4200F39380002F00F08B809C
:1050B0000AAB03EB470333F8263C012FA38000F033
:1050C00082800AAB03EB470333F8283C022FE380CE
:1050D00079D00AAB03EB470333F82A3C032F238133
:1050E00071D00AAB03EB470333F82C3C042F6381E8
:1050F00069D00AAB03EB470333F82E3C052FA3819D
:1051000061D00DE0F04D0020345B002012530020F0
:10511000002C0140DC1F00202830002086FCFFFF0F
:105120000AAB03EB470333F8303C062FE3814AD048
:105130000AAB03EB470333F8323C072F238242D0FC
:105140000AAB03EB470333F8343C082F63823AD0B1
:105150000AAB03EB470333F8363C092FA38232D066
:105160000AAB03EB470333F8383C0A2FE3822AD01B
:105170000AAB03EB470333F83A3C0B2F238322D0CF
:105180000AAB03EB470333F83C3C0C2F63831AD084
:105190000AAB03EB470333F83E3C0D2FA38312D039
:1051A0000AAB03EB470333F8403C0E2FE3830AD0EE
:1051B0000AAB03EB470333F8423C102F238402D1A0
:1051C000BDF804306384642341F0006101606380B2
:1051D0000BB0BDE8F08370474AF655239F423FF479
:1051E000F2AD0BB0BDE8F08340F66D7E5A1E02F0C2
:1051F0001F0235F8137035F812301FFA83F8A7EB49
:105200000807BFB27745ADF8047000F2D58140F2CF
:10521000EC4CA7F27A37BFB26745D9D8013A02F011
:105220001F0235F812309FB2A8EB07039BB27345FB
:10523000ADF8063000F2F481A3F27A339BB26345F5
:10524000C6D8013A02F01F0835F8182092B2BB1AEE
:105250009BB27345ADF8083000F2A981A3F27A330E
:105260009BB26345B4D808F1FF3303F01F0335F850
:105270001370BFB2D21B92B27245ADF80A2000F291
:10528000D581A2F27A3292B26245E646A0D840F6C3
:105290006D7C013B03F01F0335F8132092B2BF1A57
:1052A000BFB26745ADF80C7000F2BD81A7F27A3746
:1052B000BFB277458CD8013B03F01F0335F813705C
:1052C000BFB2D21B92B26245ADF80E2000F2B1819E
:1052D000A2F27A3292B272453FF67AAF013B03F006
:1052E0001F0335F813201FFA82F9A7EB090292B2C7
:1052F0006245ADF8102000F29F81A2F27A3292B29C
:1053000072453FF665AF013B03F01F0335F81320EC
:105310001FFA82F8A9EB080292B26245ADF812209A
:1053200000F29081A2F27A3292B272453FF650AF0B
:10533000013B03F01F0335F81370BFB2A8EB07025F
:1053400092B26245ADF8142000F27981A2F27A326D
:1053500092B272453FF63CAF013B03F01F0335F8B4
:10536000132092B2BF1ABFB26745ADF8167000F2B3
:105370006C81A7F27A37BFB277453FF629AF013B80
:1053800003F01F0335F81370BFB2D21B92B262450F
:10539000ADF8182000F25C81A2F27A3292B2724526
:1053A0003FF616AF013B03F01F0335F8132092B20E
:1053B000BF1ABFB26745ADF81A7000F24C81A7F270
:1053C0007A37BFB277453FF603AF013B03F01F03C7
:1053D00035F81370BFB2D21B92B26245ADF81C20F3
:1053E00000F23C81A2F27A3292B272453FF6F0AE00
:1053F000013B03F01F0335F813E01FFA8EFEA7EB05
:105400000E0292B26245ADF81E2000F22A8140F2EF
:10541000EC47A2F27A3292B2BA423FF6D9AE013BE1
:1054200003F01F0335F813201FFA82F8AEEB0802D1
:1054300092B26245ADF8202000F21981A2F27A32D0
:1054400092B2BA423FF6C4AE013B03F01F0335F8F7
:1054500013E01FFA8EFEA8EB0E0292B26245ADF881
:10546000222000F20181A2F27A3292B2BA423FF6D1
:10547000AFAE013B03F01F0335F81330AEEB03036F
:105480009BB26345ADF824307FF6A2AE10252B46C3
:105490007289758195427FF49BAE0AAD05EB430599
:1054A00035F8265C012AA58000F08F800AAD05EB57
:1054B000430535F8285C022AE58040F289800AAD70
:1054C00005EB430535F82A5C032A258140F28380E9
:1054D0000AAD05EB430535F82C5C042A65817DD9BE
:1054E0000AAD05EB430535F82E5C052AA58178D970
:1054F0000AAD05EB430535F8305C062AE58173D922
:105500000AAD05EB430535F8325C072A25826ED9D2
:105510000AAD05EB430535F8345C082A658269D984
:105520000AAD05EB430535F8365C092AA58264D936
:105530000AAD05EB430535F8385C0A2AE5825FD9E8
:105540000AAD05EB430535F83A5C0B2A25835AD999
:105550000AAD05EB430535F83C5C0C2A658355D94B
:105560000AAD05EB430535F83E5C0D2AA58350D9FD
:105570000AAD05EB430535F8405C0E2AE5834BD9AF
:10558000102A0AAD05EB430514BF40F2DC530AAA0A
:1055900035F8425C04BF02EB430333F8443C2584F6
:1055A000642241F0006101606384628010E602259C
:1055B0002B466DE7324664E5002273897281002B29
:1055C0007FF406AE40F2DC53A38040F2DC53E3806C
:1055D00040F2DC53238140F2DC53638140F2DC5320
:1055E000A38140F2DC53E38140F2DC53238240F29A
:1055F000DC53638240F2DC53A38240F2DC53E3824B
:1056000040F2DC53238340F2DC53638340F2DC53EB
:10561000A38340F2DC53E38340F2DC532384BFE7EF
:1056200001252B4634E704252B4631E703252B467D
:105630002EE705252B462BE706252B4628E70825D0
:105640002B4625E707252B4622E709252B461FE792
:105650000A252B461CE70B252B4619E70C252B4664
:1056600016E70D252B4613E70F252B4610E70E25D1
:105670002B460DE7044B1B68DB0003D572B6034BCA
:10568000188062B6704700BFF04D00201E2B00202E
:10569000804B10B49A8819684AB1013A92B2012A33
:1056A00021F0020040F2C4809A8001460122D8888D
:1056B00048B1013880B2012821F0100240F2D080B8
:1056C00011460122D880188940B1013880B20128E2
:1056D00021F0800233D9114601221881588940B146
:1056E000013880B2012821F4806240D9114601229C
:1056F0005881988940B1013880B2012821F40052C4
:105700004DD9114601229881D88940B1013880B223
:10571000012821F480325AD911460122D881188AF1
:1057200040B1013880B2012821F4002267D91882E3
:105730001A6002E0002A40F0AB8010BC70470020E5
:105740001881480601D541F0800222F4807172B6BA
:105750005148026822F00402026062B64F4C0122F6
:10576000208C20F002000004000C2084B6E700200A
:105770008C05588101D541F4806222F4006172B633
:105780004548026822F00802026062B6444C0122D9
:10579000208C20F002000004000C2084A9E70020E7
:1057A0009881C80401D541F4005222F4804172B6B8
:1057B0003948026822F01002026062B6384C0122B9
:1057C000208C20F020000004000C20849CE70020A6
:1057D0000C04D88101D541F4803222F4003172B634
:1057E0002D48026822F02002026062B62C4C012291
:1057F000208C20F400700004000C20848FE700202F
:105800001882480348BF41F4002272B6224801685A
:1058100021F04001016062B6214922F480121A6031
:105820000B8C10BC23F400531B041B0C0B8470471F
:1058300000229A80CA0701D541F0020020F004013D
:1058400072B61548026822F00102026062B6134C7B
:105850000122208C20F400700004000C208426E734
:1058600000200C07D88001D541F0100222F0200161
:1058700072B60948026822F00202026062B6074C62
:105880000122208C20F020000004000C20841AE764
:105890000A464DE7F04D0020583D0020002C014005
:1058A000003401400D4A53885BB10D4810B4013BF0
:1058B00004689BB224F00071012B016002D910BC76
:1058C0005380704700235380E30148BF41F00071CB
:1058D00021F00061016010BCF3E700BF345B0020E1
:1058E000F04D002008B5002340F2DC500C4A136054
:1058F0000C4A1360D11802330E2B4882FAD10023D0
:1059000040F2DC5108481A180233202B9180FAD15A
:105910000120FEF7D9FDBDE808400120FEF70CBECE
:10592000583D0020F04D0020345B002006282DE972
:10593000F84304460F4639D801264FEA400808EBE1
:10594000000906FA09F61A4D21B92B681E4206D144
:10595000BDE8F883012902D12B681E4226D100211F
:105960002046FEF7A5FE72B60120124BA040196832
:1059700021EA0001196062B6072303FA09F22B68D5
:1059800040F2DC5123EA02036422A844A8F8042070
:10599000012F05EB44022B60518207D11E432E607C
:1059A00039462046BDE8F843FEF782BEBDE8F883DD
:1059B000F04D0020583D00202DE9F0410746884673
:1059C000234E21B93368DA010AD4BDE8F0810129F8
:1059D00006D13368DB0103D51E4B1B88834235D0CB
:1059E0000020FEF797FF72B61B4C236823F48073E8
:1059F000236062B63368642123F0306500231846C3
:105A0000144A35605180154913800B80144921F8E0
:105A100013000133202BFAD1002040F2DC5113187F
:105A2000023020289980FAD1B8F1010F0ED16FB160
:105A300045F080751780356072B6236843F4807333
:105A4000236062B6BDE8F041FEF7D2BDBDE8F0814B
:105A5000F04D0020345B0020583D00201253002000
:105A6000283000202DE9F047804689469246254C93
:105A700022B92368DA000AD4BDE8F087012A06D1EA
:105A80002368DB0003D5204B1B88834238D00020DD
:105A9000FEF75CFF72B61D4D2B6823F400732B607C
:105AA00062B644F6206140F2DC50194E194F164A96
:105AB000308039803888118031882368401A16492F
:105AC00023F0805380B2BAF1010F2360088017D110
:105AD000A6F80090A7F80080A2F800803A883088E5
