:020000040800F2
:1000000038740020611902085D1902085D190208A0
:100010005D1902085D1902085D1902080000000060
:100020000000000000000000000000005D19020850
:100030005D190208000000005D1902082D1B000870
:100040005D1902085D1902085D1902085D190208B0
:100050005D1902085D1902085D1902085D190208A0
:100060005D1902085D1902085D1902085D19020890
:100070005D1902085D1902085D1902085D19020880
:10008000490D0008550D00085D1902085D190208A8
:10009000891B00085D1902085D1902085D19020834
:1000A0005D1902085D1902085D190208C5280008DB
:1000B0005D1902085D1902085D1902082D0D00087E
:1000C000390D00085D1902085D1902085D19020862
:1000D0005D190208D93A00085D190208F1C5000847
:1000E0005D1902085D1902085D1902085D19020810
:1000F0005D1902085D1902082D2A00085D19020821
:100100005D1902085D190208999100085D1902083D
:10011000A91B00085D1902085D1902085D19020893
:100120005D1902085D1902085D1902085D190208CF
:100130005FF808F110B5064C18B9236801221A823D
:1001400010BD044B1B681B68984720680A3010BD1F
:10015000EC6F0020E86F002010B5064C18B923683A
:1001600001221A8210BD044B1B689B6898472068C7
:100170000C3010BDEC6F0020E86F002010B5204A55
:1001800018B9136802221A8210BD1E481468002391
:1001900003802178024611F07F010DD1637A990620
:1001A00044BF0221017013F0400F037814BF43F0E5
:1001B000010323F0010314E0012920D002291DD1FD
:1001C000617901F00F039B0003F1804303F5B8430D
:1001D00011F0800F1B6806D003F03003102B07D1FD
:1001E0000123137004E003F44053B3F5805FF6E796
:1001F000054B1B681B699847024810BD184610BD87
:10020000EC6F00209A1E0020E86F00202DE9F843D3
:10021000234FDFF8A0803C68238AC3B9267A042ED6
:1002200015D120480278012A0CD11F4A11681F4AB3
:1002300089B20A445200138053803022A8F800206B
:10024000037029E01023A8F80030072624E0A58ACF
:10025000AB4294BF042602269D4228BF1D46A369D7
:10026000284698478146002021F0A4FC2A460146F2
:10027000484622F0BDFC2946002021F039FC238AA3
:100280004FF440525B1B2382638A1D443023A8F83D
:100290000030074B65821A803B681E72BDE8F88308
:1002A000EC6F0020581E0020505C004002300020FF
:1002B000B86B0020BA6B002010B50A4B0A491B68C6
:1002C0004978DA7891420AD3997841B99C8834B94F
:1002D0009A72064B1B685B689847204610BD022047
:1002E00010BD00BFEC6F0020D0190020E86F002087
:1002F00038B50E4A0E4D12682B689269D978587934
:1003000090472B689A7A7AB170B91A7962B99C7859
:1003100054B9084B1B68DB6898472B6820465A790C
:10032000DA72DA781A7338BD022038BDC46F002043
:10033000EC6F0020E86F002038B5314B1B6818784F
:1003400010F07F0004D15A7A22F020025A7238BD90
:10035000022853D15A88002A51D11A79002A4ED145
:100360005979284D21F08000840004F1804202F583
:10037000B84212682D7811F0800F14BF02F03002DD
:1003800002F44052A84239D2002A37D09B7A002B7F
:1003900034D004F1804404F5B8440A0623680CD52F
:1003A00003F03003102B23D1C4B2204621F08EFB82
:1003B0003021204621F00EFB1AE003F44053B3F540
:1003C000805F15D128B9104B93F82C1021F09EFBBB
:1003D00001E021F069FB236823F4804323F07003DC
:1003E0009BB283F4405343F4004343F08003236003
:1003F000064B1B685B699847002038BD022038BD5A
:10040000EC6F0020D01900204C190020E86F00206C
:1004100038B51F4B1F4D18682D78417921F08004A5
:10042000A30003F1804202F5B842126811F0800F78
:1004300014BF02F0300202F44052AC4225D244888C
:100440001CBB12B3827A02B303F1804303F5B843B5
:100450001A6809064BBF22F4E04222F4804222F0DF
:10046000400222F070024BBF92B292B282F01002B0
:1004700082F4805242F4004242F080021A60064B3D
:100480001B689B699847002038BD022038BD00BF1B
:10049000EC6F0020D0190020E86F002008B5064B53
:1004A0001A68537A43F020035372044B1B68DB69CC
:1004B0009847002008BD00BFEC6F0020E86F0020C7
:1004C000054B10B51C68628A18B98B889B1A238269
:1004D00010BD0868104410BDEC6F002008B50B4B30
:1004E000002093F82C1021F011FB094B1B68187A9F
:1004F000082806D1074B4FF480521A80064B102271
:100500001A80A0F109035842584108BD4C19002037
:10051000EC6F0020B86B0020BA6B0020F7B59E4D41
:100520009E4E2F6832683B7A092B1AD09C4B92B2B0
:1005300013445B001C68A4B2640004F1804404F519
:10054000C04423783B7063787B70A08821F058FB0F
:10055000788020892F6821F053FBB880A2892B680E
:10056000DA802B6801221A72DA885C78002A56D168
:100570001A7812F07F0238D1092C02D1FFF79CFEC5
:1005800042E0052C10D193F90320002A01DA082358
:1005900042E09A78002AFAD19A88002AF7D19B7A09
:1005A000002B00F01381F2E7032C10D1DA78012A36
:1005B00007D07C4B20461B685B699847032827D1EE
:1005C00029E09B88002BF4D1FFF768FF1CE0012C89
:1005D000EFD1DA78012AECD19A88002AE9D15B7A46
:1005E0009906E6D5FFF7A8FE0EE0012A04D10B2CF0
:1005F000DFD1FFF77DFE07E0022ADAD1012CF1D02E
:10060000032CD6D1FFF704FF002800F0DF80D0E7ED
:100610000028BCD1DAE009232A681372D2E0062C44
:1006200015D11A78520640F0E0809A785D4B012A85
:1006300002D11B68DB6972E0022A02D11B681B6AC7
:100640006DE0032A40F0D1801B685B6A67E0002CF4
:1006500041D15988002940F0C8805A6822F47F426D
:10066000B2F5003F40F0C1801A7812F07F0204D149
:100670009B88002B00F0B780B7E0012A0BD1494AD4
:100680005879126892699047002840F0AE80424B3A
:100690001B689B7A1BE0022A40F0A7805A794248E7
:1006A00002F00F018B0003F1804303F5B8431B6890
:1006B000007812F0800F14BF03F0300303F44053AE
:1006C000814280F0928012F0700F40F08E80002BFB
:1006D00040F0898089E0082C05D11B785B0640F04A
:1006E0008480324B1DE00A2C7FD11A7802F07F0201
:1006F000012A7AD19A7A002A77D05988002974D1B0
:100700005A6822F47F42B2F5803F6ED1254A58796B
:10071000126892699047002867D1254B01E0002BB1
:1007200063D02A680024548293612046984720466B
:100730004FF6FF712B681A8A8A4201D1092203E021
:10074000022800D012B908221A723BE093F9001077
:10075000002931DAD988134C01910198824202D9DB
:10076000019A1A8210E08A420ED2216891F82C0078
:10077000824201D2002105E092FBF0F100FB112240
:1007800012B901210B4A1170226892F82C209A822A
:10079000FFF73CFD16E000BFEC6F0020505C00400E
:1007A00004300020C46F0020D0190020350100085B
:1007B00059010008581E002003221A72104B4FF4F2
:1007C00040521A80FFF78AFE03B0F0BD32680D4B2D
:1007D00092B213445B0000221A805A800A4B3022E6
:1007E0001A80062318E7094B9BE7094B2A681B6808
:1007F00050781B69984703289AD1064B1B689DE7E0
:10080000B86B002002300020BA6B00207D01000888
:10081000C46F0020EC6F0020F8B52C4D2C68237AB3
:10082000022B4CD0042B4AD0032B01D0052B40D1F6
:10083000A169268AA9B1A6B1A38A9E4228BF1E46F5
:1008400030468847238A07469B1B2382638A002001
:100850003344638221F0C0F932460146384622F023
:10086000D9F9238A53B11A4B00214FF4405208465C
:100870001A8021F03DF9174B30221A80A38A228A70
:1008800093422B6801D8032201E012B105221A72AB
:100890000CE006211972104B1968104B89B20B44F9
:1008A0005B001A805A800B4B30221A802B681B7A0F
:1008B00006E0072B03D10A4B1B68DB689847082327
:1008C0002A681372BDE8F840FFF708BEEC6F0020FD
:1008D000B86B0020BA6B0020505C00400230002052
:1008E000C46F002070B50D4B00221D78AA4210D2B3
:1008F00040F60F7102F1805303F5B8539B001E6858
:1009000042F4004444F08004314021431960013234
:10091000ECE7034B40F08000186070BDD019002058
:100920004C5C004010B5134C23681A7A022A01D09F
:10093000042A04D1FFF76AFC23681B7A13E0062A15
:1009400010D15A78052A09D11A78520606D1D878DA
:10095000FFF7C8FF084B1B681B6A9847074B1B68CB
:100960009B689847082322681372BDE81040FFF780
:10097000B5BD00BFEC6F0020E86F0020C46F002001
:1009800070470000084B10B553F820400121204665
:1009900021F02AFD2046002121F026FD2046BDE859
:1009A0001040012121F008BDC4560208084B10B5C3
:1009B00053F820400121204621F016FD2046002159
:1009C00021F012FD2046BDE81040002121F0F4BCCA
:1009D000C45602082DE9F3410746134C85006319FC
:1009E00098681B690121184321F0DAFC03238DF874
:1009F000063004EB47041C238DF80730238B02AE2E
:100A0000DFF8288026F8043D314658F8270021F009
:100A10009DFA4544A38B3146A868ADF8043021F017
:100A200095FA02B0BDE8F081C4560208000000202B
:100A3000F7B507460E4E032306EB40068DF8063049
:100A400004238DF80730338B02AD0A4C25F8043DA2
:100A5000294654F8200021F079FA04EB8704B38B7F
:100A60002946A068ADF8043021F070FA03B0F0BD5B
:100A7000C45602080000002070B5184C85002C44B4
:100A80000E46206A012121F07FFC4FF6FF731449C6
:100A90008022CB6000230B618B61CB618B62A36AE8
:100AA0004A6116F0010F4FF440524A620B600C4647
:100AB00006D010238B600B4B2B44186921F0B0FF3C
:100AC000B30709D50023A360064B05491D44A86957
:100AD000BDE8704021F0A4BF70BD00BFC45602083D
:100AE0009C1E00200000002010B40C4B0C684968CC
:100AF0008000D9600A4912F480420144896A18BF13
:100B000020221A6210225C6019609A60054B03492A
:100B10001844006910BC21F083BF00BF9C1E002058
:100B2000C45602080000002010B40C4B0C68496841
:100B30008000D9600A4912F400420144896A18BF52
:100B400020221A6200225C6019609A60054B0349FA
:100B50001844806910BC21F063BF00BF9C1E0020B8
:100B6000C456020800000020CA0738B504460D46E6
:100B700005D5084B03EB8003186921F0D9FEAB07BC
:100B800007D5044800EB84008069BDE8384021F0B7
:100B9000CFBE38BD000000202DE9F74305460F46C3
:100BA000404C90466619994621F074FF01238DF858
:100BB000073096F8303001A88DF8043096F83230BE
:100BC0008DF8053096F834308DF8063021F070FF3E
:100BD000780217D496F8363001A88DF8043096F8CC
:100BE00038308DF8053096F83A308DF8063021F01F
:100BF0005FFF2D4B03EB85031A6A93889BB243F486
:100C000080739380B9F1020F49D118F0010F21D000
:100C1000631993F83C2001A88DF8042093F83E2036
:100C200093F840308DF805208DF8063021F040FF14
:100C30001D4BB90503EB85031B691A6842F00202DC
:100C40001A601A6842F008021A6042BF1A6842F03D
:100C500004021A6018F0020F21D0631993F84220A1
:100C600001A88DF8042093F8442093F846308DF8BD
:100C700005208DF8063021F01BFF0B4B03EB85059B
:100C8000AB691A6842F002021A601A6842F0080260
:100C90001A60FA0442BF1A6842F004021A6003B0F4
:100CA000BDE8F083C4560208000000202DE9F34798
:100CB0008A461D4E9946371800238DF805308DF869
:100CC00006308DF8073097F8303002AC04F8043D58
:100CD00005462046904621F0EBFE1AF4800F06D11F
:100CE00097F8363020468DF8043021F0E1FEB9F156
:100CF000020F15D118F0010F07D0731993F83C308B
:100D000020468DF8043021F0D3FE18F0020F07D0F2
:100D1000354495F8423020468DF8043021F0C8FE65
:100D200002B0BDE8F08700BFC4560208014820F0B9
:100D300069BB00BF2800002008B5024820F03CF83D
:100D4000002008BD28000020014820F0A5B800BF01
:100D500028000020014820F02DB900BF2800002005
:100D60000A88504080EA0010C0B2030983EA1223C7
:100D700043EA002383EAC0000880704713B50446A5
:100D800023786278084643EA022302A921F8023D4B
:100D9000FFF7E6FFBDF80630238002B010BD00006B
:100DA000024A0C2303FB0020806870473C5702086E
:100DB000034A0C2303FB0020D0F8E408704700BF6F
:100DC0003C570208034A0C2303FB0020D0F8080913
:100DD000704700BF3C570208034A0C2303FB002066
:100DE000D0F80C0B704700BF3C570208034A0C2395
:100DF00003FB0020D0F8280D704700BF3C570208C5
:100E00002DE9F04F0446884617460568DDB005EB2E
:100E1000C2039D42036088BF4368C5F3C50584BF14
:100E20000133436000F128030193002F00F0BB80E1
:100E3000C5F14006BE4228BF3E46019B41465819B7
:100E40003246354424F09EF8402DB044A7EB060707
:100E5000EBD10CAB1D4601990022C878043305F88C
:100E600022008878043103F8030C11F8030C03F80E
:100E7000020C019810F822000132102A03F8010C2C
:100E8000EBD1A36800200293E3681CA903932369B4
:100E9000049363690593A3690693E3690793236A3F
:100EA0000893636A09930CAB53F8203041F8203063
:100EB00001301028F7D18A6B4E684FEAF24585EA77
:100EC000724383EA92254A6A0B684FEAB64E13448E
:100ED0008EEAF61E1D448EEAD606013035444028BF
:100EE0000D6401F10401E6D1059B04980B93039D69
:100EF0000299089EDDF81CE0DDF824B0069B4FF057
:100F0000000C4FEAF32926EA030A89EAB31903EA37
:100F10000E028AEA020289EA736991441CAA52F815
:100F20002C204FEA713A9144204A8AEAB10A52F8D9
:100F30002C208AEAB15A9144D94480EA050B0BEA85
:100F4000010B05EA00028BEA020292440B9A0CF1B3
:100F5000010C4A44BCF1400F0A92D144B3460B90B5
:100F600006D0284676460D469E4649460A9BC8E767
:100F7000029A4A44A260039A0A44E260049A0A99D7
:100F80002A442261059A002502446261069A0A44B5
:100F9000A261079A1A44089BE26173442362099B89
:100FA0003344636241E75DB0BDE8F08F74640208CA
:100FB0002DE9F04104460E46056892B0C5F3C50719
:100FC0000DF148088023472200210DF10100C7F1EF
:100FD000770708F8483D07F03F0724F0ADF812AB5B
:100FE0003B442A0A03F8412C2A0C03F8422C62687D
:100FF00003F8405C110A03F8442C03F8451C110C5B
:10100000120E03F8461C03F8472C2D0E07F10902B7
:101010004146204603F8435CFFF7F2FEE37A337063
:10102000A37A7370637AB370237AF370E37B3371BE
:10103000A37B737112B0BDE8F08109B924F07CB8CC
:1010400023F0A0BF70B50D460646C4781722172CB2
:1010500028BF17240021284624F06EF8224606F106
:101060000C012846BDE8704023F08CBF70B50D46DA
:101070000646C4782322232C28BF23240021284697
:1010800024F05AF8224606F10C012846BDE87040CB
:1010900023F078BF70B50D460646C4782122212C76
:1010A00028BF21240021284624F046F8224606F1D4
:1010B0000C012846BDE8704023F064BF70B50D46B2
:1010C0000646C478FE22FE2C28BFFE2400212846B6
:1010D00024F032F8224606F10C012846BDE87040A3
:1010E00023F050BF70B50D460646C4781422142C68
:1010F00028BF14240021284624F01EF8224606F1B9
:101100000C012846BDE8704023F03CBF70B50D4689
:101110000646C4788522852C28BF852400212846D0
:1011200024F00AF8224606F10C012846BDE870407A
:1011300023F028BF10B5074C40F22551204621F07E
:1011400000FB2046BDE81040012240F2255121F06D
:10115000D3BA00BF004C004010B5074C40F22551F7
:10116000204621F0EEFA2046BDE81040012240F270
:10117000255121F0C1BA00BF00380140034AB2F83E
:10118000E83F43F01003A2F8E83F704740560020C4
:1011900010B5074C40F22551204621F0D2FA2046E6
:1011A000BDE81040012240F2255121F0A5BA00BF50
:1011B000004800402DE9F04F724FA7B03C7C054637
:1011C000A4079DF8C0009DF8C46005D47C6994B163
:1011D000247804F001040EE0FE242C706870BC7AC0
:1011E00005F10609AC70E9702A716B71064600249E
:1011F0004FF0060A1EE005F10A09012E11D8FD2064
:10120000287000206E70AC70E870B87AAA71EB712B
:101210001A0A1B0C287169712A726B724FF00A0A44
:1012200008E009EB060010F8010C0028E7D1013EA8
:10123000F6B2E2E74FF6FF711FFA8AFBBB7A0BF1B9
:10124000FF381FFA88F8013326AA08F10108BB729B
:1012500022F8681D6B1CA844984509D013F8010BAF
:10126000114602920193FFF77BFD029A019BF3E77F
:10127000C846BDF8302026AB23F8822DB2B20192C9
:1012800009EB0602904509D0194618F8010B0392A4
:101290000293FFF765FD039A029BF3E719469DF859
:1012A000C800FFF75DFDBDF8163088F800301B0A56
:1012B00088F80130002C5AD07C69002C57D0207857
:1012C00010F0010052D0637826A98DF82030D4E9BF
:1012D0000223CDE9062351F8800D0132898843F1BC
:1012E0000003ADF82510C4E9022300230C930D93ED
:1012F000254BCDF821000E93244B04F110010F93E0
:10130000234B0CA81093234B20221193224B0D2426
:101310001293224B1393224B149303F17453A3F5AE
:101320002303A3F692431593FFF76AFD524629461D
:101330000CA8FFF765FD324649460CA8FFF760FD93
:1013400041460CA80222FFF75BFD072208A90CA862
:10135000FFF756FD0DF127010CA8FFF729FE2246E5
:1013600008A908F1020023F00DFE00E00446019BED
:101370009B440BF1020B0BEB040080B227B0BDE8DD
:10138000F08F00BFFC1F002067E6096A85AE67BBCF
:1013900072F36E3C3AF54FA57F520E518C68059B57
:1013A000ABD9831FF0B505460E461746154A6FF0B8
:1013B0003701127C85B012F0020F14BF06200A20FC
:1013C0002C182954002264206270A070E2702171F0
:1013D00062711946A01D0822FFF72FFE0A9904F139
:1013E0000E000822FFF729FED9230293162301934A
:1013F00000933A464FF4967331462846FFF7DAFEDB
:1014000005B0F0BDFC1F002000EB80004300184633
:101410000138FDD87047402808B5024609D8BDE814
:101420000840C0EB401002EB8000C00080B2FFF724
:10143000EBBF4FF47A70FFF7E7FF013A92B2002A50
:10144000F7D108BD0288838810B5541C2340448816
:101450009C421FBF8468A1540380012008BF002064
:1014600010BD438802889A4209D08268D35C0B7011
:1014700043885A1C83881340438001207047002012
:101480007047428803889B1A9BB21A0441BF808828
:1014900001301B1898B258BF1846704770B542F219
:1014A0000F763025049C0D70B04207D90D78A0F559
:1014B0001C50013510380D7080B2F5E730211170E5
:1014C000B0F57A7F06D31178A0F57A7001311170EA
:1014D00080B2F5E730221A70632805D91A7864388B
:1014E00001321A7080B2F7E730232370092805D93A
:1014F00023780A380133237080B2F7E7059B303038
:10150000187070BD2DE9F043DDF81CC04FF03008B5
:10151000DDF820E0099F0A9E0B9D0C9CDFF80491EA
:1015200081F8008048450CD991F8008000F14440D2
:1015300008F1010800F5CA0081F8008000F5585054
:10154000F0E73021DFF8E0801170404509D91178CB
:1015500000F17A40013100F52120117000F5706032
:10156000F3E730222C491A70884207D91A78A0F57F
:10157000190001321A7000F5D340F5E73023274AED
:101580008CF80030904209D99CF80030A0F5742006
:1015900001338CF80030A0F51070F3E73023204AB7
:1015A0008EF80030904208D99EF80030A0F5C33084
:1015B00001338EF80030A038F4E742F20F72302386
:1015C0003B70904206D93B78A0F51C5001333B702C
:1015D0001038F6E730233370B0F57A7F05D33378CF
:1015E000A0F57A7001333370F6E730232B7063284F
:1015F00004D92B78643801332B70F8E7302323703B
:10160000092804D923780A3801332370F8E70D9BA1
:1016100030301870BDE8F0837F9698003F420F008D
:101620009F860100FFC99A3BFFE0F50513B500282E
:10163000B5BF2D2320230B700B70B8BF404201F1C2
:101640000503B8BF00B201930B1D0C4600938A1C22
:10165000CB1C80B20131FFF721FF0023A37102B040
:1016600010BD10B50028B5BF2D2320230B700B70C3
:1016700088B001F10A03069301F10903059301F112
:101680000803049301F10703039301F10603029396
:1016900001F10503019301F104030C46009301F1EC
:1016A000020201F10303B8BF40420131FFF72AFFF4
:1016B0000023E37208B010BD0A2330B51C46012296
:1016C000834203D8013292B26343F9E7531E1BB23F
:1016D0000A24002B09DBB0FBF4F504FB15003030C5
:1016E000C854013B28461BB2F3E700238B5430BD9E
:1016F00010B5034C2146FFF7DFFF204610BD00BFA9
:101700009847002070B504460E4615461FF0FEFAB5
:1017100020461FF02DFB4BF6FF720323637002235C
:10172000E370E3690020A0706660A560DA804FF482
:1017300080625A814FF480429A81044A98801881CD
:101740001A6020461FF070FA80B270BD00350C00A0
:10175000084A08B51388084901339BB21380074A29
:101760000748136801331360064AFFF7CBFF0020D8
:1017700008BD00BF20230020683000202456002030
:10178000280000205C2F0020064A074913880748DC
:1017900001339BB21380064A136801331360054A74
:1017A000FFF7B0BF20230020683000202800002071
:1017B000245600205C2F0020024A03490348FFF70B
:1017C000A1BF00BF5C2F002068300020280000204F
:1017D000024A136801331360704700BF245600208B
:1017E00037B5044600284FD10121082020F0D8FD4C
:1017F00003238DF80630142302AD8DF80730402303
:1018000025F8043D29464D4820F0A0FB04238DF81F
:10181000073029464FF400634848ADF8043020F003
:1018200095FB01224021454820F0E9FB0A20FFF703
:10183000EBFD00224021414820F0E1FB0A20FFF7A8
:10184000E3FD092C1BD93D4820F0D2FB020616D53A
:1018500001224021394820F0D2FB0A20FFF7D4FDB5
:1018600000228021354820F0CAFB0A20FFF7CCFD7A
:1018700032480122802120F0C2FB01205CE00134CB
:10188000142CCED1002057E00128FBD101460820BE
:1018900020F086FD03238DF80630142302AC8DF86A
:1018A00007304FF4806324F8043D2146234820F09C
:1018B0004DFB04238DF8073021464FF400631F4889
:1018C000ADF8043020F042FB002401224FF4806187
:1018D0001A4820F094FB0A20FFF796FD00224FF4EF
:1018E0008061164820F08BFB0A20FFF78DFD092C44
:1018F0001ED9124820F07CFB030519D501224FF4B4
:1019000080610E4820F07BFB0A20FFF77DFD00225E
:101910004FF40061094820F072FB0A20FFF774FDC4
:10192000064801224FF4006120F069FB012003E02A
:101930000134142CC9D1A5E703B030BD000C01401F
:10194000024608B506490B7B012B05D00120FFF7A5
:101950005BFD1AB1013AF6E7002008BD012008BD81
:101960002800002010B50E4C4000A0600D482260F9
:101970006360E1601FF070FC28B10B4A012013681E
:101980000133136010BDBDF80830012B06D142F2BF
:101990001070FFF7D5FF003018BF012010BD00BF49
:1019A0005C2F0020280000202456002010B50E4C8B
:1019B0004000A0600D4822606360E1601FF0F6FB0C
:1019C00028B10B4A012013680133136010BDBDF824
:1019D0000830012B06D142F21070FFF7B1FF003042
:1019E00018BF012010BD00BF683000202800002073
:1019F0002456002013B5064B1C7800230093134691
:101A00000A4601462046FFF7ADFF02B010BD00BFF9
:101A10001655002013B5064B1C780123009313467E
:101A20000A4601462046FFF79DFF02B010BD00BFE9
:101A30001655002013B5064B1C780123009313465E
:101A40000A4601462046FFF7B1FF02B010BD00BFB5
:101A50001655002008B50122FFF7DCFF20B1034A2C
:101A6000012013680133136008BD00BF2456002015
:101A7000F7B50C461E46174612B93270104613E0F1
:101A80000DF10701FFF7E6FF012560B96119C9B241
:101A9000BD40C91B013D9DF807308D401D4045FAF2
:101AA00001F1317000E0284603B0F0BD07B502AB8C
:101AB00003F8011D01221946FFF7BCFF20B1044ABB
:101AC000012013680133136003B05DF804FB00BF0D
:101AD000245600202DE9F34106460F469846154648
:101AE00002B30DF10701FFF7B5FF0124C0B93919A1
:101AF000C9B2AC40491B013C8C409DF8073008FA44
:101B000001F1C9B223EA04030C4043EA0401304660
:101B10008DF80710FFF7CAFF003018BF012002E060
:101B2000204600E0104602B0BDE8F081034B0122E0
:101B30001A805A6801325A601FF0BABA5C1E00203F
:101B40000C4B0021198059600B4B0C4A1B68F0208C
:101B5000B3FBF2F340F2DC525343094A013B5360BA
:101B6000084B83F8230007209160106083F823104E
:101B7000704700BF5C1E00201419002040420F0077
:101B800010E000E000ED00E021F056B808B520F0CC
:101B900079F820F08FF820F061FB20F06BF9BDE8B8
:101BA000084020F092B80000194B10B5198889B28E
:101BB0008A060FD5174C18489A8823880088013365
:101BC000C3F3080380B2834292B21FBF1348D2B25C
:101BD000C25423800B061AD5114B124A1988138858
:101BE00089B29BB299420BD013880133C3F3080327
:101BF000138013880C4A9BB2D35C054A938010BDB6
:101C0000034A938923F080031B041B0C938110BDAE
:101C1000004C0040F63500200836002028500020F7
:101C2000302D00209C4C00203C5200200B490C4AD7
:101C30000B8812880133C3F3080392B293420AD08F
:101C4000084AD054084A0B80938901209BB243F084
:101C50008003938170470020704700BF302D002023
:101C60009C4C00203C520020004C0040044B188843
:101C7000044B80B21B889BB2C01A18BF012070476A
:101C8000F63500200836002010B50948094C218897
:101C9000038889B29BB29942054AF8D01388013370
:101CA000C3F3080313801388034A9BB2D05C10BDB2
:101CB00008360020F635002028500020024A002374
:101CC0001380024A1380704708360020F635002042
:101CD0001FB5002300900C2269460848ADF8043077
:101CE000ADF80630ADF80830ADF80A20ADF80C308C
:101CF00020F08CFC05B05DF804FB00BF004C0040F8
:101D00007FB501214FF4002020F056FB324C012119
:101D1000112020F045FB4FF48063ADF8003003251F
:101D20001823694620468DF803308DF8025020F0C4
:101D30000DF94FF400636946ADF8003020464823A2
:101D4000A4F544448DF803308DF8025020F0FEF8DD
:101D500002A820F0BFFC02A9204620F0ABFC4FF403
:101D6000E130FFF7B5FF34238DF8043001260F234F
:101D700001A88DF805308DF806308DF8076020F049
:101D800097FE0022204640F2277120F0B5FC204645
:101D900040F2277120F0D5FC204640F2266120F069
:101DA000D0FC0E4B00251D800D4B2A46204640F2EC
:101DB00025511D8020F0A0FC204640F2255120F046
:101DC000C0FC084B31461D80074B20461D8020F08B
:101DD00087FC04B070BD00BF001001409C4C002087
:101DE000302D002008360020F635002008B5FFF71A
:101DF00087FFBDE80840FFF79DB901231A46072178
:101E00006B20FFF767BE0023012206216B20FFF73E
:101E100061BE0346032202216B20FFF75BBE014631
:101E20001920FFF743BE01461920FFF713BE0346F2
:101E3000032202211A20FFF74DBE0346032202218E
:101E40001A20FFF715BE0346022204211B20FFF7CC
:101E500041BE0346022204211B20FFF709BE0346B0
:101E6000022204211C20FFF735BE03460222042172
:101E70001C20FFF7FDBD10B5044600F00703032248
:101E800002211A20FFF726FEC4F3011302220121CA
:101E90001B20BDE81040FFF71DBE13B5032204460A
:101EA0000DF1060302211A20FFF7E2FD0DF10703F1
:101EB000022201211B20FFF7DBFD9DF8063003F015
:101EC0000703237002B010BD10B5044600F00703ED
:101ED000032202211D20FFF7FDFDC4F300130122A0
:101EE00003211D20BDE81040FFF7F4BD13B5032208
:101EF00004460DF1060302211D20FFF7B9FD0DF187
:101F00000703012203211D20FFF7B2FD9DF80730D2
:101F10001B0103F010029DF8063003F00703134481
:101F2000237002B010BD000038B50E4D00242946C4
:101F300075202C70FFF78EFD58B92B78682B0AD0CE
:101F4000712B0AD0122B0AD0422B14BF204604203A
:101F500038BD204638BD012038BD022038BD0320E1
:101F600038BD00BF322D00202DE9F04180460F46DC
:101F700016461D460A209DF81840FFF745FA4046D0
:101F8000FFF747FF3846FFF75EFF3046FFF74FFF8A
:101F90002846FFF764FF2046FFF741FFBDE8F04108
:101FA000FFF731BF73B50C460A2016461D46FFF7F2
:101FB0002BFA0DF10700FFF74CFF9DF807300A20C0
:101FC000A34214BF02240024FFF71EFA0DF10700FC
:101FD000FFF733FF9DF807300A20B3421CBF44F0DF
:101FE0000404A4B2FFF710FA0DF10700FFF73DFF5C
:101FF0009DF807300A20AB4218BF44F00804FFF7F1
:1020000003FA0DF10700FFF70EFF9DF807209DF87A
:1020100018309A4218BF44F01004204602B070BD38
:102020002DE9F8438146884617461E460A209DF84A
:1020300020509DF82440FFF7E7F94846FFF7E9FEF6
:102040004046FFF700FF3846FFF715FF3046FFF721
:1020500006FF2846FFF738FF2046FFF7E0FEBDE801
:10206000F843FFF7D0BE73B50C460A2016461D464E
:10207000FFF7CAF90DF10700FFF7EBFE9DF80730F7
:102080000A20A34214BF02240024FFF7BDF90DF17A
:102090000700FFF702FF9DF807300A20B3421CBF7C
:1020A00044F00404A4B2FFF7AFF90DF10700FFF705
:1020B000DCFE9DF807300A20AB4218BF44F008044C
:1020C000FFF7A2F90DF10700FFF7ADFE9DF807201D
:1020D0009DF81C300A209A4218BF44F01004FFF704
:1020E00093F90DF10700FFF701FF9DF807209DF818
:1020F00018309A4218BF44F02004204602B070BD48
:102100002DE9F74306460023324D03800A240A20B6
:10211000FFF77AF968232B70FFF706FF80B2308053
:102120002C4F90B90A20FFF76FF969232B70FFF746
:10213000FBFE80B2308058B9013CA4B2002CE6D13D
:10214000254B00243C701C603FE04FF0010901E08A
:102150004FF002093388002BF2D00A240025B6F88C
:102160000080B8F1020F13D14146012300220195EE
:1021700000950320FFF754FF6420FFF74CF9019509
:1021800000950123002241460320FFF76CFF10E079
:1021900001230022022103200095FFF7E5FE6420C1
:1021A000FFF739F900950123002202210320FFF7F0
:1021B000F9FE38B1013CA4B2002CD0D1064B3C70E2
:1021C0001C6002E04C46044B1860204603B0BDE89A
:1021D000F08300BF165500202456002008B5074B99
:1021E00000221A8006490E223B20FFF703FC18B19B
:1021F000BDE80840FFF7ECBA08BD00BF202300206F
:10220000322D0020B0F90020642353434FF4AA720A
:1022100093FBF2F303F64563038070472DE9F84F13
:10222000254B264D01281CBFAA461D46894614464B
:102230002349244A06BF9A468846904620F0B8FAB9
:10224000284620F02DFB0428074630D14FF6FF7BAF
:10225000B9F1000F08BF4FF4FD64013405F1100619
:1022600024F001043444C5EB0A0AA64217D0B9F1A0
:10227000000F03D13AF8061089B203E0731B4B44F8
:1022800033F8101C594501D10236EEE7B0450DD99F
:10229000304620F0BFFA04280746F5D007E04FF09B
:1022A0001131284620F0D2FA074600E0802720F0BE
:1022B00089FA3846BDE8F88F00D0070800D807082B
:1022C000FFDF0708FFD7070810B520F071FA0748AD
:1022D00020F0E6FA0428044603D1054820F0E0FA8D
:1022E000044620F06FFA204610BD00BF00D007085A
:1022F00000D807080131C1F34F0100239AB291427F
:102300000AD9B3F57E7F09D0054A1A4452001288D3
:1023100020F813200133F1E7042070478020704734
:1023200008E8030438B50A4604460D460146002075
:10233000FFF774FFC0B2042801D080B238BD2A462E
:1023400021460120FFF76AFFC0B238BD38B5164BF1
:102350001D68D3F80048B5F1113F07D1B4F1113F22
:1023600001D104201DE0621C0ED104E06B1C0BD1D6
:10237000B4F1113F08D1002211460120FFF74EFFB2
:10238000C0B204280DD1ECE7FFF79EFFC0B20428CD
:1023900007D1013504D1013414BF4020202000E0D2
:1023A000402080B238BD00BF00D0070872B6074B8E
:1023B0009B8C9BB262B6064A91881068994284BF92
:1023C00001301060938003EB00407047002C014007
:1023D0000C360020034B00219A8C034B19609A8025
:1023E000704700BF002C01400C3600200AB91EF0D7
:1023F0000FBA042A01D11EF04FBA082A01D11EF0EB
:102400008FBA1EF0CFBA000030B5012185B040F67A
:1024100004001FF0C5FF4FF6FF73ADF80830134BF3
:10242000134A1B68134DB3FBF2F304A9013B0024CC
:1024300021F80C3D2846ADF80A40ADF806401EF0E4
:102440009DF9012128461EF0E1FA1B238DF800308A
:102450000F238DF80130684601238DF802408DF876
:10246000033020F025FB05B030BD00BF141900205B
:1024700040420F00002C014030B5012185B042F2EE
:1024800010001FF08DFF4FF6FF73ADF80830134BAF
:10249000134A1B68134DB3FBF2F304A9013B00245C
:1024A00021F80C3D2846ADF80A40ADF806401EF074
:1024B00065F9012128461EF0A9FA2E238DF8003077
:1024C0000F238DF80130684601238DF802408DF806
:1024D000033020F0EDFA05B030BD00BF1419002024
:1024E00040420F000034014007B50323ADF804104B
:1024F00001A98DF807208DF806301FF027FD03B0E5
:102500005DF804FB1FB50123ADF808300023ADF8DA
:102510000A300F23ADF80C3004AB23F80C1D19461C
:10252000ADF806201EF0BAFA05B05DF804FB000015
:1025300010B50B4C28224FF480710A48FFF7D4FFE6
:10254000022220460021FFF7DDFF204602211EF077
:1025500058FB2046BDE81040012202211EF06BBA54
:10256000002C01400008014030B5302385B0ADF8A3
:10257000003000230D460446ADF80C30ADF80E30A7
:10258000ADF80830ADF80A30ADF80230ADF80430DF
:102590001EF029FB00F51C501030ADF806002A464D
:1025A00069462046FFF722FF05B030BD10B50F4C3D
:1025B000102220464FF40071FFF796FF00222046BC
:1025C0004FF4007104F510541FF019FD204604214A
:1025D000FFF7CAFF204604211EF013FB2046BDE88A
:1025E0001040012204211EF026BA00BF000801405D
:1025F00010B50C46062800F22481DFE810F0070031
:10260000300059008200A900D000F900012915D13D
:1026100028224FF480618B48FFF766FF00220821D3
:102620008948FFF76FFF082187481EF0EAFA224623
:10263000BDE81040082184481EF0FDB900220821A1
:1026400081481EF0F8F908217F481EF0DAFABDE84B
:10265000104048224FF480617A48FFF745BF0129B6
:1026600015D128224FF400717648FFF73DFF002274
:1026700004217548FFF746FF042173481EF0C1FA94
:102680002246BDE8104004216F481EF0D4B9002254
:1026900004216D481EF0CFF904216B481EF0B1FAF9
:1026A000BDE8104048224FF400716648FFF71CBF98
:1026B000012915D128224FF480716248FFF714FFD9
:1026C000002211466048FFF71DFF02215E481EF000
:1026D00098FA2246BDE8104002215B481EF0ABB9D3
:1026E0000022022158481EF0A6F9022156481EF089
:1026F00088FABDE8104048224FF480715148FFF736
:10270000F3BE012914D1282240215048FFF7ECFEE6
:10271000002211464E48FFF7F5FE02214C481EF0FC
:1027200070FA2246BDE81040022149481EF083B9E4
:102730000022022146481EF07EF9022144481EF084
:1027400060FABDE81040482240214048FFF7CCBE67
:10275000012914D1282280213C48FFF7C5FE002220
:1027600004213B48FFF7CEFE042139481EF049FA08
:102770002246BDE81040042135481EF05CB9002215
:10278000042133481EF057F9042131481EF039FA6C
:10279000BDE81040482280212C48FFF7A5BE012942
:1027A00015D128224FF480712848FFF79DFE0022A2
:1027B00008212748FFF7A6FE082125481EF021FA28
:1027C0002246BDE81040082121481EF034B90022FD
:1027D00008211F481EF02FF908211D481EF011FA8C
:1027E000BDE8104048224FF480711848FFF77CBEC6
:1027F000012915D128224FF400711448FFF774FE07
:1028000000220C211248FFF77DFE102110481EF017
:10281000F8F92246BDE8104010210D481EF00BB912
:10282000002210210A481EF006F9102108481EF067
:10283000E8F9BDE8104048224FF400710348FFF763
:1028400053BE10BD00080140002C014000100140A3
:1028500000340140012808B503D1BDE80840FFF766
:1028600067BE0022022107481EF0E5F80221054854
:102870001EF0C7F9BDE8084048224FF480710248B5
:10288000FFF732BE002C014000080140012808B5C6
:1028900003D1BDE80840FFF789BE002204210748A4
:1028A0001EF0C9F8042105481EF0ABF9BDE8084048
:1028B00048224FF400710248FFF716BE002C014079
:1028C00000080140F8B5504D022128462C8C1EF01E
:1028D0008DF90128A4B22CD14C4E022128461EF0BD
:1028E00090F93368DA050ED5494A28461388013332
:1028F00003F01F03138016881EF068F9454BB6B22B
:1029000023F8160015E014F0020F434F0BD02846B1
:102910001EF05CF97881336824F0020443F004036C
:10292000A4B2336005E028461EF050F944F00204DA
:102930003881354D042128461EF058F901283ED132
:10294000324E042128461EF05CF933689B0520D5E1
:102950003248334AC36813F4007F09D013882A8FA2
:102960004FF4007113449BB22B871FF046FB26E007
:102970002C490B882E8F33449BB22B872A4B1B8804
:1029800009885B1A9BB24FF4007113801FF033FB70
:1029900015E014F0200F204F0BD028461EF019F937
:1029A000F880336824F0200443F00203A4B23360BB
:1029B00005E028461EF00DF944F02004B8800821F7
:1029C00011481EF013F901281AD108210E481EF0F3
:1029D00018F914F4007F104D0CD00B481EF0FCF8D1
:1029E0000A4A6880136824F4007443F00103A4B217
:1029F000136005E004481EF0EFF844F400742880EA
:102A0000014B1C84F8BD00BF002C01403037002072
:102A1000A24C0020F82900207E4A00200008014036
:102A20007C4A00206E25002094540020F8B5484DC3
:102A3000022128462C8C1EF0D9F80128A4B21DD101
:102A4000444E022128461EF0DCF83368DA0515D41E
:102A500014F0020F404F0BD028461EF0B7F8F88153
:102A6000336824F0020443F00803A4B2336005E0A5
:102A700028461EF0ABF844F00204B8810421344823
:102A80001EF0B4F801281AD1042131481EF0B9F81B
:102A900014F0200F304D0CD02D481EF09AF82D4A1E
:102AA0006882136824F0200443F01003A4B213607A
:102AB00005E027481EF08DF844F020042882082104
:102AC00023481EF093F801281AD1082120481EF04F
:102AD00098F814F4007F204D0CD01D481EF07CF8AF
:102AE0001C4AE882136824F4007443F02003A4B263
:102AF000136005E016481EF06FF844F40074A882D5
:102B0000102113481EF072F801281DD1114D10211B
:102B10000F481EF076F82B689B0515D414F4005F5F
:102B20000D4E0BD00A481EF05AF870832B6824F41F
:102B3000005443F04003A4B22B6005E004481EF0AB
:102B40004EF844F400543083014B1C84F8BD00BFA0
:102B500000340140303700207E4A0020634B644A35
:102B60001868F0B4C707116810D540F2EA45186834
:102B7000604C20F00100186026886088801B80B2BD
:102B8000A0F27B34A4B2AC4240F2A18000241868C9
:102B9000564D860710D540F2EA472868554E20F07A
:102BA00002002860B588F088401B80B2A0F27B3517
:102BB000ADB2BD4240F2928018684C4D40070FD52F
:102BC00040F2EA4728684B4E20F00400286035891F
:102BD0007089401B80B2A0F27B35ADB2BD426FD987
:102BE0001868424D07070FD540F2EA472868414E62
:102BF00020F008002860B589F089401B80B2A0F25F
:102C00007B35ADB2BD4254D91868384DC6060FD5D4
:102C100040F2EA472868374E20F010002860358AD5
:102C2000708A401B80B2A0F27B35ADB2BD4239D96B
:102C300018682E4D80060FD540F2EA4728682D4EC1
:102C400020F020002860B58AF08A401B80B2A0F2F4
:102C50007B35ADB2BD421ED91B6824485B0616D534
:102C600040F2EA460368234D23F040030360288BBB
:102C70006B8B1B1A9BB2A3F27B3080B2B04206D89A
:102C80006420D38341F480111082116001E0002C94
:102C9000FBD1F0BC70476424D481908341F40031AF
:102CA0000124D9E764249481508341F480410124B4
:102CB000BEE764245481108341F400610124A3E73A
:102CC00064241481D08241F48071012488E7642453
:102CD0009480508241F00401012458E76424D48098
:102CE000908241F02001012466E700BF30370020C8
:102CF000C04700207E4A0020D6480168CB0140F141
:102D000013822DE9F041D44C8AB02788102F00F2AD
:102D10000C8272B6D14BD24A1B88928C9BB292B273
:102D200062B6D04E35899D4200F0FB8140F6853E6B
:102D3000CD4D35F813C0CCEB020292B2724540F291
:102D4000F081102F338100F2FB8135F8132092B20D
:102D5000002F00F03C8140F2EC4E013B03F01F03DA
:102D600035F81360B6B2921B92B2A2F27A3C1FFA07
:102D70008CFCF445ADF8042000F2D381012F00F063
:102D8000E583013B03F01F0335F8132092B2B61A16
:102D9000B6B2A6F27A3C1FFA8CFCF445ADF8066098
:102DA00000F2BF81022F00F01281013B03F01F03EC
:102DB00035F81360B6B2921B92B2A2F27A3C1FFAB7
:102DC0008CFCF445ADF8082000F2AB81032F00F035
:102DD000BD83013B03F01F0335F8132092B2B61AEE
:102DE000B6B2A6F27A381FFA88F8F045ADF80A6054
:102DF00000F29781042F00F0EA80013B03F01F03EB
:102E000035F81360B6B2921B92B2A2F27A381FFA6A
:102E100088F8F045ADF80C2000F28381052F00F012
:102E20009583013B03F01F0335F8132092B2B61AC5
:102E3000B6B2A6F27A381FFA88F8F045ADF80E60FF
:102E400000F26F81062F00F0C280013B03F01F03E8
:102E500035F81360B6B2921B92B2A2F27A381FFA1A
:102E600088F8F045ADF8102000F25B81072F00F0E4
:102E70006D83013B03F01F0335F8132092B2B61A9D
:102E8000B6B2A6F27A3C1FFA8CFCF445ADF812609B
:102E900000F24781082F00F09A80013B03F01F03E6
:102EA00035F81360B6B2921B92B2A2F27A381FFACA
:102EB00088F8F045ADF8142000F23381092F00F0B6
:102EC0004583013B03F01F0335F8132092B2B61A75
:102ED000B6B2A6F27A381FFA88F8F045ADF8166057
:102EE00000F21F810A2F72D0013B03F01F0335F857
:102EF0001360B6B2921B92B2A2F27A381FFA88F827
:102F0000F045ADF8182000F20C810B2F00F01E8365
:102F1000013B03F01F0335F8132092B2B61AB6B284
:102F2000A6F27A381FFA88F8F045ADF81A6000F278
:102F3000F8800C2F4BD0013B03F01F0335F81360D2
:102F4000B6B2921B92B2A2F27A3C1FFA8CFCF44504
:102F5000ADF81C2000F2E5800D2F00F0F782013B58
:102F600003F01F0335F8132092B2B61AB6B2A6F2D8
:102F70007A381FFA88F8F045ADF81E6000F2D1806B
:102F80000E2F24D0013B03F01F0335F81360B6B2B7
:102F9000921B92B2A2F27A381FFA88F8F045ADF887
:102FA000202000F2BE80102F40F0D082013B03F0C1
:102FB0001F0335F8132092B2B61AB6B2A6F27A3CC5
:102FC0001FFA8CFCF445ADF8226000F2AA8040F6AE
:102FD0006D76013B03F01F0335F81330D21A92B21D
:102FE000B24240F29E80214B03FB07F303F5D2432C
:102FF00078339A4200F39580002F00F08D800AAB61
:1030000003EB470333F8262C012F134BA28000F06B
:1030100083800AAA02EB470232F8282C022FDA80BA
:103020007AD00AAA02EB470232F82A2C032F1A811F
:1030300072D00AAA02EB470232F82C2C042F5A81D4
:103040006AD00AAA02EB470232F82E2C052F9A8189
:1030500062D00DE0C047002044540020A24C002064
:10306000002C01405C1E0020F829002086FCFFFF98
:103070000AAA02EB470232F8302C062FDA814BD035
:103080000AAA02EB470232F8322C072F1A8243D0E9
:103090000AAB03EB470333F8342C082F274B62822B
:1030A0003AD00AAA02EB470232F8362C092F9A824C
:1030B00032D00AAA02EB470232F8382C0A2FDA8201
:1030C0002AD00AAA02EB470232F83A2C0B2F1A83B5
:1030D00022D00AAA02EB470232F83C2C0C2F5A836A
:1030E0001AD00AAA02EB470232F83E2C0D2F9A831F
:1030F00012D00AAA02EB470232F8402C0E2FDA83D4
:103100000AD00AAA02EB470232F8422C102F1A8486
:1031100002D1BDF804205A8441F0006164230160AB
:1031200063800AB0BDE8F08170474AF655239F429C
:103130003FF4EFAD0AB0BDE8F08100BF4454002079
:1031400040F66D775A1E02F01F0235F813C035F8AD
:1031500012309BB2C3EB0C0C1FFA8CFCBC45ADF8D3
:1031600004C000F2F58140F2EC4EACF27A3C1FFA5A
:103170008CFCF445D5D8013A02F01F0235F812C094
:103180001FFA8CFCCCEB03039BB2BB42ADF80630BC
:1031900000F21282A3F27A339BB27345C1D8013A8E
:1031A00002F01F0235F812801FFA88F8C8EB0C0CE9
:1031B0001FFA8CFCBC45ADF808C000F2C481ACF22B
:1031C0007A3C1FFA8CFCF445ABD8531E03F01F0366
:1031D00035F8132092B2C2EB08081FFA88F8B845F8
:1031E000ADF80A8000F2EE81A8F27A381FFA88F86A
:1031F000F045774695D840F66D7E013B03F01F03FE
:1032000035F81380DFF804C41FFA88F8C8EB02020F
:1032100092B27245ADF80C2000F2D181A2F27A325E
:1032200092B2BA423FF67DAF013B03F01F033CF878
:10323000132092B2C2EB08081FFA88F8F045ADF8E7
:103240000E8000F2C281A8F27A381FFA88F8B845D9
:103250003FF667AF013B03F01F033CF813801FFAF2
:1032600088F8C8EB020292B27245ADF8102000F265
:10327000AF81A2F27A3292B2BA423FF652AF013B2C
:1032800003F01F033CF8132092B2C2EB08081FFAA8
:1032900088F8F045ADF8128000F2A081A8F27A38E3
:1032A0001FFA88F8B8453FF63CAF013B03F01F0317
:1032B0003CF81370BFB2D21B92B27245ADF8142025
:1032C00000F2898140F2EC4EA2F27A3292B272455B
:1032D0003FF627AF40F66D72013B03F01F0335F850
:1032E00013801FFA88F8C8EB0707BFB29742ADF802
:1032F000167000F27681A7F27A37BFB277453FF6B3
:1033000010AF013B03F01F033CF81370BFB2C7EBD3
:1033100008081FFA88F89045ADF8188000F264811B
:10332000A8F27A381FFA88F8F0453FF6FAAE013B6A
:1033300003F01F033CF813801FFA88F8C8EB070757
:10334000BFB29742ADF81A7000F25181A7F27A37F6
:10335000BFB277453FF6E5AE013B03F01F033CF8F3
:103360001370BFB2C7EB08081FFA88F89045ADF894
:103370001C8000F23F81A8F27A381FFA88F8F045E5
:103380003FF6CFAE013B03F01F033CF813E01FFAFA
:103390008EFECEEB0707BFB29742ADF81E7000F26B
:1033A0002C8140F2EC4CA7F27A37BFB267453FF66A
:1033B000B8AE1746013B03F01F0835F81830934D9F
:1033C0009BB2C3EB0E0292B2BA42ADF8202000F2DB
:1033D0001A81A2F27A3292B262453FF6A2AE08F1A9
:1033E000FF3808F01F0835F8182092B29B1A9BB2DC
:1033F000BB42ADF8223000F20381A3F27A339BB2D4
:1034000063453FF68EAE08F1FF3808F01F0835F827
:103410001830D21A92B2BA42ADF824207FF681AEAB
:1034200010252B467289758195427FF47AAE0AADDC
:1034300005EB430535F8266C012A754DA68000F092
:1034400090800AAE06EB430636F8286C022AEE801E
:1034500040F28A800AAE06EB430636F82A6C032A4D
:103460002E8140F284800AAE06EB430636F82C6CBF
:10347000042A6E817ED90AAE06EB430636F82E6C1E
:10348000052AAE8179D90AAE06EB430636F8306CD0
:10349000062AEE8174D90AAE06EB430636F8326C82
:1034A000072A2E826FD90AAE06EB430636F8346C33
:1034B000082A6E826AD90AAE06EB430636F8366CE5
:1034C000092AAE8265D90AAD05EB430535F8386C9B
:1034D0000A2A4F4DE6825FD90AAE06EB430636F85C
:1034E0003A6C0B2A2E835AD90AAE06EB430636F8FD
:1034F0003C6C0C2A6E8355D90AAE06EB430636F8AF
:103500003E6C0D2AAE8350D90AAE06EB430636F860
:10351000406C0E2AEE834BD9102A0AAE06EB430606
:1035200014BF40F2DC530AAA36F8426C04BF02EB27
:10353000430333F8443C2E8441F00061642201606F
:1035400063846280EDE502252B466BE732463EE55B
:10355000738900227281002B7FF4E3AD40F2DC53CB
:10356000A38040F2DC53E38040F2DC53238140F23D
:10357000DC53638140F2DC53A38140F2DC53E381EE
:1035800040F2DC53238240F2DC53638240F2DC538E
:10359000A38240F2DC53E38240F2DC53238340F207
:1035A000DC53638340F2DC53A38340F2DC53E383B8
:1035B00040F2DC532384BFE701252B4632E7042584
:1035C0002B462FE703252B462CE705252B4629E71D
:1035D00006252B4626E708252B4623E707252B46FD
:1035E00020E709252B461DE70A252B461AE70B2560
:1035F0002B4617E70C252B4614E70D252B4611E724
:103600000F252B460EE70E252B460BE7F829002049
:1036100044540020044B1B68DB0003D572B6034BF7
:10362000188062B6704700BFC04700206E2500209A
:10363000834A10B4938811684BB1013B9BB2012BB4
:1036400021F0020040F2CA80014693800123D08815
:103650007B4C48B1013880B2012821F0100340F2C0
:10366000D5801946E08001231089754C40B101389E
:1036700080B2012821F0800337D919462081012327
:1036800050896F4C40B1013880B2012821F4806329
:1036900043D91946608101239089694C40B10138B2
:1036A00080B2012821F400534FD91946A08101238B
:1036B000D089634C40B1013880B2012821F48033B5
:1036C0005BD91946E0810123108A5D4C40B1013875
:1036D00080B2012821F4002367D92082136002E020
:1036E000002B40F0AB8010BC7047002020814806C2
:1036F00001D541F0800323F4807172B6514803680C
:1037000023F00403036062B64F4C0123208C20F0A9
:1037100002000004000C2084B2E7002060818C05C8
:1037200001D541F4806323F4006172B64548036813
:1037300023F00803036062B6444C0123208C20F080
:1037400002000004000C2084A6E70020A081C80429
:1037500001D541F4005323F4804172B6394803681F
:1037600023F01003036062B6384C0123208C20F054
:1037700020000004000C20849AE70020E0810C0463
:1037800001D541F4803323F4003172B62D4803682B
:1037900023F02003036062B62C4C0123208C20F41C
:1037A00000700004000C20848EE700202082480373
:1037B00048BF41F4002372B62248016821F040015D
:1037C000016062B6214923F4801313600B8C10BC96
:1037D00023F400531B041B0C0B84704700239380BD
:1037E000CB0701D541F0020020F0040172B6154864
:1037F000036823F00103036062B6134C0123208C9D
:1038000020F400700004000C208420E70020E080F9
:103810000C0701D541F0100323F0200172B60948CE
:10382000036823F00203036062B6074C0123208C77
:1038300020F020000004000C208415E70B464DE723
:10384000C047002030370020002C014000340140E8
:103850000D4A53885BB10D4810B4013B04689BB21C
:1038600024F00071012B016002D910BC5380704715
:1038700000235380E30148BF41F0007121F0006153
:10388000016010BCF3E700BF44540020C047002093
:1038900008B50F4A0F4B00211960134643F8101B5F
:1038A00040F2DC511E3223F8021F9342FBD140F25A
:1038B000DC51094B03F1200223F8021F9342FBD194
:1038C0000120FEF7A1FDBDE808400120FEF7D4BDB0
:1038D000C0470020303700204654002006282DE93C
:1038E000F84305460F463AD84FEA400808EB00096E
:1038F000012303FA09F61B4C21B923681E4206D1A5
:10390000BDE8F883012902D123681E4227D1002196
:103910002846FEF76DFE72B6134B01221968AA40C5
:1039200021EA02021A6062B60723226803FA09F349
:1039300022EA0303A0446422A8F8042040F2DC52E7
:103940002360012F04EB4504628208D1054A33430A
:10395000136039462846BDE8F843FEF749BEBDE886
:10396000F88300BFC0470020303700202DE9F04128
:1039700007468846244E21B93368DA010AD4BDE8E7
:10398000F081012906D13368DB0103D51F4B1B8869
:10399000834237D00020FEF75DFF72B61C480368F3
:1039A00023F48073036062B63368044623F0306505
:1039B00000231846154A64215180164935600B8052
:1039C0001549138021F813000133202BFAD140F25E
:1039D000DC51124800F1200320F8021F9842FBD16D
:1039E000B8F1010F0ED16FB145F0807317803360CD
:1039F00072B6236843F48073236062B6BDE8F04179
:103A0000FEF796BDBDE8F081C04700204454002079
:103A100030370020A24C0020F82900204654002016
:103A20002DE9F843074688469146254D22B92B6873
:103A3000DA000AD4BDE8F883012A06D12B68DB003E
:103A400003D5204B1B88834238D00020FEF71EFF91
:103A500072B61D4C236823F40073236062B644F6EB
:103A6000206140F2DC502B68184E23F080532B600D
:103A7000174D144A28803180308811802988B9F187
:103A8000010FA0EB0100134980B2088016D1A5F800
:103A90000080378017803288288843F08053121ABC
:103AA00092B20A80064A136072B6236843F4007328
:103AB000236062B6BDE8F843FEF778BDBDE8F88341
:103AC000C04700209A4A002030370020945400203C
:103AD0006E2500207C4A0020194B10B519889A8861
:103AE00089B2880692B20DD5164C174823880088F3
:103AF000013303F07F0380B283421FBF1348D2B269
:103B0000C25423800B061AD5114B124A1988138808
:103B100089B29BB299420BD01388013303F07F0323
:103B2000138013880C4A9BB2D35C054A938010BD66
:103B3000034A938923F080031B041B0C938110BD5F
:103B40000038014020560020FA1F0020A84F002016
:103B50000A36002070690020702500200B490C4AAD
:103B60000B881288013303F07F0392B293420AD08C
:103B7000084AD054084A0B80938901209BB243F035
:103B80008003938170470020704700BF0A360020F1
:103B9000706900207025002000380140013938B5D7
:103BA000451E4418A54204D015F8010FFFF7D6FFB3
:103BB000F8E738BD024A00231380024A1380704799
:103BC000706900200A360020044B1888044B80B22C
:103BD0001B889BB2C01A18BF0120704720560020D6
:103BE000FA1F002010B50948094C2188038889B2C2
:103BF0009BB29942054AF8D01388013303F07F0342
:103C000013801388034A9BB2D05C10BDFA1F0020BA
:103C100020560020A84F0020024A00231380024AA9
:103C200013807047FA1F0020205600201FB521F492
:103C30000073B3F5806F0CBF4FF480530023ADF8D1
:103C400004300C230090ADF80810ADF80A30694636
:103C500000230548ADF80620ADF80C301EF0D6FC68
:103C600005B05DF804FB00BF003801401FB500231C
:103C700000900C2269460848ADF80430ADF80630D3
:103C8000ADF80830ADF80A20ADF80C301EF0BEFCDF
:103C900005B05DF804FB00BF0038014007B54FF4E4
:103CA00000730128ADF804300CBF182300238DF8F1
:103CB000073001A9032304488DF806301EF046F9A9
:103CC00003B05DF804FB00BF00080140012808B5FF
:103CD00003D1BDE80840FDF73FBA40F22551054841
:103CE00000221EF009FDBDE8084040F225510148C0
:103CF0001EF027BD003801407FB5334C012144F24E
:103D000005001EF04DFB4FF40073ADF800300325A5
:103D10001823694620468DF803308DF802501EF0B6
:103D200015F94FF480636946ADF80030204648230A
:103D300004F540548DF803308DF802501EF006F95A
:103D400002A81EF0C7FC02A920461EF0B3FC4FF4E7
:103D5000E130FFF78BFF25238DF8043001260F2378
:103D600001A88DF805308DF806308DF807601EF03B
:103D70009FFE0022204640F227711EF0BDFC204627
:103D800040F227711EF0DDFC204640F226611EF055
:103D9000D8FC0E4B00251D800D4B2A46204640F2D4
:103DA00025511D801EF0A8FC204640F225511EF032
:103DB000C8FC084B31461D80074B20461D801EF075
:103DC0008FFC04B070BD00BF000801407069002086
:103DD0000A360020FA1F00202056002010B5144695
:103DE0000022FFF723FF34B92246BDE8104010211E
:103DF00004481EF004B9012210210248BDE8104019
:103E00001EF0FDB800100140012808B505D1FFF7EC
:103E100003FFBDE80840FDF79FB90020FFF756FFFC
:103E2000BDE808400022102101481EF0E8B800BF9C
:103E30000010014037B5104D012110201EF0B0FADE
:103E40001024032301A928468DF80630ADF804405C
:103E50008DF807401EF07AF80022214628461EF011
:103E6000CEF8FFF749FF0020FFF718FF0020FFF70B
:103E7000CBFF03B030BD00BF001001402DE9F04F73
:103E8000AD4B87B0B3F800B01BF0010F46D072B64F
:103E9000AA4B9B8C9BB262B6A949AA4C88880F6832
:103EA0009842A9482688058888BF0137B6B2ADB2C6
:103EB00088BF0F60AE428B8003EB074C9E4B30D027
:103EC00005469E8DDFF884E24FF000089A4B9F195B
:103ED0002188038889B29BB2994218D0218803882F
:103EE00089B29BB29942F9D02B887E2E03F101034F
:103EF00003F07F032B802B889BB21EF8033087F8DA
:103F00002E30E5D80136B6B24FF00108DEE7B8F141
:103F1000000F40F06E85884BC3F828C007B0BDE89D
:103F2000F08F598C9B6A881E0128C3EB0C0340F26A
:103F3000FD80B3F57A6FF1D3062900F2F180DFE856
:103F400011F0E00327030902090207002401070119
:103F5000794B9C8DA4F109011C2900F2E18093F8B2
:103F60002E10A82940F0DC8093F82F1001F07F017B
:103F7000012940F0D58093F8301048000530A04268
:103F800040F0CE8040F2DC5058809880D880188174
:103F900058819881D881188258829882D882188353
:103FA00058839883D8831884002900F0B38093F84D
:103FB000314093F83200012900EB04204FEAE00081
:103FC000588040F2A78093F8334093F834000229D8
:103FD00000EB04204FEAE000988000F09B8093F80B
:103FE000354093F83600032900EB04204FEAE00047
:103FF000D88000F08F8093F8374093F83800042978
:1040000000EB04204FEAE000188100F0838093F871
:10401000394093F83A00052900EB04204FEAE0000C
:10402000588177D0444B062993F83B4093F83C00E5
:104030001A4600EB04204FEAE00098816AD093F81A
:104040003D4093F83E00072900EB04204FEAE000D2
:10405000D8815FD093F83F4093F84000082900EBE7
:1040600004204FEAE000188254D093F8414093F8BE
:104070004200092900EB04204FEAE000588249D0B1
:1040800093F8434093F844000A2900EB04204FEAD8
:10409000E00098823ED093F8454093F846000B2903
:1040A00000EB04204FEAE000D88233D093F8474079
:1040B00093F848000C2900EB04204FEAE000188335
:1040C00028D093F8494093F84A000D2900EB0420CA
:1040D0004FEAE00058831DD093F84B4093F84C0012
:1040E0000E2900EB04204FEAE000988312D093F8E9
:1040F0004D4093F84E000F2900EB04204FEAE000FA
:10410000D88307D093F84F1093F8503003EB012376
:10411000DB101384084A4BF004016423118093845C
:10412000054A0023938507B0BDE8F08FB3F5FA6F19
:10413000BFF402AFF2E600BFBC240020002C014017
:104140000C36002020560020FA1F0020A84F002027
:104150007C4B7D49D86A8842E2D140F2DC514BF079
:10416000040464201C8059809980D9801981598168
:104170009981D981198259829982D9821983598367
:104180009983D98319849884CAE76E4B6F48D96A9A
:1041900021F07F41814200F06D836D488142BFD1A3
:1041A00093F8340093F833C093F835E000EB0C2C0F
:1041B00093F8360093F8377000EB0E2E93F8380022
:1041C00093F8396000EB072793F83A0093F83240F0
:1041D00093F8318000EB062693F83B5093F83C00AF
:1041E00004EB082800EB052593F83D4093F83E00CA
:1041F00093F8301093F83FA093F82F9000EB04242D
:1042000093F8400001EB092900EB0A204FF4AF615D
:1042100001FB00F001FB09F901FB08F893F841A04C
:10422000020B4FEA193993F8420009F5487900EB7F
:104230000A20A3F8029093F843A093F844904FEA21
:10424000183808F54878A3F8048009EB0A2801FB20
:104250000CFC01FB0EFE01FB07F701FB06F601FB60
:1042600005F501FB04F401FB00F001FB08F84FEA3F
:104270001C3C4FEA1E3E3F0B360B2D0B240B000B54
:104280004FEA18380EF5487E07F5487706F5487668
:1042900005F5487504F5487400F548700CF5487C40
:1042A00002F5487208F54878A3F808E05F819E811E
:1042B000DD811C829882A3F806C05A82A3F816807A
:1042C00093F8460093F8456093F8477000EB062694
:1042D00093F8485093F84A0093F8494005EB0725B6
:1042E00000EB042493F84B7093F84C0093F84DE0E6
:1042F00000EB072093F84E7001FB06F607EB0E2744
:1043000001FB05F501FB04F401FB00F001FB07F1E3
:10431000360B4BF004072D0B240B000B090B06F595
:10432000487605F5487504F5487400F5487001F5C0
:1043300048711F8064271E835D839C83D883198402
:104340009F84EDE6BC240020200020401B00A1003B
:104350002300A2008C4B8D48DB6A23F07F41814211
:10436000894B7FF4DDAE93F8461000297FF4D8AE78
:1043700093F845100A0700F1288393F8345093F816
:10438000380093F8378093F8401093F8337005F0B5
:104390000F0500F01F0093F830E0ED01800193F865
:1043A0002FC093F83C4045EA570701F07F0140EAEF
:1043B000980593F83F0093F8446009010EF0070E4A
:1043C00093F83B904CEA0E2E41EA101093F843C04C
:1043D000196B04F03F04F60064017F0844EAD90435
:1043E00046EA5C1CC1F3C93940084FF49671A7F541
:1043F000007701FB07F74FEA5C0CA0F50070ACF505
:10440000007C01FB00F06D0801FB0CF2A5F50075C6
:1044100001FB05F53F12640800970012A4F5007433
:1044200001FB04F403901012009A2D1201950590DF
:1044300002F2DC52186C0092019A2412C0F3092097
:10444000029402F2DC52A0F5007001FB00F0019230
:10445000029AB3F838C0DC8F02F2DC52B3F830A015
:10446000B3F834805E6BCCF38917DD6BB3F83AC0D8
:104470000292039AC4F38904001202F2DC5200F2A1
:10448000DC50A4F5007401FB04F40492059A059035
:10449000BDF800004FEA5E0E1881B3F84200CAF37F
:1044A000091AC8F34918C6F30946CCF3490CC5F3F9
:1044B000C9152412C0F3C90004F2DC54AEF5007E25
:1044C000AAF5007AA9F50079A8F50078A6F5007696
:1044D000A7F50077ACF5007CA5F50075A0F5007098
:1044E00001FB0EFE01FB0AFA01FB09F901FB08F8CA
:1044F00001FB06F601FB07F701FB0CFC01FB05F5D0
:10450000039401FB00F1BDF8044002F2DC52DC81AF
:104510001A84BDF80840BDF80C204FEA2E2E4FEA51
:104520002A2A4FEA29294FEA282836123F124FEA51
:104530002C2C2D1209129C821A83BDF81040BDF854
:1045400014200EF2DC5E0AF2DC5A09F2DC5908F2A1
:10455000DC5806F2DC5607F2DC570CF2DC5C05F2A4
:10456000DC5501F2DC51A3F802E0A3F804A0A3F8A3
:104570000690A3F80A809E811F82A3F812C0DD82F4
:104580005C839A83D983C5E5BC24002019000F0001
:10459000B74B998D10297FF4C3AD93F8309093F801
:1045A000328093F831104FEA092000F4E0600844AB
:1045B0004FEA082193F834C001F4E06493F8331013
:1045C00093F836E021444FEA0C2404F4E06A93F8AF
:1045D000354093F8387054446410A4F5FF724FEAE4
:1045E0000E2A93F837400AF4E06A54446410A4F5A4
:1045F000FF7400944FEA072A93F839400AF4E06AFE
:10460000544493F83A606410A4F5FF7401944FEA9F
:10461000062A93F83B400AF4E06A93F83C5054446D
:104620006410A4F5FF7A2C02C5F3C30503EB45051E
:1046300040100495A0F5FF704FF4967505FB00F04F
:104640004910A1F5FF7105FB01F1C9F3C30900127F
:1046500000F2DC50C6F3C30603EB4909A9F80200D7
:1046600003EB460693F83D00C8F3C308091203960E
:1046700001F2DC5105FB02F6C7F3C307009A04F40C
:10468000E06403EB4808A8F8021003EB4707211881
:104690000297491005FB02F7019A4BF0040BA1F5B4
:1046A000FF71A3F800B005FB0AFA05FB02FB05FB4E
:1046B00001F1CCF3C30CCEF3C30E36123F1206F257
:1046C000DC5607F2DC5703EB4C0C03EB4E0EACF858
:1046D00002604FEA2B2BAEF80270039E029F4FEA56
:1046E0002A2A0912049D0BF2DC5B0AF2DC5A01F261
:1046F000DC516420A7F802B09884A6F802A0698073
:104700000EE55B4B998D10297FF40AAD40F2DC5128
:1047100093F8309093F836E093F838704FEA092018
:104720004FEA0E2A93F8328093F831400AF4407A27
:1047300000F44070AAF5FF72A0F5FF704FEA072A57
:10474000C7F3830793F834C004444FEA08264FF4B4
:10475000967003EB470700FB04F4019706F44076DC
:1047600093F833704FEA0C25A6F5FF763E4405F426
:10477000407593F83570A5F5FF752F44241293F812
:1047800037500C44CEF3830E009403EB4E0402EB3F
:10479000050E00FB06F600FB07F700FB0EFE93F884
:1047A00039500AF4407AAAF5FF7A5544BDF8002042
:1047B00000FB05F5C9F38309C8F38308CCF3830C28
:1047C00036123F124FEA2E2E0E440F448E4403EB56
:1047D000490903EB480803EB4C0C59809980D980B8
:1047E000198159819981D981198259829982D982F5
:1047F000198359839983D9831984A9F80220A8F8C9
:104800000260ACF80270A4F802E093F83A7093F8F2
:104810003C603C022D12019A0D4404F4407493F85C
:104820003B105580A4F5FF7435020C4405F4407527
:1048300093F83D10A5F5FF75294400FB04F400FB37
:1048400001F1C7F3830520120912C6F383044BF06C
:10485000040700F2DC5003EB450503EB440401F2CE
:10486000DC51642668801F809E84618058E400BF0C
:10487000BC24002040F2DC5A93F8320093F83180D7
:1048800093F833C000EB082893F8340093F835E030
:1048900000EB0C2C93F8360093F8377000EB0E2EDB
:1048A00093F8380093F8396000EB072793F83A0043
:1048B00093F83B5000EB062693F83C0093F83D40FC
:1048C00000EB052593F83E0093F8301093F82F90F5
:1048D00000EB042493F83F2093F8400001EB0929F2
:1048E00000EB02204FF4AF6101FB09F901FB08F86E
:1048F00001FB0CFC01FB0EFE01FB07F701FB06F6BA
:1049000001FB05F501FB04F401FB00F04FEA193946
:104910004FEA18384FEA1C3C4FEA1E3E3F0B360B5D
:104920002D0B240B000B06F5487605F5487504F5AC
:10493000487400F5487009F5487908F548780CF591
:10494000487C0EF5487E07F548779E81DD8193F817
:1049500041605882A3F80290A3F80480A3F806C02F
:10496000A3F808E05F811C82A3F81AA0A3F81CA09A
:10497000A3F81EA0A3F820A093F8424093F8435058
:1049800093F8440004EB062400EB052093F84560FF
:1049900093F8465001FB04F405EB062501FB00F0FB
:1049A00001FB05F1240B000B090B4BF0040604F589
:1049B000487400F5487001F5487164251E809C829A
:1049C000D88219839D84FFF7ABBB40F2DC5159803C
:1049D0009980D980198159819981D9811982598207
:1049E0009982D982198359839983D9831984FFF7CE
:1049F00091BB024B9E85FFF78EBA00BFBC240020FE
:104A00000B4A938C9BB11088013B20F002019BB2B2
:104A100089B2012B118001D99384704700239384BC
:104A2000C30748BF41F0020121F004011180704723
:104A3000BC24002010B50B4C64230021A3848022E9
:104A4000072304F12E0063842180A18520F074FBEC
:104A500040F2DC52A31C223423F8022BA342FBD1E8
:104A600010BD00BFBC240020174B062824D8DFE867
:104A700000F0040B0D151D1F2100002211464FF4FC
:104A8000E1305A84FFF7AAB9012216E002225A84C3
:104A90004FF4806101220D48FFF7A0B903225A8428
:104AA0004FF4806100220948FFF798B9042204E01E
:104AB000052202E0062200E007225A840022114665
:104AC0004FF4E130FFF78AB9BC240020A086010032
:104AD00008B5FFF7AFFF044B00229A840120BDE820
:104AE0000840FFF7A7B900BFBC24002070B50546F9
:104AF0000C4621B9134B1B88DA0710D470BD01296D
:104B00000DD1104E3388DB0709D5738C834218D042
:104B1000FFF790FF2846FFF7A7FF348070BD002005
:104B2000FFF772F9FFF786FF012C0AD12846FFF73D
:104B30009BFF044B1C80FFF76FF8BDE87040FCF74B
:104B40000BBB70BDBC240020030223F0404323F0C4
:104B5000FF0303F160432DE9F04383FB0345A40FFA
:104B600044EA8504354EAD17C4F1000E06FB05EC92
:104B7000A4FB066767444FEA967C314E4CEA870CEB
:104B8000664406FB05FC4FEAE67904FB09CCA6FB6C
:104B9000046767444FEA967C2A4E4CEA870C6644C9
:104BA00006FB05FC4FEAE67904FB09CCA6FB04678B
:104BB0006744B60FDFF898C046EA8706B444224E31
:104BC000C0F3815006FB05EEA4FB06677744B60FE1
:104BD000DFF880E046EA8706B64476460EFB05F528
:104BE000F71704FB0756AEFB04453544A60F174CD8
:104BF00046EA8506344483FB0445A40F44EA850451
:104C00000228C4EB0C050CEB04030BD003280FD0D7
:104C100001280BBF6D420D600B60136008BF15606B
:104C2000BDE8F0836D425B420D601360BDE8F08328
:104C30005B420B601560BDE8F08300BF9D2B16FF43
:104C400060DC780B00732BC81CBB8CFC00C7EAB877
:104C5000C03C412D20B5311D08B51FF0DFFC4FF0E1
:104C60004E511FF02FFD1EF09DF84FF097411FF0A1
:104C700029FD1FF003FF08BD10F1005041F10001B4
:104C800020F0404001F00041002871F1000308DAF3
:104C900010F1FF3040F040404FF0FF31013041F162
:104CA0000001002871F1000304DB10F1604041F1C4
:104CB000FF31704710F1005041F100017047002AA8
:104CC00073F100012DE9F04308DA524263EB43032C
:104CD000002809DA40424FF0000E0AE0002806DA08
:104CE00040424FF0010E04E04FF0010E01E04FF0A2
:104CF000000E14464FEAE07902FB09F2002500FBA2
:104D00000522A4FB004503FB09F11544DA1700FB5B
:104D10000211A3FB0023A60F0B4446EA8506990067
:104D20009000AF0F41EA927180197941BEF1000FF6
:104D300002D0404261EB4101BDE8F083002A73F1EB
:104D400000012DE9F04308DA524263EB43030028E7
:104D500009DA40424FF0000E0AE0002806DA40422D
:104D60004FF0010E04E04FF0010E01E04FF0000E95
:104D700014464FEAE07902FB09F2002500FB052208
:104D8000A4FB004503FB09F11544DA1700FB0211EF
:104D9000A3FB0023260C0B4446EA05461904100425
:104DA0002F0C41EA124180197941BEF1000F02D067
:104DB000404261EB4101BDE8F083002A73F100013C
:104DC0002DE9F04308DA524263EB4303002809DA85
:104DD00040424FF0000E0AE0002806DA40424FF051
:104DE000010E04E04FF0010E01E04FF0000E1446FA
:104DF0004FEAE07902FB09F2002500FB0522A4FB43
:104E0000004503FB09F11544DA1700FB0211A3FB6F
:104E10000023260E0B4446EA0526190210022F0E27
:104E200041EA126180197941BEF1000F02D040427F
:104E300061EB4101BDE8F083800A40EA815010B582
:104E40004FF4B474A0FB0423891204FB0133920ACB
:104E500042EA83526420A2FB000140F38F2010BD80
:104E600010B5FFF709FF800A40EA81504FF4B4748F
:104E7000A0FB0423891204FB0133920A42EA835205
:104E80006420A2FB000140F38F2010BD800A4FF484
:104E9000B47240EA81508B12A0FB020102FB0311A5
:104EA000820A42EA815288124FF47A71A2FB0123EE
:104EB00001FB0033900A40EA835070470B6803609F
:104EC0004B685B4243608B685B428360CB685B42AC
:104ED000C36070472DE9F0470F681668D1F804C029
:104EE00087FB0667D2F804804FEA967949EA87097A
:104EF0008CFB0867D1F808E09568B60F46EA87068C
:104F0000C6EB09098EFB0567D368CC68B60F46EA85
:104F10008706C6EB090984FB0367B60F46EA8706D6
:104F2000C6EB09060660D2F800A0D1F800908AFB13
:104F30000C674FEA967C4CEA870C89FB0867B60F32
:104F400046EA8706B44483FB0E67B60F46EA870637
:104F5000B44484FB0567B60F46EA8706C6EB0C0629
:104F600046608AFB0E674FEA967E4EEA870E89FB03
:104F70000567D2F80480B50F45EA870588FB04670A
:104F8000D1F804C0AE44B50F45EA87058CFB036732
:104F9000B60F46EA87067544AD1B85608AFB04455B
:104FA000A70F47EA850789FB03459668A20F896822
:104FB00042EA850286FB0C4581FB0889A30F3A442F
:104FC00043EA850313444FEA987242EA89029B1A26
:104FD000C360BDE8F0872DE9F04FD2F80490D1F816
:104FE00004A00D6814688AFB096785FB0445D1F8A5
:104FF00008C0D2F80880B60FA40F46EA870644EA34
:10500000850426448CFB0845CB68D2F80CE0A40F3D
:1050100044EA8504264483FB0E45A40F44EA850434
:10502000344404600F68166887FB094586FB0AABA9
:10503000A40F4FEA9A7944EA850449EA8B09C9EB3F
:1050400004098EFB0C45A40F44EA8504C4EB09094E
:1050500083FB0845A40F44EA85044C44446087FB65
:10506000088986FB0C45D2F804B04FEA9878A40F63
:1050700044EA850448EA8908C4EB08088BFB034529
:10508000D1F804A0A40F44EA8504C4EB08088AFB05
:105090000E45A40F44EA85044444846087FB0E4512
:1050A000D2F808C086FB0367A20F42EA85028CFB98
:1050B0000A45B30F896843EA8703D21AA30F43EA6C
:1050C000850381FB0B45D21AA30F43EA85031A44DB
:1050D000C260BDE8F08F2DE9F04FD1F80490D2F80E
:1050E00004A00D68146889FB0A6785FB0445D2F8A3
:1050F00008C0D1F80880B60FA40F46EA870644EA34
:105100008504264488FB0C45D368D1F80CE0A40F35
:1051100044EA850426448EFB0345A40F44EA850433
:105120003444046017680E6887FB094586FB0AABA8
:10513000A40F4FEA9A7944EA850449EA8B09C9EB3E
:10514000040983FB0845A40F44EA8504C4EB09095C
:105150008EFB0C45A40F44EA85044C44446087FB55
:10516000088986FB0C45D2F804B04FEA9878A40F62
:1051700044EA850448EA8908C4EB08088BFB0E451D
:10518000D1F804A0A40F44EA8504C4EB08088AFB04
:105190000345A40F44EA85044444846087FB0E451C
:1051A000D2F808C086FB0367A20F42EA85028CFB97
:1051B0000A45B30F896843EA8703D21AA30F43EA6B
:1051C000850381FB0B45D21AA30F43EA85031A44DA
:1051D000C260BDE8F08F2DE9F04F91E8180083FB25
:1051E0000467B50F45EA870587B06D0001958D68A6
:1051F00085FB0367B60F85FB04AB46EA870676009E
:105200000296CE6886FB03894FEA9A7343EA8B03C2
:1052100086FB04AB4FEA9A7747EA8B0785FB05AB21
:105220004FEA987141EA89014FEA9A7E86FB058927
:105230004EEA8B0E7F0003974FEA4E07049786FBDA
:1052400006674FEA987545EA89056D0005954FEAAE
:10525000967A049D4AEA870A4FEA4A0A029FC5F1F4
:105260008046039DCAEB0606C7EB050B92E820506B
:1052700086FB056749005B0001EB030888FB0C898E
:10528000B50F45EA87058BFB0E674FEA987848EA29
:105290008908A844B50F45EA87054544056084FBA5
:1052A0000445A40F5B1A44EA85040199059D640036
:1052B0004D191168C4F1804483FB0167CAEB040AED
:1052C0008AFB0CABB30F43EA870385FB0E674FEAFB
:1052D0009A7C4CEA8B0C9C44B30F43EA87036344EB
:1052E0004360039D029B019E2B44059DAE1B049DC4
:1052F000641B556883FB012385FB066784FB0E4511
:10530000920F42EA8302B30F43EA87031A44A30FC2
:1053100043EA85031344836007B0BDE8F08F0000C3
:105320002DE9F84F0F684C6887FB0723CE68950F6F
:1053300045EA830580468B6884FB06014FEA907E30
:1053400083FB06AB4EEA810E83FB0701820F4FEA17
:105350009A7040EA8B0084FB07AB42EA8102C2EB01
:105360000E0E4FEA9A7242EA8B0200EB020986FBAC
:1053700006014FEA907C4CEA810C83FB040186FB1A
:105380000767840F44EA810483FB0301B20F42EAFA
:105390008702AC44A41A820F0CF1604C42EA8102ED
:1053A0001544BCF1000F05F1604563DDBEF1000F4F
:1053B0004FEA6E034FEA6C01D94E2DDB591ACB1719
:1053C0009F070EEB0C02D317880747EA91011FF0E5
:1053D0009BFB80FB00AB4FEA9A7343EA8B0383FB92
:1053E0000667B20FCF4E42EA8702164483FB066778
:1053F000CD4AB10F41EA87010A4483FB0223920F91
:1054000042EA8302C94B134480FB0301820F42EA44
:10541000810202F180529DE01944CB179F07CCEB2B
:105420000E02D317880747EA91011FF06DFB80FB3E
:1054300000AB4FEA9A7343EA8B0383FB0667B20F14
:10544000B84E42EA8702164483FB0667B64AB10F9C
:1054500041EA87010A4483FB0223920F42EA830256
:10546000B24B134480FB0301820F42EA8102C2F176
:1054700070426FE063D0BEF1000F4FEA6E014FEA59
:105480006C03A74E2DDB1944CB179F07CCEB0E0204
:10549000D317880747EA91011FF036FB80FB00AB6A
:1054A0004FEA9A7343EA8B0383FB0667B20F9D4E64
:1054B00042EA8702164483FB06679B4AB10F41EA22
:1054C00087010A4483FB0223920F42EA8302974B2F
:1054D000134480FB0301820F42EA8102C2F1405271
:1054E00038E0C91ACB179F070EEB0C02D3178807B9
:1054F00047EA91011FF008FB80FB00AB4FEA9A736B
:1055000043EA8B0383FB0667B20F864E42EA8702AB
:10551000164483FB0667844AB10F41EA87010A44B7
:1055200083FB0223920F42EA8302804B134480FBE9
:105530000301820F42EA810202F150420AE0BEF109
:10554000000F02DC04D1724604E04FF0804201E01B
:105550004FF04042521052424FEA4900D317B0F187
:10556000804FC8E9002370DAB0F1404F70DD80FB56
:105570000067B30F43EA87036D4EBA17C3F1000EFD
:1055800006FB02E1A3FB06670F44B10F694E41EA37
:1055900087010E4406FB02F14FEAE67B03FB0B1189
:1055A000A6FB03670F44B10F634E41EA87010E4427
:1055B00006FB02F14FEAE67B03FB0B11A6FB036738
:1055C0000F44B60F5D4946EA870631445C4E06FB40
:1055D00002EEA3FB066777444FEA967E594E4EEAE9
:1055E000870E764406FB02FE4FEAE67B03FB0BEEDA
:1055F000A6FB03677744B60FDFF850E146EA87065B
:10560000B64476460EFB02F2F71703FB0722AEFB09
:1056100003671744B20F42EA87024B4B02F1005274
:10562000994202DC89009200FAE7CF17BE074FEAE1
:105630006009D317880746EA91011FF065FA89FBD4
:105640000001820F42EA810204E04FF0005201E0C3
:105650004FF060425210D317002DC8E9022377DDC6
:10566000002C2F4E4FEA64034FEA65012BDB591AD9
:10567000CB1762199F078807D31747EA91011FF0DC
:1056800043FA80FB0045A30F43EA850383FB0667CB
:10569000244CB20F42EA8702144483FB0445224A99
:1056A000A10F41EA85010A4483FB0223920F42EADB
:1056B00083021E4B134480FB0301820F42EA8102E6
:1056C00002F18052AEE01944CB17621B9F07880796
:1056D000D31747EA91011FF017FA80FB0045A30F8B
:1056E00043EA850383FB06670E4CB20F42EA87024A
:1056F000144483FB04450C4AA10F41EA85010A4486
:1057000083FB0223920F42EA8302084B134480FB7F
:105710000301820F42EA8102C2F1704282E000BFBF
:1057200000D1249B80812A5F807EAACBC01BB62833
:1057300052EDEBFE60643B0EC060D4DE60305F145F
:10574000548C43FC4045871D13AE4701400990C669
:105750005ED0002C374E4FEA64014FEA65032BDB25
:105760001944CB17621B9F078807D31747EA91019B
:105770001FF0CAF980FB0045A30F43EA850383FBB2
:1057800006672D4CB20F42EA8702144483FB04459E
:105790002A4AA10F41EA85010A4483FB0223920FA2
:1057A00042EA8302264B134480FB0301820F42EA44
:1057B0008102C2F1405235E0C91ACB1762199F0726
:1057C0008807D31747EA91011FF09EF980FB004537
:1057D000A30F43EA850383FB0667174CB20F42EA27
:1057E0008702144483FB0445144AA10F41EA850152
:1057F0000A4483FB0223920F42EA8302104B1344B4
:1058000080FB0301820F42EA810202F1504209E06B
:10581000002C02DC04D1224604E04FF0804201E07B
:105820004FF0404254106442E517C8E90445BDE812
:10583000F88F00BF00D1249B80812A5F807EAACB95
:10584000C01BB6282DE9F843044691E8490083FBC4
:105850000689C9684FEA987242EA890280FB018989
:1058600086FB066780FB00014FEA987343EA8903D1
:10587000D31AB50F820F45EA870542EA81022A440E
:1058800002F16042002A5EDD002B4FEA63004FEA1E
:105890006201654D2BDB411ACF171A44BE07D3179F
:1058A000880746EA91011FF02FF980FB0067B30FCC
:1058B00043EA870383FB0567B20F5C4E42EA870227
:1058C000164483FB06675A4AB10F41EA87010A442E
:1058D00083FB0223920F42EA8302564B134480FB60
:1058E0000301820F42EA810202F1805295E00144F5
:1058F000CF179A1ABE07D317880746EA91011FF0FF
:1059000003F980FB0067B30F43EA870383FB056756
:10591000B20F464E42EA8702164483FB0667444AAA
:10592000B10F41EA87010A4483FB0223920F42EA46
:105930008302404B134480FB0301820F42EA810241
:10594000C2F1704269E05ED0002B4FEA63014FEA7A
:105950006200354D2BDB0144CF179A1ABE07D317CF
:10596000880746EA91011FF0CFF880FB0067B30F6C
:1059700043EA870383FB0567B20F2C4E42EA870296
:10598000164483FB06672A4AB10F41EA87010A449D
:1059900083FB0223920F42EA8302264B134480FBCF
:1059A0000301820F42EA8102C2F1405235E0091A36
:1059B000CF171A44BE07D317880746EA91011FF094
:1059C000A3F880FB0067B30F43EA870383FB0567F7
:1059D000B20F164E42EA8702164483FB0667144A4A
:1059E000B10F41EA87010A4483FB0223920F42EA86
:1059F0008302104B134480FB0301820F42EA8102B1
:105A000002F1504209E0002B02DC04D11A4604E006
:105A10004FF0804201E04FF0404252105242D31703
:105A2000C4E90023BDE8F88300D1249B80812A5F6C
:105A3000807EAACBC01BB6282DE9F04F89460B68A3
:105A40000446486887B0DB0943EA406001AA69461A
:105A5000FFF77AF8D9F80830D9F80C00DB0943EAE7
:105A6000406003AA02A9FFF76FF8019A0398029B0E
:105A700082FB006783FB02AB009A4FEA967882FBB9
:105A8000000183FB022348EA8708950F4FEA9A77C3
:105A900047EA8B07860F45EA8305D9E904AB5AEA42
:105AA0000B0346EA810605D1C4F800806760A66052
:105AB000E5603EE04FEADA1005AA04A940EA4B602F
:105AC000FFF742F80598049988FB00234FEA927E7D
:105AD0004EEA830E85FB0123920F42EA8302C2EB5A
