:020000040800F2
:1000000000500020E51B0008711B0008731B00084E
:10001000751B0008771B0008791B00080000000012
:100020000000000000000000000000007B1B000832
:100030007D1B0008000000007F1B0008811B0008DA
:100040002D1C00082D1C00082D1C00082D1C00086C
:100050002D1C00082D1C00082D1C00082D1C00085C
:100060002D1C00082D1C00082D1C00082D1C00084C
:100070002D1C00082D1C00082D1C00082D1C00083C
:100080002D1C00082D1C00082D1C00082D1C00082C
:100090002D1C00082D1C00082D1C00082D1C00081C
:1000A0002D1C00082D1C00082D1C00082D1C00080C
:1000B000891B00082D1C00082D1C00082D1C0008A1
:1000C0002D1C00082D1C00082D1C00082D1C0008EC
:1000D0002D1C00082D1C00082D1C00082D1C0008DC
:1000E0002D1C00082D1C00082D1C0008000000001D
:1000F0000000000000000000000000000000000000
:0C01000000000000000000005FF808F1A3
:10010C0010B5054C237833B9044B13B10448AFF345
:10011C0000800123237010BD0C00002000000000A3
:10012C00781C000808B5034B1BB103490348AFF317
:10013C00008008BD0000000010000020781C0008A2
:10014C0010B504460E4B18784FF47A73B3FBF0F3EA
:10015C000C4A1068B0FBF3F000F0A0F868B90F2C53
:10016C0001D901200AE0002221464FF0FF3000F0B7
:10017C0055F8034B5C60002000E0012010BD00BF6F
:10018C00000000200800002008B5074A136843F05F
:10019C0010031360032000F02FF80020FFF7D0FFAE
:1001AC0001F058FC002008BD00200240034A1168F1
:1001BC00034B1B780B441360704700BF38000020C2
:1001CC0000000020014B1868704700BF3800002069
:1001DC0038B50446FFF7F6FF0546B4F1FF3F02D0F1
:1001EC00044B1B781C44FFF7EDFF401BA042FAD3D5
:1001FC0038BD00BF00000020074AD36823F4E06339
:10020C001B041B0C000200F4E060184340F0BF60BC
:10021C0040F40030D060704700ED00E030B4174B74
:10022C00DB68C3F30223C3F10704042C28BF0424A6
:10023C001D1D062D18D9033B4FF0FF3505FA04F4AC
:10024C0021EA0401994005FA03F322EA0303194356
:10025C0000280BDB0901C9B200F1604000F56140D8
:10026C0080F8001330BC70470023E5E700F00F0066
:10027C000901C9B2024B1954F4E700BF00ED00E0CC
:10028C0014ED00E000F01F02400901239340024AE4
:10029C0042F82030704700BF00E100E00138B0F1B7
:1002AC00807F0AD2064B5860064AF02182F8231050
:1002BC000020986007221A6070470120704700BF29
:1002CC0010E000E000ED00E0F0B482B0002635460E
:1002DC00A1E0002C59D0012C00D1CE68FF2B68D89E
:1002EC008446FF2B68D8AC00DCF800200F27A74011
:1002FC0022EA070206FA04F42243CCF800204A68EA
:10030C0012F0805F00F086805E4A946944F001042C
:10031C009461926902F001020192019AAC08A71C47
:10032C00594A52F8272005F00307BF004FF00F0C75
:10033C000CFA07FC22EA0C0C544A904242D002F50B
:10034C00806290427FD002F5806290427DD002F5AF
:10035C008062904234D0042235E04D4FBC4214D020
:10036C000BD94C4FBC4210D007F58037BC420CD097
:10037C00A7F58017BC42B1D107E0A7F58017BC42A6
:10038C0003D007F58037BC42A8D18C687CB1012C16
:10039C0008D042610826A1E7CE6808369EE7CE68F1
:1003AC000C369BE70261082698E7002696E70426A0
:1003BC0094E700F1040C94E7A5F10804A40093E77A
:1003CC00032200E00022BA4042EA0C0202342E4F13
:1003DC0047F824204A6812F4803F38D02E4C22680B
:1003EC001A4322604A6812F4003F36D02A4C6268E5
:1003FC001A4362604A6812F4801F34D0264CA268FB
:10040C001A43A2604A6812F4001F32D0224CE268F0
:10041C001343E36001350F2D31D80122AA400B683C
:10042C0013409A42F6D14C68122CB8D095D8022CB5
:10043C00B2D07FF64EAF032CB7D0112C7FF44EAF59
:10044C00CE6804364AE70122BDE70222BBE7124C14
:10045C00226822EA03022260C4E70F4C626822EA97
:10046C0003026260C6E70C4CA26822EA0302A26097
:10047C00C8E7094CE26822EA0303E360CAE702B06A
:10048C00F0BC704700100240000001400008014021
:10049C0000002110000031100004014003685A696B
:1004AC0012F4806F0DD06FF480625A6104230364E0
:1004BC0000230363202280F83D2080F83C3001208B
:1004CC00704700207047F8B506460C4617461D4687
:1004DC001EE02DB1FFF776FE069BC01AA84217D975
:1004EC0000233363202286F83D2086F83E3086F8C0
:1004FC003C3003201AE033685B6924EA03039BB2A7
:10050C00B3FA83F35B099F420FD1B5F1FF3FE0D102
:10051C00C4F30743012BEED033689B6924EA030331
:10052C009BB2B3FA83F35B09EDE70020F8BDF8B595
:10053C0004460D4616461F4632E01A6842F4007215
:10054C001A6023686FF480625A61042323640023C9
:10055C002363202284F83D2084F83C3001202DE0D8
:10056C0026B1FFF72FFEC01BB04219D9002323631D
:10057C00202284F83D2084F83C3003201EE02368C0
:10058C005B6925EA03039BB2003318BF0123A3B1B7
:10059C0023685A6912F4806FCFD1B6F1FF3FDFD1D7
:1005AC00C5F30743012BEAD023689B6925EA0303B3
:1005BC009BB2003318BF0123E9E70020F8BD00000F
:1005CC00F0B583B004460D4616461F46C36A042B8D
:1005DC000DD0012B0BD013F5803F08D0036B122BE1
:1005EC000AD10268136843F48073136004E0226834
:1005FC00136843F4807313600097334600224FF066
:10060C0001112046FFF75FFF58BB2369B3F5804FFC
:10061C0010D1236805F0FE051D613B463246154995
:10062C002046FFF784FF0346E0B1236C042B1ED158
:10063C00012317E0EB11226803F0060343F0F003EB
:10064C0013613B4632460C492046FFF770FF20B140
:10065C00236C042B09D1012304E02368EDB21D6146
:10066C00DBE70323184603B0F0BD0323FAE70323AB
:10067C00F8E700BF020001000800010070B5044655
:10068C000D46164623685B6913F0800F19D120467E
:10069C00FFF704FFB8B9B5F1FF3FF3D025B1FFF771
:1006AC0091FD801BA842EDD9236C43F020032364F9
:1006BC0000232363202284F83D2084F83C3003205F
:1006CC0000E0002070BD0120FCE770B504460D462B
:1006DC00164623685B6913F0040F19D12046FFF707
:1006EC00DDFEB8B9B5F1FF3FF3D025B1FFF76AFDD8
:1006FC00801BA842EDD9236C43F020032364002314
:10070C002363202284F83D2084F83C30032000E051
:10071C00002070BD0120FCE7002800F0A28038B555
:10072C00044690F83D30002B4FD0242384F83D3004
:10073C002268136823F00103136000F073FC6268F5
:10074C004A4B9A4246D84A4B98428CBF002301230D
:10075C00002B40F08880474BA3FB00239B0C2268A6
:10076C0053606168414A91423AD80133226813625E
:10077C0061683E4B99423DD8431E4900B3FBF1F3EF
:10078C000133C3F30B03042B38BF04232268D3615A
:10079C00E369216A22680B4313602369E1682268CC
:1007AC000B4393606369A16922680B43D360226891
:1007BC00136843F00103136000202064202384F8A5
:1007CC003D30206384F83E0038BD80F83C3001F0A9
:1007DC0063F9AAE7284B98428CBF00230123B7E7A3
:1007EC004FF4967202FB03F3244AA2FB03239B09EA
:1007FC000133BBE7A368BBB9421E01EB4105B2FB59
:10080C00F5F20132C2F30B02B2FA82F2520932BB98
:10081C00C3B9013801EB4103B0FBF3F30133C3F36C
:10082C000B0343F40043B1E7421E01EB810505EBDA
:10083C008505B2FBF5F20132C2F30B02B2FA82F279
:10084C005209E4E7013801EB810303EB8303B0FBAE
:10085C00F3F30133C3F30B0343F4404396E7012353
:10086C0094E7012070470120AEE700BFA08601008D
:10087C007F841E0083DE1B43FF083D00D34D6210B6
:10088C002DE9F04184B004460E4690461F46FFF712
:10089C0099FC94F83D30DBB2202B04D00226304674
:1008AC0004B0BDE8F081054600901923012254499B
:1008BC002046FFF708FE002840F0998094F83C3061
:1008CC00012B00F09680012384F83C3023681A68D1
:1008DC0012F0010F03D11A6842F001021A6022686B
:1008EC00136823F400631360212384F83D30102334
:1008FC0084F83E3000232364C4F824806785A3F574
:10090C008033E362638D23852B460A9A3146204659
:10091C00FFF756FE064660B1236C042B04D100236E
:10092C0084F83C300126BAE7002384F83C300326D7
:10093C00B5E70023039323685A6903929B690393D9
:10094C00039B10E0236C042B55D12268136843F4ED
:10095C00007313600126A2E72A460A992046FFF786
:10096C00B4FE00282BD1238D002B32D02A460A99B5
:10097C002046FFF783FE0028E4D1636A5A1C6262AA
:10098C0022681B781361638D013B9BB26385238DB9
:10099C00013B9BB223852268516911F0040FDBD017
:1009AC00002BD9D0636A591C61621B781361638D6B
:1009BC00013B9BB26385238D013B2385CCE7236CE4
:1009CC00042B1AD12268136843F4007313600126B8
:1009DC0065E72268136843F400731360202384F8DE
:1009EC003D30002384F83E3084F83C3057E7022633
:1009FC0055E7022653E7032651E703264FE700BFCE
:100A0C000200100082B0084B1B68084AA2FB0323AB
:100A1C005B0A00FB03F0019000BF019B5A1E019280
:100A2C00002BF9D102B0704708000020D34D6210A2
:100A3C0070B582B00446036813F0010F2CD0AB4B99
:100A4C005B6803F00C03042B1DD0A84B5B6803F010
:100A5C000C03082B12D06368B3F5803F41D0002BF8
:100A6C0055D103F1804303F504331A6822F4803224
:100A7C001A601A6822F480221A6037E09B4B5B687C
:100A8C0013F4803FE7D0994B1B6813F4003F03D05D
:100A9C006368002B00F0AE81236813F0020F76D050
:100AAC00924B5B6813F00C0F5FD0904B5B6803F0BC
:100ABC000C03082B54D02369002B00F08A808C4B3C
:100ACC0001221A60FFF77EFB0546884B1B6813F06A
:100ADC00020F75D1FFF776FB401B0228F5D90320D6
:100AEC008BE1824A136843F480331360636843B329
:100AFC00FFF768FB05467D4B1B6813F4003FCBD119
:100B0C00FFF760FB401B6428F5D9032075E1B3F5B2
:100B1C00A02F09D0754B1A6822F480321A601A681B
:100B2C0022F480221A60E1E703F18043A3F53C3301
:100B3C001A6842F480221A601A6842F480321A60F1
:100B4C00D4E7FFF73FFB0546684B1B6813F4003FE7
:100B5C00A2D0FFF737FB401B6428F5D903204CE1EA
:100B6C00624B5B6813F4803FA5D1604B1B6813F09C
:100B7C00020F04D02369012B01D001203DE15B4A17
:100B8C00136823F0F803616943EAC1031360236817
:100B9C0013F0080F32D0A369002B5BD0554B012208
:100BAC001A60FFF70FFB0546504B5B6A13F0020F00
:100BBC0021D1FFF707FB401B0228F5D903201CE1CC
:100BCC004A4A136823F0F803616943EAC1031360CE
:100BDC00DDE7474B00221A60FFF7F4FA0546434B5A
:100BEC001B6813F0020FD2D0FFF7ECFA401B02285F
:100BFC00F5D9032001E10120FFF704FF236813F06E
:100C0C00040F00F09780394BDB6913F0805F33D110
:100C1C00364BDA6942F08052DA61DB6903F08053BB
:100C2C000193019B0125344B1B6813F4807F25D065
:100C3C00E368012B36D0002B4CD103F1804303F534
:100C4C0004331A6A22F001021A621A6A22F00402B0
:100C5C001A622CE0274B00221A60FFF7B3FA054604
:100C6C00224B5B6A13F0020FC8D0FFF7ABFA401BA4
:100C7C000228F5D90320C0E00025D4E71E4A1368EA
:100C8C0043F480731360FFF79DFA06461A4B1B68FA
:100C9C0013F4807FCCD1FFF795FA801B6428F5D92B
:100CAC000320AAE0114A136A43F001031362E368BC
:100CBC0073B3FFF787FA06460C4B1B6A13F0020F4F
:100CCC0037D1FFF77FFA801B41F288339842F3D972
:100CDC00032092E0052B11D0044B1A6A22F001027A
:100CEC001A621A6A22F004021A62E0E7001002404B
:100CFC00000042428004424200700040414B1A6A9C
:100D0C0042F004021A621A6A42F001021A62CEE739
:100D1C00FFF758FA06463B4B1B6A13F0020F08D03C
:100D2C00FFF750FA801B41F288339842F3D9032025
:100D3C0063E0E5B9E369002B5ED0324A526802F0F9
:100D4C000C02082A5BD0022B17D02F4B00221A6002
:100D5C00FFF738FA04462B4B1B6813F0007F47D083
:100D6C00FFF730FA001B0228F5D9032045E0254A8D
:100D7C00D36923F08053D361DCE7234B00221A6044
:100D8C00FFF720FA05461F4B1B6813F0007F06D0B7
:100D9C00FFF718FA401B0228F5D903202DE0236A2F
:100DAC00B3F5803F1AD017494B6823F47413226AA9
:100DBC00606A024313434B60134B01221A60FFF726
:100DCC0001FA04460F4B1B6813F0007F0ED1FFF79E
:100DDC00F9F9001B0228F5D903200EE0094A5368E3
:100DEC0023F40033A1680B435360DCE7002004E0DC
:100DFC00002002E0012000E0002002B070BD0120C4
:100E0C00FBE700BF001002406000424210B487B004
:100E1C00164C94E80F000DF1180C0CE90F00238A06
:100E2C00ADF80430124B5B6803F00C02082A1AD19F
:100E3C00C3F38342624412F8102C13F4803F05D1A3
:100E4C000C4800FB02F007B010BC7047084B5B6805
:100E5C00C3F34043634413F8143C074800FB02F00F
:100E6C00B0FBF3F0EFE70448EDE700BF901C00087F
:100E7C000010024000093D0000127A00624B1B6812
:100E8C0003F007038B420CD25F4A136823F007036D
:100E9C000B431360136803F007038B4201D001204E
:100EAC00704770B5036813F0020F17D013F0040FDE
:100EBC0004D0564A536843F4E0635360036813F05C
:100ECC00080F04D0514A536843F4605353604F4A9F
:100EDC00536823F0F0038468234353600D460446A3
:100EEC00036813F0010F52D04368012B23D0022B5F
:100EFC0028D0464A126812F0020F00F08280434953
:100F0C004A6822F0030213434B60FFF75BF9064675
:100F1C006368012B1DD0022B2AD03C4B5B6813F06D
:100F2C000C0F34D0FFF74EF9801B41F288339842F6
:100F3C00F3D9032064E0354A126812F4003FDED185
:100F4C0001205DE0314A126812F0007FD7D10120F8
:100F5C0056E02E4B5B6803F00C03042B17D0FFF705
:100F6C0031F9801B41F288339842F2D9032047E0D3
:100F7C00264B5B6803F00C03082B08D0FFF722F913
:100F8C00801B41F288339842F2D9032038E01E4B83
:100F9C001B6803F00703AB420CD91B4A136823F000
:100FAC0007032B431360136803F00703AB4201D014
:100FBC00012025E0236813F0040F06D0134A536870
:100FCC0023F4E063E1680B435360236813F0080FCC
:100FDC0007D00E4A536823F46053216943EAC103D6
:100FEC005360FFF713FF094B5B68C3F30313084A05
:100FFC00D35CD840074B18600020FFF7A1F8002005
:10100C0070BD0120FCE700BF002002400010024030
:10101C00A41C000808000020014B1868704700BF92
:10102C000800002008B5FFF7F7FF044B5B68C3F31B
:10103C000223034AD35CD84008BD00BF0010024015
:10104C00B41C000810B4036A046A24F0010404629E
:10105C00846924F0F00444EA021223F00A030B43DF
:10106C008261036210BC704730B4046A24F010042F
:10107C0004628469056A24F4407444EA022222F46E
:10108C0070421B039BB21A4325F0A005090101F025
:10109C00A00129438261016230BC704710B4036A1D
:1010AC0023F0100303628469036A24F4704444EA55
:1010BC00023223F0A00343EA01138261036210BCE5
:1010CC00704730B4046A24F480740462C469056AFD
:1010DC0024F00304224322F0F0021B01DBB21A437A
:1010EC0025F40075090201F400712943C261016203
:1010FC0030BC704730B4046A24F480540462C46970
:10110C00056A24F4407444EA022222F470421B0360
:10111C009BB21A4325F40055090301F400512943ED
:10112C00C261016230BC704710B4846824F47F44FF
:10113C0042EA03230B432343836010BC704710B572
:10114C000468A26822F070024B68134323F0070373
:10115C000A681343A3604B68502B1ED00AD9602B2E
:10116C0021D0702B05D10B698A68C9680068FFF71C
:10117C00DBFF10BD402BFCD103681C6A1A6A22F0FD
:10118C0001021A620268936923F0F003096943EAC9
:10119C000113936103681C62EBE70A6989680068B4
:1011AC00FFF750FFE5E70A6989680068FFF776FFEB
:1011BC00DFE7704738B590F83C30012B18D0044667
:1011CC00012580F83C50022380F83D30FFF7B7FF33
:1011DC002268D36823F04003D3602268D36823F4D9
:1011EC008043D36084F83D50002084F83C0038BD27
:1011FC000220FCE7034690F83C20012A1ED0012275
:10120C0080F83C200C2917D8DFE801F007161616D9
:10121C000D1616161016161613000268506B0022C7
:10122C0083F83C2070470268906BF8E70268D06B3B
:10123C00F5E70268106CF2E70020F0E70220704737
:10124C00704770477047704710B5044603681A69B9
:10125C0012F0020F11D0DA6812F0020F0DD06FF0FD
:10126C0002021A610123037703689B6913F0030FD1
:10127C0070D000F0E9FA0023237723681A6912F082
:10128C00040F12D0DA6812F0040F0ED06FF00402C3
:10129C001A610223237723689B6913F4407F5FD084
:1012AC00204600F0D1FA0023237723681A6912F044
:1012BC00080F12D0DA6812F0080F0ED06FF0080287
:1012CC001A61042323772368DB6913F0030F4ED0D4
:1012DC00204600F0B9FA0023237723681A6912F02C
:1012EC00100F12D0DA6812F0100F0ED06FF010023F
:1012FC001A61082323772368DB6913F4407F3DD000
:10130C00204600F0A1FA0023237723681A6912F013
:10131C00010F03D0DA6812F0010F36D123681A6975
:10132C0012F0800F03D0DA6812F0800F34D12368EA
:10133C001A6912F0400F03D0DA6812F0400F32D164
:10134C0023681A6912F0200F03D0DA6812F0200F0C
:10135C0030D110BDFFF775FF2046FFF773FF8AE70A
:10136C002046FFF76EFF2046FFF76CFF9BE72046F9
:10137C00FFF767FF2046FFF765FFACE72046FFF756
:10138C0060FF2046FFF75EFFBDE76FF001021A61B8
:10139C002046FFF755FFC1E76FF080021A61204627
:1013AC0000F06FF9C3E76FF040021A612046FFF7B7
:1013BC004AFFC5E76FF020021A61204600F060F981
:1013CC00C7E7000003681B4A90420AD0B0F1804F77
:1013DC0007D0A2F59432904203D002F5806290427D
:1013EC0003D123F070034A681343124A90420AD087
:1013FC00B0F1804F07D0A2F59432904203D002F5A1
:10140C008062904203D123F44073CA68134323F0E3
:10141C0080034A69134303608B68C3620B68836261
:10142C00044B984202D00123436170470B6903635C
:10143C00F9E700BF002C0140A8B110B5044690F8A4
:10144C003D305BB1022384F83D30211D2068FFF74D
:10145C00B9FF012384F83D30002010BD80F83C30EA
:10146C0000F04CFBEEE701207047A8B110B5044624
:10147C0090F83D305BB1022384F83D30211D20688B
:10148C00FFF7A0FF012384F83D30002010BD80F849
:10149C003C30FFF78EFEEEE70120704770B4046A13
:1014AC0024F0010404628469056A114EB0420DD027
:1014BC00B0F1804F0AD0A6F59436B04206D006F5AE
:1014CC008066B04202D044F0010202E024F0030432
:1014DC00224322F0F0021B01DBB2134325F00A0277
:1014EC0001F00A0111438361016270BC704700BFB7
:1014FC00002C014038B590F83C30012B58D00D46EB
:10150C000446012380F83C30022380F83D30DAB1E8
:10151C00042A2AD0082A3AD0CB684A68096800689D
:10152C00FFF7E8FD2268D36923F44063D361226896
:10153C00D369A96843EA0123D361012384F83D30C0
:10154C00002084F83C0038BDCB684A680968006804
:10155C00FFF7A4FF2268936923F00C0393612268C0
:10156C009369A9680B439361E7E7CB684A680968FC
:10157C000068FFF779FD2268936923F44063936157
:10158C0022689369A96843EA01239361D5E7CB6884
:10159C004A6809680068FFF794FD2268D36923F054
:1015AC000C03D3612268D369A9680B43D361C4E7E8
:1015BC000220C8E710B4012303FA01F4036A23EAFA
:1015CC0004030362036A8A401343036210BC70472E
:1015DC0010B504460C290DD8DFE801F0070C0C0CF3
:1015EC00170C0C0C1D0C0C0C23000268D36843F078
:1015FC000203D36001222068FFF7DCFF2268136826
:10160C0043F001031360002010BD0268D36843F05F
:10161C000403D360EEE70268D36843F00803D36099
:10162C00E8E70268D36843F01003D360E2E790F870
:10163C003C30012B22D030B4012280F83C20022314
:10164C0080F83D300468636823F0700363600468BD
:10165C0063680D682B4363600468A36823F0800300
:10166C00A3600468A36849680B43A36080F83D201D
:10167C00002380F83C30184630BC7047022070477D
:10168C007047704700B585B000F0F0030001C0B2A0
:10169C0043F00C028DF80C2043F008038DF80D304C
:1016AC0040F00C038DF80E3040F008008DF80F0060
:1016BC0064230093042303AA4E210348FFF7E0F8A8
:1016CC0005B05DF804FB00BF3C00002000B585B000
:1016DC0000F0F0030001C0B243F00D028DF80C20B5
:1016EC0043F009038DF80D3040F00D038DF80E30EA
:1016FC0040F009008DF80F0064230093042303AA23
:10170C004E210348FFF7BCF805B05DF804FB00BFA1
:10171C003C00002008B50220FFF7B4FF2820FFF79B
:10172C00B1FF0C20FFF7AEFF8020FFF7ABFF08BD29
:10173C0010B5044602E00134FFF7C8FF20780028FA
:10174C00F9D110BD84B00F4B9A6942F020029A6116
:10175C009A6902F020020192019A9A6942F00402FD
:10176C009A619A6902F004020292029A9A6942F012
:10177C0008029A619B6903F008030393039B04B06E
:10178C00704700BF0010024070B58CB00024079465
:10179C00089409940A940B94059406940194029469
:1017AC00039404941A4D4FF080432B606C60AC6032
:1017BC004FF6FE73EB602C61AC612846FFF73CFEE4
:1017CC002846FFF752FE04260796602308930994D7
:1017DC000B9407A92846FFF7EDFC0594069405A980
:1017EC002846FFF724FF01940123029303940494E9
:1017FC0032460DEB06012846FFF77CFE02230193CF
:10180C0008220DEB06012846FFF774FE0CB070BDE4
:10181C009000002008B50948094B0360094B436050
:10182C0000238360C3604FF4804202614361836193
:10183C00C3610362FEF770FF08BD00BF3C000020CF
:10184C0000540040A0860100037F022B00D070479B
:10185C0010B504460421FFF7CDFC0E4B186020B9DF
:10186C000C4B00229A60DA6010BD08212046FFF76D
:10187C00C1FC084C6060642303FB00F02368B0FBE0
:10188C00F3F0A060FFF7CEFB40002368B0FBF3F051
:10189C00E060E9E72800002030B591B000240894FE
:1018AC0009940B940C94019402940394049405945D
:1018BC00012206924FF4803307930A9202250D956C
:1018CC000E934FF4E0130F9306A8FFF7B1F80F2314
:1018DC000193029503944FF4806304930594294675
:1018EC0001A8FFF7CBFA11B030BD000080B5FEF7B0
:1018FC004BFCFFF7D1FFFFF725FFFFF745FFFFF785
:10190C0089FFFFF707FF494C04212046FFF760FED3
:10191C0008212046FFF75CFE8020FFF7B3FE444809
:10192C00FFF706FF434EF3685809434CA4FB003005
:10193C00C0093030C0B2FFF7C9FEF3685809A4FBE8
:10194C000020C0093D4A02FB10303D4CA4FB003086
:10195C00400B3030C0B2FFF7B9FEF368A4FB032094
:10196C00400B42F2107202FB1030364CA4FB0030DC
:10197C0080093030C0B2FFF7A9FEF368A4FB032046
:10198C0080094FF47A7202FB10302F4DA5FB00300A
:10199C0040093030C0B2FFF799FEF368A5FB032075
:1019AC004009642707FB1030284CA4FB0030C0080A
:1019BC003030C0B2FFF78AFEF268A4FB0230C008D8
:1019CC0000EB80004300D01A3030C0B2FFF77EFE2F
:1019DC00C020FFF757FE1E48FFF7AAFEB068A5FB14
:1019EC00003040093030C0B2FFF770FEB368A5FB81
:1019FC0003256D0907FB1535A4FB0530C0083030F5
:101A0C00C0B2FFF763FEB368A4FB0320C00800EB71
:101A1C0080004400181B3030C0B2FFF757FE252061
:101A2C00FFF754FE0A20FEF7D3FB75E79000002069
:101A3C00BC1C000828000020C55A7C0AA0860100A6
:101A4C005917B7D1D34D62101F85EB51CDCCCCCCEF
:101A5C00C41C000882B00E4B9A6942F001029A61D4
:101A6C009A6902F001020092009ADA6942F08052FF
:101A7C00DA61DB6903F080530193019B054A5368DB
:101A8C0023F0E06343F00073536002B0704700BF73
:101A9C00001002400000014010B586B000230293F4
:101AAC000393049305930268114B9A4201D006B03C
:101ABC0010BD104CA36943F00803A361A36903F0A4
:101ACC0008030093009BC023029312230393032368
:101ADC00059302A90848FEF7F7FBE36943F40013EA
:101AEC00E361E36903F400130193019BDFE700BF9B
:101AFC000054004000100240000C014000B587B0BB
:101B0C00002302930393049305930368B3F1804F6E
:101B1C0002D007B05DF804FB03F50433DA6942F038
:101B2C000102DA61DA6902F001020092009A9A6904
:101B3C0042F004029A619B6903F004030193019B38
:101B4C0006A9062341F8103D0548FEF7BDFB00220F
:101B5C0011461C20FEF762FB1C20FEF793FBD8E716
:101B6C00000801407047FEE7FEE7FEE7FEE770471E
:101B7C007047704708B5FEF719FB08BD08B5024859
:101B8C00FFF762FB08BD00BF900000200F4B1A68E6
:101B9C0042F001021A6059680D4A0A405A601A68EC
:101BAC0022F0847222F480321A601A6822F48022A5
:101BBC001A605A6822F4FE025A604FF41F029A60AF
:101BCC00044B4FF000629A60704700BF0010024057
:101BDC000000FFF800ED00E0002103E00B4B5B5828
:101BEC00435004310A480B4B42189A42F6D30A4A26
:101BFC0002E0002342F8043B084B9A42F9D3FFF76A
:101C0C00C5FF00F00FF8FFF771FE7047D41C0008F9
:101C1C00000000200C0000200C000020D000002050
:101C2C00FEE7000070B500250C4E0D4CA41BA41053
:101C3C00A54209D100F01AF800250A4E0A4CA41B43
:101C4C00A410A54205D170BD56F825309847013532
:101C5C00EEE756F8253098470135F2E7CC1C000822
:101C6C00CC1C0008CC1C0008D01C0008F8B500BF28
:101C7C00F8BC08BC9E467047F8B500BFF8BC08BC61
:041C8C009E467047B9
:101C900002030405060708090A0B0C0D0E0F1010AD
:101CA0000102000000000000000000000102030427
:101CB00006070809000000000102030446524551CE
:0C1CC0003D200000445554593D20000018
:041CCC0031010008DA
:041CD0000D010008FA
:0C1CD400010000001000000000A24A0403
:0400000508001BE5EF
:00000001FF
