:020000040800F2
:1000000000000220450300084D03000825020008F7
:10001000290200082D02000831020008000000003B
:100020000000000000000000000000008102000845
:100030005903000800000000190300082903000804
:100040005F0300085F0300085F0300085F03000808
:100050005F0300085F0300085F0300085F030008F8
:100060005F0300085F0300085F0300085F030008E8
:100070005F0300085F0300085F0300085F030008D8
:100080005F0300085F0300085F0300080000000032
:100090000000000000000000000000005F030008F6
:1000A0005F0300085F0300085F0300085F030008A8
:1000B0005F0300085F0300085F0300085F03000898
:1000C0005F0300085F0300085F0300085F03000888
:1000D0005F0300085F0300085F03000800000000E2
:1000E0005F0300085F0300085F03000800000000D2
:1000F0000000000000000000000000005F03000896
:10010000000000005F0300085F0300085F030008B1
:1001100000000000000000000000000000000000DF
:100120005F0300085F0300085F0300085F03000827
:100130005F03000800000000000000000000000055
:100140000000000000000000000000005F03000845
:100150005F0300085F0300085F0300085F030008F7
:100160005F0300085F0300080000000000000000BB
:10017000000000000000000000000000000000007F
:10018000000000005F030008000000000000000005
:100190005F0300085F03000800F002F803F0E2FDCF
:1001A0000AA090E8000C82448344AAF10107DA45D2
:1001B00001D103F0D7FDAFF2090EBAE80F0013F03A
:1001C000010F18BFFB1A43F001031847FC8B000016
:1001D0001C8C0000103A24BF78C878C1FAD85207A6
:1001E00024BF30C830C144BF04680C6070470000B1
:1001F0000023002400250026103A28BF78C1FBD830
:10020000520728BF30C148BF0B6070471FB508F0C8
:1002100042F99DE8030000F00DFD00F0DBFE00F068
:10022000D5FC1FBD102304E0202302E0302300E0B2
:1002300040239C46F0B404AE7546E80801D3EFF3C2
:1002400009860E4F0FCE0FC70FBC0FC74046494659
:1002500052465B460FC71DCE3100A60A00D30431BB
:100260006E0900D248311FC7EFF309806946EFF3EA
:10027000148663C76046014904F048FF98010020D6
:100280001EF0040F0CBFEFF30880EFF309808169C3
:1002900011F8021C91BB01B590E80F10E047BDE8D2
:1002A00000508CE80300244B93E80600914208BFFD
:1002B000704741B91EF0100F10D12049086820F096
:1002C000010008600AE02CE9F00F1EF0100F08BFD3
:1002D0002CED108AC1F838C081F822E01A6092F83B
:1002E0002210906B61F0FF0E1EF0100F08BFB0ECF3
:1002F000108AB0E8F00F80F309887047104A13683D
:100300009942FAD801B552F821C00FC8E047BDE8BC
:100310000050CCF80000704701B505F0D1FFBDE8F2
:100320000140EFF3098CBEE701B506F051FABDE8D4
:100330000140EFF3098CB6E70803002034EF00E03A
:10034000008800080648804706480047FEE7FEE7A9
:10035000FEE7FEE7FEE7FEE7FEE7FEE7FEE7FEE775
:10036000A922000899010008704703F023BD084442
:10037000401E491E884370470821001DF7E72DE9FC
:10038000F04117460E460446FFF7F6FFA042054629
:1003900033D9002F1CBF06F10C0003F06DFD304671
:1003A0007468F4B12168A94217D305F1080291429B
:1003B0003CBF6168416007D3626861194A60226886
:1003C000521B0A6041602560002F1CBF06F10C0023
:1003D00003F0D2FD201DBDE8F08120466468002CAA
:1003E000E0D12946304600F011FC0028D7D1002F7B
:1003F0001CBF06F10C0003F0BFFD0020BDE8F0813A
:1004000010B5044600F0F9FB01682046BDE8104035
:100410000122B4E770B516460D46041F002808BF38
:1004200070BD002E1CBF05F10C0003F025FD2B460E
:100430005868002818BFA04238BF0346F8D319688F
:10044000CA18A24218BF5C6003D122681C4611443E
:10045000196021680A19824218BF606004D142689D
:100460006260006808442060002E1CBF05F10C008B
:1004700003F082FD70BD10B5044600F0BEFB0168BC
:100480002046BDE810400122C4E753EA020C00F008
:1004900069802DE9F04B4FF00006002B1FBFB3FA27
:1004A00083F503FA05F424FA05F65E4012BF1643FD
:1004B000B2FA82F502FA05F4C5F120051EBF22FA50
:1004C00005FC44EA0C04203556EA044C4FEA144477
:1004D00018BF641C4FF000084FF00009904271EB08
:1004E000030C39D3002919BFB1FA81F701FA07F6D5
:1004F000B0FA80F700FA07F6C7F120071EBF20FA0E
:1005000007FC46EA0C062037B6FBF4FCA7EB050710
:10051000103F07F01F0BCBF120062CFA06F60CFA61
:100520000BFB44BFB3460026202FA4BF5E464FF00E
:10053000000B5BEA060C08BF4FF0010B19EB0B092F
:1005400048EB0608ABFB027C06FB02CC0BFB03CCA2
:10055000C01B71EB0C01C1E70B4602464146484601
:10056000BDE8F08B13B5084318BF4FF0FF300146CC
:10057000AFF30080BDE81C40704700002DE9F0415A
:10058000044616460D464769007B80072ED0384644
:1005900003F01CFD50BB3EB3012E02D0022E25D12C
:1005A00004E0204600F066F805441DE0384603F0FC
:1005B000F9FCE168002841F01001E16005DA20460D
:1005C00000F05CFC0120BDE8F081C9030BD5626836
:1005D000E16A914200D81146A26911442269891A40
:1005E000814200DD08460544002D01DA0220EAE7D9
:1005F000E16A6068E268814206D29103E06203D555
:1006000022F4003141F01002A6690027AE4213DC4B
:10061000E16A814201D90B4600E0034603EB060C78
:100620002369ACEB030CAC4506DD814201D98C4655
:1006300000E084469C4505D1A760276042F0200079
:10064000A5620DE0AD1BE669AE1B8142A66000D934
:100650000846C01A281A20605819606022F020004D
:1006600003490840E060002084F84870ABE70000D0
:10067000BFCFD7FF10B50146C268900703D09006E0
:1006800007D5886A0AE0FFF770FE01210160881E25
:1006900010BD8B69486818440B69C01A91F848303E
:1006A0001BB191F84910401A10BD1103FCD5002868
:1006B000FADD401E10BD2DE9F04704464FF0000959
:1006C0004FF0FF37C568D4E90486A80707D0204655
:1006D00000F008FC304603F05FFC002802DA3846E0
:1006E000BDE8F087280502D54046FFF7C4FE4C213F
:1006F000204600F001FA206D20F0010020654846F8
:10070000EEE770B50C46064601F14C05284603F0AD
:10071000B3FB2146304607F0B1FE0446284603F0FD
:100720002BFC204670BD00002DE9F041044600F18D
:100730004C07384603F0A0FBE068810712D0800622
:1007400001D5A66A04E0A169606808442169461AD7
:10075000204600F0C7FB0022054631462046FFF741
:100760000DFF00E00025384603F006FC2846BDE8F2
:10077000F0812DE9F04118B1BDE8F041FFF7D4BF99
:100780000B4E0025304603F077FB0A4C6F1E07E046
:100790002046FFF7C9FF00B13D46206D20F001045F
:1007A000002CF5D1304603F0E7FB2846DFE70000D8
:1007B000A40200209C0300202DE9F047164688463D
:1007C000070010D006F14C00814603F055FB30467F
:1007D000FFF771FF18F8010B61280DD0722805D0C2
:1007E000772841D105E00020BDE8F08701250024ED
:1007F00005E00225042402E0082448F2020518F866
:10080000010B2B2806D0622809D018F8010C742897
:100810000AD00BE045F0030544F00204EFE745F091
:10082000040544F00104EAE744F010043846214688
:1008300003F0D0FB411C17D00021316171604FF4EF
:100840000071F560F1617061200704D53046022225
:100850000021FFF793FE306D40F0010030654846FF
:1008600003F08AFB3046BFE70026F8E72DE9F041A8
:1008700015460E460746214C204603F0FDFA2A464F
:1008800031463846FFF798FF0546204603F074FBD3
:100890002846BDE8F0812DE9F0410E468046174D0F
:1008A000284603F0E9FA164C206DC10704D0410830
:1008B00004D020F00104F7E7224612E05420FFF7AD
:1008C0009FFD070017D0206D47F001010843542118
:1008D0002065384600F010F907F14C0003F0FAFAF1
:1008E0003A4631464046FFF767FF0446284603F084
:1008F00043FB2046CDE70024F8E70000A4020020D7
:100900009C03002030B503461D783DB10A4612F81D
:10091000014B1CB1AC42FAD15B1CF5E7181A30BD93
:1009200040EA010310B59B070FD1042A0DD310C86C
:1009300008C9121F9C42F8D020BA19BA884201D9BE
:10094000012010BD4FF0FF3010BD1AB1D30703D006
:10095000521C07E0002010BD10F8013B11F8014BBC
:100960001B1B07D110F8013B11F8014B1B1B01D1D8
:10097000921EF1D1184610BD10B5431C02E010F8CC
:10098000011B71B18107FAD14FF0013202C88C1AF4
:100990008C4314EAC211F9D0C01A0A0603D0C01E53
:1009A00010BDC01A10BD0A0401D0801E10BD09027E
:1009B000FCD0401E10BD032A40F2308010F0030C22
:1009C00000F0158011F8013BBCF1020F624498BFA2
:1009D00011F801CB00F8013B38BF11F8013BA2F13F
:1009E000040298BF00F801CB38BF00F8013B11F0BA
:1009F000030300F02580083AC0F0088051F8043B5A
:100A0000083A51F804CBA0E80810F5E7121D5CBFC6
:100A100051F8043B40F8043BAFF30080D20724BFF9
:100A200011F8013B11F801CB48BF11F8012B24BF8D
:100A300000F8013B00F801CB48BF00F8012B7047DC
:100A400010B5203AC0F00B80B1E81850A0E818505B
:100A5000B1E81850A0E81850203ABFF4F5AF5FEAAB
:100A6000027C24BFB1E81850A0E8185044BF18C950
:100A700018C0BDE810405FEA827C24BF51F8043BF7
:100A800040F8043B08BF7047D20728BF31F8023B4B
:100A900048BF11F8012B28BF20F8023B48BF00F8DF
:100AA000012B704702F0FF0343EA032242EA0242AD
:100AB00000F024B84FF000020429C0F0128010F0BA
:100AC000030C00F01B80CCF1040CBCF1020F18BF2A
:100AD00000F8012BA8BF20F8022BA1EB0C0100F0BD
:100AE0000DB85FEAC17C24BF00F8012B00F8012B90
:100AF00048BF00F8012B70474FF0000200B51346C5
:100B000094469646203922BFA0E80C50A0E80C502D
:100B1000B1F12001BFF4F7AF090728BFA0E80C50DE
:100B200048BF0CC05DF804EB890028BF40F8042BD7
:100B300008BF704748BF20F8022B11F0804F18BF44
:100B400000F8012B7047000030B44FF0013C50F822
:100B5000042B51F8043BCCFA52F4D51A20D1FCB93D
:100B600050F8042B51F8043BCCFA52F4D51A17D1A3
:100B7000B4B950F8042B51F8043BCCFA52F4D51A0E
:100B80000ED16CB950F8042B51F8043BCCFA52F456
:100B9000D51A05D1002CDAD030BC4FF000007047D8
:100BA00029BAB1FA81F111F01801D1F12000844085
:100BB000F2D1CA40CB4012F0FF0213F0FF0330BC69
:100BC000D01A7047704770477047000070B5064CE8
:100BD0007C44064D7D4404E020460168084480477B
:100BE000241DAC42F8D170BD1482000018820000B0
:100BF0000048704798040020704710B5FFF7F8FFD1
:100C0000083010BD704770477047704738B50446CC
:100C10000A4600206946AFF30080002808BF38BDAF
:100C200002460099204600F0CBFA012038BD012091
:100C300000F0F6BAF8B5AFF30080054600200C4688
:100C4000102000BF0646A819A0420DD932466946B9
:100C50000020AFF30080070008BF00F0E1FA009821
:100C6000A04218BF0546C419FFF7C7FF0560074635
:100C7000F01D20F007004619284600F00AF8B4429B
:100C800008BFF8BDA21B31463868BDE8F84000F047
:100C900097BA00210160C0E901100C3003F01AB9C5
:100CA000102070472DE9F04705460C46C86820F42F
:100CB000201040F48000C860800602D5084600F08D
:100CC00034F9E06841F282014FF0FF390140022916
:100CD00003D0204600F0D2F8B5E000F42041B1F591
:100CE000004F0FD1C00306D56168E06A884200D882
:100CF0000846606006E02069E0626060606903F0B9
:100D000051F9A061A0680022EEB200280DDAE16876
:100D10008B050AD4C043A06041F490302260E060AB
:100D20006068411C61600670A5E0E0689046226042
:100D300040F40050E060206968BB606903F046F948
:100D4000012704F12405A0B1A08910F4407F08D048
:100D5000E069FFF755FB206118B1E06840F40060DE
:100D600016E0E7612561E06820F4407040F480609F
:100D70000EE0E069FFF744FB00282061F1D0E06855
:100D800040F4006010F4407FE06002D140F48070D5
:100D9000E06020696060E06825696FF0010AC105C4
:100DA0001FD56168E06A884200D80846411B04D01C
:100DB0002246284600F06CF8F0BBE068010203D53B
:100DC000E562C4E9015854E0691CE1626160E169CF
:100DD00040F48030491EC4E9021030462E70BDE850
:100DE000F087010202D500F480320AE06068411CFD
:100DF00061600670E0680A2E40F48030E06006D042
:100E00000022E16A6068814203D90B4602E00122B8
:100E1000F7E70346A7895B1B7F0503D4E7699F4279
:100E200000DDE2B1814200D80146E5620F1AC4E953
:100E30000158002B09DD00E005E02246194628464E
:100E400000F026F808B14846C9E747B1A069E56255
:100E50006560C01BA061E06840F01000E060E068E1
:100E6000000208D56168A069E562491B0844656015
:100E7000A0615046B3E73046B1E70000C16821F4F5
:100E8000001141F08001C160002181600160704764
:100E90002DE9F047814614460E464FF0FF383248A0
:100EA000D5685769054209D03846A16903F0C8F8EA
:100EB000002811DB2C48C0430540E5602B46324634
:100EC0004946384603F0C2F8A16920F00042B21A40
:100ED00011440028A16103D02046FFF7CFFF404610
:100EE000BDE8F08770B504460569C06A616888424C
:100EF00000D80846E16821F42011E160C90312D549
:100F0000A84208D02246411B2846FFF7C1FF10B176
:100F10004FF0FF3070BD0020E562C4E90150E06889
:100F200020F48030E060002070BD10B50446C06839
:100F300020F02000E060A16AA06988420DD0204620
:100F4000FFF7D0FFE06820F4405040F01000E06070
:100F5000A06AA0612069E062606044F24001E0683C
:100F60008843E06010BD0000100002002DE9F0474A
:100F700004461E4690460D46C7684C30814602F036
:100F80007BFFB80714D0780212D44046B8F5807FB2
:100F900009D0B0F5007F06D0B8F5806F08D10126E2
:100FA00004F1240506E0701E6FF07F41884201D3F2
:100FB000012409E02561E6616560E06820F4706065
:100FC00040EA0800E0600024484602F0D5FF2046D1
:100FD000BDE8F08710B565485421FFF78DFD6448E2
:100FE0005421FFF789FD63485421FFF785FD6248CE
:100FF0005E49624A624B01605D4810605D4A1A605A
:10100000431C0B65511C01650120106557484C308D
:1010100002F060FF56484C3002F05CFF55484C30FF
:1010200002F058FF574802F055FF58484F4A56A162
:101030007844FFF71BFC20B9544878440A3800F084
:10104000E8F854484A4A52A17844FFF70FFC20B907
:10105000504878440A3800F0DCF84F48454A4CA123
:101060007844FFF703FC20B94B4878440A3800F075
:10107000D0F840233D48DC0000212246FFF776FFF0
:1010800020B142487844543800F0C3F8384822462A
:1010900040230021FFF76AFF20B13E4878445438CE
:1010A00000F0B7F83348224610230021FFF75EFF17
:1010B000002806D038487844BDE81040563800F083
:1010C000A8B810BD2B482DE9F041006D2D4E20F041
:1010D0000104304602F0D0FE244D4C35284602F083
:1010E000CBFE2248FFF7E7FA284602F045FF2846E4
:1010F00002F0D0FE1E4D4C35284602F0BDFE1C48C5
:10110000FFF7D9FA284602F037FF284602F0C2FE60
:10111000184D4C35284602F0AFFE1648FFF7CBFAC3
:10112000284602F029FF284602F0B4FE14E0206DA4
:1011300020F0010504F14C00074602F09DFE204618
:10114000FFF7B9FA384602F017FF384602F0A2FE60
:101150002046FFF790F92C46002CE8D1304602F0EB
:101160000BFF084802F096FEBDE8F0819C030020CA
:10117000F003002044040020980200209C0200207C
:10118000A0020020A4020020720000005C77000092
:10119000770000004B7700002477000010B5002096
:1011A00000F030F8AFF30080BDE81040012002F0FD
:1011B000F7BE801A0844401E491E884310447047F9
:1011C00070B5144605468C464368002B18BF63452E
:1011D00038BF1846F8D302681044604508D0664608
:1011E000604604220821FFF7E4FF811B8446641A4D
:1011F0002946CCF80040BDE8704000220CF1040004
:10120000FFF708B910B500F01FF8BDE8104000F076
:1012100016B810B500F030F8BDE8104000F00FB877
:1012200010B500F043F8BDE8104000F008B810B564
:10123000FFF7E3FC0068BDE8104000F05FB800284D
:1012400001D002F0ADBE704710B5002102A000F041
:101250005AF8012010BD0000534947414252543A08
:101260002041626E6F726D616C207465726D696E83
:101270006174696F6E00000010B5014602A000F0B5
:1012800042F8012010BD00005349475254524544D2
:101290003A2052656469726563743A2063616E270F
:1012A00074206F70656E3A200000000010B50128B0
:1012B00005D0002103A000F026F8012010BD09A1EF
:1012C000F8E7000053494752544D454D3A204F75B9
:1012D00074206F662068656170206D656D6F72792E
:1012E000000000003A2048656170206D656D6F72E6
:1012F0007920636F727275707465640010B50C307C
:1013000002F0C8FD10BD70B505460C460A2000E08D
:101310006D1C02F073FF35B128780028F8D102E087
:10132000641C02F06BFF14B120780028F8D1BDE8EE
:1013300070400A2002F062BF80B582B013460A46B0
:10134000844600206FF00041CDF800C003F092FF0A
:1013500002B080BD80B54FF6681242F6104142F6E9
:101360001040C2F20102C2F20001C2F2000091423A
:1013700018BF08464FF60041C2F2010118BF1146DE
:10138000FEF744FF80BD000000207047002070473A
:101390000020704780B582B04FF0000CCDF800C03F
:1013A00003F068FF02B080BD4EF69851CEF2000106
:1013B00008600020886070474EF69C52CEF2000212
:1013C00010605160704700007047000080B540F227
:1013D0003112C8F20102014606F0E4FE80BD0000B1
:1013E00080B540F23812C8F2010206F0DBFE80BD83
:1013F00080B540F23312C8F2010206F0D3FE80BD80
:1014000080B540F23212C8F2010206F0CBFE80BD78
:1014100080B505F07DFA06F051FE80BD10B540F6AE
:10142000244042F2041EC4F20000C2F2000E42F256
:10143000021C0268DEF80030C2F2000CBCF80000AA
:10144000D11A01440024B4EB114FCEF8002017D17B
:10145000B1F57A7F20D31044C01A44F6D351A0F5D9
:101460007A70C1F26201A0FB01124FF61843910994
:10147000CFF6FF7301FB0301012000EB92120CE099
:1014800044F6D350C1F26200A1FB000292094FF46E
:101490007A7002FB101100E0002242F28C13C2F2BB
:1014A00000031868ACF800101044186010BD00006C
:1014B00080B543F60040C4F20200016841F40071B7
:1014C0000160016841F480610160016841F480714C
:1014D0000160032000F010F80F2000F005F800F084
:1014E00009F8002080BD000080B503F07BFA0020E1
:1014F00080BD00007047000080B502F06BFB80BD2E
:101500004EF61050CEF200000268012922F00402CB
:10151000026004D130BF00BF00BF00BF704740BFB2
:1015200020BF20BF704700002DE9F041002800F0E7
:101530008B8043F60808C4F202080446D8F8F80382
:101540000D4600F00F00884207D288F8F853D8F80B
:10155000F80300F00F00A84276D12068810717D564
:10156000410705D5D8F8001041F4E051C8F8001043
:10157000010705D5D8F8001041F46041C8F8001003
:10158000D8F80010A26821F0F0011143C8F800104B
:10159000C0073FD1D8F8F80300F00F00A84207D9E0
:1015A00088F8F853D8F8F80300F00F00A8424BD1A0
:1015B0002068410707D5D8F80010E26821F4E0510F
:1015C0001143C8F80010000708D5D8F800002169B9
:1015D00020F4604040EAC100C8F8000000F0EAF8DA
:1015E000D8F8001048F26052C1F30311C0F60002AF
:1015F000515C40F2A82220FA01F140F29830C2F288
:1016000000000068C2F200021160FFF76DFF0020C9
:10161000BDE8F0816068811E022907D258F8081CD5
:1016200089015CBF0120BDE8F08110E0012807D1ED
:1016300058F8081C89035CBF0120BDE8F08106E072
:1016400058F8081C890702D40120BDE8F081D8F8B9
:10165000001021F003010843C8F80000FFF7DEFE88
:10166000064641F2883700BFD8F80000616800F0F4
:101670000C00B0EB810F8DD0FFF7D0FE801BB8427D
:10168000F2D90320BDE8F0810F22026043F6080280
:10169000C4F20202136803F003034360136803F00B
:1016A000F0038360136803F4E053C360D2F800C012
:1016B0004FF4E05303EADC030361D2F8F80300F0CF
:1016C0000F0008607047000040F2A820C2F200003E
:1016D0000068704743F600010F22C4F20201026065
:1016E0000A68520306D40A68D20354BF00224FF49A
:1016F000803201E04FF4A02242600A6802F0010249
:10170000C2600A68C2F3C40202610A6F520706D4BB
:101710000A6FD2070CBF00220122826001E005227D
:1017200082604A6F4FF4C02302F0010242610A68EE
:10173000D2014FF0020258BF012282614A6802F4CE
:101740008002C2614A6802F03F0202624A68C2F344
:10175000881242624A6803EA420202F50032120C21
:1017600082624968C1F30361C162704780B5FFF7C7
:10177000ABFF43F60801C4F20201096848F2705257
:10178000C1F38221C0F60002515CC84080BD000058
:1017900080B5FFF799FF43F60801C4F2020109681A
:1017A00048F27052C1F34231C0F60002515CC840A9
:1017B00080BD000010B543F60404C4F20204606862
:1017C00000F00C0142F200400829C0F2F40007D0FA
:1017D000042918BF10BD41F20020C0F27A0010BDEC
:1017E000216801F03F02216823684902C3F3881190
:1017F00005D4A1FB00010023FEF747FE06E041F2FD
:101800000020C0F27A004843B0FBF2F021680222C7
:10181000C1F3014102EB4101B0FBF1F010BD00004A
:101820002DE9F04182B0002800F09780044600784E
:1018300043F60006C007C4F2020641D0B06800F0CB
:101840000C00042805D13068800339D56068B8BB26
:1018500083E0B06800F00C00082802D170684002F4
:10186000F1D46568B5F5803F06D03068B5F5A02F96
:1018700006D140F480203060306840F4803005E0CC
:1018800020F480303060306820F480203060FFF732
:10189000C5FD002D054610D03068800310D4FFF739
:1018A000BDFD401B6428F7D91AE100BFFFF7B6FD64
:1018B000401B64284FF003004CD830688003F5D4F7
:1018C000207880071AD5B06810F00C0F09D0B068E6
:1018D00000F00C00082840F084807068400200F19D
:1018E00080803068800702D5E068012835D13068F3
:1018F000216920F0F80040EAC1003060207800073C
:101900002FD42078400742D4A56915B3B06800F001
:101910000C00082840F09880012D1ED07068E16905
:1019200000F480028A4218D1216A00F03F028A4204
:1019300013D147F6C071626A014091420DD1A16A8C
:1019400000F440328A4208D1E16A00F070608842B7
:1019500003D1002002B0BDE8F081012002B0BDE853
:10196000F0816069002840F20000C4F247205AD09C
:101970000121C0F8801EFFF751FD0546706F8007FA
:10198000BFD4FFF74BFD401B0228F7D9A8E0306C0D
:101990004FF00008C0000CD4CDF80480306C4FF03C
:1019A000010840F080503064306C00F080500190AD
:1019B000019847F20007C4F200073868C00525D433
:1019C000386840F480703860FFF728FD054600BF96
:1019D0003868C0051AD4FFF721FD401B0228F7D94B
:1019E0007EE0E068002851D00020C4F247200121A9
:1019F0000160FFF713FD0546306880073FF577AFBC
:101A0000FFF70CFD401B0228F6D969E0A568012DFF
:101A100005D0306F052D4DD140F004003067306F98
:101A200040F001004CE00021C0F8801EFFF7F6FCFA
:101A3000054600BF706F80077FF563AFFFF7EEFCD0
:101A4000401B0228F6D94BE00027C4F247270020AC
:101A50003866FFF7E3FC022D05460BD130688001A4
:101A600056D5FFF7DBFC401B02284FF00300F5D9E9
:101A700070E700BF306880017FF56BAFFFF7CEFCE9
:101A8000401B02284FF00300F4D963E70020C4F2A2
:101A9000472000210160FFF7C1FC05463068800740
:101AA0007FF52CAFFFF7BAFC401B02284FF0030074
:101AB000F4D94FE720F001003067306F20F00400C8
:101AC0003067FFF7ABFC002D054641F2883713D095
:101AD000306F800713D4FFF7A1FC401BB842F7D941
:101AE000032002B0BDE8F081FFF798FC401BB8422C
:101AF0004FF003003FF62EAF306F8007F4D4B8F1FB
:101B0000000F3FF401AF306C20F080503064FBE6F2
:101B100004F11C052FCD084340EA8210D9034FF68B
:101B2000FF729143A1F5803140EA0560084370607F
:101B300001203866FFF772FC044600BF3068800160
:101B40003FF507AFFFF76AFC001B02284FF00300C8
:101B5000F4D9FFE6002804BF0120704710B5044601
:101B600090F83D0028B9002084F83C00204600F0A1
:101B70000DF8022084F83D002068211D00F0A4FB30
:101B8000012084F83D00002010BD000070470000D7
:101B9000B0B50446006844250122C4F2010500F0F6
:101BA00001FC2068A5F14401884203D1296841F471
:101BB00000412960816801F00701062903D001680E
:101BC00041F0010101600020B0BD0000002804BF09
:101BD0000120704710B5044690F8390028B900205C
:101BE00084F83800204600F021F8242084F83900D9
:101BF0002068C16821F40051C160204600F046FC15
:101C00002068016921F490410161416921F02A01B4
:101C10004161C16841F40051C16000202021E063AE
:101C200084F8391084F83A1010BD000070470000A5
:101C3000EFF3108000281CBF01207047EFF31180E4
:101C4000002818BF01207047EFF3108000281CBF48
:101C500001207047EFF31180002818BF0120704762
:101C6000EFF3108000281CBF01207047EFF31180B4
:101C7000002818BF01207047EFF3108000281CBF18
:101C800001207047EFF31180002818BF0120704732
:101C9000EFF3108000281CBF01207047EFF3118084
:101CA000002818BF01207047EFF30580002818BFF7
:101CB00001207047EFF30580002818BF012070470E
:101CC000EFF30580002818BF01207047EFF305806F
:101CD000002818BF01207047EFF30580002818BFC7
:101CE00001207047EFF31480012121EA00007047C2
:101CF00091FAA1F1B1FA81F10068490003228A400A
:101D00001040C8407047000091FAA1F1B1FA81F18A
:101D1000D0F820C089000F238B402CEA030302FA7D
:101D200001F1194301627047090A91FAA1F1B1FA70
:101D300081F1D0F824C089000F238B402CEA0303E3
:101D400002FA01F1194341627047000091FAA1F1D2
:101D5000B1FA81F1D0F800C0490003238B402CEA8E
:101D6000030302FA01F119430160704791FAA1F1EE
:101D7000B1FA81F1D0F800C0490003238B402CEA6E
:101D8000030302FA01F119430160704743688B4372
:101D9000514319434160704791FAA1F1B1FA81F1C1
:101DA000D0F80CC0490003238B402CEA030302FA4D
:101DB00001F11943C160704791FAA1F1B1FA81F1C3
:101DC000D0F808C0490003238B402CEA030302FA31
:101DD00001F119438160704747F20000C4F200002E
:101DE000006800F001007047416941F00201416163
:101DF00070470000084470477047000010B5044663
:101E0000283002F04FFA58B1E46A4CB1A01C02F03D
:101E1000A7FA18B1A468002CF8D10024204610BD00
:101E20000024204610BD000010B584465CF8303F09
:101E30005BB191F803E0DA7872450BD21A465B6821
:101E40006BB1DC787445F9D305E00022C1E90122C9
:101E5000C1620DE00022C1E90132083303E0C1E9AB
:101E6000013200F12C031960002A18BF02F1040CA2
:101E70002830CCF8001002F04DFA10BDD1E9012C49
:101E800002F10803002A08BF00F12C03C3F800C0C8
:101E9000D1E90112131D002A08BF00F130031960B7
:101EA000704700004EF21000CEF20000006870474C
:101EB00040F2F840C2F200000178012908D1002167
:101EC00001704EF60450CEF200004FF080610160C8
:101ED0004EF21000CEF20000016841F001010160F5
:101EE000704700004FF0FF307047000058B140F2DB
:101EF000A821C2F200010968B1FBF0F0411E0020E8
:101F0000B0EB116F02D04FF0FF3070474EF6235206
:101F1000CEF20002FF2313704EF21002CEF2000246
:101F200006231360516040F2F841C2F20001906054
:101F300008707047B0B54EF62254CEF20004FF2070
:101F40002070207880F0FF00B0FA80F0C0F120050A
:101F500001F038FEA84228BF451CFE20A84004F826
:101F6000030CB0BD4EF60450CEF200004FF080518D
:101F70000160704780B5012000F014F8002818BFF8
:101F800080BD00F063F800B180BD01A002F018FB35
:101F9000536574537973436C6F636B206661696C2E
:101FA00065640A0070B592B0002543F640010695BD
:101FB000C4F202010A68022642F080520A600968EF
:101FC000044601F080510691069947F200010695FA
:101FD000C4F200010A6806A866F38F320A60096835
:101FE00001F4404106910699FFF774FB0C98022812
:101FF0001AD0012006904FF4A020002C08BF4FF407
:10200000803007904FF480000D900420C8210C967A
:102010000E90CDE90F100820119006A8FFF700FCE4
:1020200010B1002012B070BD0F20CDE901064FF4B1
:1020300080500395CDE9040501A80321FFF774FA48
:10204000B0FA80F0400912B070BD0000B0B592B097
:10205000002443F640000694C4F202000168022501
:1020600041F080510160006800F0805006900698B1
:1020700047F200000694C4F20000016865F38F3156
:1020800001600068C82100F44040069006980320D3
:10209000069001200990102007940A90CDE90C5475
:1020A00008200F9104210E90CDE9101006A8FFF72B
:1020B000B7FB70B90F20CDE901054FF480500394B0
:1020C000CDE9040401A80321FFF72EFAB0FA80F04D
:1020D0004409204612B0B0BD80B582B0072800F296
:1020E0008880DFE800F0042E44187086865A0020AD
:1020F000019043F63000C4F20200016841F0010192
:102100000160006800F00100019001980020C4F215
:10211000020002B080BD0020019043F63000C4F2FE
:102120000200016841F008010160006800F0080049
:10213000019001980020C4F2020000F5406002B056
:1021400080BD0020019043F63000C4F20200016817
:1021500041F002010160006800F002000190019866
:102160000020C4F2020000F5806002B080BD0020B3
:10217000019043F63000C4F20200016841F004010E
:102180000160006800F00400019001980020C4F292
:10219000020000F5006002B080BD0020019043F60F
:1021A0003000C4F20200016841F080010160006863
:1021B00000F08000019001980020C4F2020000F5B8
:1021C000E05002B080BD0020019043F63000C4F220
:1021D0000200016841F010010160006800F0100089
:1021E000019001980020C4F2020000F5805002B076
:1021F00080BD01A002F0E4F950696E6D6170206548
:1022000072726F723A2077726F6E6720706F72749D
:10221000206E756D6265722E00000000C0064FF0E2
:10222000200058BF6020704743F60400C4F202004B
:10223000416801F00C0242F20041082AC0F2F401A8
:1022400006D0042A1DD141F20021C0F27A0118E023
:1022500002680368520241F20022C0F27A0258BFBB
:102260000A46016803F03F03B2FBF3F2C1F38811A1
:1022700003685143C3F30142022303EB4202B1FB63
:10228000F2F140F2A822C2F200021160406848F266
:102290006051C0F30310C0F60001085C116821FA18
:1022A00000F01060704700004EF68850CEF200003B
:1022B000016841F47001016040F20001C0F60001C4
:1022C00040F8801C7047000010B540F2FF7E0368A4
:1022D000C4F2000E40F2000C7045C4F2010C0ADD9D
:1022E00040F60002C4F2000290420DD060450BD0CF
:1022F00040F6004204E0B0F1804F05D040F20042C9
:10230000C4F20002904203D14A6823F070031343E1
:102310004FF6FF72C4F20002904209DC704512DCF5
:10232000B0F1804F26D040F20042C4F200021FE01C
:1023300044F2FF32C4F2010290420FDC604519D032
:1023400044F2000212E040F60002C4F200029042A1
:1023500010D040F60042C4F2000209E044F6000248
:10236000C4F20102904205D044F20042C4F20102DC
:10237000904203D1CA6823F44073134323F08002D0
:102380004B69D1F800E08C681A4360450260C46272
:10239000C0F828E002D10969CCF830100121416170
:1023A00010BD000080B501F01F014FF0010CD0F806
:1023B00020E00CFA01F32EEA03030362036A02FA37
:1023C00001F11943016280BD7047000080B5930799
:1023D00006D4D20700F1280015D101F037FF80BDE7
:1023E000836A02F0010203EA010040EA020C88421B
:1023F000184618BF0020002A08BF1846BCF1000F7D
:1024000008BF604680BD01F00DFF80BD10B540F2F1
:10241000F42CC2F2000CDCF84420002A134618BF4A
:10242000012319D014698C4202D94FF0000E0AE042
:102430009646D268091B002A134618BF01230DD007
:102440001469A142F4D2C0E902E201614BB11369FF
:102450009060591A116104E04FF0000EC0E902E2E9
:1024600001610EF10C01BEF1000F08BF0CF1440137
:10247000086010BDC16800291CBF82688A60C068FE
:1024800040F2F421C2F2000148647047B0B505463D
:10249000006805F108030ECB0469194324F4405485
:1024A000224302616A69EB691143C26849F20C6414
:1024B0001943A2431143C1604169AA6921F44071E3
:1024C0001143416141F20041B3F5004F40F4806097
:1024D000C4F2010124D1884246D1FFF759F96B6853
:1024E0001921A0FB01015A00DB0FFDF7CEFF48F2D6
:1024F0001F51C5F2EB11A0FB01235A096FF06303D2
:1025000002FB0300322303EBC000A0FB01014FF4E8
:10251000F87000EA111000EB0210C1F3421167E0FD
:10252000884244D1FFF734F96B681921A0FB0101FF
:102530009A009B0FFDF7A9FF48F21F51C5F2EB115E
:10254000A0FB01235A096FF0630302FB030032234F
:1025500003EB0010A0FB0101F02000EA511000EB9A
:102560000210C1F3431143E0FFF700F96B68192132
:10257000A0FB01015A00DB0FFDF787FF48F21F5156
:10258000C5F2EB11A0FB01235A096FF0630302FBB4
:102590000300322303EBC000A0FB01014FF4F870ED
:1025A00000EA111000EB0210C1F3421120E0FFF726
:1025B000DDF86B681921A0FB01019A009B0FFDF764
:1025C00064FF48F21F51C5F2EB11A0FB01235A0929
:1025D0006FF0630302FB0300322303EB0010A0FB48
:1025E0000101F02000EA511000EB0210C1F3431189
:1025F0002A6808439060B0BD80B501F085FB80BDBE
:1026000080B501F08BFB01F095FB01F09FFB80BDD5
:10261000006870470160704708230268002908BFFE
:102620000C23C05808BF12040260704710B504465E
:1026300000F084FE00B110BD204600F081FE0028AD
:1026400018BF10BD00F02AF840F2D850C2F20000C6
:1026500010BD000080B502F0EFFA002818BF01207D
:1026600080BD000080B542F21410C2F20000006884
:10267000002808BF80BD4FF0FF3103F057FB80BD3D
:1026800080B542F21410C2F200000068002808BFB2
:1026900080BD4FF0FF3103F049FB80BD80B540F2B3
:1026A0003C50C2F200000078BFF35F8FC00700D03B
:1026B00080BD40F23C50C2F2000001F0C3FA002895
:1026C00008BF80BD40F2D85048F27071C2F20000DD
:1026D000C0F600014FF4165200F0C2F840F23C5030
:1026E000C2F2000001F0E2FA80BD000080B542F2C3
:1026F0001410C2F200000068002818BF03F060FB4D
:1027000080BD000080B542F21410C2F200000068E3
:10271000002818BF03F054FB80BD000080B501F015
:10272000C9FE04F0B5FE00F055F804F0E5FE01F036
:1027300003FF80BDB0B50C464542FDF716FE0560AF
:1027400040F2AC20C2F20000002140F82410B0BDDD
:10275000810707D441074FBF01210107092202EA7F
:10276000E17100E0022110F00C0F00F0040018BF2E
:1027700001F5007141EA00207047000010B540F2F9
:102780006050C2F2000001F001F901F025F840F2BA
:10279000AC200324C2F2000050F8241019B1013417
:1027A000102CF9D11024102C06D3FDF7DEFD1821D2
:1027B00001604FF0FF3403E04FF0FF3140F8241088
:1027C00040F26050C2F2000001F0E0F801F026F89B
:1027D000204610BD80B504F087FE80BDD0E9000121
:1027E0000968084018BF01207047000080B540F21A
:1027F000A451C2F200010968002918BF884780BDB2
:10280000002A04BF0020704710B542F23810C2F20F
:1028100000000C4604F062FC2070012010BD000096
:102820006FF01C00704700006FF01500704700004B
:1028300000207047F0B581B0144662B142F23815FD
:102840004E1EC2F20005274616F8011F284604F066
:10285000E7FD013FF8D1204601B0F0BD01207047EF
:10286000F0B581B015460E46044600F07FF842F2FE
:102870008411C2F2000148F220600968C0F600002D
:102880000830206059B942F23817C2F200073846C2
:10289000314604F0ABFC3846294604F0B3FB204631
:1028A00001B0F0BD80B500F06BF801F05BF980BDC0
:1028B00080B5FFF7B1FE80BD10B504460020C4E925
:1028C0000000C4E90200C4E90400A061204601F050
:1028D00045FF204610BD000010B50446FFF7E8FF95
:1028E000204610BD6FF01500704700006FF0180013
:1028F000002918BF002070476FF0150070470000D6
:1029000070B50446006800210369204601229847FB
:10291000054600280DD420680021036920460222C4
:102920009847216806460B692046294600229847A9
:102930003546284670BD00000020704780B501680C
:1029400001220B690021984780BD000070470000FC
:102950000020704780B5016800220B69002198476C
:1029600080BD00006FF015007047000048F27061F4
:10297000C0F600010831016070470000FEDE000073
:102980007047000080B54C3004F0A8FB80BD00000B
:1029900010B54C300C4604F043FD204610BD00003D
:1029A00010B500EB011000F19804204601F08AF800
:1029B000002808BF10BD204601F080F810BD0000BF
:1029C00070B5044600680D4602682046904794F8AA
:1029D000BC00A8423CD005B394F8BD0040B9D4E98E
:1029E0000110C20704EB600001D00268515888470B
:1029F00001F060FD9DB104F19806304601F062F8E7
:102A0000D8B1304601F042F804F042FD04F14C0028
:102A10000021012204F0AEFC0FE001F04BFD04F1B7
:102A20004C000021002204F0A5FC04F1980001F004
:102A300049F8002818BF04F05FFD01F07DFD84F81F
:102A4000BC502DB994F8BD0010B9204600F0D0F864
:102A5000206841682046884770BD000070B5044674
:102A600000680D4602682046904794F8BD00A842D1
:102A70003CD005B394F8BC0040B9D4E90110C207BA
:102A800004EB600001D002685158884701F012FD44
:102A90009DB104F1A806304601F014F8D8B13046D3
:102AA00000F0F4FF04F0F4FC04F14C0001210122D9
:102AB00004F060FC0FE001F0FDFC04F14C0001218A
:102AC000002204F057FC04F1A80000F0FBFF0028EE
:102AD00018BF04F011FD01F02FFD84F8BD502DB991
:102AE00094F8BC0010B9204600F082F820684168D4
:102AF0002046884770BD00007047000070B5B0F9EF
:102B0000BE10B0F9C02000F14C060446304604F077
:102B100005FBD4E9325000F0010151EA05020BD067
:102B200004EB600009B101684D5994F8D010B4F974
:102B3000D220B4F9D430A847D4F8B810304604F005
:102B400061FA42F6A111C0F600013046224604F0B7
:102B500003FC70BDF0B585B00DF1040C0446DDE951
:102B60000A058CE80E002168049009682046884711
:102B700015B994F8BC0020B9012D2BD194F8BD00F3
:102B800040B301F097FC01A800F09CFF074604EB5E
:102B9000051000F19806304600F094FF47B1002878
:102BA00008BF04F075FC01AB0FCB0FC6012608E08F
:102BB000002818BF04F0A0FC30460021002600F0D9
:102BC000A9FC04F14C002946324604F0D3FB01F085
:102BD000B3FC05E001AF04EB05108ECF98308EC03A
:102BE000206841682046884705B0F0BD7047000066
:102BF00080B54C3004F012FA80BD0000B0B5054637
:102C0000044655F84C0B016820468847284604F0D6
:102C10001BFC216805464968204688472846B0BD08
:102C2000B0B50546044655F84C0B01682046884768
:102C3000284604F021FC216805464968204688475B
:102C40002846B0BD2DE9F041044648F2C0600E466A
:102C5000C0F6000042F6FD210830C0F60001002554
:102C600084E8230004F10C0021461F46904600F042
:102C700031FE04F12800A58400F01AFC04F13800AC
:102C800000F016FC04F14C003521A4F84850A4F8DB
:102C90009450FDF731FF84F89050C4E92155C4F8F1
:102CA0008C509825601900F01DFC1035B82DF9D115
:102CB00040F20110A4F8BC0000204FF0FF31C4F82E
:102CC000B870A4F8BE60A4F8C080C4E93100C4F8AC
:102CD000CC0084F8D000C4F8D210C4E93600C4F89F
:102CE000E000D4E90110C20704EB600001D00268E3
:102CF000515888472046BDE8F081000080B500F0BB
:102D000003F800F02FFF80BDF0B587B0044648F20D
:102D1000C060C0F600000830002603AF206000BF8E
:102D20003846002100F0DAFB03AB06980ECBF5B273
:102D3000009020460195FFF70DFF0136012EEFD0E0
:102D400004F10C0000F0D4FD204607B0F0BD0000F7
:102D500080B50430FFF742FD80BD000080B500F56E
:102D6000407000F05BFD80BDB0B50C46054600F03C
:102D700011FA28462146FFF723FE2846FFF7EEFF0B
:102D80000020B0BD0246002082F8341370470000D6
:102D9000B0B50C46054600F0FDF928462146FFF780
:102DA0005DFE2846FFF7DAFF0020B0BDB0B586B063
:102DB000044643F2B902C0F6000202A821460023ED
:102DC000002500F085FC02AB05980ECB0090204654
:102DD0000195FFF7BFFE012084F8360306B0B0BDB1
:102DE000B0B586B0044643F22512C0F6000202A830
:102DF0002146002300F06CFC02AB05980ECB0125A8
:102E0000009020460195FFF7A5FE84F8355306B0E3
:102E1000B0BD0000B0B586B0044602A80021002570
:102E200000F05CFB02AB05980ECB009020460195AC
:102E3000FFF790FE84F8365306B0B0BD70B586B08B
:102E4000044602A80021002600F048FB02AB0598CA
:102E50000ECB0125009020460195FFF77BFE84F8FC
:102E6000356306B070BD0000F0B581B014460E4663
:102E7000054600F5FA7700BF384600F0C1FD18B9E5
:102E8000284600F04FF9F7E74CB1013E274600BF56
:102E900016F8011F2846FFF77BFD013FF8D12046B9
:102EA00001B0F0BD2DE9F041002A3FD01746884619
:102EB000044600F06FF904F1E80500BF284600F071
:102EC0009FFD60B194F834632046FFF747FF86B357
:102ED000012005F0EFF8204600F05CF9EEE700264F
:102EE000284600F08DFD38B908EB0601284600F0B1
:102EF000B7F90136BE42F3D301F0DCFA94F8380397
:102F000060B194F8360348B9204600F0D5F8284659
:102F100000F06CFD10B92046FFF748FF01F00CFBF4
:102F20002046FFF71BFF3046BDE8F0810020BDE8DA
:102F3000F0816FF00A00BDE8F08100006FF01C0026
:102F40007047000070B5044600F024F904F5FA75E6
:102F5000284600F055FD06462046FFF7FFFE76B9ED
:102F6000012005F0A7F8204600F014F9284600F0EB
:102F700047FD06462046FFF7F1FE002EF0D0002068
:102F800070BD000010B500F54974204600F09AFDB0
:102F9000002808BF10BD204600F090FD10BD0000C5
:102FA000002070472DE9F04381B0DDF820901E46E7
:102FB00017460C46054601F07DFA05F5497840466E
:102FC000C5E9C947C5E9CB6900F07CFD38B12846A1
:102FD000002100F0F3FC10B1404600F06FFD01F05D
:102FE000ABFA01B0BDE8F0832DE9F04381B062B1E6
:102FF00090460C46814601F0AFFA40B14846214662
:103000004246FFF731FF064650E000264EE04846B4
:1030100000F0C0F809F5FA75002603E001F08CFA1B
:1030200046453CD2284600F0E1FC88B199F83403CB
:10303000A8B300BF4846FFF791FE012005F03AF81B
:10304000484600F0A7F8284600F0D0FC0028F1D14F
:1030500046450ED2284600F0C9FC50B92846214604
:10306000671C00F01FF90136B0453C46F2D14646D8
:103070003C4601F01FFA99F837030028CED099F8A2
:1030800035030028CAD1484600F04CF8284600F025
:10309000B7FC0028C2D14846FFF7A2FEBEE748466B
:1030A000FFF75CFE002E08BF6FF00A06304601B045
:1030B000BDE8F08301207047F0B581B000F1E8056C
:1030C0000446284600F09CFC0646284600F08EFC8C
:1030D000A0B90DF1030700BF2046FFF78FFD68B1CF
:1030E0002046FFF74FFC8DF803002846394600F0D4
:1030F000D9F8284600F07AFC0028EDD094F8360381
:1031000030B1284600F072FC10B12046FFF782FE75
:1031100036B1284600F074FC10B92046FFF732FFA4
:1031200001B0F0BDF0B581B000F5FA75044628464F
:1031300000F05CFC06462046FFF772FD88B10DF1F9
:10314000030700BF2846394600F08AF848B19DF8C9
:1031500003102046FFF71CFC2046FFF761FD002806
:10316000F0D194F8350330B1284600F049FC10B195
:103170002046FFF763FE56B1284600F037FC30B911
:10318000204600F00FFC10B92046FFF7FBFE01B00F
:10319000F0BD000080B500F5407000F01DFB80BD63
:1031A00010B50446FFF74EFDE430FFF7DFFB48F2B1
:1031B000D860C0F6000000F108015030C4F8E40007
:1031C00004F1E800216000F099F804F5FA7000F0CD
:1031D00095F804F5407000F049FB04F5497000F0E3
:1031E00081F90120C0F20010C4F83403012084F8F2
:1031F00038030020C4F83C032046FFF7D7FD2046E3
:1032000010BD000080B500F003F800F0ABFC80BDFD
:10321000B0B5044648F2D860C0F6000000F10801DD
:10322000216000F15001D4F83C03254645F8E41F25
:1032300010B101684968884704F5407000F01EFB32
:1032400004F5FA7000F060F804F1E80000F05CF8B2
:103250002846FFF795FB2046FFF756FDB0BD00005E
:10326000B0B50D46044601F025F9204600F0C8FB34
:1032700008B1002412E0D4F80401411CC4F8041180
:10328000205C2870D4F80401B0F5807F04BF0020D2
:10329000C4F80401002084F80801012401F04CF96D
:1032A0002046B0BDB0B50D46044601F003F92046F6
:1032B00000F09CFB40B1D4F804010130B0F58071FE
:1032C00018BF0146C4F80411D4F800012978421C43
:1032D000C4F800212154D4F80001B0F5807F04BF68
:1032E0000020C4F80001D4E94001884204BF012055
:1032F00084F8080101F020F9B0BD00000021C0E908
:10330000401180F80811704770470000B0B50F28D1
:10331000C4BF0020B0BD40F2AC25C2F20005044697
:1033200055F82000022C07DC411C18BFB0BD204618
:10333000FFF77CF945F82400B0BD0000002070477D
:10334000002070477047000080B500F077F880BD1E
:10335000704700004FF0FF307047000080B500F06C
:1033600063FB80BD10B5044600F014F8640028BF6C
:103370004440204610BD000090FAA0F070470000C5
:1033800010B5044600F036F8640828BF44402046D3
:1033900010BD000080B541F6B750C0F2C140FFF744
:1033A000D1FF80BD80B511B1FFF7CEFF80BDFFF723
:1033B000C9FF80BDB0B505462A7A0C460868697A0F
:1033C0001AB141B9FFF7C0FF05E011B100F036F8BE
:1033D00001E0FFF7BDFF696881EA0005FFF7BAFF6A
:1033E00005EA000100202160B0BD00000268002055
:1033F0000A60704780B541F6B750C0F2C140FFF790
:10340000BBFFFFF7A5FF80BDF0B581B00F461946A1
:103410001C4616460546FFF7E9FF08B101B0F0BDAE
:103420002846394632462346FFF798FF0028F5D153
:1034300028462146FFF7BEFF01B0F0BD90FAA0F08C
:1034400070470000F0B581B0069F06460846194651
:103450001C461546FFF7A6FFC6E900053472304644
:10346000777201B0F0BD000080B500F003F80021D4
:10347000016080BD0C307047704700000021C160C2
:103480007047000080B500F037F980BD80B500F0CE
:103490003DF980BD80B5FFF7B7FF80BD80B582B034
:1034A000DDF810C0CDF800C0FFF7CCFF02B080BD42
:1034B00080B50021FFF7E2FF80BD000080B5FFF777
:1034C000E5FF80BD43F2BD42C0F60002C260D1E913
:1034D00000238968C0E900238160704780B500F04F
:1034E00001F880BD80B50021FFF7C8FF80BD000056
:1034F00010B584B004460020C4E90000C4E902000D
:1035000001A80EC001A92046FFF7DCFF204604B049
:1035100010BD000010B50446FFF7AEFF2046FFF7D0
:10352000A3FF204610BD0000007B7047F0B581B0BE
:10353000044640F2AC50C2F200000E4600F026FAFB
:1035400000F04AF940F2A850C2F20000056800E01D
:103550006D68BDB1AF68002FFAD03846FDF70CFAA0
:10356000B042F5D1384621463246FDF7D9F9002858
:10357000EED140F2AC50C2F2000000F007FA00F0C9
:103580004DF910E0072E05D10FA021460722FDF7C7
:10359000C7F958B140F2AC50C2F2000000F0F6F9A1
:1035A00000F03CF90025284601B0F0BD40F2AC50D7
:1035B000C2F2000000F0EAF900F030F940F2D45015
:1035C000C2F200000568EEE764656661756C740020
:1035D00010B5044600F00AF8002804BF002010BD12
:1035E0006068002818BF043810BD000080B540682E
:1035F00030B1FFF799FF0138B0FA80F0400980BD83
:10360000002080BD10B5044600F010F8002804BF6B
:10361000002010BD6068002818BF043810BD0000ED
:103620004068002818BF01207047000080B540683E
:1036300028B1FFF779FFB0FA80F0400980BD002083
:1036400080BD00000068704770B50E460025044636
:10365000C0E9005510A13046FDF754F93044206010
:1036600001E000BF59B1226800211378002BF9D086
:1036700001322F2B1CBF013501212260F2E735B149
:103680002946FFF753FF01462046616070BD03A045
:1036900005A12A2201F0A2FB2F0000006C656E201C
:1036A000213D2030000000002E5C6D6265642D6FAE
:1036B000735C706C6174666F726D5C736F7572634E
:1036C000655C46696C65506174682E6370700000BB
:1036D00080B5FFF70DFF80BD80B503461068CA07AF
:1036E00000EB610001D00168CB58984780BD000015
:1036F00080B500F031FA80BD80B5D0E900238C465A
:10370000104619466246FFF7E7FF80BD80B5FFF718
:10371000EFFF80BD80B502F053FA002808BF80BDDE
:1037200048F6275048F63651C0F60000C0F60001B2
:10373000E12201F053FB000010B584B004460020E4
:1037400020620DA0002918BF08460090201D02909D
:103750001C2003900B200190684602F019FB2060AA
:1037600010B901F04FFD08B104B010BD09A012A1BD
:103770003D2201F033FB00BF6170706C69636174BE
:10378000696F6E5F756E6E616D65645F6D75746592
:10379000780000005F6964207C7C206D6265645F56
:1037A0006765745F6572726F725F696E5F70726F6A
:1037B00067726573732829002E5C6D6265642D6FD6
:1037C000735C72746F735C736F757263655C4D7557
:1037D0007465782E63707000B0B582B005460068DD
:1037E0004FF0FF3102F0A2FA28B1044601F00AFDC1
:1037F00030B102B0B0BD286A0130286202B0B0BD5D
:1038000048F6BA3140F215100025C0F60001C8F2A2
:10381000020022460023009501F03AFB10B582B069
:10382000026A0168013A0262084602F0C9FA18B158
:10383000044601F0E7FC08B102B010BD40F21710D9
:103840004FF0000C04A1C8F2020022460023CDF87C
:1038500000C001F01DFB00BF4D7574657820756ECA
:103860006C6F636B206661696C65640010B5002144
:103870000446FFF761FF204610BD000010B5044666
:10388000006802F06DFA204610BD000080B5436864
:103890007BB1D0E903CE0EF0010252EA0C0108BF61
:1038A00080BD816803EB6E0012B1026852F80CC053
:1038B000E04780BD10B5DDF808C043F68D0EC0F6B8
:1038C000000E0024C0E900E1C0E902C2C0E90434EE
:1038D00010BD000010B582B04FF0000C0022002394
:1038E0000446CDF800C0FFF7E5FF204602B010BD4A
:1038F00010B50446406918B1FEF778FF00206061FA
:10390000204610BDB0B50D46C80703D10024E80617
:1039100015D50BE042F23810C2F2000003F094FD1E
:103920000446002818BF0124E80608D542F23810E2
:10393000C2F2000003F0A0FD002818BF103420469A
:10394000B0BD0000B0B50446FEF762FE054668B99A
:10395000FEF788FE25683DB9251D2846FFF786FF3E
:1039600020462946FEF756FEFEF7C0FE201D854282
:1039700004BF2846B0BD48F68E0048F6B101C0F637
:103980000000C0F600018B2201F028FA80B5FFF795
:10399000D9FF80BD012070471120704790F8340393
:1039A0007047000080B5D0F83C0328B1FFF7D0F98C
:1039B000002818BF012080BD002080BDB0B505469D
:1039C000E83000F01DF880F001042846FFF7EAFF18
:1039D00000281CBF04F50050B0BD05F5FA7000F0DA
:1039E00005F8002808BF10342046B0BD10B50446C5
:1039F00000F060FD94F8084100F09EFD204610BDE7
:103A000010B5044600F056FDD4E94001884205D1C6
:103A100094F80801B0FA80F0440900E0002400F0B6
:103A20008BFD204610BD00002DE9F041007A1546BF
:103A30001A6898460E4678B1FDB10027F05D6FF028
:103A4000070442401046FFF79BFC01340246F9D3BD
:103A50000137AF42F2D110E07DB10027F05D6FF089
:103A6000070482EA006200BF1046FFF77BFC0134C6
:103A70000246F9D30137AF42F0D10020C8F8002048
:103A8000BDE8F081C06870470C30704710B504463F
:103A900000F018F830B12046FFF7F4FF0146204649
:103AA000884710BD48F6640048F67001C0F6000073
:103AB000C0F600014FF4FD7201F090F980B5FFF7F8
:103AC000E5FF80BD80B5FFF7DFFF0068002818BF65
:103AD000012080BD80B5E438FFF746F9002080BDA5
:103AE000E438FFF74FB9000080B5E438FFF750F92C
:103AF000002080BDE438FFF7D5B900006FF01C004E
:103B00007047000080B5E438FFF71CFA002080BD44
:103B10000020704780B582B0DDF810C0E438CDF8E1
:103B200000C0FFF73FFA02B080BD0000E438FFF7A5
:103B30005BBA000001207047E438FFF763BB000068
:103B4000E438FFF765BB0000E438FFF727BF00004B
:103B5000E4380021FFF732BF80B501460430FFF79B
:103B600091FC80BD80B5FCF786FC80BD002848BF75
:103B7000704700F01F01012202FA01F14EF280129B
:103B80004009CEF2000242F82010BFF34F8FBFF37E
:103B90006F8F7047002848BF704700F01F01012257
:103BA00002FA01F14EF200124009CEF2000242F890
:103BB000201070474EF20410CEF200004FF4802126
:103BC000016070474EF60C50CEF200000068C0F362
:103BD000022070474EF60C51CEF200010A684FF6F3
:103BE000FF031A4060F30A2242F0806040F0FD704B
:103BF000086070474EF60852CEF20002126802EBDF
:103C000080000164704700004EF60850CEF20000BC
:103C1000006848F26D11C0F60001C0F80811704745
:103C20004EF60C50BFF34F8FCEF200000168042215
:103C300001F4E061C0F2FA5211430160BFF34F8F0B
:103C400000BFFDE710B50446007800F0030001282E
:103C500004BF002010BDFEF713FD207810F0030113
:103C600005D0012908D1FEF74DFD002010BD40F020
:103C700002002070012010BD48F68E3103A0C0F66E
:103C8000000140F28E6201F0A9F800BF286775615B
:103C900072642026204358415F47554152445F4D8E
:103CA00041534B29203D3D203000000080B5017874
:103CB00001F00302022A06D101F0FC01013101707A
:103CC000FEF720FD80BD48F6573048F68E31C0F62D
:103CD0000000C0F6000140F2976201F07FF800009A
:103CE00001A000F097FA00BF5075726520766972E6
:103CF0007475616C2066756E6374696F6E206361A4
:103D00006C6C65642100000080B540F28850C2F2FE
:103D100000000521FEF7D0FD80BD000080B542F215
:103D2000D040C2F200000C210B224FF41653FFF7D3
:103D300037FA80BD80B542F29010C2F200000A212D
:103D400009224FF41653FFF72BFA80BD80B542F6D7
:103D5000D000C2F20000022102224FF41653FFF7F6
:103D60001FFA80BD41F2F8704FF60041C2F2000028
:103D7000C2F20101016041F2F47040F20042C2F26D
:103D80000000C0F20002026041F2EC7042F6104204
:103D9000C2F20000C2F200020260881A41F2E87129
:103DA000C2F20001086001F04FFA00F0F1F801F0F2
:103DB00013FE000010B502F0D7FDE0B1002402F0C0
:103DC000A7FD014641F63C00C2F2000050F8242055
:103DD000002A08BF40F8241050F824208A4203D05B
:103DE0000134042CF2D10424042C05D10420042431
:103DF00001F0FEFF00E0042441F64C0104EB440016
:103E0000C2F2000101EB401010BD000080B500F0CF
:103E100019F880BDF0B581B01E4614460F46054620
:103E200000F078FC781C0BD02846314600F0DAFC14
:103E30002846012100F062FC2846214600F09AFC49
:103E400001B0F0BD42F610404FF668114FF6004247
:103E5000C2F20000C2F20101C2F20102884218BFA0
:103E60000A4642F61041C2F2000118BF0146C81DC1
:103E700020F007007047000010B5044602F074FD02
:103E8000002808BF10BD20684FF0FF3101F04EFF41
:103E900010BD0000B0B5044600F00CFB216841F2F3
:103EA00004620020C2F2000213588B4204D0043096
:103EB0002028F9D1002500E0151800F03DFB20680E
:103EC00001F04EFF15B100202860B0BD2046FCF780
:103ED000D2FAB0BD70B584B00446002621A0CDE969
:103EE000026600900B20019000F0E4FA41F20465B4
:103EF000C2F20005286838B11C3E16F1E00005F159
:103F00000405F7D100250AE04FF0FF3028601C209F
:103F1000039041F22460C2F20000801B029000F086
:103F20000BFB35B1684601F033FF20602860206844
:103F300058B91C2003901C20FCF762FA029038B19B
:103F4000684601F025FF206020B1012004B070BD5B
:103F5000042000E00520214601F04AFF002004B0C3
:103F600070BD00BF41524D20746F6F6C6368616912
:103F70006E206D757465780010B5044602F0F4FC8F
:103F8000002808BF10BD206801F01AFF10BD000016
:103F900080B501F041FE80BD80B500F0EDF980BD37
:103FA000FEE7000010B5FFF7B1F940B10168896A7A
:103FB0008847B0F1FF3FC8BF10BD444200E009246C
:103FC000FCF7D3F904604FF0FF3010BD80B500F06E
:103FD00033FE80BDB0B50D4648F29071C0F60001C9
:103FE0000446FCF7B1FDB0B148F29771C0F600018C
:103FF0002046FCF7A9FD88B148F28871C0F600019F
:104000002046FCF7A1FD60B1207840280FD1D4F8FC
:1040100001402046B0BD0020002404E0012001241E
:1040200001E002200224FFF771F92046B0BD2846C6
:10403000FEF78EFB0146204601F078FDB0BD000082
:1040400080B5002200F0A8FE80BD00002DE9F04FF1
:1040500081B090460E46824600F082FA002840F079
:104060008A8000F0FBF9002800F08580B8F1FF3F5E
:1040700044DD5046FEF7EEFA002844D0B8F1010FB7
:1040800046DB40F25050C2F2000000EB0A09002566
:104090004846002709E04FF0010B00BFBBF1000FBD
:1040A00039D170190135A8452FD004780D2CF8D0DE
:1040B000705D0A28F5D1BD420EDDF119EA1B5046AC
:1040C00004F0C4F90028E6D40744AF4202DA4FF006
:1040D000050BE3E789F8004050462CA101224FF080
:1040E000010B04F0B3F90028D8D40FBF4FF0050B33
:1040F0000D2089F800004FF0000BCFE7FCF735F9F1
:104100001621016032E000270CE04FF0020B02E0C4
:104110004FF0020B0027BBF1020018BF58460528DC
:1041200018D018BB474515DAF119A8EB070250461D
:1041300004F08CF9002816D40744012F08DBB819C5
:1041400010F8010C40F25051C2F2000101F80A00CF
:10415000012058B1B7F1FF3FC8BFA8EB07073846A9
:1041600001B0BDE8F08F00200028F3D14FF0FF3000
:1041700001B0BDE8F08F40F22F10002704A1C8F273
:10418000010052460023009700F082FE0D0000005F
:104190004572726F72202D2077726974696E672084
:1041A000746F20612066696C6520696E20616E20E5
:1041B000495352206F7220637269746963616C2085
:1041C00073656374696F6E0D0A00000000238242FC
:1041D0000AD991424FF0000228BF0122814238BF24
:1041E000012343EA0200704781424FF0000038BFCC
:1041F0000120914228BF01231840704780B582B04A
:104200008DF807000DF107010120012204F01EF9CD
:1042100002B080BDFCF7C2FFEFF31080012121EA5C
:104220000000704710B550E8002F02EA01038B42EE
:1042300003D0BFF32F8F002205E022EA010340E8FC
:10424000003404B1EFE7104610BD000010B550E88F
:10425000002F0A4203D1BFF32F8F002205E022EA8C
:10426000010340E8003404B1F1E7104610BD00003E
:1042700040F2F420C2F200005630D0E85F1F11B9BE
:10428000BFF32F8F04E04A1EC0E8532F03B1F4E7B9
:1042900088B2704750E8001F4A1E40E8002303B16F
:1042A000F8E7704750E8001F11B9BFF32F8F04E003
:1042B0004A1E40E8002303B1F4E7084670470000B7
:1042C00010B5D0E85F2F531C994200D80023C0E8F6
:1042D000543F04B1F5E790B210BD000010B540F2B4
:1042E000F421C2F200015631D1E85F2F904202D88A
:1042F000BFF32F8F04E0531CC1E8543F04B1F3E730
:1043000090B210BD50E8001F4A1C40E8002303B1E2
:10431000F8E7704750E8001F4A1C40E8002303B14B
:10432000F8E7704750E8001F11B9BFF32F8F04E082
:104330000A6840E8002303B1F4E70846704700002C
:1043400010B502680A60BFF35F8F50E8002F0B685A
:104350009342F6D140E8001404B1F2E710BD00002A
:104360000121D0E84F2FC0E8431F03B1F9E7D0B2D5
:10437000704700007047000010B50446FEF7C6FF06
:1043800040F2AC21C2F20001002241F8242048B1E1
:10439000016849698847B0F1FF3FC4BF002010BDE4
:1043A000444200E00924FBF7E0FF04604FF0FF30D7
:1043B00010BD0000F0B581B04468D4E90C10D4E918
:1043C0000656521A276963EB0001A81A76EB010022
:1043D0003DD3D4F808C044F24020C0F20F00844519
:1043E00003D1974228BF174631E094F83B3044F29E
:1043F0003F20C0F20F00E3B1C3F12006994022FA3A
:1044000006F63143B3F1200658BF02FA06F102FA6C
:1044100003F258BF0022801844F2402241F100010B
:10442000C0F20F020023FCF730F8874228BF07468E
:104430000DE001FB0CF1E2FB0C0144F24022C0F262
:104440000F020023FCF721F8874228BF0746206AA5
:10445000E1683844084001B0F0BD0000EFF310807F
:10446000012121EA00007047D0E85F2F521AC0E80E
:10447000532F002BF8D190B270470000D0E84F2F97
:10448000C0E8431FD0B27047012100BFD0E84F2FD2
:10449000C0E8431F002BF9D102F001007047000073
:1044A000D0E85F2F5218C0E8532F002BF8D190B2FC
:1044B0007047000080B500F0A9F941F20870C2F21F
:1044C0000000016801311CBF016080BD02A00FA186
:1044D0003F2200F083FC00BF637269746963616C02
:1044E0005F73656374696F6E5F7265656E74726128
:1044F0006E63795F636F756E746572203C205549F9
:104500004E5433325F4D4158000000002E5C6D6206
:1045100065642D6F735C706C6174666F726D5C7333
:104520006F757263655C6D6265645F6372697469FF
:1045300063616C2E6300000080B541F20870C2F226
:1045400000000168002908BF80BD0139016008BF73
:1045500000F072F980BD000080B500F0ABF980BDBD
:10456000EFF30580002818BF0120704783B080B5A5
:1045700081B003A80EC040F2444003AAC2F200007A
:1045800004A10092FCF7D8FE01B0BDE8804003B062
:10459000704700BF43616E6E6F7420696E69746905
:1045A000616C697A6520554152542077697468209E
:1045B0006261756420726174652025750A000000CF
:1045C00083B081B0044601A80EC041F2E470C2F28B
:1045D000000001217546FFF751FFA0B940F200101D
:1045E000C8F2FF0000212A4600F078F907A0002158
:1045F000002202F093FB01A92046009100F06CFD1F
:1046000008A000F03DFD00F003FE00BF46617461AC
:104610006C2052756E2D74696D65206572726F72B3
:10462000000000000A00000010F1060F31BF03A0D7
:1046300004A101EB80008069704700BF556E6B6E6E
:104640006F776E00668C0008FC8C0008568C0008A2
:104650000E8C0008DC8B00083F8C0008044640F2FA
:10466000F030C2F20000FCF784F840F24440C2F29D
:104670000000FCF77EF8012000F008F8022000F0AE
:1046800005F804B9FEE700F0CDFB000010B5FEF719
:104690003DFE48B1016889698847B0F1FF3FC4BF5A
:1046A000002010BD444200E00924FBF75EFE0460D8
:1046B0004FF0FF3010BD000041F20041C4F2010193
:1046C00088420FD041F20001C4F2010188420CD0AF
:1046D00044F20041C4F20001884214BFFF200120CF
:1046E00040B27047022040B27047002040B270478D
:1046F00048F69450C0F600007047000080B50A46A6
:104700000029D0E9053118BF01221846FDF71EFB2C
:1047100080BD000070B50446481C218208BF70BDF2
:10472000C1F303100D46FDF7D7FC0646284600F0FE
:1047300027F8218A206001F00F0048F2C071C0F60E
:10474000000151F82000C4E9056006F11000606026
:1047500006F11800C4E9020070BD000080B5002217
:1047600000F002F880BD000080B513460022FFF77C
:1047700051FB80BD80B5B0F9100002F065F980BD35
:1047800010B5044601300AD020464FF4707102F093
:10479000FBF804F00F00012101FA00F010BD02A0A7
:1047A00006A1762200F01AFB70696E20213D2028B8
:1047B00050696E4E616D65294E4300002E5C6D623E
:1047C00065642D6F735C746172676574735C5441CA
:1047D000524745545F53544D5C6770696F5F617019
:1047E000692E630008230268002908BF0C23C05803
:1047F00008BF12040260704708230268002908BF3E
:104800000C23C05808BF12040260704780B5FFF740
:1048100003FDEFF3108172B642F23411C2F20001CF
:104820000A78002A18BF80BD41F20472C2F2000269
:1048300010700120087080BD80B5FFF7EDFC78B9DD
:1048400041F20471C2F20001097842F23410C2F25E
:10485000000000220029027008BF80BD62B680BD42
:1048600002A009A1362200F0B9FA00BF21617265E9
:104870005F696E74657272757074735F656E616284
:104880006C656428290000002E5C6D6265642D6FE4
:10489000735C68616C5C6D6265645F6372697469A6
:1048A00063616C5F73656374696F6E5F6170692EBD
:1048B0006300000042F23410C2F20000007870473A
:1048C00080B5FFF7F7FDFDF787FA0121002818BF33
:1048D0000120FCF715FEFFF72FFE80BD2DE9F04704
:1048E00090B00C460646B0F1FF3F68464FF04001DD
:1048F0001546C4BF40F20116C8F2FF06FCF7FCF8EB
:1049000030460096029400F0A1FB18B1E16B606B99
:10491000019101E06846019540F2F421C2F20001E4
:10492000496907900391CA6BD1E90C01CDE90421D3
:104930000690FFF7BFFD41F21070C2F2000001685F
:104940004A1C0260D9B941F258709DE84E00C2F28B
:104950000000DDE90454DDE906CE0DF1200A80E80F
:104960004E000CAE9AE880074ECEC0E90454C0E970
:1049700006CE00F1200C30308CE880074EC041F2AA
:10498000A4709DE88E00C2F200000DF1180E0DF12A
:10499000240A80E88E000CAFDDE904659EE8105023
:1049A0009AE800078ECFC0E90465C0E9064CC0E96B
:1049B00008E8C0E90A9AC0E90C1241F21471C2F287
:1049C000000109688363C76341F2A470C2F200006A
:1049D00009B1884701E000F0EBFAFFF7ADFD10B038
:1049E000BDE8F08710B588B003A802A9FCF74CFE1B
:1049F000FCF7BCFE002143F6200202900191C4F2B4
:104A00000202136A40F2FC4443F008031362136A83
:104A1000C2F2000403F008030193019B136843F002
:104A200008031360136823F008031360069A4FF01D
:104A3000FF33002A18BF012290404DF68362C4F272
:104A40001B32A0FB020240F60040C4F2000003EB60
:104A50009242C4E900022046C4E90213C4E90411E9
:104A6000A161FDF777F8FFF7CFF8FFF7A3F820462D
:104A70000021FDF78DF82068C16821F00201C160B6
:104A800008B010BD10B5D0E900C342F61004D0E95B
:104A9000022EC2F20004014604EB83109B0144F88D
:104AA00003C0C0E9012ED1E90423C0E903230A6A47
:104AB0000023C0E90623C3848384C3854C8B4FF64F
:104AC000FF729442838504D108214161FDF77EF88D
:104AD00010BD098B914200F114010CBF04220C227D
:104AE0000A60FDF773F810BD2DE9F04F81B0044660
:104AF000406890F8381011B101B0BDE8F08F90F81F
:104B00003A000028F8D12068006880472068C06912
:104B100080470568002D50D01F260121F2B201FA0E
:104B200002F2954203D0013E3206F7D100264768D3
:104B3000381F1D2849D2072101FA00FB44F240200A
:104B4000C0F20F0000212A46EBFB0021501E61F14C
:104B500000012A4600234FF0000AFBF796FC80462E
:104B60008946D4E900104968C0F800A0C0F804A044
:104B700088476168B7F1200208624FF0FF3000FA01
:104B800007F081F83B6058BF0020C043C1E90250E4
:104B90000120C1F810B0C1E90689C1E90AAAC1E93A
:104BA0000CAA0887204681F83AA003F06BFB204648
:104BB00002F0C2F901B0BDE8F08F40F20510C8F272
:104BC00004000930002715A105E040F20510002778
:104BD00003A1C8F2040000220023009700F058F956
:104BE0005469636B6572206E756D626572206F66C5
:104BF0002062697420697320677265617465722030
:104C00007468616E203332206F72206C657373207C
:104C10007468616E20342062697473005469636B38
:104C20006572206672657175656E6379206973209F
:104C30007A65726F0000000010B5FEF767FB40B1A7
:104C40000168C9698847B0F1FF3FC8BF10BD444241
:104C500000E00924FBF789FB0460002010BD000080
:104C6000F0B581B01F4614460E4601F05BFA0546CA
:104C7000D8B1D7B9CEB12878FA2816D12846FDF791
:104C8000BDF8E0B16A6A074600F10C013046FBF757
:104C900092FE002C1CBFF87820703846FD6001F0B1
:104CA00007FB01F03FFB002406E028466FF00301FC
:104CB0006FF00304FCF794FB204601B0F0BD6FF0E9
:104CC0000204F9E72DE9F0411D4690460C4601F03B
:104CD00029FA0646F8B1F5B9ECB13078FA281AD1BC
:104CE00006F10C0001F0C8F9F8B1726A05460C3003
:104CF0002146FBF760FEF920287000272846AF7098
:104D000085F80380C5E9014601F0D2FA01F00AFBFB
:104D10003846BDE8F08130466FF003016FF00307BD
:104D2000FCF75EFB3846BDE8F0816FF00200BDE89D
:104D3000F0810000B0B540F2F425C2F20005B5F8EC
:104D40005440FFF795FA50B105F15A002146FFF79C
:104D5000B7FAE96D51F8200001F0AEFAB0BD0020BD
:104D6000B0BD000070B540F2F426C2F20006B6F8FD
:104D7000545004462846FFF7B1FAA84224BF002049
:104D800070BD06F158002946FFF79AFAF16D41F817
:104D90002040012070BD0000B0B514460D46FEF75E
:104DA000B5FA50B1016822460B6929469847B0F11F
:104DB000FF3FC8BFB0BD444200E00924FBF7D5FA6D
:104DC00004604FF0FF30B0BD40F28854C2F20004DE
:104DD00020460121FDF780FDFAE7000082B00B4676
:104DE000014640F244109446C8F2FF000022CDF87C
:104DF00000C000F04DF800004EF6085CCEF2000C4A
:104E0000DCF8001000224FF0005300BF51F82200E0
:104E100043F822000132662AF8D14FF00051CCF855
:104E20000010704788B041F6802444F6F018C0F2B4
:104E30000604C0F20208FFF73DFB01AE3046052133
:104E4000FFF78CFC002700BF30460121FFF7D4FCA0
:104E5000404603F0EBFA30460021FFF7CDFC404618
:104E600003F0E4FA0137042FEED104253046012186
:104E7000FFF7C2FC204603F0D9FA30460021002794
:104E8000FFF7BAFC204603F0D1FA013DEED1DBE793
:104E9000044641F2E4708A46C2F2000001217546E0
:104EA000984617460126FFF7E9FA58B9DDF8009051
:104EB000204639462A46FFF711FD504641464A46EC
:104EC00001F02CFF40F29815C2F2000505F18000B8
:104ED0003C2100F0F7FDD5F8BC1041F2A4748142EA
:104EE000C2F200044FF00000D5F8B42008BF561CF1
:104EF000C4E90D6020463C2100F0E4FDE063FFF7CB
:104F0000D9FAD4E90001C5F88000A068C5F884107A
:104F1000E168C5F888002069C5F88C106169C5F89A
:104F20009000A069C5F89410E169C5F89800206A5E
:104F3000C5F89C10616AC5F8A000A06AC5F8A41065
:104F4000E16AC5F8A800206BC5F8AC10616BC5E933
:104F50002C01D4E90E01C5E92E01FFF7EDFA07A0F7
:104F600000F07EF8D5F8B410012905DB48F6CD1025
:104F7000C0F6000000F074F803F09AF80A3D2053E0
:104F8000797374656D2077696C6C20626520726539
:104F9000626F6F7465642064756520746F20612092
:104FA000666174616C206572726F72203D0A000048
:104FB0007047000070B540F29815C2F20005D5F8B0
:104FC0008000B0F1FF3F01DD002070BD05F18004DD
:104FD00020463C2100F076FDD5F8BC108142F3D18B
:104FE000D5F8B8000028EFD141F2A070C2F200005D
:104FF00001260670204600F06DF8D5F8B4000128AF
:10500000E2DB20463C21C5F8B86000F05BFDD5F836
:10501000B410C5F8BC000129D6DB00F0F9F8000097
:1050200010B541F2A474C2F20004206800F00EF83A
:1050300048B1A06838B190F84C00012100F0080098
:1050400081EAD00010BD002010BD00004FF6C36102
:10505000C7F6007101440020042938BF01207047C1
:1050600083B080B581B00DF10C0C8CE80E0003A963
:10507000009100F031F801B0BDE8804003B0704706
:10508000F0B581B00446022021460022002703F03B
:10509000DDF9FFF70FFA0D260DF1030508E000BF5B
:1050A00098B102202146012203F0D0F914F8017BC7
:1050B00020780A28F4D10D2FF3D0022029460122AE
:1050C0008DF8036003F0C2F9EBE7FFF735FA01B0A2
:1050D000F0BD00007047000080B5A2B00B4602464C
:1050E00001A88421FCF756F9842808D300218DF803
:1050F000871042F62E61C0F62E21CDF883100128CC
:1051000002DB01A8FFF7BCFF22B080BD82B041F2F4
:10511000E475C2F200050C46074628460121FFF758
:10512000ADF94FF000084FF0000610BB40F23D16FD
:1051300014A0C8F2FF06FFF793FFA7F110004FF08D
:10514000FF3101EB3011022906D84FEA30121BA0C3
:1051500050F82100164400E015A0FFF781FF1AA0C7
:10516000FFF77EFF01F028FD1AA0FFF779FF00206E
:10517000287020A1304622460023CDF80080FFF79A
:1051800087FE00BF0A2B2B204D6265644F532046DB
:1051900061756C742048616E646C6572202B2B0AFB
:1051A0000A4661756C74547970653A2000000000FD
:1051B000486172644661756C740000009089000853
:1051C000AA8900089F8900080A0A436F6E746578EF
:1051D000743A00000A0A2D2D204D6265644F532059
:1051E0004661756C742048616E646C6572202D2D6B
:1051F0000A0A00004661756C7420657863657074F6
:10520000696F6E0041F2E470C2F2000000787047EE
:1052100041F29870C2F20000FFF736F930B1FFF7A3
:1052200049F9BFF34F8F00BF20BFFDE7FFF798F9A3
:1052300008B1FFF7F7FDFFF711F9002808BFFFF7E6
:10524000F1FD0120FFF70AFA80B54EF20800CEF218
:105250000000016841F00201016000F049FBFFF726
:10526000CBFD00F00DFC03F0AFF800F099FB80BD22
:10527000704700002DE9F04F87B0814600200029DB
:10528000069000F100821646002A00F0FC819B4641
:105290000D46B71C4FF000080029059118BF013DCD
:1052A0000CE040B2C117109BCDE9000148462946E9
:1052B00006AA029300F040FA0AF1010816F8083035
:1052C000252B0DD0002B00F0CF81109C484629469D
:1052D00006AA009400F0EAFAC24608F10108EDE7D8
:1052E00008F10100315C203910290AD8012202FAA4
:1052F00001F142F60902C0F20102114218BF08F1A1
:105300000200315C2A2903D101300BF1040B05E0C6
:10531000315C013030390A29FAD30138315C2E2949
:1053200020D1821952782A2A03D15BF8041B02305B
:105330001AE02E2916D1431CF25CA2F13001092992
:1053400000F23781002100BF01EB810102EB410136
:105350003A5C3039A2F130030A2B00F10100F3D39B
:10536000013001E06FF00041325CAC46A2F14C0329
:105370004C462E2B00F29580DFE813F02F009300AF
:105380009300930093009300930093009300930085
:105390009300930093009300930093009300930075
:1053A0009300930093009300930093009300930065
:1053B00093009300310093009100930056009300F6
:1053C0009300930093009300930093009500930043
:1053D00093009300930093009700612266E0821986
:1053E0005278682A01D1722260E02E2B00F2598097
:1053F0001122DFE803F018565656565656565656A2
:10540000565656565656565656565656565656563C
:1054100056565B5654561956565656565656585664
:10542000565656565A00D8E7821952786C2A01D13E
:1054300082223BE02E2B34D81122DFE813F02F001C
:1054400032003200320032003200320032003200CC
:1054500032003200320032003200320032003200BC
:1054600032003200320032003200320032003200AC
:1054700032003200320037003200300032001301B7
:10548000320032003200320032003200320034008A
:105490003200320032003200320036009DE7312205
:1054A00004E0002202E0512200E0412202F0030366
:1054B00003EB000A16F80A90B9F1690F02D0B9F1AE
:1054C000640F0AD1822A3AD10BF1070020F0070BB2
:1054D000DBF804105BF8080B34E0A9F15800202831
:1054E00000F26A80DFE800F0116868686868686840
:1054F0006868687B68686868686868686868686819
:1055000089686897681168681100822A30D10BF1A8
:10551000070121F0070BDBF804105BF8085B402A59
:105520002BDD412A00F08C80512A00F08380722A02
:1055300004BFEDB20021B9F1750F28D184E05BF80A
:10554000040BC117A1466546202A09DD212A3FF434
:10555000A9AE512A3FF4A6AE722A3FF4A2AEA2E64B
:10556000002A3FF49FAE112A7FF49DAE00B299E667
:105570005BF8045B0021402AD3DC002A60D0112AAA
:105580005DD0212A08BF0021B9F1750F5CD0B0FAB7
:1055900080F043091098CDE9005102902046614601
:1055A00006AAA1466546039300F072F80AF10108C5
:1055B00084E600211846D7E620460494109C6146F4
:1055C00006AA25236546009400F070F9B9F1250F6D
:1055D000DDF8109018BFC2460AF101086EE61BF80C
:1055E000043BA1462046109C614606AA65460094ED
:1055F00000F05CF90AF1010860E65BF8043BA146A3
:105600002046109C614606AA6546009400F028F9E1
:105610000AF1010852E65BF8043BA1462046109CC3
:105620000091614606AA6546019400F0ABF80AF1C4
:10563000010843E6E917B9F1750FA8D104E0ADB24E
:105640000021B9F1750FA2D1109BCDE90051204680
:10565000614606AAA1466546029300F0B3F80AF136
:1056600001082BE6212221E7B9F1000F059818BFA8
:10567000002808D00698A84287BF002009F8050036
:10568000002109F80010069807B0BDE8F08F00006F
:105690002DE9F04F81B006460D98DDE90BA948F2DF
:1056A0009F7793460D4648F2AF71C0F60007002879
:1056B0004FF000004FF03804C0F6000118BF0F464D
:1056C0000EE000BF17F80830304629465A46CDF89C
:1056D000009000F0EBF80120083C14F1080127D0FD
:1056E0000A99C4F12002E1400AFA02F21143B4F12E
:1056F000200258BF2AFA02F1C20713D0C1F30312E5
:10570000B2FA82F35B09C043184201F00F08D9D105
:10571000BB5C304629465A46CDF8009000F0C6F8EA
:10572000D0E700BF002CE9D0CAB2002AD4D0E5E708
:1057300001B0BDE8F08F00002DE9F04383B00DF11A
:10574000280898E8900191460D46B7F1FF3F0646BC
:105750000CDC304629464A462D23CDF8008000F067
:10576000A5F864424FF0000060EB07073046294679
:105770004A46CDE90047CDF8088000F023F803B091
:10578000BDE8F0832DE9F04381B09146089AAAB1B3
:105790000646187890B1DDF824800D465F1E54420D
:1057A000C3B2304629464A46CDF8008000F07EF864
:1057B000013403D0B87801370028F1D101B0BDE839
:1057C000F08300002DE9F04F87B0DDE91074DDF8BB
:1057D000489090468A4657EA0401834635D0002017
:1057E0004FF0FF3601ADCDE90500CDE90300CDE96D
:1057F000010000BF384621460A220023FAF745FE81
:10580000B7F10A0274F1000200EB8002A7EB42023A
:1058100042F0300205EB060306F1010607460C468E
:105820005A70E7D2701C0DD26C1E00BF235C451E5F
:10583000584651464246CDF8009000F037F8002D0A
:105840002846F3D107B0BDE8F08F5846514642468E
:105850003023CDF8009000F029F807B0BDE8F08FB4
:105860002DE9F04184B0DDF828801D463023144630
:105870000E460746CDF8008000F018F8384631464D
:1058800022467823CDF8008000F010F8E8170121B7
:10589000CDE900500391384631462246CDF80880C4
:1058A000FFF7F6FE04B0BDE8F0810000B0B5154684
:1058B00012684FF6FE74C7F6FF74A24288BFB0BDEF
:1058C000DDF810C0BCF1000F09D018466146FAF7A8
:1058D00018FF013007D14FF0FF302860B0BD10B184
:1058E0008A4238BF8354286801302860B0BD000068
:1058F00070B54EF69455CEF20005BFF35F8F55F8A4
:10590000040CC0F30726032E2BD900242C6000BF03
:105910002046FBF749FD0134A642F9D14FF2390187
:10592000C0F202611020FBF747FD3924C1F20234B6
:1059300004F5E0611320FBF73FFD4FF23F51C1F248
:105940000B311120FBF738FD1220C8F20000214670
:10595000FBF732FD07202860BFF34F8FBFF36F8F37
:1059600070BD02A005A13B22FFF738FA7265676996
:105970006F6E73203E3D2034000000002E5C6D628F
:1059800065642D6F735C68616C5C6D70755C6D62D5
:1059900065645F6D70755F76376D2E630000000083
:1059A00080B500F039F980BD80B584B048F2505020
:1059B000C0F60000D0E90012D0E90203CDE90203ED
:1059C0006846CDE9001200F0E3F942F21411C2F288
:1059D0000001086004B080BD82B041F2E05241F69F
:1059E000B025C2F2000240F2E0504423C2F20005AA
:1059F000C2F20000C2E9025302F110034FF48051D9
:105A0000182413C30FA0106045F6A52040F21D1600
:105A1000C0F600000021C8F20106002500F088FF52
:105A200030B941F2E0520FA1C2F20002304604E068
:105A300000F00AF905A13046002200230095FFF787
:105A400027FA00BF6D61696E000000004661696C55
:105A5000656420746F2073746172742052544F53C4
:105A600000000000507265206D61696E20746872DC
:105A7000656164206E6F7420637265617465640093
:105A800080B5FCF7D1FBFBF713FDFCF773FAFCF7CD
:105A9000CBFBFCF799FC41F2F070C2F2000001214F
:105AA000016080BD80B5FFF77FFF00F021F800F0B6
:105AB00007F8FFF7DDFBFFF77DFAFFF785F980BDFB
:105AC00070470000B0B586B00C4605464FF0000C9C
:105AD00003A8002100220023CDF800C0FDF7DEFC62
