:020000040800F2
:10000000D80A0020D5360008D1360008D1360008BD
:10001000D1360008D1360008D136000800000000B3
:10002000000000000000000000000000D1360008C1
:10003000D136000800000000D13600086D08000825
:10004000D1360008D1360008D1360008D136000874
:10005000D1360008D1360008D1360008D136000864
:10006000D1360008D9160008D1360008D13600086C
:1000700089170008D1360008D1360008D1360008AB
:10008000D1360008D1360008D1360008D136000834
:10009000D1360008D1360008D1360008D136000824
:1000A000D1360008D1360008D1360008D136000814
:1000B000D1360008C90F0008D1360008D136000833
:1000C000D1360008D1360008D1360008D1360008F4
:1000D000D136000845060008D1360008D1360008A0
:1000E000D1360008D1360008D136000800000000E3
:1000F0000000000000000000000000000000000000
:1001000000000000000000005FF808F1224A0388A8
:1001100090429BB212D002F5006290420ED0B0F134
:10012000804F0BD0A2F59832904207D002F5806242
:10013000904203D002F58062904203D14A8823F0B6
:1001400070031343154A904208D002F58062904232
:100150001FBF23F44073CA889BB2134303808B886C
:1001600083850B8803850C4B98420FD003F5006301
:1001700098420BD003F54063984207D003F58063A3
:10018000984203D003F58063984201D10B7A03862D
:1001900001238382704700BF002C01400010004003
:1001A000038C70B523F001031B041B0C0384028C29
:1001B0008688038B0D8823F073031B041B0C1D43DF
:1001C00022F002020C894B881204120C23431343C1
:1001D000144AB6B290429BB20FD002F50062904230
:1001E0000BD002F54062904207D002F58062904247
:1001F00003D002F5806290420ED14C8923F00803AF
:100200001C438B8824F0040426F4407223438E8917
:10021000CC893443224396B2CA888680058382867D
:10022000038470BD002C0140038C30B523F0100313
:100230001B041B0C0384038C8588028B0C8822F41E
:10024000E6421204120C42EA042223F0200394B284
:100250001B040A891B0C43EA02134A88ADB243EA25
:100260000213124A9BB2904203D002F50062904200
:1002700015D123F080034A899BB243EA02124FF65C
:10028000BF7313408A8825F4406543EA02138A89C4
:100290009BB245EA8205CA8945EA8205ADB2CA88A1
:1002A000858004830287038430BD00BF002C014099
:1002B000038C30B523F480731B041B0C0384038C64
:1002C0008488828B0D8822F073021204120C23F4AE
:1002D000007315431B040A891B0C43EA02234A8856
:1002E000A4B243EA0223124A9BB2904203D002F521
:1002F0000062904215D123F400634A899BB243EA1D
:1003000002224FF6FF3313408A8824F4405443EA14
:1003100002238A899BB244EA0214CA8944EA02147D
:10032000A4B2CA88848085838287038430BD00BFDD
:10033000002C0140038819B19BB243F0010303E094
:1003400023F001031B041B0C03807047B0F84430FA
:1003500029B16FEA43436FEA53439BB201E0C3F311
:100360000E03A0F84430704783899BB20AB1194349
:1003700001E023EA010181817047FFF7F5BF038A9D
:10038000828911EA030092B203D0114214BF012006
:1003900000207047C94389B20182704710B5074CED
:1003A00040F22551204603F095FC2046BDE8104060
:1003B000012240F2255103F06BBC00BF0038014020
:1003C00000EB8000430018460138FDD8704738B56F
:1003D000044603F07DFF80B20246002330B10138AD
:1003E00080B2215C2E2908BF0346F7E713B9013A12
:1003F000202010E0013B202182B29A4205DAA55C60
:100400000130302D0AD1A154F6E738BD655C0133C7
:10041000302D03D1605499B29142F7DB38BD030906
:10042000092B00F00F0094BF3033373309280B70CD
:1004300094BF30303730002348708B70704713B54D
:100440000A46044601A9C0B2FFF7E9FF200A114697
:10045000FFF7E5FF9DF8043093709DF80530D370E9
:100460009DF80630137102B010BD13B50A4604465C
:1004700001A9C0B2FFF7D3FF9DF8043001A9937121
:100480009DF80530C4F30720D371FFF7C8FF9DF82E
:10049000043001A913719DF80530C4F3074053716E
:1004A000FFF7BDFF9DF8043001A993709DF805305A
:1004B000200ED370FFF7B3FF9DF8043013709DF842
:1004C000053053700023137202B010BDF8B50D460D
:1004D000069C002121702978752931D16E78632E10
:1004E00001D1017807E0692E01D1018803E06C2E6B
:1004F00040F0A7800168AF78682F17D1632E05D12F
:100500002146BDE8F8400078FFF789BF692E05D184
:100510002146BDE8F8400088FFF791BF6C2E33D12B
:100520002146BDE8F8400068FFF79FBF2B2F2BD175
:1005300011B12770012628E020202070012624E038
:1005400073297ED16978632902D190F9001007E000
:10055000692902D1B0F9001002E06C2971D101685B
:10056000A8782B280AD1002903DA2D202070012633
:1005700008E008BF20202070012606E000294FF087
:10058000000602DA494200E00026174618464FF0FE
:10059000300E002806DA013FBFB2013004F807E050
:1005A00000B2F6E703EAE373134418BF01309BB2CD
:1005B00018BF00B20A274FF02E0C9E4210D2013B0A
:1005C0009BB2C3EB020E86451FBFB1FBF7FE07FBD4
:1005D0001E113031E1540CBF04F803C07146ECE742
:1005E0000023A3547A21284603F0ACFD48B3AB782E
:1005F0002B2B0FD1601CFFF7EAFE204603F068FEAC
:100600000123834205D2E25C202A0BD101339BB245
:10061000F7E7F8BD2046FFF7DAFE204603F058FE64
:1006200001230BE02278234403F8012C20232370BC
:10063000F8BDE25C202AF5D101339BB28342F8D3A6
:10064000F8BDF8BD0A4B1A8892060FD509480A4929
:100650009A88038809880133C3F3080389B28B425F
:1006600018BF0649D2B21CBFCA540380704700BFEE
:1006700000380140BE030020C0030020AF0400206A
:1006800010B504464021054803F01EFB0028F9D0B0
:100690002146024803F014FB012010BD0038014040
:1006A00010B5441E14F8010F10B1FFF7E9FFF9E788
:1006B00010BD000008B54021024803F005FB0028EA
:1006C000F9D008BD00380140044B1888044B80B2B3
:1006D0001B889BB2C01A18BF01207047BE030020C0
:1006E000C003002010B50948094C2188038889B24D
:1006F0009BB29942054AF8D013880133C3F308032B
:1007000013801388034A9BB2D05C10BDC003002045
:10071000BE030020AF04002070B51E468AB00AACAC
:1007200024F81A0D05AD134620460A4600950549E2
:10073000FFF7CCFE2846FFF7B3FF3046FFF7B0FFC8
:100740000AB070BD4644000870B51E468AB00AACB7
:1007500044F81C0D05AD134620460A460095054990
:10076000FFF7B4FE2846FFF79BFF3046FFF798FFE0
:100770000AB070BD4F4400081FB5002300900C2242
:1007800069460848ADF80430ADF80630ADF80830D9
:10079000ADF80A20ADF80C3003F004FA05B05DF8AE
:1007A00004FB00BF003801407FB5284C012144F212
:1007B000050003F02BF94FF40073ADF8003003256A
:1007C0001823694620468DF803308DF8025003F057
:1007D00001F84FF480636946ADF8003020464823A5
:1007E0008DF8033004F540548DF8025002F0F2FF0A
:1007F00002A803F03BFA02A9204603F027FA1448A6
:10080000FFF7BAFF252300258DF8043001260223C7
:1008100001A88DF805308DF806508DF8076003F0BB
:10082000C1FB2A46204640F2255103F031FA20460A
:1008300040F2255103F04EFA064B31461D80064B1F
:1008400020461D8003F018FA04B070BD0008014076
:1008500080841E00C0030020BE03002008B5FFF7FF
:10086000A3FFBDE80840FFF799BD0000034B01223C
:100870001A805A6801325A60704700BF2C0000206D
:100880000B4B0021198059600A4B0B4A1B68F02062
:10089000B3FBF2F34FF47A725343084A013B5360BF
:1008A000074B83F82300072391601360704700BF54
:1008B0002C0000200400002040420F0010E000E067
:1008C00000ED00E02DE9F84F254B264D01281CBF17
:1008D000AA461D46894614462349244A06BF9A461D
:1008E0008846904603F00AFA284603F07FFA042867
:1008F000074630D14FF6FF7BB9F1000F08BF4FF428
:100900007A74013405F1100624F001043444C5EB77
:100910000A0AA64217D0B9F1000F03D13AF806101F
:1009200089B203E0731B4B4433F8101C594501D1C5
:100930000236EEE7B0450DD9304603F011FA04282F
:100940000746F5D007E04FF01131284603F024FAAE
:10095000074600E0802703F0DBF93846BDE8F88F52
:1009600000E0010800E40108FFE70108FFE30108D7
:1009700010B503F0C3F9074803F038FA0428044619
:1009800003D1054803F032FA044603F0C1F92046CA
:1009900010BD00BF00E0010800E401080131C1F30F
:1009A0004F0100239AB291420AD9B3F5FC7F09D0D6
:1009B000054A1A445200128820F813200133F1E747
:1009C000042070478020704708F0000438B50A46BC
:1009D00004460D4601460020FFF774FFC0B204280C
:1009E00001D080B238BD2A4621460120FFF76AFFB8
:1009F000C0B238BD38B5164B1D68D3F80044B5F108
:100A0000113F07D1B4F1113F01D104201DE0621C58
:100A10000ED104E06B1C0BD1B4F1113F08D10022C0
:100A200011460120FFF74EFFC0B204280DD1ECE7BC
:100A3000FFF79EFFC0B2042807D1013504D101346D
:100A400014BF4020202000E0402080B238BD00BF0D
:100A500000E00108014608B5064803F00DFB01213E
:100A6000044803F01AFB0028F9D0024803F006FB03
:100A7000C0B208BD0030014070B50646094C0D46B5
:100A80002046102102F0FDFE46F08000FFF7E2FF55
:100A9000FF20FFF7DFFF10212870204602F0EFFE55
:100AA000012070BD0008014073B516460C460DF1DB
:100AB00007011D46FFF7E0FF0121A01B01FA06F226
:100AC00001309DF80730013A82401A4042FA00F0A6
:100AD000287002B070BD000070B506460D46094C86
:100AE0001021204602F0CDFE06F07F00FFF7B2FF96
:100AF0002846FFF7AFFF2046102102F0C0FE01207C
:100B000070BD00BF00080140F7B517460D461E46F0
:100B100004460DF10701FFF7AFFF012101FA07F2CB
:100B2000E81B0130013A9DF80710824006FA00F0F8
:100B3000C0B221EA02010240114320468DF807109D
:100B4000FFF7CAFF03B0F0BD054AC000138800F0EC
:100B5000380023F038031B041B0C03431380704739
:100B60000030014030B5012189B04FF4805002F0CF
:100B70004DFF0121052002F049FF0121042002F070
:100B800045FF1021364802F07AFE1025032402A901
:100B90003348ADF808508DF80B508DF80A4002F03C
:100BA00019FE29462E4802F06AFEA023ADF808304F
:100BB00002A918232A488DF80B308DF80A4002F05C
:100BC00009FE4023ADF8083002A9482324488DF8D7
:100BD0000B308DF80A4002F0FDFD4FF48273ADF842
:100BE0000E300223ADF812304FF40073ADF816301A
:100BF000382300240125ADF8183003A9072319482C
:100C0000ADF81C30ADF80C40ADF81040ADF8145004
:100C1000ADF81A4003F0FCF92146124803F031FA0E
:100C20002946104803F013FA02210E4803F035FA62
:100C30000028F9D00B4803F021FAADF80600BDF802
:100C4000063009489BB2ADF8063003F0EDF80748CE
:100C500003F0EAF80121084602F0CCFE09B030BDED
:100C600000080140003001401C00024030000240FA
:100C700001231A4607216B20FFF746BF01231A46BE
:100C800003216A20FFF740BF0023012206216B20C9
:100C9000FFF73ABF0346032202216B20FFF734BF60
:100CA00001461920FFF718BF01461920FFF7E4BEDF
:100CB0000346032202211A20FFF726BF0346032220
:100CC00002211A20FFF7F0BE0346022204211B2056
:100CD000FFF71ABF0346022204211B20FFF7E4BEE0
:100CE0000346022204211C20FFF70EBF0346022206
:100CF00004211C20FFF7D8BE10B5044600F00703FE
:100D0000032202211A20FFF7FFFEC4F3011302227F
:100D100001211B20BDE81040FFF7F6BE13B50322EA
:100D200004460DF1060302211A20FFF7BDFE0DF166
:100D30000703022201211B20FFF7B6FE9DF80630B3
:100D400003F00703237002B010BD10B5044600F095
:100D50000703032202211D20FFF7D6FEC4F3001370
:100D6000012203211D20BDE81040FFF7CDBE13B5C1
:100D7000032204460DF1060302211D20FFF794FE15
:100D80000DF10703012203211D20FFF78DFE9DF8C1
:100D900007301B0103F010029DF8063003F0070333
:100DA0001344237002B010BD38B50D4C0025214608
:100DB00075202570FFF760FE01280BD12378682B82
:100DC0000DD0712B08D0122B08D0422B14BF28460F
:100DD000042038BD284638BD022038BD032038BD68
:100DE000A80100202DE9F04180460F4616461D4619
:100DF0000A209DF81840FFF7E3FA4046FFF74AFF44
:100E00003846FFF761FF3046FFF752FF2846FFF7ED
:100E100067FF2046FFF744FFBDE8F041FFF734BF0E
:100E200073B50C460A2016461D46FFF7C9FA0DF1A8
:100E30000700FFF74FFF9DF807300A20A34214BFB9
:100E400002240024FFF7BCFA0DF10700FFF736FF7C
:100E50009DF807300A20B3421CBF44F00404A4B23A
:100E6000FFF7AEFA0DF10700FFF740FF9DF80730DE
:100E70000A20AB4218BF44F00804FFF7A1FA0DF1B5
:100E80000700FFF711FF9DF807209DF818309A42E0
:100E900018BF44F01004204602B070BD2DE9F8439D
:100EA0008146884617461E460A209DF820509DF828
:100EB0002440FFF785FA4846FFF7ECFE4046FFF76F
:100EC00003FF3846FFF718FF3046FFF709FF2846B3
:100ED000FFF73BFF2046FFF7E3FEBDE8F843FFF7CF
:100EE000D3BE73B50C460A2016461D46FFF768FAB6
:100EF0000DF10700FFF7EEFE9DF807300A20A34230
:100F000014BF02240024FFF75BFA0DF10700FFF77E
:100F100005FF9DF807300A20B3421CBF44F00404CB
:100F2000A4B2FFF74DFA0DF10700FFF7DFFE9DF8C1
:100F300007300A20AB4218BF44F00804FFF740FA1C
:100F40000DF10700FFF7B0FE9DF807209DF81C305B
:100F50000A209A4218BF44F01004FFF731FA0DF14D
:100F60000700FFF704FF9DF807209DF818309A420C
:100F700018BF44F02004204602B070BDB0F9002034
:100F8000642353434FF4AA7293FBF2F303F64563D1
:100F900003807047B0F90020642353434FF4AA72D2
:100FA00093FBF2F303F634030380704742F21073AD
:100FB000B0F9002053434FF44F5293FBF2F303F682
:100FC000C413038070470000F8B5354D0221284650
:100FD000FFF7D5F90128074661D102212846FFF71E
:100FE000D9F9304B304C1B88AA8E13449BB2AB8688
:100FF0002688B6B2002E48D0238801339BB22380C6
:1010000023889BB2022B10D88021284802F039FC9B
:10101000274A1388013303F07F0313801388254A7E
:101020009BB2D35C244A1380F8BD23889BB20A2B61
:101030000FD8214C802123881C48DB0702D502F001
:101040001EFC01E002F01DFC2388C3F34E03238045
:10105000F8BD238880219BB20B2B14480BD102F0E2
:101060000EFC164B1A88124B92B21B889BB29A4206
:1010700015D02780F8BD02F002FC0022022128468C
:10108000FFF77BF900232380F8BD8021074802F099
:10109000F6FB324602212846FFF76FF92680F8BD9D
:1010A00000040040BE06002008040020000C01409F
:1010B000BC0300203C0300203C000020A2010020D3
:1010C0001449154A38B50B881288013303F07F03A1
:1010D00092B2934219D0114A114DD0540B80AB8972
:1010E000012413F0020F12D10E4B28461C80AB8C4A
:1010F000022110339BB2AB86FFF74CF928462246FB
:101100000221FFF73AF9204638BD002038BD2046BD
:1011100038BD00BFA2010020BC0300203C0300201A
:101120000004004008040020013938B5451E441869
:10113000A54204D015F8010FFFF7C2FFF8E738BD4C
:10114000024A00231380024A13807047BC03002028
:10115000A2010020B0F5614F124A134B19D0B0F52F
:10116000E13F0DD0B0F5165F13D172B640F24131B8
:10117000118062B672B640F2E2421A8062B67047DF
:1011800072B64521118062B672B654221A8062B6D8
:10119000704772B68B21118062B672B6D0221A8067
:1011A00062B67047BE0600203004002007B5012853
:1011B0004FF08001ADF8041006D10A4802F05FFB41
:1011C00010238DF8073002E000238DF80730032349
:1011D00001A904488DF8063002F0FCFA03B05DF86E
:1011E00004FB00BF000C014030B5012189B008208C
:1011F00002F00CFC0121022002F014FC4FF6FF73F8
:10120000ADF80830234B244A1B68244DB3FBF2F39E
:1012100008A9013B002421F81C3D2846ADF80A40EE
:10122000ADF80640FEF772FF28460121FFF782F86D
:1012300004A92846ADF81040ADF81240ADF81440AE
:10124000ADF81640ADF81840ADF81A40ADF81C40A6
:10125000ADF81E40FEF7A4FF1D238DF800300323D8
:1012600002218DF80130284601238DF803308DF8D6
:101270000240FFF78FF8684602F094FE4FF4E13029
:10128000FFF768FF064B1C80064B1C80064B1C803A
:1012900009B030BD0400002000127A0000040040B4
:1012A000BC030020A2010020080400201FB501217A
:1012B0004FF4006002F0AAFB0023ADF80A30ADF84D
:1012C00006304FF6FF73ADF80830094B094A1B682A
:1012D000094CB3FBF2F304A9013B21F80C3D204675
:1012E000FEF714FF01212046FFF724F804B010BDDB
:1012F0000400002040420F00002C014072B6064B53
:101300009B8C9BB262B6054A91889380994282BFBA
:101310001168013111607047002C0140C4030020A6
:1013200008B50120FFF7C2FF034B00219A8C034B45
:1013300019609A8008BD00BF002C0140C403002042
:1013400007B54FF40073ADF8043018238DF807305B
:1013500001A9032305488DF8063002F03BFA01206D
:10136000FFF72EF803B05DF804FB00BF0008014052
:1013700007B5FFF79FF90120FFF722F84FF400733C
:10138000ADF8043048238DF8073001A90323044841
:101390008DF8063002F01EFA03B05DF804FB00BFC2
:1013A000000801402DE9F04105460C4600F10E0809
:1013B000002615F8017B3846FFF762F9A84586EA52
:1013C0000706F6D12046FFF75BF986EA0400C0B2B3
:1013D000BDE8F041FFF754B92DE9F04106468846D3
:1013E00005460024AB1BDBB2434506D215F8017B52
:1013F0003846FFF745F97C40F4E72046BDE8F04168
:10140000FFF73EB90A4AFF2191800A490023538021
:1014100013809160084A3F219180084953801380CE
:101420009160074A0121918013805380704700BF6B
:101430008801002045000020B00600206C04002038
:10144000C802002008B5074B00221A605A609A6053
:10145000DA601A825A829A82FFF700FABDE80840E1
:10146000FFF7D0BF3404002007B54FF4407002F0FE
:101470008FFD124BE02283F823200121092002F086
:10148000C5FA01210E4802F003FA0823ADF8043032
:10149000102301A90B488DF8073003238DF806307F
:1014A00002F098F9FFF7CEFFFFF762FFFFF738FF72
:1014B000FFF7E6F903B05DF804FB00BF00ED00E0C4
:1014C00000023000000C014008B5114B114C1B68A4
:1014D0001148236002F022F9104802F01FF9104869
:1014E00002F01CF90F4802F00FFB02F017FA0E4B46
:1014F000002018605860986002F030FA012002F075
:101500006AF80A4B186802F063F823689847FEE708
:1015100004F0FF1FC006002000080140000C01403D
:10152000001001400038014010E000E000F0FF1F13
:10153000064A138843B1064B51889B8C5B1A9BB2B9
:10154000642B84BF00231380704700BFCC030020AE
:10155000002C0140034B00221A805A809A80DA80C6
:10156000704700BFCC030020F0B5304B87B09B78AC
:10157000013B032B57D8DFE803F0020C2442FFF7AE
:10158000DFFE2B4B1D782846FFF77AF8294B1C7895
:101590003EE001AEFFF7D4FE10220021304602F0FB
:1015A00083FD00242449304602F034FE2546375D91
:1015B00001343846FFF764F8102C85EA0705F6D1A8
:1015C00016E001AEFFF7BCFE10220021304602F00B
:1015D0006BFD00241949304602F01CFE2546375D9C
:1015E00001343846FFF74CF8102C85EA0705F6D190
:1015F0002846FFF745F8FFF7BBFE012014E0104C2A
:10160000FFF79EFE25782846FFF73AF82488240A3B
:101610002046FFF735F885EA0400FFF731F8FFF7B9
:10162000A7FE012000E0002007B0F0BDAC040020C0
:10163000D0060020C80100200D4500081345000811
:1016400040000020054A00231380D380138153807B
:10165000538193809381024A137070479401002054
:1016600044000020174A002310B51380164A19467B
:101670001380164A1046138002F1C00451809180F5
:1016800022F8061FA2424FF00003F7D1104AC0F81B
:10169000C430136053609360D3601361536153622D
:1016A00093619362D361D36213620A4AC0F8C8306F
:1016B000D380C0F8CC301380138153805381938042
:1016C000938110BD9E020020BC060020CC010020AA
:1016D000D8030020A002002030B508208DB002F011
:1016E0000DFA1021214802F0CCF8214B214D1B8826
:1016F0000021032B0CBF9D23BB231F482B7002F03E
:1017000029FC00211D4802F025FC1D4B00240193FB
:101710000F2304934FF480530A931A4B01A90293A9
:1017200015488023069305940794089409940B9414
:10173000039402F0F1FB102301A9104803930295D2
:10174000069402F0E9FB01210B4802F003FC0121A1
:101750000A4802F0FFFB202002F010FC01220221C7
:10176000054802F002FC0DB030BD00BF000801408A
:101770009E020020CE0200201C00024030000240E9
:101780000C300140A80100202DE9F04F002287B065
:101790000221B94802F0E9FB202002F0EFFB102102
:1017A000B64802F06CF8B64BB64C1D88B64B032D0C
:1017B00059789A7842EA01227BD1D978ADF8142081
:1017C0001A7942EA0122ADF8082059799A7942EA59
:1017D0000122ADF80A20D9791A7A42EA0122ADF83D
:1017E0000C20597A9A7A42EA0122ADF80E20D97A71
:1017F0001A7B42EA0122ADF810205A7B9B7B43EA18
:101800000223ADF812302388012B40F2DA8040F633
:10181000462743F2A746002323809C4B9C4CD3F8D9
:101820001880BDF908C004FB08F2586AD3F800B06C
:10183000604407FB002006FB0B00DA68954DBDF9FC
:101840000AE005FB0200DA69996A6243714407FB0A
:1018500001215A68BDF90CA006FB02111A69D3F8E0
:10186000089005FB0211DA6A4013524401921A6A89
:1018700049135443019AC3F8248007FB024206FB34
:1018800009265A69C3F818C005FB0266DA6976139F
:101890009A625A68C3F80CB01A611A6A1860C3F8E1
:1018A0001CE05960DA62C3F820A0C3F814909E606F
:1018B00087E0D87819795E7941EA00219879DF7953
:1018C00040EA06201E7A022D46EA0726ADF814608B
:1018D0005F7A9E7AADF80A1046EA0726ADF80E60E8
:1018E000DF7A1E7BADF80C0046EA0726ADF81060E3
:1018F0005E7B9B7BADF8082043EA0623ADF81230EF
:1019000013B2019309B200B240F0CC802388012BBE
:101910005E4B09D89D69019AAA4205D1DD69A942A9
:1019200002D1196A88424CD040F6462E43F2A747AE
:10193000D3F81880564D0021218005FB08F15C6A20
:10194000019AD3F800B014440EFB041407FB0B44B7
:10195000D968504EBDF90AC006FB0144D969986A9E
:10196000694360440EFB001059681A6A07FB0100C6
:101970001969554306FB0100BDF90CA0D96AD3F8DB
:10198000089051440EFB015107FB09175A69641373
:1019900006FB0277019A40139A61DA697F139A6213
:1019A0005A68C3F824801A611A6AC3F80CB01C6024
:1019B000C3F81CC05860DA62C3F820A0C3F81490C2
:1019C0009F60354D06262888D5F8C83006FB00569E
:1019D000B6F90420B6F906109A1AD5F8CC30B6F943
:1019E00002702A4C5B1AD5F8C4100130D4F800E01C
:1019F00080B2C91B6768A4680B2888BF00207144A7
:101A00003A442344C5F8C410C5F8C820C5F8CC3002
:101A1000A6F802E0B780F4802880032091FBF0F163
:101A2000B1F5004F92FBF0F293FBF0F304DA1B48A0
:101A30008142B8BF014601E047F6FF71184809B27C
:101A4000B2F5004F0180014604DA14488242B8BF63
:101A5000024601E047F6FF7212B2B3F5004F4A802A
:101A600004DA0E4A9342B8BF134601E047F6FF730B
:101A70001BB28B80C9E000BF1C000240000801407F
:101A80009E020020BC060020A8010020D8030020F0
:101A900035EEFFFF99E8FFFFCC0100200080FFFF3B
:101AA000A0020020012D40F085802388072B6C4B7D
:101AB0000AD89D69019AAA4206D1DD69A94203D1DB
:101AC000196A884200F0A18040F6124540F63419A8
:101AD000D3F800C000212180019A05FB0CF15C6A5B
:101AE000D3F818801444444409FB04145D4ED968AB
:101AF000D3F804B006FB0144BDF90A7005FB0BF1F5
:101B0000986AD3F81CE03844704409FB00101A6945
:101B1000BDF90CA0D96A06FB02001A6A51441144AF
:101B20009A68C3F82480554309FB01555A69C3F8E4
:101B30000CC006FB0255019AC3F828E09A616213B3
:101B40001A6042135A601A6AE412DA629A68B4F5AB
:101B5000004F5A614FEA6532DF61C3F810B0C3F835
:101B600020A09A604FEAE0204FEAE52504DA3E4BD8
:101B70009C42B8BF1C4601E047F6FF743B4B24B2C1
:101B8000B0F5004F1C8004DA374A9042B8BF1046C7
:101B900001E047F6FF7000B2B5F5004F588004DA57
:101BA000314A9542B8BF154601E047F6FF752DB2A0
:101BB0009D802AE0019B89009A00B2F5004F4FEA10
:101BC000800304DA28488242B8BF024601E047F6A3
:101BD000FF72264812B2B1F5004F0280024604DAC5
:101BE00021488142B8BF014601E047F6FF7109B2C2
:101BF000B3F5004F518004DA1B498B42B8BF0B4646
:101C000001E047F6FF731BB29380194A1388013332
:101C10001380164BBDF90E201C46DA80BDF910204A
:101C20001A81BDF912205A81124A128802F0070265
:101C3000042A07D0052A09D0022A0AD105A8FFF7ED
:101C40009DF906E005A8FFF7A5F902E005A8FFF752
:101C5000ADF9BDF91430A38107B0BDE8F08F00BF26
:101C6000D803002051F8FFFF0080FFFFA0020020F2
:101C7000BC06002040000020124B13B51B88DB0679
:101C80001DD501F0F3FE0024092301A88DF80430CE
:101C90008DF8074002F086F9082001F02FFF224658
:101CA0000221094802F061F90C2301A88DF80430E3
:101CB0008DF8074002F076F9202002F05FF902B0BB
:101CC00010BD00BF400000201C000240F0B52B4BAF
:101CD00085B01B88DB064ED50121042001F096FE5D
:101CE000082628230327694625488DF80330ADF8D8
:101CF00000608DF8027001F06DFD3946002001F0A2
:101D0000F7FD002501240DEB060002968DF80C501E
:101D10008DF80D608DF80E4001F0B6FE09238DF8A8
:101D2000043030460B238DF805308DF806508DF8C1
:101D3000074001F0E3FE01A802F034F90C238DF80E
:101D40000430202007238DF805308DF806508DF8DB
:101D5000074002F013F901A802F024F92A460221F3
:101D6000084802F002F9202002F008F9224639461C
:101D7000054802F078F905B0F0BD00BF4000002032
:101D8000000801401C0002400030014008B50A4B29
:101D90001B88DB060FD510213720FEF79DFE0220A1
:101DA000FEF70EFB01213820FEF796FEBDE8084045
:101DB0000220FEF705BB08BD4000002001211120D4
:101DC000FEF78ABE07B50A20FEF7FAFA0DF1070101
:101DD0001320FEF751FE9DF80710132021F0070194
:101DE00041F00501FEF778FE0A20FEF7E9FA0DF151
:101DF00007014C20FEF740FE9DF807104C2041F0F3
:101E00000301FEF769FE0A20FEF7DAFA0DF1070179
:101E10004E20FEF731FE9DF807104E2021F03F01C5
:101E200041F00F01FEF758FE4FF47A70FEF7C8FA42
:101E30000A20FEF7C5FA0DF107014F20FEF71CFE40
:101E40009DF807104F2001F0100141F02301FEF72B
:101E500043FE0A20FEF7B4FA0DF107015020FEF709
:101E60000BFE9DF80710502001F0100141F0030116
:101E7000FEF732FE03B05DF804FB13B50A20FEF74F
:101E80009FFA0DF107011320FEF7F6FD9DF80740BC
:101E90000A20053C18BF0124FEF792FA0DF1070154
:101EA0004C20FEF7E9FD9DF807300A20332B1CBFBC
:101EB00044F00204A4B2FEF783FA0DF107014E20AC
:101EC000FEF7DAFD9DF807300A200F2B18BF44F00B
:101ED0000404FEF775FA0DF107014F20FEF7CCFD63
:101EE0009DF807300A20232B18BF44F00804FEF7A2
:101EF00067FA0DF107015020FEF7BEFD9DF807308F
:101F0000032B18BF44F01004204602B010BD07B5E3
:101F100014200DF10701FEF7AFFD9DF80710142006
:101F200021F0070141F00301FEF7D6FD0DF1070195
:101F30006420FEF7A1FD9DF80710642021F07001D8
:101F400041F06001FEF7C8FD0DF107016520FEF7C5
:101F500093FD9DF80710652021F07F0141F00801F5
:101F6000FEF7BAFD03B05DF804FB0000084B4FF428
:101F700000521A81DA809A8001210022DA819A8146
:101F80005A819A825A821A82DA8219835A80704759
:101F90000E04002038B52222FF21234802F084F8E5
:101FA000FEF728FDC0B204281F4D0AD02222FF21CF
:101FB0001D4802F079F8FEF71DFDC0B204280FD1CC
:101FC00007E022212846FEF7E9FCC0B204280CD025
:101FD000ECE722211448FEF7E1FCC0B2042804D04B
:101FE0002222FF21104802F05FF82B880E4C212B93
:101FF00019D0FFF7BBFF2388202B08D122212046D0
:10200000FEF7CCFC00236380E3820123238321239A
:10201000064907482B8002F0FDF8BDE83840222130
:102020000148FEF7D3BC38BD0E0400201F45000850
:1020300028040020B0F900200E4B22219A80B0F92C
:102040000220DA80B0F904201A81B0F906205A8102
:10205000B0F908209A81B0F90A20DA81B0F90C2091
:102060001A82B0F90E205A82B0F9102018469A82CE
:10207000FEF7ACBC0E04002037B5154D00222846F3
:102080004FF4807101F0FFFB10234FF480748DF842
:10209000073001A90223284605F580658DF8063032
:1020A000ADF8044001F096FB00222146284601F0DD
:1020B000EAFB18238DF8073001A903232846ADF861
:1020C00004408DF8063001F085FB03B030BD00BF41
:1020D00000080140012807B508D1002280210B48E3
:1020E00001F0D1FB18238DF8073002E000238DF8B2
:1020F00007308023ADF8043001A9032303488DF88D
:10210000063001F067FB03B05DF804FB000C0140F2
:10211000012807B509D100224FF480710B4801F066
:10212000B2FB18238DF8073002E000238DF807304A
:102130004FF48073ADF8043001A9022303488DF8F1
:10214000063001F047FB03B05DF804FB00080140D6
:1021500043F67F6230B589B0ADF80820214A2249A4
:1021600012680124B2FBF1F2013A00231F4DADF8D1
:102170000420214660220920ADF80A30ADF806306F
:10218000ADF81020ADF81C30ADF81E30ADF81830A9
:10219000ADF81A30ADF81430ADF81630ADF8124085
:1021A00001F034FC2146042001F03CFC01A9284642
:1021B000FDF7ACFF04A92846FEF736F821460420B7
:1021C00001F024FCFFF710F804A92846FEF770F888
:1021D00021462846FEF7BAF821462846FEF7AAF817
:1021E00009B030BD0400002040420F00000800404C
:1021F00070B50E46224B23490022082EDA811A823E
:102200005A829A815A811A81DA809A8005460A8711
:102210001C4607D30C2E01D9642E03D10020FEF7F3
:10222000C5FF02E00020FFF755FF082D0BD30C2D52
:1022300001D9642D07D10120FEF7B8FFFEF780FF1A
:102240000123E38204E00120FFF744FF0023E3823F
:102250000A2E03D30C2E04D9642E02D00020FFF7DF
:1022600057FF0A2D06D30C2D01D9642D02D101236D
:10227000238370BD0120FFF74BFF0023238370BD34
:10228000AE02002000080040074B00226521DA81E1
:102290001A825A82998259809A80DA801A815A81E8
:1022A0009A81DA821A837047AE0200200A4B5B885B
:1022B000053B072B0AD8DFE803F004090D0D0D0DCF
:1022C0000D0D064B4FF47A721A87704740F2DC52BC
:1022D000024B1A87704700BFAE0200200008004082
:1022E00030B59A4C85B0A38A652B03D1FFF730FF38
:1022F000FFF7C2FE6088A18A944D884205D0FFF79F
:1023000077FFFFF7D3FF6B88AB826388053B072B12
:1023100000F2DF80DFE803F0AF17043B69698585D1
:10232000E388002B00F00581884AD28A002A40F019
:102330000081013B03EB83035B0003F57A73844A5E
:102340009BB21387F5E0A288804B002A00F0F18051
:10235000013A022A7E4D11D0032A0FD0AAB93221A8
:102360005982A521198201224FF480717948DA81BE
:1023700001F089FA4FF4E1632B87DAE0DA81A522D4
:102380001A8240F214532B87D3E00022C8E0A388BE
:102390006E4A002B00F0CD800021D181D28A002A24
:1023A00000F0C780013B022B06D0032B0FD0002B7F
:1023B00040F0BF80684B00E0684B18689B88019034
:1023C000062101A8ADF80830FEF7AEFEB1E0644B7F
:1023D000072118689A889B79019001A8ADF8082018
:1023E0008DF80A30FEF7A0FEA3E0A388574A002B21
:1023F00000F09F800021D181D28A002A00F09980CC
:10240000013B022B04D0032B40F09380554B00E09E
:10241000554B1868042101900DEB0100FEF784FE76
:1024200087E0A388494A002B00F083800021D181F6
:10243000D28A002A7DD0013B022B06D0032B0ED07E
:10244000002B76D101AB494A01E0494A01AB106843
:10245000516803C3082101A8FEF766FE69E0454AFA
:1024600001AB10685168127A03C3092101A81A70E0
:10247000FEF75AFE5DE0A288344B002A59D0D98A73
:10248000002956D1198B002953D1511E002904D09F
:1024900013DB033A012A4CD90FE032215982A521DE
:1024A000012219822B484FF48071DA8101F0EBF997
:1024B000274B4FF4FA621A873BE000224FF48071F9
:1024C0002448E28101F0DFF9214B4FF47A721A8738
:1024D0002FE0A1881D4B61B3DA8A52BB1A8B42BB35
:1024E000013902291A4D11D0032914D0C1B9322162
:1024F0005982A521198201224FF480711548DA8191
:1025000001F0C1F940F29E732B8712E0D98140F2AD
:102510001A432B870DE0D98140F2DC532B8708E06A
:102520004FF480710B48DA8101F0ADF940F2DC53D1
:102530002B87238943B1013B03EB83035B0003F546
:102540007A73034A9BB2938705B030BDAE02002078
:102550000008004000080140DA430008E04300089A
:10256000E6430008F1430008ED430008F543000886
:10257000FD4300080544000807B50F4A5388093B8E
:10258000012B16D85389A3B1D28A92B1013B0B2BF0
:1025900005D00C2B05D00A2B0BD1084B02E0084BC1
:1025A00000E0084B1868042101900DEB0100FEF7D4
:1025B000BBFD03B05DF804FBAE0200200E44000832
:1025C000124400081644000810B5104CE389E3B12A
:1025D000638A0BB1013B6382638A012B05D1002220
:1025E0004FF480710A4801F04EF9238A13B1074A6B
:1025F000013B1382238A012B01D1FFF757FE628A28
:10260000024B12B91A8A02B9DA8110BDAE0200205B
:1026100000080140F7B50121082001F0F7F94FF457
:102620000073ADF8043048238DF8073001A9032367
:1026300042488DF8063001F0CDF80121042001F068
:10264000E5F904230DEB03013D48ADF8043001F03A
:10265000C1F83C4B3C4EDB8A012B69D0022B67D082
:102660000C2B02D10C23338066E0012333804024FD
:102670000025324801F000F9013C820548BF0135D0
:10268000A4B248BFADB2002CF3D1302D1ED80F2D0F
:102690001DD92E4C254648F6B800FDF791FEB4F939
:1026A0000030002B04DA01220821244801F0EBF865
:1026B00048F6B800FDF784FEB5F90030002BEADAE1
:1026C000002208211D4801F0DEF8E4E7012440273C
:1026D00000251B4801F0D0F8013F430748BF0135F2
:1026E000BFB248BFADB2002FF3D1302D1ED80F2D91
:1026F00020D9164C254648F6B800FDF761FEB4F91E
:102700000030002B04DA012208210C4801F0BBF84C
:1027100048F6B800FDF754FEB5F90030002BEADAB0
:1027200000220821054801F0AEF8E4E724B90223AD
:10273000338001E0002C95D103B0F0BD000C0140C6
:10274000000801400E04002042000020000000208C
:1027500008B5FFF71FFCFFF75DFFFEF703FA0A4A13
:102760000620138843F4004343F010031380FEF760
:10277000EBF9FEF767FF054A00231380044A138034
:10278000BDE80840FFF780BD400000203400002075
:102790000C04002030B5394B8BB01C88002C6BD159
:1027A000FEF7E2FE364B9B78302B5AD002D82F2B07
:1027B0002DD061E0762B0AD0772B5DD1FEF7C0FDDE
:1027C00012213048FEF708FEFEF7D2FD54E0234602
:1027D00021462D4D012255F8120901900AA80844FE
:1027E00010F8240C5C5D104218BF44F0800405A86A
:1027F0005200112B1C5492B206D0802A02BF013124
:1028000089B201220133E9E7FFF714FC34E01F4BE2
:10281000DB8A8BB31E4D214635F80D390122ADF808
:10282000143023460AAC0C4414F8144C585D14427E
:1028300018BF40F0800001AC52000C2B185592B22A
:1028400006D0802A02BF013189B201220133E9E7B3
:102850009DF804100C290FD80DF10500FEF764FC5B
:102860000AE00AAD05F8144DFEF76AFD112128466D
:10287000FEF7B2FDFEF77CFD0BB030BD0A04002070
:10288000AC0400201204002057010020AE020020FA
:10289000520100200E4B1B88CBB90E4B5B78072BE7
:1028A00015D10D4A0D4B1178198011F0400F517858
:1028B00004D0927859819A81FFF75EBE5980917851
:1028C0009980D1781279D9801A81FFF709BD7047B4
:1028D0000A040020AC04002045010020AE020020C4
:1028E0001D4B10B51B881B0634D572B61B4A1C4BFA
:1028F000114603F10C0053F8044B834242F8044B99
:10290000F9D11B88138062B6164B0D221A70164A35
:10291000128812F0020F1A4619D00B884FF67D71FB
:1029200003F5FF433F339BB28B420C480DD84388DD
:1029300003F5FF433F339BB28B4206D8838803F5F0
:10294000FF433F339BB28B4201D905231370074BE2
:1029500001221A8010BD00BFD00600209401002083
:10296000A00200204400002040000020340000208D
:1029700008B5074B1B881B0603D5064B1B88012B8C
:1029800004D0FEF75FFE044B01221A70072008BD39
:10299000D0060020340000204400002008B5044B7D
:1029A00004481978FEF7FEFC034B00221A8008BD8C
:1029B000440000209401002034000020024B00223B
:1029C0001A805A809A807047F002002008B5FDF7FF
:1029D00089FE064B99884A1C92B2382A19449A807B
:1029E000887184BF38229A8008BD00BFF0020020A1
:1029F0000A2801D03B2807D1044B00219A880120E6
:102A00001A4491719980704700207047F0020020AD
:102A1000044A00239380044A044813805380FDF73E
:102A20003FBE00BFC4060020F0020020244500087D
:102A300038B5054601F04CFC29460246084801F02D
:102A400075FC044648B92846FDF72AFE0548FDF7FF
:102A500027FE054B01209C7138BD002038BD00BF0A
:102A6000F602002057450008F002002010B5074884
:102A7000FDF716FE0648FDF713FEBDE810400548B9
:102A8000054B00220E21C068FDF75EBE27450008F9
:102A900037450008340400205745000870B5374812
:102AA000374C384DFDF7FCFD3748FDF7F9FD2B4657
:102AB00000220521B4F90000FDF72EFE3348344E04
:102AC000FDF7EEFD2B4600220521B4F91600FDF7B7
:102AD00023FE3048FDF7E4FD3346B4F9040000223C
:102AE0000821FDF719FE3346B4F90600002208213B
:102AF000FDF712FE2B4600220821B4F90800FDF76D
:102B00000BFE2548FDF7CCFD3346B4F90A00002240
:102B10000821FDF701FE3346B4F90C00002208211C
:102B2000FDF7FAFD2B4600220821B4F90E00FDF74F
:102B3000F3FD1A48FDF7B4FD3346B4F91000002246
:102B40000821FDF7E9FD3346B4F9120000220821FF
:102B5000FDF7E2FD2B4600220821B4F91400FDF731
:102B6000DBFD0F48FDF79CFD2B46B4F91800002251
:102B70000521BDE87040FDF7CFBD00BF3D45000811
:102B80000E040020574500085A4500086345000818
:102B90007A4500086E4500087E4500088A45000811
:102BA000964500082DE9F843FEF7CAFB8348FDF778
:102BB00077FD834B1B88022B07D00C2B09D0012BF0
:102BC0000AD18048FDF76CFD06E07F48FDF768FDFF
:102BD00002E07E48FDF764FD7D48FDF761FDFFF7EB
:102BE000EDFEFFF715FF4FF6FF737A4E0022082126
:102BF0007948002533802F4600F045FEDFF8348207
:102C0000764A13889BB2002BFBD0744B744C002285
:102C100001371A802760B8F80290B9F1000F04D08C
:102C2000002D40F0B780C725EAE7FDF74DFD0028ED
:102C3000F6D0FFF7CBFEFFF7DBFE0028EBD06948AC
:102C4000FFF7F6FE38B1684B0122A3F80090674BFE
:102C50001A80BDE8F8836648FFF7EAFE18B1FFF76F
:102C600005FFFFF7D5FE6348FFF7E2FE20B1012321
:102C7000E3802381FFF7CCFE5F48FFF7D9FE28B140
:102C80000223E38001232381FFF7C2FE5B48FFF7A5
:102C9000CFFE28B10323E38001232381FFF7B8FE91
:102CA0005748FFF7C5FE28B10423E38001232381A1
:102CB000FFF7AEFE5348FFF7BBFE28B12221524872
:102CC000FDF76CFEFFF7A4FE5048FFF7B1FE28B1F8
:102CD00022214D48FDF77AFEFFF79AFE4C48FFF798
:102CE000A7FE18B1FFF7DAFEFFF792FE4948FFF79B
:102CF0009FFE20B1444B0122DA82FFF789FE46484D
:102D0000FFF796FE20B1404B0222DA82FFF780FEE9
:102D10004248FFF78DFE20B13B4B0C22DA82FFF7D1
:102D200077FE3F48FFF784FE20B1374B0022DA825E
:102D3000FFF76EFE3B48FFF77BFE20B1324B0122CE
:102D40001A83FFF765FE3848FFF772FE20B12E4B5D
:102D500000221A83FFF75CFE3448FFF769FE58B182
:102D6000294B4FF400521A81DA809A800022DA81CE
:102D70009A815A81FFF74CFE2D48FFF759FE002833
:102D80003FF449AF204B00229A825A821A82FFF701
:102D90003FFE40E7013DADB2002D7FF431AFB6F903
:102DA0000030002BBFF62CAF0B4AD368DB4303F097
:102DB000080343F40023136122E700BFA74500087E
:102DC00042000020CE450008D64500081145000805
:102DD0005745000800000020000C01402C00002096
:102DE000C4060020B94500080A0400209C02002007
:102DF000BC450008C8450008D0450008D845000873
:102E0000E0450008E84500080E040020F1450008F0
:102E1000F7450008004600080A4600081446000866
:102E20001E460008244600082F4600083A460008BF
:102E300041460008F002002043B270B5002B8B4CD5
:102E4000BCBF002222802288052A00F20D81DFE823
:102E500012F0060042005F008E00B100D000D028C2
:102E600024D0902829D0002B80F2FE80804A00F0E8
:102E70000F03158800F07000AB4240F0DC807D4904
:102E8000C2B2FF26102A0A704B708E7015D008D877
:102E9000002A40F0D08002232380774B9B8C6380F4
:102EA00070BD302A10D0502A40F0C580734B0022EC
:102EB0001A80734B01221A8070BD704B00221A8059
:102EC0006F4B04221A8070BD6C4B00221A806C4B31
:102ED00005221A8070BDE3886A4AD0540133A08865
:102EE0009BB28342E380C0F0A280002319465D1CA0
:102EF000DBB2834203D2D35C59402B46F7E75F4BEA
:102F000000221A805E4A0320108000294FD048E03A
:102F1000584B2F28987018D004D80138032823D88C
:102F2000002317E0762806D077284FF0000311D051
:102F3000302819D10EE0032323801723A380002318
:102F4000E3804D4B9B8C638070BD03232380102353
:102F5000A380F4E7494A23801380494A0221464B63
:102F600011809B8C638070BD0023238070BDE3883B
:102F7000444AD0540133A0889BB28342E38056D3A5
:102F8000002319465D1CDBB2834203D2D35C594057
:102F90002B46F7E7394B00221A80394A022010806D
:102FA00029B101221A80384AD3680133D360002343
:102FB00023803CE0E388042B37D8DFE803F0030DDF
:102FC00010131600512802D1052222802DE0462838
:102FD0002BD00022228028E04C28FAD125E041287D
:102FE000F7D122E05328F4D11FE04828F1D1FEF7B1
:102FF0006BFAE388042B17D8DFE803F003080B0E05
:103000001100512810D0002323800DE04D28FAD163
:103010000AE04F28F7D107E04428F4D104E045281E
:10302000F1D1FFF7BFFDEEE7E3880133E380124BF8
:103030009B8C638070BD072B0CD10E49C2B2FF265A
:10304000402A0A704B708E7004D10123238006231E
:10305000A38074E7702807D1064A9D42537000D0C0
:1030600013B9042323806AE770BD00BFCC0300209E
:1030700042000020AC040020002C01400A04002083
:103080009C02002045010020340400202DE9F04F6F
:1030900085B0BB4EFEF7E8F9B6F90030B246002B1A
:1030A00004DA00220821B74800F0EDFBDFF8F482D3
:1030B000B54CB64DDFF8F0B2DFF8F092B44F002215
:1030C000A8F80020A9F800202A80ABF80020628030
:1030D0002280A2803A800392FFF73AFBFEF73AFA89
:1030E0004FF400432B804FF6FF73039A0821A54845
:1030F000338000F0C8FBB6F90030CDF80C80002B0F
:10310000D84604DA012208219E4800F0BCFB0026C4
:10311000FDF7DAFA18B1FDF7E5FAFFF78DFEFEF7D5
:1031200007FAB8F800309BB2013B062B2ED8DFE837
:1031300003F004080D12172027000023ABF800301D
:10314000A7E7FFF727FBA8F800601FE0FFF7A2FB47
:10315000A8F800601AE0FFF7C3FBA8F8006015E0CC
:10316000FEF7EEF8039B1E80FFF702FCA8F80000B4
:103170000CE0039B1E80FFF7FBFBA8F8000005E0B6
:10318000FFF70CFCFEF7F4F8A8F80060814B1B88F1
:103190009BB2002BBCD07F4A00231380FEF7AEF811
:1031A000BAF90000002879DD7B4B7B4A1B88B0F51B
:1031B000FA7F03F101039BB21380164662D1774A6E
:1031C00011880C295ED8012202FA01F111F4825F04
:1031D0002CD111F0240F14D111F0120F52D0B3F5ED
:1031E000FA7F03D10821674800F04DFB3388B3F51F
:1031F0007A7F53D3002208216248328000F043FBDB
:103200004CE0B3F5FA7F03D108215E4800F03BFBA8
:103210003388B3F52F7F04D100220821594800F0EC
:1032200032FB3388B3F5487FE0D125E0B3F5FA7F70
:1032300003D10821534800F026FB3388B3F5167FED
:1032400004D1002208214F4800F01DFB3388B3F55C
:103250002F7F04D1012208214A4800F014FB338853
:10326000B3F5487F04D100220821464800F00BFB4B
:103270003388B3F5617FB9D101220821414800F0BC
:1032800002FBB3E7834209DB3E4A00233380D36865
:10329000DB4303F0080343F4002313612B883B4A0C
:1032A000591E012940F2898123F4FE4189B2B1F50A
:1032B000004F56D01CD80C2900F0B5800CD803293B
:1032C0007DD002D800294FD077E10A2900F087800D
:1032D0000B2900F0998070E10E2900F0EC80C0F01D
:1032E000B1800F2900F00F81102900F04E8164E1B8
:1032F00048F20B00814200F0878011D848F20200AA
:10330000814255D034D348F20300814257D048F26D
:103310000A00814240F05181C3F30E0313805EE046
:1033200048F20E00814200F0C0800FD848F20C0035
:10333000814278D048F20D00814240F03E81C3F3D3
:103340000E031380164B00221A807BE048F20F0018
:10335000814200F0D58048F21000814200F00381E4
:103360002BE13223AAF8003048F20A032B8024E133
:10337000C3F30E0313804FF4FA73AAF800301CE174
:1033800000000020000C014036000020C801002091
:10339000400000202C0000203E00002042000020C1
:1033A0000C0400200A0400209C020020D00600200B
:1033B000C3F30E0313806423AAF80030FDE0A38852
:1033C000228801339BB29A42A38080F0F6807C4B26
:1033D0005B886FEA43436FEA53432B80EDE0FEF7CF
:1033E0004BFCFEF73FF90620FDF7AEFBFDF740FC76
:1033F000FEF7E4FC0023A380642323800B23638077
:1034000048F203032B80D8E0C3F30E032B80FDF7B3
:103410003BFC0023A380012323800C23638048F21C
:1034200003032B80C9E0C3F30E032B80FDF726FCBA
:103430000023A380012323800D23638048F203032C
:103440002B80BAE0FDF7B0FC3B8880B223F4A37375
:1034500023F001039BB25B4A3B80D0B104285A4958
:1034600007D143F4B27343F00103138003230B80AD
:103470000BE0022817BF43F4817343F4A273138057
:10348000012306BF138008800B8048F20E032B80B7
:1034900093E04E4A138801339BB2192B138040F2FC
:1034A0008C8048F202032B8087E0C3F30E03138065
:1034B000464B00221A803B8803F00703052B02D1FC
:1034C000FEF780FC12E0042B4FF0000208D110231D
:1034D00000930323019202211846FDF7DFFC05E06B
:1034E0000323009202211846FDF77CFC0023A380F1
:1034F000642323800F23638048F203032B805CE066
:10350000C3F30E0313803B8803F00703052B02D19E
:10351000FEF7B3FC12E0042B4FF0000208D1102399
:1035200000930323019202211846FDF7DAFC05E01F
:103530000323009202211846FDF772FC48B9B9F83E
:10354000003043F08003A9F8003048F210032B80CC
:1035500033E01E4A0E232B80138801339BB20A2BC3
:1035600013809ED829E0C3F30E0313803B8803F039
:103570000703052B02D1FEF7CAFC01E0FEF706FCAB
:10358000FEF7A4FB0120FDF7DFFAB9F800304FF495
:10359000967203F080039BB243B10023A380012302
:1035A000638048F2030322802B8006E0A38002237D
:1035B000638048F2030322802B80FFF705F8A6E51D
:1035C00036000020400000209E0200200C04002055
:1035D00080F30888704780F310887047384B82B0BA
:1035E0001A6842F001021A605968364A0A405A6065
:1035F0001A6822F0847222F480321A601A6822F467
:1036000080221A605A6822F4FE025A604FF41F02A8
:103610009A600022009201921A6842F480321A6085
:103620001A6802F400320192009A01320092019A63
:103630001AB9009AB2F5A06FF2D11A6812F40032EA
:1036400018BF01220192019A012A05D01E4B4FF0AA
:1036500000629A6002B070471C4A116841F0100184
:103660001160116821F003011160116841F002013D
:1036700011605A685A605A685A605A6842F4806207
:103680005A605A6822F47C125A605A6842F4E8126E
:103690005A601A6842F080721A601968084A8901F3
:1036A000FBD5516821F003015160516841F00201DE
:1036B00051605A6802F00C02082AFAD1C6E700BF2E
:1036C000001002400000FFF800ED00E00020024082
:1036D000FEE7000008B50C4A0C4B0D498B4204D2A2
:1036E00052F8040F43F8040BF8E70A480A494FF070
:1036F00000028842B8BF40F8042BFADBFFF76EFFE8
:10370000BDE80840FFF7C2BC4846000800000020A2
:103710002C0000202C000020D406002008B5264BE9
:10372000984206D10121042000F088F900210420EC
:103730003CE0224B984206D10121082000F07EF99E
:103740000021082032E01E4B984206D101211020B2
:1037500000F074F90021102028E01A4B984206D19D
:103760000121202000F06AF9002120201EE0164BE4
:10377000984206D10121402000F060F9002140204C
:1037800014E0124B984206D10121802000F056F936
:10379000002180200AE00E4B98420BD101214FF40A
:1037A000807000F04BF900214FF48070BDE80840B4
:1037B00000F044B908BD00BF00080140000C014002
:1037C000001001400014014000180140001C01409D
:1037D00000200140CA782DE9F041D40648BF8C781A
:1037E0000E8802F00F0348BF234316F0FF0F1ED0D0
:1037F000016800244FF0010E4FF00F0C0EFA04F791
:1038000037EA06050FD1A5000CFA05F821EA0801F0
:1038100003FA05F5282A41EA050101D1476102E0D2
:10382000482A08BF07610134082CE7D10160FF2E48
:1038300020D9416800244FF0010E4FF00F0C04F125
:1038400008050EFA05F535EA06070FD1A7000CFAB0
:1038500007F821EA080103FA07F7282A41EA0701D5
:1038600001D1456102E0482A08BF05610134082CF6
:10387000E5D14160BDE8F081806880B270470161A8
:103880007047416170470AB10161704741617047FB
:103890000028164A30B500F44015B4BFD369536808
:1038A000B5F5401F84B206D1556823F0706325F04A
:1038B000706555600EE0C20255BF420D0322120131
:1038C000C0F303454CBFAA4004FA02F223EA020304
:1038D00043F0706319B1420D120194402343034A2F
:1038E0000028B4BFD361536030BD00BF0000014069
:1038F00001F0030301F0FC0101F1804101F5803189
:1039000010B59B008C680F229A4024EA02028A605C
:103910008A6898401043886010BD00000D4B1A68FB
:1039200042F001021A6059680B4A0A405A601A684C
:1039300022F0847222F480321A601A6822F4802203
:103940001A605A6822F4FE025A604FF41F029A600D
:10395000704700BF001002400000FFF8034A5368A0
:1039600023F0030318435060704700BF001002406B
:103970001C4A10B5536803F00C03042B01D0082B2C
:1039800001D0194B0EE053685168C3F38343CC0355
:1039900003F1020302D55168890301D5134900E000
:1039A00011494B43036053681149C3F30313CC5CC3
:1039B0000368E34043605468C4F302240C5D23FAB7
:1039C00004F484605468C4F3C2240C5DE340C36013
:1039D0005268C2F381320A44127CB3FBF2F30361F2
:1039E00010BD00BF0010024000127A0000093D0027
:1039F00018000020044B5A6909B1104301E022EA83
:103A000000005861704700BF00100240044B9A69E3
:103A100009B1104301E022EA00009861704700BF3D
:103A200000100240044BDA6909B1104301E022EAB8
:103A30000000D861704700BF00100240044BDA68F4
:103A400009B1104301E022EA0000D860704700BFCE
:103A500000100240044B1A6909B1104301E022EA48
:103A600000001861704700BF00100240044B0022A4
:103A70001A605A609A60DA60024A5A61704700BF61
:103A800000040140FFFF0F00827970B501680379DF
:103A900042B3CE43184A03F18043156803F58233DD
:103AA000354015605468344054601C6821431960E7
:103AB00001689468CD432C409460D3682B40D36058
:103AC0004379102B06D193680B439360D368194355
:103AD000D16070BD03F1804303F582331A6811434E
:103AE000196070BD03F1804303F582331A6822EA3E
:103AF00001021A6070BD00BF00040140014B586113
:103B0000704700BF0004014008B5214B98420BD11B
:103B100001214FF48040FFF791FFBDE808400021EC
:103B20004FF48040FFF78ABF1A4B984208D1012119
:103B30004FF40030FFF78EFF00214FF4003022E0F9
:103B4000154B984208D101214FF48020FFF782FFE6
:103B500000214FF4802016E0104B984208D101213B
:103B60004FF40020FFF776FF00214FF400200AE019
:103B70000B4B98420BD101214FF48010FFF76AFFE5
:103B800000214FF48010BDE80840FFF763BF08BD77
:103B9000003801400044004000480040004C004014
:103BA0000050004070B50E460446038ACA889BB296
:103BB00023F440531343038282898988338992B264
:103BC0000B43718922F4B0520B4322F00C021343D1
:103BD0009BB28381838AB2899BB223F4407386B0FF
:103BE0001343838201A8FFF7C3FE174A039B049D7A
:103BF0003168944218BF1D4619226A43A38964267E
:103C000013F4004F14BF4D008D00B2FBF5F5B5FB6A
:103C1000F6F0A28900010109120406FB115307D531
:103C2000D9003231B1FBF6F202F00702104306E090
:103C30001A013232B2FBF6F303F00F03184380B2DD
:103C4000208106B070BD00BF003801404B8810B520
:103C50000C88028A23438C88C98892B223430B4381
:103C600022F4706213439BB2038210BD00230380D1
:103C700043808380C3807047838919B19BB243F42A
:103C8000005303E023F400531B041B0C8381704793
:103C9000012310B5C1F342149C4201F01F0103FA45
:103CA00001F101D10C3003E0022C0CBF10301430B4
:103CB00003680AB1194301E023EA0101016010BD64
:103CC000C1F30801818070470388194214BF0120A5
:103CD00000207047090A012303FA01F1C94389B2A0
:103CE00001807047034B044A5A6002F188325A60DF
:103CF000704700BF0020024023016745FFF7F2BF75
:103D0000024A136943F080031361704700200240A8
:103D1000FFF7F6BF084BDA68D10709D4DA68520713
:103D200008D4DB6813F0100F14BF03200420704781
:103D300001207047022070470020024010B5044661
:103D4000FFF7E8FF012806D11CB1FFF7E3FF013CB4
:103D5000F8E7052010BD002C08BF052010BD0000AD
:103D600070B505464FF400500E46FFF7E7FF0428F4
:103D70000ED1084C4FF40050236943F00103236136
:103D80002E80FFF7DBFF41F6FE73226913402361AB
:103D900070BD00BF0020024073B5002306464FF4FB
:103DA00000500D460193FFF7C9FF04281AD10E4CAD
:103DB0004FF40050236943F001032361ABB2338019
:103DC000FFF7BCFF042808D102360196019B2D0C99
:103DD0001D804FF40050FFF7B1FF41F6FE732269DA
:103DE0001340236102B070BD0020024038B5054683
:103DF0004FF43020FFF7A2FF042812D1094C4FF4F2
:103E00003020236943F0020323616561236943F095
:103E100040032361FFF792FF41F6FD7322691340CF
:103E2000236138BD002002404FF6FE730268134044
:103E300003600023036043608360C360284B9842A3
:103E400001D1284A27E0284B984201D1254A2AE08F
:103E5000264B984201D1234A2DE0254B984201D1AF
:103E6000204A30E0234B984201D11E4A33E0224BD6
:103E7000984204D11B4A536843F470032EE01F4B51
:103E8000984204D1174A536843F0706326E01C4BF4
:103E9000984204D11B4A536843F00F031EE01A4BAB
:103EA000984204D1174A536843F0F00316E0174BC9
:103EB000984204D1134A536843F470630EE0144BE4
:103EC000984204D10F4A536843F4704306E0114B03
:103ED000984204D10B4A536843F4702353607047EF
:103EE00008000240000002401C0002403000024076
:103EF00044000240580002406C0002408000024032
:103F000008040240000402401C0402403004024045
:103F100044040240580402400A6A10B58C680368E1
:103F200014430A6923F4FF4314434A6923F07003DE
:103F300014438A691443CA6914434A6A14438A6A57
:103F4000224313430360CB6843600B6883604B6874
:103F5000C36010BD19B1036843F0010303E04FF6DD
:103F6000FE73026813400360704703680AB1194387
:103F700001E023EA0101016070470000C3004CBF6B
:103F8000014B024B586070470004024000000240A1
:103F900040F0BF60024B40F40030D860704700BF73
:103FA00000ED00E0C27810B503780AB3164A03F1B9
:103FB0006043D1684278C943C1F30221C1F10404CE
:103FC00002FA04F40F22CA40817803F561430A40E3
:103FD00022431201D2B283F8002303780122590947
:103FE00003F01F0302FA03F3084A42F8213010BD20
:103FF0005A09012103F01F0301FA03F30349203298
:1040000041F8223010BD00BF00ED00E000E100E00B
:1040100003880A8810B503F441544B8813438A88F7
:104020001343CA8813430A8913434A8913438A896D
:104030001343CA89134323439BB20380838B23F426
:1040400000631B041B0C83830B8A038210BD03884F
:1040500019B19BB243F0400303E023F040031B047B
:104060001B0C0380704783889BB20AB1194301E09F
:1040700023EA01018180704781817047808980B285
:104080007047038819B19BB243F4005303E023F453
:1040900000531B041B0C038070470389194214BF93
:1040A000012000207047000070B4840746D0541EE1
:1040B000002A41D0CDB2034602E0621EE4B31446AA
:1040C00003F8015B9A07F8D1032C2ED9CDB245EA4B
:1040D00005250F2C45EA054519D9264603F110029E
:1040E000103E0F2E42F8105C42F80C5C42F8085C5F
:1040F00042F8045C02F11002F2D8A4F1100222F09E
:104100000F0204F00F041032032C13440DD91E4685
:104110002246043A032A46F8045BFAD8221F22F00A
:1041200003020432134404F003042CB1C9B21C444A
:1041300003F8011BA342FBD170BC70471446034631
:10414000C2E700BF70B411F0FF0434D085070FD070
:104150000378002B5AD09C422BD0431C05E013F867
:10416000012B002A4FD0944223D09A071846F6D14B
:104170000E0206F47F462643036846EA064601E03F
:1041800050F8043F86EA0305A5F10132A3F101319D
:1041900022EA050221EA0303134313F0803FEFD024
:1041A000037823B932E010F8013F002B2ED09C4257
:1041B000F9D170BC704784070BD00378002BF8D07E
:1041C000431C03E002780133002AF2D09907184615
:1041D000F8D10268A2F1013323EA020313F0803F11
:1041E00008D150F8042FA2F1013323EA020313F09F
:1041F000803FF6D00378002BDBD010F8013F002B76
:10420000FBD170BC7047104670BC7047184670BC3C
:10421000704700BF80EA0102844612F0030F4FD1BD
:1042200011F0030F32D14DF8044D11F0040F51F885
:10423000043B0BD0A3F101329A4312F0803F04BF3C
:104240004CF8043B51F8043B16D100BF51F8044B25
:10425000A3F101329A4312F0803FA4F101320BD155
:104260004CF8043BA24312F0803F04BF51F8043BDA
:104270004CF8044BEAD023460CF8013B13F0FF0F37
:104280004FEA3323F8D15DF8044B704711F0010F6A
:1042900006D011F8012B0CF8012B002A08BF70473B
:1042A00011F0020FBFD031F8022B12F0FF0F16BF32
:1042B0002CF8022B8CF8002012F47F4FB3D17047FA
:1042C00011F8012B0CF8012B002AF9D1704700BF1F
:1042D00020F0030110F00300C0F1000051F8043B8E
:1042E00000F1040C4FEACC0C6FF000021CBF22FA64
:1042F0000CF213434FF0010C4CEA0C2C4CEA0C4C22
:10430000A3EB0C0222EA030212EACC1204BF51F81A
:10431000043B0430F4D0C2F1000102EA0102B2FA17
:1043200082F2C2F11F0200EBD2007047002A3FD098
:1043300040EA010313F00303F0B425D1032A23D983
:1043400004680D68AC421FD1043A33D0A4F10135A2
:1043500025EA040414F0803F2FD1071D0D1D0DE048
:1043600057F8043B0E68A3F10134B34224EA030476
:104370000AD1043A1ED014F0803F21D1032A2946E5
:10438000384605F10405EBD803780C78013A9C42D5
:104390000BD17AB114B915E062B173B110F8013FD5
:1043A00011F8014F013AA342F6D0181BF0BC704738
:1043B000104670471046F0BC70471846F0BC704776
:1043C0000020F3E72046F1E72D00002000002E003A
:1043D0000030000000020201000173686F6F740D6D
:1043E0007265636F6E0D7265636F66660DCC010357
:1043F00098CC0104CC736875747465720A7669642C
:10440000656F6F6E0A766964656F6F66660ACC01C8
:104410000032CC0101E7CC01024D746F6F206C615A
:1044200072676520776964746800746F6F206C61CF
:1044300072676520707265636973696F6E00302EF4
:1044400030002D00450073692B7A0073692B0073CF
:104450006C2B7A006D707520617420535049204F89
:104460004B0A007563006D707520535220006D700B
:104470007520415220006D707520444C504620003C
:104480006D707520475220004D5055363035302C18
:1044900020004D5055363030302C20004D505539CD
:1044A0003235302C200049434D32303630322C200A
:1044B000004F56455253414D504C45442C20004628
:1044C000415354204759524F2C2000464153542009
:1044D0004143432C20004759524F2046494C5445F4
:1044E000522C20004143432046494C5445522C2035
:1044F00000544C4535303132420041533530343868
:104500004100504F5441444335002D200076302E59
:104510003433004343334420463130334342006553
:104520006E6458003E20004E542042757320457240
:10453000726F72730D0A006372633A2000506172E9
:10454000616D65746572732073746F726564206940
:104550006E2053657475700D0A004C61796F757427
:104560003A20004D6F64756C6549643A20004163E0
:10457000635363616C653A202000202C2000416366
:10458000635A65726F3A202020004779726F536337
:10459000616C653A20004170706C794163634669D3
:1045A0006C7465723A20000D0A48656C6C6F2C20A3
:1045B0004920616D20494D55004051006E7462756F
:1045C000736572726F72730073747265616D31001E
:1045D00073747265616D320073747265616D33005E
:1045E00073747265616D34007265747269657665A5
:1045F0000073746F7265006765747365747570001D
:104600007365746964696D75310073657469646993
:104610006D7532007365746964696D753300636C20
:104620007269640073657461636366696C740063C6
:104630006C7261636366696C7400636C726163635E
:0946400000636C726779726F006F
:10464C00FFFF000000A24A04000000000000000070
:10465C00010203040607080900000000010203041C
:0C466C0001020304060708090204060806
:0400000508000000EF
:00000001FF
