:020000040800F2
:10000000A00B0020653A0008613A0008613A000838
:10001000613A0008613A0008613A000800000000F7
:10002000000000000000000000000000613A00082D
:10003000613A000800000000613A00085D0800080D
:10004000613A0008613A0008613A0008613A000824
:10005000613A0008613A0008D9190008613A0008BD
:10006000613A0008613A0008613A0008613A000804
:10007000891A0008613A0008613A0008613A0008EC
:10008000613A0008613A0008613A0008613A0008E4
:10009000613A0008613A0008613A0008613A0008D4
:1000A000613A0008613A0008613A0008613A0008C4
:1000B000613A000819100008613A0008613A000826
:1000C000613A0008613A0008613A0008613A0008A4
:1000D000613A000835060008613A0008613A0008F4
:1000E000B90F0008613A0008613A000800000000FA
:1000F0000000000000000000000000000000000000
:1001000000000000000000005FF808F1224A0388A8
:1001100090429BB212D002F5006290420ED0B0F134
:10012000804F0BD0A2F59832904207D002F5806242
:10013000904203D002F58062904203D14A8823F0B6
:1001400070031343154A904208D002F58062904232
:100150001FBF23F44073CA889BB2134303808B886C
:1001600083850B8803850C4B98420FD003F5006301
:1001700098420BD003F54063984207D003F58063A3
:10018000984203D003F58063984201D10B7A03862D
:1001900001238382704700BF002C01400010004003
:1001A000038C70B523F001031B041B0C0384028C29
:1001B0008688038B0D8823F073031B041B0C1D43DF
:1001C00022F002020C894B881204120C23431343C1
:1001D000144AB6B290429BB20FD002F50062904230
:1001E0000BD002F54062904207D002F58062904247
:1001F00003D002F5806290420ED14C8923F00803AF
:100200001C438B8824F0040426F4407223438E8917
:10021000CC893443224396B2CA888680058382867D
:10022000038470BD002C0140038C30B523F0100313
:100230001B041B0C0384038C8588028B0C8822F41E
:10024000E6421204120C42EA042223F0200394B284
:100250001B040A891B0C43EA02134A88ADB243EA25
:100260000213124A9BB2904203D002F50062904200
:1002700015D123F080034A899BB243EA02124FF65C
:10028000BF7313408A8825F4406543EA02138A89C4
:100290009BB245EA8205CA8945EA8205ADB2CA88A1
:1002A000858004830287038430BD00BF002C014099
:1002B000038C30B523F480531B041B0C0384038C84
:1002C0008488828B0D8822F4E6421204120C23F4F7
:1002D000005342EA05221B040D891B0C43EA053337
:1002E0004D88A4B243EA05330A4D92B2A8429BB2AC
:1002F00003D005F50065A84205D18D8924F480441A
:1003000044EA8514A4B284808283CA88A0F840207D
:10031000038430BD002C0140038819B19BB243F027
:10032000010303E023F001031B041B0C038070474F
:10033000B0F8443029B16FEA43436FEA53439BB2AC
:1003400001E0C3F30E03A0F84430704783899BB2E9
:100350000AB1194301E023EA010181817047FFF7E7
:10036000F5BF038A828911EA030092B203D01142D9
:1003700014BF012000207047C94389B20182704731
:1003800080F30888704780F31088704710B5074CD9
:1003900040F22551204603F065FE2046BDE810409E
:1003A000012240F2255103F03BBE00BF003801405E
:1003B00000EB8000430018460138FDD8704738B57F
:1003C000044604F04DF980B20246002330B10138F2
:1003D00080B2215C2E2908BF0346F7E713B9013A22
:1003E000202010E0013B202182B29A4205DAA55C70
:1003F0000130302D0AD1A154F6E738BD655C0133D8
:10040000302D03D1605499B29142F7DB38BD030916
:10041000092B00F00F0094BF3033373309280B70DD
:1004200094BF30303730002348708B70704713B55D
:100430000A46044601A9C0B2FFF7E9FF200A1146A7
:10044000FFF7E5FF9DF8043093709DF80530D370F9
:100450009DF80630137102B010BD13B50A4604466C
:1004600001A9C0B2FFF7D3FF9DF8043001A9937131
:100470009DF80530C4F30720D371FFF7C8FF9DF83E
:10048000043001A913719DF80530C4F3074053717E
:10049000FFF7BDFF9DF8043001A993709DF805306A
:1004A000200ED370FFF7B3FF9DF8043013709DF852
:1004B000053053700023137202B010BDF8B50D461D
:1004C000069C002121702978752931D16E78632E20
:1004D00001D1017807E0692E01D1018803E06C2E7B
:1004E00040F0A7800168AF78682F17D1632E05D13F
:1004F0002146BDE8F8400078FFF789BF692E05D195
:100500002146BDE8F8400088FFF791BF6C2E33D13B
:100510002146BDE8F8400068FFF79FBF2B2F2BD185
:1005200011B12770012628E020202070012624E048
:1005300073297ED16978632902D190F9001007E010
:10054000692902D1B0F9001002E06C2971D101686B
:10055000A8782B280AD1002903DA2D202070012643
:1005600008E008BF20202070012606E000294FF097
:10057000000602DA494200E00026174618464FF00E
:10058000300E002806DA013FBFB2013004F807E060
:1005900000B2F6E703EAE373134418BF01309BB2DD
:1005A00018BF00B20A274FF02E0C9E4210D2013B1A
:1005B0009BB2C3EB020E86451FBFB1FBF7FE07FBE4
:1005C0001E113031E1540CBF04F803C07146ECE752
:1005D0000023A3547A21284603F07CFF48B3AB786C
:1005E0002B2B0FD1601CFFF7EAFE204604F038F8F1
:1005F0000123834205D2E25C202A0BD101339BB256
:10060000F7E7F8BD2046FFF7DAFE204604F028F8A9
:1006100001230BE02278234403F8012C20232370CC
:10062000F8BDE25C202AF5D101339BB28342F8D3B6
:10063000F8BDF8BD0A4B1A8892060FD509480A4939
:100640009A88038809880133C3F3080389B28B426F
:1006500018BF0649D2B21CBFCA540380704700BFFE
:100660000038014082030020840300207705002029
:1006700010B504464021054803F0EEFC0028F9D0EF
:100680002146024803F0E4FC012010BD003801407F
:1006900010B5441E14F8010F10B1FFF7E9FFF9E798
:1006A00010BD000008B54021024803F0D5FC002829
:1006B000F9D008BD00380140044B1888044B80B2C3
:1006C0001B889BB2C01A18BF01207047820300200C
:1006D0008403002010B50948094C2188038889B299
:1006E0009BB29942054AF8D013880133C3F308033B
:1006F00013801388034A9BB2D05C10BD8403002092
:10070000820300207705002070B51E468AB00AAC2F
:1007100024F81A0D05AD134620460A4600950549F2
:10072000FFF7CCFE2846FFF7B3FF3046FFF7B0FFD8
:100730000AB070BDD647000870B51E468AB00AAC34
:1007400044F81C0D05AD134620460A4600950549A0
:10075000FFF7B4FE2846FFF79BFF3046FFF798FFF0
:100760000AB070BDDF4700081FB5002300900C22BF
:1007700069460848ADF80430ADF80630ADF80830E9
:10078000ADF80A20ADF80C3003F0D4FB05B05DF8ED
:1007900004FB00BF003801407FB5284C012144F222
:1007A000050003F0FBFA4FF40073ADF800300325A9
:1007B0001823694620468DF803308DF8025003F067
:1007C000D1F94FF480636946ADF8003020464823E4
:1007D0008DF8033004F540548DF8025003F0C2F94F
:1007E00002A803F00BFC02A9204603F0F7FB144813
:1007F000FFF7BAFF252300258DF8043001260223D8
:1008000001A88DF805308DF806508DF8076003F0CB
:1008100091FD2A46204640F2255103F001FC204676
:1008200040F2255103F01EFC064B31461D80064B5D
:1008300020461D8003F0E8FB04B070BD00080140B5
:1008400080841E00840300208203002008B5FFF787
:10085000A3FFBDE80840FFF799BD0000034B01224C
:100860001A805A6801325A60704700BF2C0000207D
:100870000B4B0021198059600A4B0B4A1B68F02072
:10088000B3FBF2F34FF47A725343084A013B5360CF
:10089000074B83F82300072391601360704700BF64
:1008A0002C0000200400002040420F0010E000E077
:1008B00000ED00E02DE9F84F254B264D01281CBF27
:1008C000AA461D46894614462349244A06BF9A462D
:1008D0008846904603F0DAFB284603F04FFC0428D4
:1008E000074630D14FF6FF7BB9F1000F08BF4FF438
:1008F0007A74013405F1100624F001043444C5EB88
:100900000A0AA64217D0B9F1000F03D13AF806102F
:1009100089B203E0731B4B4433F8101C594501D1D5
:100920000236EEE7B0450DD9304603F0E1FB04286E
:100930000746F5D007E04FF01131284603F0F4FBED
:10094000074600E0802703F0ABFB3846BDE8F88F90
:1009500000F0000800F40008FFF70008FFF30008AB
:1009600010B503F093FB074803F008FC0428044685
:1009700003D1054803F002FC044603F091FB204636
:1009800010BD00BF00F0000800F400080131C1F301
:100990004F0100239AB291420AD9B3F5FC7F09D0E6
:1009A000054A1A445200128820F813200133F1E757
:1009B00004207047802070470878000438B50A4644
:1009C00004460D4601460020FFF774FFC0B204281C
:1009D00001D080B238BD2A4621460120FFF76AFFC8
:1009E000C0B238BD38B5164B1D68D3F80044B5F118
:1009F000113F07D1B4F1113F01D104201DE0621C69
:100A00000ED104E06B1C0BD1B4F1113F08D10022D0
:100A100011460120FFF74EFFC0B204280DD1ECE7CC
:100A2000FFF79EFFC0B2042807D1013504D101347D
:100A300014BF4020202000E0402080B238BD00BF1D
:100A400000F00008014608B5064803F0DDFC01216E
:100A5000044803F0EAFC0028F9D0024803F0D6FC71
:100A6000C0B208BD0030014070B50646094C0D46C5
:100A70002046102103F0CDF846F08000FFF7E2FF9A
:100A8000FF20FFF7DFFF10212870204603F0BFF89A
:100A9000012070BD0008014073B516460C460DF1EB
:100AA00007011D46FFF7E0FF0121A01B01FA06F236
:100AB00001309DF80730013A82401A4042FA00F0B6
:100AC000287002B070BD000070B506460D46094C96
:100AD0001021204603F09DF806F07F00FFF7B2FFDB
:100AE0002846FFF7AFFF2046102103F090F80120C1
:100AF00070BD00BF00080140F7B517460D461E4601
:100B000004460DF10701FFF7AFFF012101FA07F2DB
:100B1000E81B0130013A9DF80710824006FA00F008
:100B2000C0B221EA02010240114320468DF80710AD
:100B3000FFF7CAFF03B0F0BD054AC000138800F0FC
:100B4000380023F038031B041B0C03431380704749
:100B50000030014030B5012189B04FF4805003F0DE
:100B60001DF90121052003F019F90121042003F0EA
:100B700015F91021364803F04AF81025032402A97C
:100B80003348ADF808508DF80B508DF80A4002F04C
:100B9000E9FF29462E4803F03AF8A023ADF80830C3
:100BA00002A918232A488DF80B308DF80A4002F06C
:100BB000D9FF4023ADF8083002A9482324488DF816
:100BC0000B308DF80A4002F0CDFF4FF48273ADF880
:100BD0000E300223ADF812304FF40073ADF816302A
:100BE000382300240125ADF8183003A9072319483C
:100BF000ADF81C30ADF80C40ADF81040ADF8145015
:100C0000ADF81A4003F0CCFB2146124803F001FC7A
:100C10002946104803F0E3FB02210E4803F005FCCF
:100C20000028F9D00B4803F0F1FBADF80600BDF841
:100C3000063009489BB2ADF8063003F0BDFA07480C
:100C400003F0BAFA0121084603F09CF809B030BD60
:100C500000080140003001401C000240300002400A
:100C600001231A4607216B20FFF746BF01231A46CE
:100C700003216A20FFF740BF0023012206216B20D9
:100C8000FFF73ABF0346032202216B20FFF734BF70
:100C900001461920FFF718BF01461920FFF7E4BEEF
:100CA0000346032202211A20FFF726BF0346032230
:100CB00002211A20FFF7F0BE0346022204211B2066
:100CC000FFF71ABF0346022204211B20FFF7E4BEF0
:100CD0000346022204211C20FFF70EBF0346022216
:100CE00004211C20FFF7D8BE10B5044600F007030E
:100CF000032202211A20FFF7FFFEC4F30113022290
:100D000001211B20BDE81040FFF7F6BE13B50322FA
:100D100004460DF1060302211A20FFF7BDFE0DF176
:100D20000703022201211B20FFF7B6FE9DF80630C3
:100D300003F00703237002B010BD10B5044600F0A5
:100D40000703032202211D20FFF7D6FEC4F3001380
:100D5000012203211D20BDE81040FFF7CDBE13B5D1
:100D6000032204460DF1060302211D20FFF794FE25
:100D70000DF10703012203211D20FFF78DFE9DF8D1
:100D800007301B0103F010029DF8063003F0070343
:100D90001344237002B010BD38B50D4C0025214618
:100DA00075202570FFF760FE01280BD12378682B92
:100DB0000DD0712B08D0122B08D0422B14BF28461F
:100DC000042038BD284638BD022038BD032038BD78
:100DD000AC0100202DE9F04180460F4616461D4625
:100DE0000A209DF81840FFF7E3FA4046FFF74AFF54
:100DF0003846FFF761FF3046FFF752FF2846FFF7FE
:100E000067FF2046FFF744FFBDE8F041FFF734BF1E
:100E100073B50C460A2016461D46FFF7C9FA0DF1B8
:100E20000700FFF74FFF9DF807300A20A34214BFC9
:100E300002240024FFF7BCFA0DF10700FFF736FF8C
:100E40009DF807300A20B3421CBF44F00404A4B24A
:100E5000FFF7AEFA0DF10700FFF740FF9DF80730EE
:100E60000A20AB4218BF44F00804FFF7A1FA0DF1C5
:100E70000700FFF711FF9DF807209DF818309A42F0
:100E800018BF44F01004204602B070BD2DE9F843AD
:100E90008146884617461E460A209DF820509DF838
:100EA0002440FFF785FA4846FFF7ECFE4046FFF77F
:100EB00003FF3846FFF718FF3046FFF709FF2846C3
:100EC000FFF73BFF2046FFF7E3FEBDE8F843FFF7DF
:100ED000D3BE73B50C460A2016461D46FFF768FAC6
:100EE0000DF10700FFF7EEFE9DF807300A20A34240
:100EF00014BF02240024FFF75BFA0DF10700FFF78F
:100F000005FF9DF807300A20B3421CBF44F00404DB
:100F1000A4B2FFF74DFA0DF10700FFF7DFFE9DF8D1
:100F200007300A20AB4218BF44F00804FFF740FA2C
:100F30000DF10700FFF7B0FE9DF807209DF81C306B
:100F40000A209A4218BF44F01004FFF731FA0DF15D
:100F50000700FFF704FF9DF807209DF818309A421C
:100F600018BF44F02004204602B070BDB0F9002044
:100F7000642353434FF4AA7293FBF2F303F64563E1
:100F800003807047B0F90020642353434FF4AA72E2
:100F900093FBF2F303F634030380704742F21073BD
:100FA000B0F9002053434FF44F5293FBF2F303F692
:100FB000C413038070470000124B1A68D0041DD57B
:100FC0005969C9041AD54FF4805122F480525961ED
:100FD0000D481A600D4A918C0088014489B211872E
:100FE0000B49012008800B49002008804FF6FB7157
:100FF0001182918989B241F0040191814FF48052AC
:101000005A61704700040140F804002000040040C9
:10101000A201002086070020F8B55E4D0221284677
:10102000FFF79FF90128074665D102212846FFF7FF
:10103000A3F9594B594C1B88AA8E13449BB2AB861B
:101040002688B6B2002E4BD0238801339BB2238072
:1010500023889BB2022B11D84FF40061504802F054
:10106000D8FD504A1388013303F03F0313801388DF
:101070004D4A9BB2D35C4D4A13803CE023889BB21F
:101080000A2B10D8494C4FF4006123884448DD07EF
:1010900002D502F0BCFD01E002F0BBFD2388C3F3E2
:1010A0004E03238027E023884FF400619BB20B2B73
:1010B0003B480BD102F0ABFD3D4B1A88394B92B245
:1010C0001B889BB29A4216D0278014E002F09FFD45
:1010D000002202212846FFF742F9002323800AE07C
:1010E0004FF400612E4802F092FD3246022128465C
:1010F000FFF735F92680274C04212046FFF731F908
:10110000012845D104212046FFF736F9224B1B88E0
:10111000228F13449BB22387264B1A8892B2002A4F
:1011200028D01A8892B2082A24D81A88013292B29A
:101130001A80214A1188C1F34E011180184989682B
:10114000C90441BF118889B241F0800111801B8818
:101150009BB2082B1CD91948194903880988013307
:10116000DBB289B28B4213D012881649D2B2CA546C
:101170000380F8BD0F4D0022042106481B88124C45
:10118000FFF7EDF800232B80236843F4805323609E
:10119000F8BD00BF0004004088070020CE040020F6
:1011A0000008014080030020400300203C00002094
:1011B000A4010020A201002086070020D404002002
:1011C000CC04002086030020000401401449154A85
:1011D00038B50B881288013303F03F0392B2934273
:1011E00019D0114A114DD0540B80AB89012413F052
:1011F000020F12D10E4B28461C80AB8C02211033FB
:101200009BB2AB86FFF7B8F8284622460221FFF7CB
:10121000A6F8204638BD002038BD204638BD00BFA6
:10122000A4010020800300204003002000040040AF
:10123000CE040020013938B5451E4418A54204D01B
:1012400015F8010FFFF7C2FFF8E738BD024A002387
:101250001380024A1380704780030020A4010020FD
:10126000044B1888044B80B21B889BB2C01A18BF6D
:1012700001207047D4040020CC040020044A1388C5
:101280000133DBB213801388024A9BB2D05C7047F3
:10129000CC04002086030020024A00231380024A67
:1012A00013807047CC040020D4040020B0F5614FB7
:1012B000124A134B19D0B0F5E13F0DD0B0F5165FCF
:1012C00013D172B640F24131118062B672B640F26B
:1012D000E2421A8062B6704772B64521118062B64A
:1012E00072B654221A8062B6704772B68B21118092
:1012F00062B672B6D0221A8062B6704788070020A4
:10130000F804002007B501284FF40061ADF804107F
:1013100006D10A4802F07BFC10238DF8073002E06A
:1013200000238DF80730032301A904488DF8063007
:1013300002F018FC03B05DF804FB00BF0008014098
:1013400007B54FF480530128ADF804300CBF482393
:1013500000238DF8073001A9032304488DF80630D7
:1013600002F000FC03B05DF804FB00BF0008014080
:10137000044B01281A680CBF42F4805222F48052B8
:101380001A6070470004014070B501218AB0042042
:1013900002F004FD0121042002F000FD01210220E1
:1013A00002F008FD4FF6FF73ADF810303E4B3F4A98
:1013B0001B683F4EB3FBF2F30AA9013B002421F85E
:1013C0001C3D3046ADF81240ADF80E40FEF79EFED3
:1013D00030460121FEF7A0FF06A93046ADF81840BF
:1013E000ADF81A40ADF81C40ADF81E40ADF82040F5
:1013F000ADF82240ADF82440ADF82640FEF7D0FE0F
:1014000006A93046FEF710FF1D2301258DF8003098
:101410003046032302218DF801308DF802408DF80B
:101420000350FEF7A9FF04213046FEF7A5FF6846EA
:1014300002F080FF2946284602F0B0FC0C2120462D
:1014400002F01EFC4FF480560C2301A88DF80930E1
:1014500001968DF808408DF80A5002F0DDFC204618
:10146000FFF786FF282330468DF800308DF80150B5
:101470008DF802408DF8035002F008FD684602F036
:1014800059FF4FF4E130FFF711FF0A4B1C800A4B64
:101490001C800A4B1C800A4B1C800A4B1C800A4B88
:1014A0001C800AB070BD00BF0400002000127A004A
:1014B0000004004080030020A4010020CE0400208E
:1014C000CC040020D4040020A20100201FB501217B
:1014D000042002F06FFC0023ADF80A30ADF80630AE
:1014E0004FF6FF73ADF80830094B0A4A1B680A4CE7
:1014F000B3FBF2F304A9013B21F80C3D2046FEF7B3
:1015000005FE01212046FEF707FF04B010BD00BF15
:101510000400002040420F000008004072B6064B55
:101520009B8C9BB262B6054A91889380994282BF98
:1015300011680131116070470008004088040020E4
:1015400008B50120FFF7C2FF034B00219A8C034B23
:1015500019609A8008BD00BF000800408804002080
:10156000F7B518230124164D02AE8DF8073001217E
:10157000032304208DF8063002F010FC26F8044DF9
:101580003146284602F0EEFA00222146284602F0B3
:1015900042FB2146052002F001FC2146094802F0E9
:1015A0003FFB4FF4004731462846ADF8047002F087
:1015B000D9FA22463946284602F02DFB03B0F0BD89
:1015C000000801400002300010B50E4C0122114607
:1015D000204602F020FB00224FF40041204602F09A
:1015E0001AFB00BF00BF00BF00BF00BF00BF00BFAD
:1015F00000BF00BF00BF00BF00BF00BF00BF00BFF3
:1016000010BD00BF0008014010B5074C0022204665
:10161000012102F000FB2046BDE8104001224FF4FA
:10162000004102F0F8BA00BF0008014007B54FF4CE
:101630000073ADF8043018238DF8073001A9032397
:1016400005488DF8063002F08DFA0120FEF7B0FE55
:1016500003B05DF804FB00BF0008014007B5FFF7C9
:1016600021F80120FEF7A4FE4FF40073ADF804301A
:1016700048238DF8073001A9032304488DF806306C
:1016800002F070FA03B05DF804FB00BF00080140EF
:101690002DE9F04105460C4600F10E08002615F82C
:1016A000017B3846FEF7E4FFA84586EA0706F6D137
:1016B0002046FEF7DDFF86EA0400C0B2BDE8F04137
:1016C000FEF7D6BF2DE9F0410646884605460024C0
:1016D000AB1BDBB2434506D215F8017B3846FEF75B
:1016E000C7FF7C40F4E72046BDE8F041FEF7C0BFED
:1016F0000A4AFF2191800A49002353801380916098
:10170000084A3F2191800849538013809160074A1D
:101710000121918013805380704700BF8801002011
:10172000470000207807002034050020CC0200206C
:1017300008B5FFF715FF074B00221A605A609A6040
:10174000DA601A825A829A82FFF780F8BDE8084070
:10175000FFF7CEBFFC04002007B54FF4407002F045
:10176000DFFD114BE02283F823200121082002F045
:1017700015FB0223ADF80430102301A90B488DF8A6
:10178000073003238DF8063002F0ECF9FFF7D0FFA5
:10179000FFF73AFFFFF762FFFFF7D2FEFFF768F8A7
:1017A00003B05DF804FB00BF00ED00E0000C014059
:1017B00008B5114B114C1B681148236002F076F9F3
:1017C000104802F073F9104802F070F90F4802F067
:1017D00063FB02F06BFA0E4B0020186058609860B3
:1017E00002F084FA0120FEF7CEFD0A4B1868FEF7DE
:1017F000C7FD23689847FEE704F0FF1F8C07002011
:1018000000080140000C0140001001400038014078
:1018100010E000E000F0FF1F064A138843B1064BBA
:1018200051889B8C5B1A9BB2642B84BF002313806E
:10183000704700BF9004002000080040034B0022C6
:101840001A805A809A80DA80704700BF9004002086
:10185000F0B5364B87B09B78013B032B63D8DFE8AC
:1018600003F0020E284AFFF7E1FEFFF7ADFE304B12
:101870001D782846FEF7FCFE2E4B1C7846E001AE94
:10188000FFF7D4FEFFF7A0FE10220021304602F041
:10189000D3FD00242849304602F084FE2546375DFA
:1018A00001343846FEF7E4FE102C85EA0705F6D130
:1018B00018E001AEFFF7BAFEFFF786FE1022002106
:1018C000304602F0B9FD00241C49304602F06AFEA1
:1018D0002546375D01343846FEF7CAFE102C85EAEE
:1018E0000705F6D12846FEF7C3FEFFF78DFEFFF78A
:1018F000B5FE012018E0124CFFF798FEFFF764FEDA
:1019000025782846FEF7B4FE2488240A2046FEF7F0
:10191000AFFE85EA0400FEF7ABFEFFF775FEFFF7AA
:101920009DFE012000E0002007B0F0BD74050020FE
:101930009C070020CC0100209D480008A348000817
:1019400040000020054A00231380D3801381538078
:10195000538193809381024A137070479401002051
:1019600046000020174A002310B51380164A194676
:101970001380164A1046138002F1C00451809180F2
:1019800022F8061FA2424FF00003F7D1104AC0F818
:10199000C430136053609360D3601361536153622A
:1019A00093619362D361D36213620A4AC0F8C8306C
:1019B000D380C0F8CC30138013815380538193803F
:1019C000938110BDA202002084070020D0010020D6
:1019D0009C040020A402002030B501208DB002F04C
:1019E00055FA1021214802F014F9214B214D1B8892
:1019F0000021032B0CBF9D23BB231F482B7002F03B
:101A000071FC00211D4802F06DFC1D4B0024019368
:101A10000F2304934FF480530A931A4B01A90293A6
:101A200015488023069305940794089409940B9411
:101A3000039402F039FC102301A910480393029586
:101A4000069402F031FC01210B4802F04BFC01210D
:101A50000A4802F047FC202002F058FC0122022133
:101A6000054802F04AFC0DB030BD00BF000801403F
:101A7000A2020020D20200201C00024030000240DE
:101A80000C300140AC0100202DE9F04F002287B05E
:101A90000221B94802F031FC202002F037FC10216D
:101AA000B64802F0B4F8B64BB64C1D88B64B032DC1
:101AB00059789A7842EA01227BD1D978ADF814207E
:101AC0001A7942EA0122ADF8082059799A7942EA56
:101AD0000122ADF80A20D9791A7A42EA0122ADF83A
:101AE0000C20597A9A7A42EA0122ADF80E20D97A6E
:101AF0001A7B42EA0122ADF810205A7B9B7B43EA15
:101B00000223ADF812302388012B40F2DA8040F630
:101B1000462743F2A746002323809C4B9C4CD3F8D6
:101B20001880BDF908C004FB08F2586AD3F800B069
:101B3000604407FB002006FB0B00DA68954DBDF9F9
:101B40000AE005FB0200DA69996A6243714407FB07
:101B500001215A68BDF90CA006FB02111A69D3F8DD
:101B6000089005FB0211DA6A4013524401921A6A86
:101B700049135443019AC3F8248007FB024206FB31
:101B800009265A69C3F818C005FB0266DA6976139C
:101B90009A625A68C3F80CB01A611A6A1860C3F8DE
:101BA0001CE05960DA62C3F820A0C3F814909E606C
:101BB00087E0D87819795E7941EA00219879DF7950
:101BC00040EA06201E7A022D46EA0726ADF8146088
:101BD0005F7A9E7AADF80A1046EA0726ADF80E60E5
:101BE000DF7A1E7BADF80C0046EA0726ADF81060E0
:101BF0005E7B9B7BADF8082043EA0623ADF81230EC
:101C000013B2019309B200B240F0CC802388012BBB
:101C10005E4B09D89D69019AAA4205D1DD69A942A6
:101C200002D1196A88424CD040F6462E43F2A747AB
:101C3000D3F81880564D0021218005FB08F15C6A1D
:101C4000019AD3F800B014440EFB041407FB0B44B4
:101C5000D968504EBDF90AC006FB0144D969986A9B
:101C6000694360440EFB001059681A6A07FB0100C3
:101C70001969554306FB0100BDF90CA0D96AD3F8D8
:101C8000089051440EFB015107FB09175A69641370
:101C900006FB0277019A40139A61DA697F139A6210
:101CA0005A68C3F824801A611A6AC3F80CB01C6021
:101CB000C3F81CC05860DA62C3F820A0C3F81490BF
:101CC0009F60354D06262888D5F8C83006FB00569B
:101CD000B6F90420B6F906109A1AD5F8CC30B6F940
:101CE00002702A4C5B1AD5F8C4100130D4F800E019
:101CF00080B2C91B6768A4680B2888BF00207144A4
:101D00003A442344C5F8C410C5F8C820C5F8CC30FF
:101D1000A6F802E0B780F4802880032091FBF0F160
:101D2000B1F5004F92FBF0F293FBF0F304DA1B489D
:101D30008142B8BF014601E047F6FF71184809B279
:101D4000B2F5004F0180014604DA14488242B8BF60
:101D5000024601E047F6FF7212B2B3F5004F4A8027
:101D600004DA0E4A9342B8BF134601E047F6FF7308
:101D70001BB28B80C9E000BF1C000240000801407C
:101D8000A202002084070020AC0100209C04002057
:101D900035EEFFFF99E8FFFFD00100200080FFFF34
:101DA000A4020020012D40F085802388072B6C4B76
:101DB0000AD89D69019AAA4206D1DD69A94203D1D8
:101DC000196A884200F0A18040F6124540F63419A5
:101DD000D3F800C000212180019A05FB0CF15C6A58
:101DE000D3F818801444444409FB04145D4ED968A8
:101DF000D3F804B006FB0144BDF90A7005FB0BF1F2
:101E0000986AD3F81CE03844704409FB00101A6942
:101E1000BDF90CA0D96A06FB02001A6A51441144AC
:101E20009A68C3F82480554309FB01555A69C3F8E1
:101E30000CC006FB0255019AC3F828E09A616213B0
:101E40001A6042135A601A6AE412DA629A68B4F5A8
:101E5000004F5A614FEA6532DF61C3F810B0C3F832
:101E600020A09A604FEAE0204FEAE52504DA3E4BD5
:101E70009C42B8BF1C4601E047F6FF743B4B24B2BE
:101E8000B0F5004F1C8004DA374A9042B8BF1046C4
:101E900001E047F6FF7000B2B5F5004F588004DA54
:101EA000314A9542B8BF154601E047F6FF752DB29D
:101EB0009D802AE0019B89009A00B2F5004F4FEA0D
:101EC000800304DA28488242B8BF024601E047F6A0
:101ED000FF72264812B2B1F5004F0280024604DAC2
:101EE00021488142B8BF014601E047F6FF7109B2BF
:101EF000B3F5004F518004DA1B498B42B8BF0B4643
:101F000001E047F6FF731BB29380194A138801332F
:101F10001380164BBDF90E201C46DA80BDF9102047
:101F20001A81BDF912205A81124A128802F0070262
:101F3000042A07D0052A09D0022A0AD105A8FFF7EA
:101F400015F806E005A8FFF71DF802E005A8FFF761
:101F500025F8BDF91430A38107B0BDE8F08F00BFAC
:101F60009C04002051F8FFFF0080FFFFA402002026
:101F70008407002040000020124B13B51B88DB06AD
:101F80001DD501F03BFF0024062301A88DF8043085
:101F90008DF8074002F0CEF9012001F077FF2246CC
:101FA0000221094802F0A9F90C2301A88DF8043098
:101FB0008DF8074002F0BEF9202002F0A7F902B028
:101FC00010BD00BF400000201C0002407FB52A4B1E
:101FD0001B88DB064ED50121082001F0DFFE01241D
:101FE00028230326694625488DF80330ADF80040C4
:101FF0008DF8026001F0B6FD0021204601F040FEA0
:10200000082300250DEB03008DF80D3002948DF8A8
:102010000C508DF80E4001F0FFFE06238DF80430C1
:1020200020460B238DF805308DF806508DF80740BB
:1020300001F02CFF01A802F07DF90C238DF804308B
:10204000202007238DF805308DF806508DF80740C5
:1020500002F05CF901A802F06DF92A460221084855
:1020600002F04BF9202002F051F922463146054892
:1020700002F0C1F904B070BD40000020000C014026
:102080001C0002400030014008B50A4B1B88DB06EB
:102090000FD510213720FEF717FD0220FEF788F933
:1020A00001213820FEF710FDBDE808400220FEF7B0
:1020B0007FB908BD4000002001211120FEF704BDBA
:1020C00007B50A20FEF774F90DF107011320FEF79A
:1020D000CBFC9DF80710132021F0070141F005010A
:1020E000FEF7F2FC0A20FEF763F90DF107014C2020
:1020F000FEF7BAFC9DF807104C2041F00301FEF7F3
:10210000E3FC0A20FEF754F90DF107014E20FEF71B
:10211000ABFC9DF807104E2021F03F0141F00F016C
:10212000FEF7D2FC4FF47A70FEF742F90A20FEF770
:102130003FF90DF107014F20FEF796FC9DF80710BF
:102140004F2001F0100141F02301FEF7BDFC0A20F1
:10215000FEF72EF90DF107015020FEF785FC9DF8E2
:102160000710502001F0100141F00301FEF7ACFC14
:1021700003B05DF804FB13B50A20FEF719F90DF161
:1021800007011320FEF770FC9DF807400A20053C6C
:1021900018BF0124FEF70CF90DF107014C20FEF7E2
:1021A00063FC9DF807300A20332B1CBF44F0020467
:1021B000A4B2FEF7FDF80DF107014E20FEF754FC26
:1021C0009DF807300A200F2B18BF44F00404FEF7D7
:1021D000EFF80DF107014F20FEF746FC9DF80730A0
:1021E0000A20232B18BF44F00804FEF7E1F80DF194
:1021F00007015020FEF738FC9DF80730032B18BF6D
:1022000044F01004204602B010BD07B514200DF1B3
:102210000701FEF729FC9DF80710142021F00701A3
:1022200041F00301FEF750FC0DF107016420FEF7B9
:102230001BFC9DF80710642021F0700141F0600143
:10224000FEF742FC0DF107016520FEF70DFC9DF83D
:102250000710652021F07F0141F00801FEF734FCF2
:1022600003B05DF804FB0000084B4FF400521A81E4
:10227000DA809A8001210022DA819A815A819A8239
:102280005A821A82DA8219835A807047D604002053
:1022900038B52222FF21234802F0CEF8FEF7A2FB38
:1022A000C0B204281F4D0AD02222FF211D4802F08F
:1022B000C3F8FEF797FBC0B204280FD107E0222134
:1022C0002846FEF763FBC0B204280CD0ECE72221BD
:1022D0001448FEF75BFBC0B2042804D02222FF2181
:1022E000104802F0A9F82B880E4C212B19D0FFF7CB
:1022F000BBFF2388202B08D122212046FEF746FB76
:1023000000236380E38201232383212306490748B6
:102310002B8002F047F9BDE8384022210148FEF742
:102320004DBB38BDD6040020AF480008F0040020A3
:10233000B0F900200E4B22219A80B0F90220DA80F9
:10234000B0F904201A81B0F906205A81B0F90820AA
:102350009A81B0F90A20DA81B0F90C201A82B0F91A
:102360000E205A82B0F9102018469A82FEF726BB3A
:10237000D604002013B5144C00222046082101F099
:102380004AFC0823ADF8043010238DF8073001A96A
:10239000022320468DF8063001F0E4FB002220469F
:1023A0004FF4807101F037FC4FF48073ADF80430C6
:1023B00018238DF8073001A9032320468DF8063035
:1023C00001F0D0FB02B010BD00080140012807B5A4
:1023D00008D1002204210B4801F01DFC18238DF8C0
:1023E000073002E000238DF807300423ADF80430F5
:1023F00001A9032303488DF8063001F0B3FB03B0B5
:102400005DF804FB00080140012807B508D100224F
:1024100008210B4801F0FFFB18238DF8073002E07C
:1024200000238DF807300823ADF8043001A90223FA
:1024300003488DF8063001F095FB03B05DF804FB0E
:102440000008014043F67F6210B588B0ADF808205F
:10245000234A244912680124B2FBF1F2013A002315
:10246000ADF80420214660220520ADF80A30ADF811
:102470000630ADF81020ADF81C30ADF81E30ADF8C8
:102480001830ADF81A30ADF81430ADF81630ADF89C
:10249000124001F083FC2146204601F08BFC01A98B
:1024A0004FF08040FDF732FE04A94FF08040FDF769
:1024B000FFFE2146042001F071FCFEF765FF04A930
:1024C0000948FDF76DFE21464FF08040FDF730FFD3
:1024D00021464FF08040FDF71FFF08B010BD00BF40
:1024E0000400002040420F00002C014070B50E4651
:1024F0002C4B00224FF08041082EDA811A825A823A
:102500009A815A811A81DA809A800546A1F8402082
:102510001C4607D30D2E01D9642E03D10020FEF7EF
:10252000F1FE02E00020FFF751FF082D0BD30D2D27
:1025300001D9642D07D10120FEF7E4FEFEF786FEE7
:102540000123E38204E00120FFF740FF0023E38240
:102550000A2E0AD30D2E01D9642E06D10020FEF7D3
:1025600007FF0020FEF7ECFE02E00020FFF74CFF23
:102570000A2D10D30D2D01D9642D0CD10120FEF7A9
:10258000DFFE094A136843F480531360FEF784FEAC
:102590000123238370BD0120FFF736FF002323832F
:1025A00070BD00BFB202002000040140074B0022B2
:1025B0006521DA811A825A82998259809A80DA805A
:1025C0001A815A819A81DA821A837047B2020020F6
:1025D0000C4B5B88053B082B0DD8DFE803F0050C9E
:1025E00012121212121212004FF47A724FF080433C
:1025F000A3F84020704740F2DC524FF08043A3F82C
:1026000040207047B202002030B5A64C85B0A38AA6
:10261000652B03D1FFF716FFFFF7ACFE6088A18A98
:10262000A04D884205D0FFF761FFFFF7D1FF6B880F
:10263000AB826388053B082B00F2F480DFE803F0EF
:10264000C21A054D7B7B97979700E388002B00F01B
:102650001C81944AD28A002A40F01781013B03EB87
:1026600083035B0003F57A739BB24FF08042A2F8BC
:1026700040300AE1A2888B4B002A00F00681013A23
:10268000022A13D0032A11D0D2B932215982A521AE
:102690000122198284480821DA8101F0BCFA4FF442
:1026A000E1624FF08043A3F84020EEE0DA81A522FA
:1026B0001A8240F214524FF08043A3F84020E4E025
:1026C000002208217848DA8101F0A5FA40F2DC52B4
:1026D0004FF08043A3F84020D7E0A388714A002B35
:1026E00000F0D3800021D181D28A002A00F0CD8071
:1026F000013B022B06D0032B0FD0002B40F0C580EE
:102700006A4B00E06A4B18689B880190062101A87B
:10271000ADF80830FEF78EFDB7E0664B072118686C
:102720009A889B79019001A8ADF808208DF80A30AD
:10273000FEF780FDA9E0A3885A4A002B00F0A5808F
:102740000021D181D28A002A00F09F80013B022B18
:1027500004D0032B40F09980574B00E0574B18688A
:10276000042101900DEB0100FEF764FD8DE0A388CC
:102770004C4A002B00F089800021D181D28A002AA6
:1027800000F08380013B022B06D0032B0ED0002BE0
:102790007BD101AB4A4A01E04A4A01AB106851685B
:1027A00003C3082101A8FEF745FD6EE0464A01ABD0
:1027B00010685168127A03C3092101A81A70FEF744
:1027C00039FD62E0A288374B002A5ED0D98A002901
:1027D0005BD1198B002958D1511E002904D014DB7C
:1027E000033A012A51D910E032215982A521012250
:1027F00019822D480821DA8101F00DFA4FF4FA62AE
:102800004FF08043A3F840203FE0002208212648F3
:10281000E28101F000FA4FF47A724FF08043A3F89E
:10282000402032E0A1881F4B79B3DA8A6ABB1A8B49
:102830005ABB013902294FF0804511D0032915D028
:10284000D1B932215982A5211982012208211648C5
:10285000DA8101F0E0F940F29E73A5F8403014E00F
:10286000D98140F21A43A5F840300EE0D98140F2F8
:10287000DC53A5F8403008E008210B48DA8101F06C
:10288000CAF940F2DC53A5F84030238943B1013B3B
:1028900003EB83035B0003F57A730C4A9BB29386C8
:1028A00005B030BDB2020020000801406A470008B0
:1028B0007047000876470008814700087D470008F8
:1028C000854700088D47000895470008002C014007
:1028D00007B50F4A5388093B012B16D85389A3B17A
:1028E000D28A92B1013B0B2B05D00C2B05D00A2BC1
:1028F0000BD1084B02E0084B00E0084B186804219C
:1029000001900DEB0100FEF795FC03B05DF804FBB0
:10291000B20200209E470008A2470008A647000810
:1029200010B5104CE389DBB1638A0BB1013B6382C4
:10293000638A012B04D1002208210B4801F06BF9B6
:10294000238A13B1074A013B1382238A012B01D149
:10295000FFF73EFE628A034B12B91A8A02B9DA8186
:1029600010BD00BFB202002000080140F7B50121F0
:10297000082001F013FA48238DF8073001A903233A
:10298000434840248DF80630ADF8044001F0EAF8E1
:102990000121082001F002FA202301A93C48ADF8EA
:1029A000043001F0DFF83B4B3B4EDB8A012B68D053
:1029B000022B66D00C2B02D10C23338065E001235F
:1029C00033800025324801F01FF9013C420648BF20
:1029D0000135A4B248BFADB2002CF3D1302D1ED8C2
:1029E0000F2D1DD92D4C254648F6B800FDF7E0FC0B
:1029F000B4F90030002B04DA01220221244801F04E
:102A00000AF948F6B800FDF7D3FCB5F90030002B01
:102A1000EADA002202211E4801F0FDF8E4E7012471
:102A2000402700251A4801F0EFF8013F830648BF10
:102A30000135BFB248BFADB2002FF3D1302D1ED843
:102A40000F2D20D9154C254648F6B800FDF7B0FCEF
:102A5000B4F90030002B04DA012202210C4801F005
:102A6000DAF848F6B800FDF7A3FCB5F90030002B02
:102A7000EADA00220221064801F0CDF8E4E724B9A1
:102A80000223338001E0002C96D103B0F0BD00BFDB
:102A9000000C0140D604002042000020000000206D
:102AA00008B5FFF7F5FBFFF761FFFEF753F80A4A99
:102AB0000620138843F4004343F010031380FEF70D
:102AC0003BF8FEF73FFF054A00231380044A1380BA
:102AD000BDE80840FFF76ABD400000203400002038
:102AE000D204002030B5494B8BB01C88002C40F03C
:102AF0008A80FEF7ADFE464B9B78302B5FD002D824
:102B00002F2B31D07FE0762B0ED0772B7BD1FEF7A9
:102B10008DFDFEF759FD12213E48FEF7D3FDFEF76D
:102B200073FDFEF79BFD6EE0234621463A4D0122E0
:102B300055F8120901900AA8084410F8240C5C5DAD
:102B4000104218BF44F0800405A85200112B1C54F9
:102B500092B206D0802A02BF013189B2012201332C
:102B6000E9E7FFF7E5FB4EE02C4BDB8A002B4AD070
:102B70002B4D214635F80D390122ADF8143023468E
:102B80000AAC0C4414F8144C585D144218BF40F0C1
:102B9000800001AC52000C2B185592B206D0802A4E
:102BA00002BF013189B201220133E9E79DF8041027
:102BB0000C2928D80DF10500FEF73CFB23E0174B4C
:102BC0008DF814401B8BCBB9FEF730FDFEF7FCFCF3
:102BD000112105A8FEF776FDFEF716FDFEF73EFD76
:102BE00011E09DF814100F29EED84B1C8DF814300D
:102BF000FEF744FB0AAB194401F8130CFEF730FB57
:102C00000028EED1E0E70BB030BD00BFD0040020BB
:102C100074050020DA04002059010020B2020020CF
:102C2000540100200E4B1B88CBB90E4B5B78072B51
:102C300015D10D4A0D4B1178198011F0400F5178C4
:102C400004D0927859819A81FFF742BE59809178D9
:102C50009980D1781279D9801A81FFF7D5BC704755
:102C6000D00400207405002047010020B20200209B
:102C70001D4B10B51B881B0634D572B61B4A1C4B66
:102C8000114603F10C0053F8044B834242F8044B05
:102C9000F9D11B88138062B6164B0D221A70164AA2
:102CA000128812F0020F1A4619D00B884FF67D7168
:102CB00003F5FF433F339BB28B420C480DD843884A
:102CC00003F5FF433F339BB28B4206D8838803F55D
:102CD000FF433F339BB28B4201D905231370074B4F
:102CE00001221A8010BD00BF9C0700209401002023
:102CF000A4020020460000204000002034000020F4
:102D000008B5074B1B881B0603D5064B1B88012BF8
:102D100004D0FEF717FE044B01221A70072008BDED
:102D20009C070020340000204600002008B5044B1A
:102D300004481978FEF7ACFC034B00221A8008BD4A
:102D4000460000209401002034000020024B0022A5
:102D50001A805A809A807047F402002008B5FDF767
:102D6000B9FC064B99884A1C92B2382A19449A80B9
:102D7000887184BF38229A8008BD00BFF402002009
:102D80000A2801D03B2807D1044B00219A88012052
:102D90001A4491719980704700207047F402002016
:102DA000044A00239380044A044813805380FDF7AB
:102DB0006FBC00BF90070020F4020020B448000858
:102DC00038B5054601F04CFC29460246084801F09A
:102DD00075FC044648B92846FDF75AFC0548FDF73E
:102DE00057FC054B01209C7138BD002038BD00BF49
:102DF000FA020020E7480008F402002010B5074856
:102E0000FDF746FC0648FDF743FCBDE810400548C9
:102E1000054B00220E21C068FDF78EBCB7480008A4
:102E2000C7480008FC040020E748000870B5374890
:102E3000374C384DFDF72CFC3748FDF729FC2B4665
:102E400000220521B4F90000FDF75EFC3348344E42
:102E5000FDF71EFC2B4600220521B4F91600FDF7F4
:102E600053FC3048FDF714FC3346B4F9040000224B
:102E70000821FDF749FC3346B4F906000022082179
:102E8000FDF742FC2B4600220821B4F90800FDF7AB
:102E90003BFC2548FDF7FCFB3346B4F90A00002251
:102EA0000821FDF731FC3346B4F90C00002208215B
:102EB000FDF72AFC2B4600220821B4F90E00FDF78D
:102EC00023FC1A48FDF7E4FB3346B4F91000002256
:102ED0000821FDF719FC3346B4F91200002208213D
:102EE000FDF712FC2B4600220821B4F91400FDF76F
:102EF0000BFC0F48FDF7CCFB2B46B4F91800002261
:102F00000521BDE87040FDF7FFBB00BFCD480008BC
:102F1000D6040020E7480008EA480008F348000803
:102F20000A490008FE4800080E4900081A4900082E
:102F3000264900082DE9F843FEF778FBFEF744FB2D
:102F40008348FDF7A5FB834B1B88022B07D00C2B76
:102F500009D0012B0AD18048FDF79AFB06E07F4893
:102F6000FDF796FB02E07E48FDF792FB7D48FDF7FA
:102F70008FFBFFF7EBFEFFF713FF4FF6FF737A4E61
:102F8000002202217948002533802F4600F043FEBD
:102F9000DFF83482764A13889BB2002BFBD0744B47
:102FA000744C002201371A802760B8F80290B9F1FA
:102FB000000F04D0002D40F0B780C725EAE7FDF7E9
:102FC0007BFB0028F6D0FFF7C9FEFFF7D9FE0028EB
:102FD000EBD06948FFF7F4FE38B1684B0122A3F843
:102FE0000090674B1A80BDE8F8836648FFF7E8FE5B
:102FF00018B1FFF703FFFFF7D3FE6348FFF7E0FECA
:1030000020B10123E3802381FFF7CAFE5F48FFF769
:10301000D7FE28B10223E38001232381FFF7C0FEFE
:103020005B48FFF7CDFE28B10323E3800123238112
:10303000FFF7B6FE5748FFF7C3FE28B10423E3802D
:1030400001232381FFF7ACFE5348FFF7B9FE28B1F7
:1030500022215248FDF79AFCFFF7A2FE5048FFF7E5
:10306000AFFE28B122214D48FDF7A8FCFFF798FEDE
:103070004C48FFF7A5FE18B1FFF7D8FEFFF790FE0A
:103080004948FFF79DFE20B1444B0122DA82FFF749
:1030900087FE4648FFF794FE20B1404B0222DA82B9
:1030A000FFF77EFE4248FFF78BFE20B13B4B0C2220
:1030B000DA82FFF775FE3F48FFF782FE20B1374BFB
:1030C0000022DA82FFF76CFE3B48FFF779FE20B161
:1030D000324B01221A83FFF763FE3848FFF770FE78
:1030E00020B12E4B00221A83FFF75AFE3448FFF717
:1030F00067FE58B1294B4FF400521A81DA809A804A
:103100000022DA819A815A81FFF74AFE2D48FFF7A3
:1031100057FE00283FF449AF204B00229A825A8282
:103120001A82FFF73DFE40E7013DADB2002D7FF46E
:1031300031AFB6F90030002BBFF62CAF0B4AD36885
:10314000DB4303F0020343F40033136122E700BFC3
:1031500037490008420000205E490008664900081F
:103160006E490008E748000800000020000C0140FC
:103170002C0000209007002049490008D0040020BE
:10318000A00200204C490008584900086049000886
:10319000684900087049000878490008D6040020F2
:1031A0008149000887490008904900089A490008A9
:1031B000A4490008AE490008B4490008BF49000806
:1031C000CA490008D1490008F402002043B270B592
:1031D000002B8B4CBCBF002222802288052A00F2E3
:1031E0000D81DFE812F0060042005F008E00B100A2
:1031F000D000D02824D0902829D0002B80F2FE8047
:10320000804A00F00F03158800F07000AB4240F0D8
:10321000DC807D49C2B2FF26102A0A704B708E7086
:1032200015D008D8002A40F0D08002232380774BA5
:103230009B8C638070BD302A10D0502A40F0C5802E
:10324000734B00221A80734B01221A8070BD704BA1
:1032500000221A806F4B04221A8070BD6C4B002232
:103260001A806C4B05221A8070BDE3886A4AD054DC
:103270000133A0889BB28342E380C0F0A280002388
:1032800019465D1CDBB2834203D2D35C59402B4606
:10329000F7E75F4B00221A805E4A03201080002966
:1032A0004FD048E0584B2F28987018D004D80138D8
:1032B000032823D8002317E0762806D077284FF07C
:1032C000000311D0302819D10EE0032323801723E7
:1032D000A3800023E3804D4B9B8C638070BD032350
:1032E00023801023A380F4E7494A23801380494AAE
:1032F0000221464B11809B8C638070BD002323808C
:1033000070BDE388444AD0540133A0889BB2834205
:10331000E38056D3002319465D1CDBB2834203D2FF
:10332000D35C59402B46F7E7394B00221A80394AC3
:103330000220108029B101221A80384AD368013353
:10334000D360002323803CE0E388042B37D8DFE8F8
:1033500003F0030D10131600512802D1052222801C
:103360002DE046282BD00022228028E04C28FAD1DC
:1033700025E04128F7D122E05328F4D11FE0482866
:10338000F1D1FEF715FAE388042B17D8DFE803F034
:1033900003080B0E1100512810D0002323800DE0EC
:1033A0004D28FAD10AE04F28F7D107E04428F4D19C
:1033B00004E04528F1D1FFF7BDFDEEE7E3880133D6
:1033C000E380124B9B8C638070BD072B0CD10E49A0
:1033D000C2B2FF26402A0A704B708E7004D10123BE
:1033E00023800623A38074E7702807D1064A9D42F4
:1033F000537000D013B9042323806AE770BD00BF67
:1034000090040020420000207405002000080040C5
:10341000D0040020A002002047010020FC0400206E
:103420002DE9F04F85B0B94EFEF796F9B6F90030A8
:10343000B246002B04DA00220221B54800F0EBFB73
:10344000DFF8EC82B34CB44DDFF8E8B2DFF8E89275
:10345000B24F0022A8F80020A9F800202A80ABF87B
:10346000002062802280A2803A800392FFF718FB3E
:10347000FEF7E4F94FF400432B804FF6FF73039AF5
:103480000221A348338000F0C6FBB6F90030CDF826
:103490000C80002BD84604DA012202219C4800F05F
:1034A000BAFB0026FDF708F918B1FDF713F9FFF78D
:1034B0008DFEFEF7B1F9B8F800309BB2013B062B48
:1034C00032D8DFE803F004080D1217222900002388
:1034D000ABF80030A7E7FFF705FBA8F8006023E092
:1034E000FFF7A0FBA8F800601EE0FFF7C1FBA8F8FB
:1034F000006019E0FEF79AF8FEF766F8039B1E805D
:10350000FFF7FEFBA8F800000EE0039B1E80FFF70C
:10351000F7FBA8F8000007E0FFF708FCFEF774F8D7
:10352000FEF79CF8A8F800607D4B1B889BB2002B2F
:10353000B8D07B4A00231380FDF7F0FFBAF90000F2
:10354000002879DD774B774A1B88B0F5FA7F03F1C5
:1035500001039BB21380164662D1734A11880C296D
:103560005ED8012202FA01F111F4825F2CD111F030
:10357000240F14D111F0120F52D0B3F5FA7F03D1FA
:103580000221634800F047FB3388B3F57A7F53D3B9
:10359000002202215E48328000F03DFB4CE0B3F592
:1035A000FA7F03D102215A4800F035FB3388B3F586
:1035B0002F7F04D100220221554800F02CFB3388D4
:1035C000B3F5487FE0D125E0B3F5FA7F03D10221BE
:1035D0004F4800F020FB3388B3F5167F04D100225A
:1035E00002214B4800F017FB3388B3F52F7F04D13D
:1035F00001220221464800F00EFB3388B3F5487FD4
:1036000004D100220221424800F005FB3388B3F5C3
:10361000617FB9D1012202213D4800F0FCFAB3E7F5
:10362000834209DB3A4A00233380D368DB4303F04B
:10363000020343F4003313612B88374A591E0129D2
:1036400040F2898123F4FE4189B2B1F5004F56D092
:103650001CD80C2900F0B5800CD803297DD002D8E5
:1036600000294FD077E10A2900F087800B2900F06C
:10367000998070E10E2900F0EC80C0F0B1800F2934
:1036800000F00F81102900F04E8164E148F20B0038
:10369000814200F0878011D848F20200814255D063
:1036A0004CD348F20300814257D048F20A008142CD
:1036B00040F05181C3F30E0313805EE048F20E0028
:1036C000814200F0C0800FD848F20C00814278D0CF
:1036D00048F20D00814240F03E81C3F30E03138097
:1036E000124B00221A807BE048F20F00814200F06A
:1036F000D58048F21000814200F003812BE1322393
:10370000AAF8003048F20A032B8024E100000020D0
:10371000000C014036000020CC01002040000020B9
:103720002C0000203E00002042000020D204002097
:10373000D0040020A00200209C070020C3F30E0349
:1037400013804FF4FA73AAF8003004E1C3F30E03B8
:1037500013806423AAF80030FDE0A3882288013397
:103760009BB29A42A38080F0F6807C4B5B886FEA24
:1037700043436FEA53432B80EDE0FEF7FDFBFEF77A
:10378000F1F80620FDF7D8F9FDF76AFAFEF794FC88
:103790000023A3800F2323800B23638048F20303BD
:1037A0002B80D8E0C3F30E032B80FDF765FA0023CE
:1037B000A380012323800C23638048F203032B8022
:1037C000C9E0C3F30E032B80FDF750FA0023A3805A
:1037D000012323800D23638048F203032B80BAE08A
:1037E000FDF7DAFA3B8880B223F4A37323F00103D8
:1037F0009BB25B4A3B80D0B104285A4907D143F4BD
:10380000B27343F00103138003230B800BE0022803
:1038100017BF43F4817343F4A2731380012306BFDF
:10382000138008800B8048F20E032B8093E04E4AF1
:10383000138801339BB2192B138040F28C8048F21D
:1038400002032B8087E0C3F30E031380464B002254
:103850001A803B8803F00703052B02D1FEF730FCEA
:1038600012E0042B4FF0000208D110230093032331
:10387000019202211846FDF709FB05E0032300929F
:1038800002211846FDF7A6FA0023A38064232380B3
:103890000F23638048F203032B805CE0C3F30E0325
:1038A00013803B8803F00703052B02D1FEF763FC6E
:1038B00012E0042B4FF0000208D1102300930323E1
:1038C000019202211846FDF704FB05E00323009254
:1038D00002211846FDF79CFA48B9B9F8003043F0C8
:1038E0008003A9F8003048F210032B8033E01E4A11
:1038F0000E232B80138801339BB20A2B13809ED892
:1039000029E0C3F30E0313803B8803F00703052B64
:1039100002D1FEF77AFC01E0FEF7B6FBFEF756FB9C
:103920000120FDF709F9B9F800304FF4967203F061
:1039300080039BB243B10023A3800123638048F23C
:10394000030322802B8006E0A3800223638048F2D9
:10395000030322802B80FEF7E3FFA2E53600002060
:1039600040000020A2020020D2040020384B82B088
:103970001A6842F001021A605968364A0A405A60D1
:103980001A6822F0847222F480321A601A6822F4D3
:1039900080221A605A6822F4FE025A604FF41F0215
:1039A0009A600022009201921A6842F480321A60F2
:1039B0001A6802F400320192009A01320092019AD0
:1039C0001AB9009AB2F5A06FF2D11A6812F4003257
:1039D00018BF01220192019A012A05D01E4B4FF017
:1039E00000629A6002B070471C4A116841F01001F1
:1039F0001160116821F003011160116841F00201AA
:103A000011605A685A605A685A605A6842F4806273
:103A10005A605A6822F47C125A605A6842F4E812DA
:103A20005A601A6842F080721A601968084A89015F
:103A3000FBD5516821F003015160516841F002014A
:103A400051605A6802F00C02082AFAD1C6E700BF9A
:103A5000001002400000FFF800ED00E000200240EE
:103A6000FEE7000008B50C4A0C4B0D498B4204D20E
:103A700052F8040F43F8040BF8E70A480A494FF0DC
:103A800000028842B8BF40F8042BFADBFFF76EFF54
:103A9000BDE80840FFF7C4BCD8490008000000207A
:103AA0002C0000202C000020A007002008B5264B89
:103AB000984206D10121042000F088F90021042059
:103AC0003CE0224B984206D10121082000F07EF90B
:103AD0000021082032E01E4B984206D1012110201F
:103AE00000F074F90021102028E01A4B984206D10A
:103AF0000121202000F06AF9002120201EE0164B51
:103B0000984206D10121402000F060F900214020B8
:103B100014E0124B984206D10121802000F056F9A2
:103B2000002180200AE00E4B98420BD101214FF476
:103B3000807000F04BF900214FF48070BDE8084020
:103B400000F044B908BD00BF00080140000C01406E
:103B5000001001400014014000180140001C014009
:103B600000200140CA782DE9F041D40648BF8C7886
:103B70000E8802F00F0348BF234316F0FF0F1ED03C
:103B8000016800244FF0010E4FF00F0C0EFA04F7FD
:103B900037EA06050FD1A5000CFA05F821EA08015D
:103BA00003FA05F5282A41EA050101D1476102E03F
:103BB000482A08BF07610134082CE7D10160FF2EB5
:103BC00020D9416800244FF0010E4FF00F0C04F192
:103BD00008050EFA05F535EA06070FD1A7000CFA1D
:103BE00007F821EA080103FA07F7282A41EA070142
:103BF00001D1456102E0482A08BF05610134082C63
:103C0000E5D14160BDE8F081806880B27047016114
:103C10007047416170470AB1016170474161704767
:103C20000028164A30B500F44015B4BFD369536874
:103C3000B5F5401F84B206D1556823F0706325F0B6
:103C4000706555600EE0C20255BF420D032212019D
:103C5000C0F303454CBFAA4004FA02F223EA020370
:103C600043F0706319B1420D120194402343034A9B
:103C70000028B4BFD361536030BD00BF00000140D5
:103C800001F0030301F0FC0101F1804101F58031F5
:103C900010B59B008C680F229A4024EA02028A60C9
:103CA0008A6898401043886010BD00000D4B1A6868
:103CB00042F001021A6059680B4A0A405A601A68B9
:103CC00022F0847222F480321A601A6822F4802270
:103CD0001A605A6822F4FE025A604FF41F029A607A
:103CE000704700BF001002400000FFF8034A53680D
:103CF00023F0030318435060704700BF00100240D8
:103D00001C4A10B5536803F00C03042B01D0082B98
:103D100001D0194B0EE053685168C3F38343CC03C1
:103D200003F1020302D55168890301D5134900E06C
:103D300011494B43036053681149C3F30313CC5C2F
:103D40000368E34043605468C4F302240C5D23FA23
:103D500004F484605468C4F3C2240C5DE340C3607F
:103D60005268C2F381320A44127CB3FBF2F303615E
:103D700010BD00BF0010024000127A0000093D0093
:103D800018000020044B5A6909B1104301E022EAEF
:103D900000005861704700BF00100240044B9A6950
:103DA00009B1104301E022EA00009861704700BFAA
:103DB00000100240044BDA6909B1104301E022EA25
:103DC0000000D861704700BF00100240044BDA6861
:103DD00009B1104301E022EA0000D860704700BF3B
:103DE00000100240044B1A6909B1104301E022EAB5
:103DF00000001861704700BF00100240044B002211
:103E00001A605A609A60DA60024A5A61704700BFCD
:103E100000040140FFFF0F00827970B5016803794B
:103E200042B3CE43184A03F18043156803F5823349
:103E3000354015605468344054601C682143196053
:103E400001689468CD432C409460D3682B40D360C4
:103E50004379102B06D193680B439360D3681943C1
:103E6000D16070BD03F1804303F582331A681143BA
:103E7000196070BD03F1804303F582331A6822EAAA
:103E800001021A6070BD00BF00040140014B58617F
:103E9000704700BF0004014008B5214B98420BD188
:103EA00001214FF48040FFF791FFBDE80840002159
:103EB0004FF48040FFF78ABF1A4B984208D1012186
:103EC0004FF40030FFF78EFF00214FF4003022E066
:103ED000154B984208D101214FF48020FFF782FF53
:103EE00000214FF4802016E0104B984208D10121A8
:103EF0004FF40020FFF776FF00214FF400200AE086
:103F00000B4B98420BD101214FF48010FFF76AFF51
:103F100000214FF48010BDE80840FFF763BF08BDE3
:103F2000003801400044004000480040004C004080
:103F30000050004070B50E460446038ACA889BB202
:103F400023F440531343038282898988338992B2D0
:103F50000B43718922F4B0520B4322F00C0213433D
:103F60009BB28381838AB2899BB223F4407386B06B
:103F70001343838201A8FFF7C3FE174A039B049DE6
:103F80003168944218BF1D4619226A43A3896426EA
:103F900013F4004F14BF4D008D00B2FBF5F5B5FBD7
:103FA000F6F0A28900010109120406FB115307D59E
:103FB000D9003231B1FBF6F202F00702104306E0FD
:103FC0001A013232B2FBF6F303F00F03184380B24A
:103FD000208106B070BD00BF003801404B8810B58D
:103FE0000C88028A23438C88C98892B223430B43EE
:103FF00022F4706213439BB2038210BD002303803E
:1040000043808380C3807047838919B19BB243F496
:10401000005303E023F400531B041B0C83817047FF
:10402000012310B5C1F342149C4201F01F0103FAB1
:1040300001F101D10C3003E0022C0CBF1030143020
:1040400003680AB1194301E023EA0101016010BDD0
:10405000C1F30801818070470388194214BF012011
:1040600000207047090A012303FA01F1C94389B20C
:1040700001807047034B044A5A6002F188325A604B
:10408000704700BF0020024023016745FFF7F2BFE1
:10409000024A136943F08003136170470020024015
:1040A000FFF7F6BF084BDA68D10709D4DA68520780
:1040B00008D4DB6813F0100F14BF032004207047EE
:1040C00001207047022070470020024010B50446CE
:1040D000FFF7E8FF012806D11CB1FFF7E3FF013C21
:1040E000F8E7052010BD002C08BF052010BD00001A
:1040F00070B505464FF400500E46FFF7E7FF042861
:104100000ED1084C4FF40050236943F001032361A2
:104110002E80FFF7DBFF41F6FE7322691340236117
:1041200070BD00BF0020024073B5002306464FF467
:1041300000500D460193FFF7C9FF04281AD10E4C19
:104140004FF40050236943F001032361ABB2338085
:10415000FFF7BCFF042808D102360196019B2D0C05
:104160001D804FF40050FFF7B1FF41F6FE73226946
:104170001340236102B070BD0020024038B50546EF
:104180004FF43020FFF7A2FF042812D1094C4FF45E
:104190003020236943F0020323616561236943F002
:1041A00040032361FFF792FF41F6FD73226913403C
:1041B000236138BD002002404FF6FE7302681340B1
:1041C00003600023036043608360C360284B984210
:1041D00001D1284A27E0284B984201D1254A2AE0FC
:1041E000264B984201D1234A2DE0254B984201D11C
:1041F000204A30E0234B984201D11E4A33E0224B43
:10420000984204D11B4A536843F470032EE01F4BBD
:10421000984204D1174A536843F0706326E01C4B60
:10422000984204D11B4A536843F00F031EE01A4B17
:10423000984204D1174A536843F0F00316E0174B35
:10424000984204D1134A536843F470630EE0144B50
:10425000984204D10F4A536843F4704306E0114B6F
:10426000984204D10B4A536843F47023536070475B
:1042700008000240000002401C00024030000240E2
:1042800044000240580002406C000240800002409E
:1042900008040240000402401C04024030040240B2
:1042A00044040240580402400A6A10B58C6803684E
:1042B00014430A6923F4FF4314434A6923F070034B
:1042C00014438A691443CA6914434A6A14438A6AC4
:1042D000224313430360CB6843600B6883604B68E1
:1042E000C36010BD19B1036843F0010303E04FF64A
:1042F000FE73026813400360704703680AB11943F4
:1043000001E023EA0101016070470000C3004CBFD7
:10431000014B024B5860704700040240000002400D
:1043200040F0BF60024B40F40030D860704700BFDF
:1043300000ED00E0C27810B503780AB3164A03F125
:104340006043D1684278C943C1F30221C1F104043A
:1043500002FA04F40F22CA40817803F561430A404F
:1043600022431201D2B283F80023037801225909B3
:1043700003F01F0302FA03F3084A42F8213010BD8C
:104380005A09012103F01F0301FA03F30349203204
:1043900041F8223010BD00BF00ED00E000E100E078
:1043A00003880A8810B503F441544B8813438A8864
:1043B0001343CA8813430A8913434A8913438A89DA
:1043C0001343CA89134323439BB20380838B23F493
:1043D00000631B041B0C83830B8A038210BD0388BC
:1043E00019B19BB243F0400303E023F040031B04E8
:1043F0001B0C0380704783889BB20AB1194301E00C
:1044000023EA01018180704781817047808980B2F1
:104410007047038819B19BB243F4005303E023F4BF
:1044200000531B041B0C038070470389194214BFFF
:10443000012000207047000070B4840746D0541E4D
:10444000002A41D0CDB2034602E0621EE4B3144616
:1044500003F8015B9A07F8D1032C2ED9CDB245EAB7
:1044600005250F2C45EA054519D9264603F110020A
:10447000103E0F2E42F8105C42F80C5C42F8085CCB
:1044800042F8045C02F11002F2D8A4F1100222F00A
:104490000F0204F00F041032032C13440DD91E46F2
:1044A0002246043A032A46F8045BFAD8221F22F077
:1044B00003020432134404F003042CB1C9B21C44B7
:1044C00003F8011BA342FBD170BC7047144603469E
:1044D000C2E700BF70B411F0FF0434D085070FD0DD
:1044E0000378002B5AD09C422BD0431C05E013F8D4
:1044F000012B002A4FD0944223D09A071846F6D1B8
:104500000E0206F47F462643036846EA064601E0AB
:1045100050F8043F86EA0305A5F10132A3F1013109
:1045200022EA050221EA0303134313F0803FEFD090
:10453000037823B932E010F8013F002B2ED09C42C3
:10454000F9D170BC704784070BD00378002BF8D0EA
:10455000431C03E002780133002AF2D09907184681
:10456000F8D10268A2F1013323EA020313F0803F7D
:1045700008D150F8042FA2F1013323EA020313F00B
:10458000803FF6D00378002BDBD010F8013F002BE2
:10459000FBD170BC7047104670BC7047184670BCA9
:1045A000704700BF80EA0102844612F0030F4FD12A
:1045B00011F0030F32D14DF8044D11F0040F51F8F2
:1045C000043B0BD0A3F101329A4312F0803F04BFA9
:1045D0004CF8043B51F8043B16D100BF51F8044B92
:1045E000A3F101329A4312F0803FA4F101320BD1C2
:1045F0004CF8043BA24312F0803F04BF51F8043B47
:104600004CF8044BEAD023460CF8013B13F0FF0FA3
:104610004FEA3323F8D15DF8044B704711F0010FD6
:1046200006D011F8012B0CF8012B002A08BF7047A7
:1046300011F0020FBFD031F8022B12F0FF0F16BF9E
:104640002CF8022B8CF8002012F47F4FB3D1704766
:1046500011F8012B0CF8012B002AF9D1704700BF8B
:1046600020F0030110F00300C0F1000051F8043BFA
:1046700000F1040C4FEACC0C6FF000021CBF22FAD0
:104680000CF213434FF0010C4CEA0C2C4CEA0C4C8E
:10469000A3EB0C0222EA030212EACC1204BF51F887
:1046A000043B0430F4D0C2F1000102EA0102B2FA84
:1046B00082F2C2F11F0200EBD2007047002A3FD005
:1046C00040EA010313F00303F0B425D1032A23D9F0
:1046D00004680D68AC421FD1043A33D0A4F101350F
:1046E00025EA040414F0803F2FD1071D0D1D0DE0B5
:1046F00057F8043B0E68A3F10134B34224EA0304E3
:104700000AD1043A1ED014F0803F21D1032A294651
:10471000384605F10405EBD803780C78013A9C4241
:104720000BD17AB114B915E062B173B110F8013F41
:1047300011F8014F013AA342F6D0181BF0BC7047A4
:10474000104670471046F0BC70471846F0BC7047E2
:104750000020F3E72046F1E72D00002000002E00A6
:104760000030000000020201000173686F6F740DD9
:104770007265636F6E0D7265636F66660DCC0103C3
:1047800098CC0104CC736875747465720A76696498
:10479000656F6F6E0A766964656F6F66660ACC0135
:1047A0000032CC0101E7CC01024D746F6F206C61C7
:1047B00072676520776964746800746F6F206C613C
:1047C00072676520707265636973696F6E00302E61
:1047D00030002D00450073692B7A0073692B00733C
:1047E0006C2B7A006D707520617420535049204FF6
:1047F0004B0A007563006D707520535220006D7078
:104800007520415220006D707520444C50462000A8
:104810006D707520475220004D5055363035302C84
:1048200020004D5055363030302C20004D50553939
:104830003235302C200049434D32303630322C2076
:10484000004F56455253414D504C45442C20004694
:10485000415354204759524F2C2000464153542075
:104860004143432C20004759524F2046494C544560
:10487000522C20004143432046494C5445522C20A1
:1048800000544C45353031324200415335303438D4
:104890004100504F5441444335002D200076302EC6
:1048A00034340076332E7820463130335438006566
:1048B0006E6458003E20004E5420427573204572AD
:1048C000726F72730D0A006372633A200050617256
:1048D000616D65746572732073746F7265642069AD
:1048E0006E2053657475700D0A004C61796F757494
:1048F0003A20004D6F64756C6549643A200041634D
:10490000635363616C653A202000202C20004163D2
:10491000635A65726F3A202020004779726F5363A3
:10492000616C653A20004170706C7941636346693F
:104930006C7465723A20000D0A48656C6C6F2C200F
:104940004920616D20494D55004051006E746275DB
:10495000736572726F72730073747265616D31008A
:1049600073747265616D320073747265616D3300CA
:1049700073747265616D3400726574726965766511
:104980000073746F72650067657473657475700089
:104990007365746964696D75310073657469646900
:1049A0006D7532007365746964696D753300636C8D
:1049B0007269640073657461636366696C74006333
:1049C0006C7261636366696C7400636C72616363CB
:0949D00000636C726779726F00DC
:1049DC00FFFF000000A24A040000000000000000DD
:1049EC000102030406070809000000000102030489
:0C49FC0001020304060708090204060873
:0400000508000000EF
:00000001FF
