:020000040800F2
:10000000302F0020B9040008B5040008B50400082A
:10001000B5040008B5040008B5040008000000009D
:10002000000000000000000000000000B50400080F
:10003000B504000800000000B50400086D120008B7
:10004000B5040008B5040008B5040008B5040008AC
:10005000B5040008B5040008B5040008B50400089C
:10006000B5040008B5040008B5040008B50400088C
:10007000B5040008B5040008B5040008B50400087C
:10008000B5040008B5040008B5040008B50400086C
:10009000B5040008B5040008B5040008B50400085C
:1000A000B5040008B5040008B5040008B50400084C
:1000B000B5040008B5040008B5040008B50400083C
:1000C000B5040008B5040008B5040008B50400082C
:1000D000B504000841100008B5040008B504000884
:1000E000B5040008B5040008B504000800000000CD
:1000F0000000000000000000000000000000000000
:1001000000000000000000005FF808F1224A0388A8
:1001100090429BB212D002F5006290420ED0B0F134
:10012000804F0BD0A2F59832904207D002F5806242
:10013000904203D002F58062904203D14A8823F0B6
:1001400070031343154A904208D002F58062904232
:100150001FBF23F44073CA889BB2134303808B886C
:1001600083850B8803850C4B98420FD003F5006301
:1001700098420BD003F54063984207D003F58063A3
:10018000984203D003F58063984201D10B7A03862D
:1001900001238382704700BF002C01400010004003
:1001A000038C70B523F001031B041B0C0384028C29
:1001B0008688038B0D8823F073031B041B0C1D43DF
:1001C00022F002020C894B881204120C23431343C1
:1001D000144AB6B290429BB20FD002F50062904230
:1001E0000BD002F54062904207D002F58062904247
:1001F00003D002F5806290420ED14C8923F00803AF
:100200001C438B8824F0040426F4407223438E8917
:10021000CC893443224396B2CA888680058382867D
:10022000038470BD002C0140038C30B523F0100313
:100230001B041B0C0384038C8588028B0C8822F41E
:10024000E6421204120C42EA042223F0200394B284
:100250001B040A891B0C43EA02134A88ADB243EA25
:100260000213124A9BB2904203D002F50062904200
:1002700015D123F080034A899BB243EA02124FF65C
:10028000BF7313408A8825F4406543EA02138A89C4
:100290009BB245EA8205CA8945EA8205ADB2CA88A1
:1002A000858004830287038430BD00BF002C014099
:1002B000038C30B523F480731B041B0C0384038C64
:1002C0008488828B0D8822F073021204120C23F4AE
:1002D000007315431B040A891B0C43EA02234A8856
:1002E000A4B243EA0223124A9BB2904203D002F521
:1002F0000062904215D123F400634A899BB243EA1D
:1003000002224FF6FF3313408A8824F4405443EA14
:1003100002238A899BB244EA0214CA8944EA02147D
:10032000A4B2CA88848085838287038430BD00BFDD
:10033000002C0140038C30B523F480531B041B0CAC
:100340000384038C8488828B0D8822F4E642120495
:10035000120C23F4005342EA05221B040D891B0CE6
:1003600043EA05334D88A4B243EA05330A4D92B2FD
:10037000A8429BB203D005F50065A84205D18D893E
:1003800024F4804444EA8514A4B284808283CA8819
:10039000A0F84020038430BD002C0140038819B12F
:1003A0009BB243F0010303E023F001031B041B0C89
:1003B0000380704780F30888704780F31088704787
:1003C000384B82B01A6842F001021A605968364A06
:1003D0000A405A601A6822F0847222F480321A604D
:1003E0001A6822F480221A605A6822F4FE025A60C7
:1003F0004FF41F029A600022009201921A6842F4A0
:1004000080321A601A6802F400320192009A0132B6
:100410000092019A1AB9009AB2F5A06FF2D11A6847
:1004200012F4003218BF01220192019A012A05D06C
:100430001E4B4FF000629A6002B070471C4A116870
:1004400041F010011160116821F003011160116881
:1004500041F0020111605A685A605A685A605A683D
:1004600042F480625A605A6822F47C125A605A68D8
:1004700042F4E8125A601A6842F080721A601968F1
:10048000084A8901FBD5516821F003015160516888
:1004900041F0020151605A6802F00C02082AFAD1B8
:1004A000C6E700BF001002400000FFF800ED00E0CA
:1004B00000200240FEE7000008B50C4A0C4B0D4935
:1004C0008B4204D252F8040F43F8040BF8E70A48B1
:1004D0000A494FF000028842B8BF40F8042BFADB0B
:1004E000FFF76EFFBDE8084005F0BAB8C87D000808
:1004F000000000206004002060040020302B002059
:1005000008B5264B984206D10121042000F070F96D
:10051000002104203CE0224B984206D10121082012
:1005200000F066F90021082032E01E4B984206D107
:100530000121102000F05CF90021102028E01A4B66
:10054000984206D10121202000F052F900212020FC
:100550001EE0164B984206D10121402000F048F9D8
:100560000021402014E0124B984206D10121802046
:1005700000F03EF9002180200AE00E4B98420BD19A
:1005800001214FF4807000F033F900214FF48070A6
:10059000BDE8084000F02CB908BD00BF00080140CC
:1005A000000C0140001001400014014000180140FF
:1005B000001C014000200140CA782DE9F041D4061A
:1005C00048BF8C780E8802F00F0348BF234316F013
:1005D000FF0F1ED0016800244FF0010E4FF00F0CEA
:1005E0000EFA04F737EA06050FD1A5000CFA05F854
:1005F00021EA080103FA05F5282A41EA050101D19B
:10060000476102E0482A08BF07610134082CE7D19E
:100610000160FF2E20D9416800244FF0010E4FF0F9
:100620000F0C04F108050EFA05F535EA06070FD19F
:10063000A7000CFA07F821EA080103FA07F7282AAD
:1006400041EA070101D1456102E0482A08BF05617E
:100650000134082CE5D14160BDE8F081806880B2AA
:10066000704701617047416170470AB1016170478D
:10067000416170470028164A30B500F44015B4BFF8
:10068000D3695368B5F5401F84B206D1556823F08D
:10069000706325F0706555600EE0C20255BF420DD3
:1006A00003221201C0F303454CBFAA4004FA02F230
:1006B00023EA020343F0706319B1420D1201944022
:1006C0002343034A0028B4BFD361536030BD00BF49
:1006D000000001400D4B1A6842F001021A6059688F
:1006E0000B4A0A405A601A6822F0847222F480325F
:1006F0001A601A6822F480221A605A6822F4FE02F4
:100700005A604FF41F029A60704700BF0010024009
:100710000000FFF8034A536823F0030318435060B6
:10072000704700BF00100240034A536823F440435F
:1007300018435060704700BF001002401C4A10B5BB
:10074000536803F00C03042B01D0082B01D0194B84
:100750000EE053685168C3F38343CC0303F10203F3
:1007600002D55168890301D5134900E011494B4373
:10077000036053681149C3F30313CC5C0368E3407F
:1007800043605468C4F302240C5D23FA04F48460CB
:100790005468C4F3C2240C5DE340C3605268C2F3E2
:1007A00081320A44127CB3FBF2F3036110BD00BF37
:1007B0000010024000127A0000093D0014000020E1
:1007C000044B9A6909B1104301E022EA00009861E4
:1007D000704700BF00100240044BDA6909B11043B2
:1007E00001E022EA0000D861704700BF001002401B
:1007F000044BDA6809B1104301E022EA0000D86036
:10080000704700BF00100240044B1A6909B1104341
:1008100001E022EA00001861704700BF00100240AA
:10082000436810B523F470220B6822F480721343DE
:100830000A7943EA02234360CA688B6884681A43D2
:10084000084B234013434A7943EA42038360C36A57
:1008500023F470020B7C013BDBB242EA0353C36218
:1008600010BD00BFFDF7F1FF836811B143F0010334
:1008700001E023F0010383607047836843F00803BD
:10088000836070478068C0F3C0007047836843F09E
:100890000403836070478068C0F3800070478368FA
:1008A00011B143F4A00301E023F4A0038360704777
:1008B000092970B50DD9A1F10A04C66804EB4404F6
:1008C0000725A54026EA050503FA04F42C43C46075
:1008D0000AE0066901EB41040725A54026EA050563
:1008E00003FA04F42C430461062A0CD8013A446B41
:1008F00002EB82021F23934024EA030301FA02F26F
:100900001A43426370BD0C2A0CD8073A046B02EB01
:1009100082021F23934024EA030301FA02F21A43DE
:10092000026370BD0D3AC46A02EB82021F2393403A
:1009300024EA030301FA02F21A43C26270BDC06CDA
:1009400080B2704708B5214B98420BD101214FF47A
:100950008040FFF74DFFBDE8084000214FF4804084
:10096000FFF746BF1A4B984208D101214FF40030DF
:10097000FFF74AFF00214FF4003022E0154B984268
:1009800008D101214FF48020FFF73EFF00214FF4F2
:10099000802016E0104B984208D101214FF400202E
:1009A000FFF732FF00214FF400200AE00B4B984282
:1009B0000BD101214FF48010FFF726FF00214FF4E7
:1009C0008010BDE80840FFF71FBF08BD0038014098
:1009D0000044004000480040004C004000500040EF
:1009E00070B50E460446038ACA889BB223F440536E
:1009F0001343038282898988338992B20B437189B8
:100A000022F4B0520B4322F00C0213439BB28381B9
:100A1000838AB2899BB223F4407386B013438382E6
:100A200001A8FFF78BFE174A039B049D316894428F
:100A300018BF1D4619226A43A389642613F4004F88
:100A400014BF4D008D00B2FBF5F5B5FBF6F0A289A1
:100A500000010109120406FB115307D5D9003231F8
:100A6000B1FBF6F202F00702104306E01A0132323F
:100A7000B2FBF6F303F00F03184380B2208106B0F7
:100A800070BD00BF003801404B8810B50C88028A49
:100A900023438C88C98892B223430B4322F47062AB
:100AA00013439BB2038210BD0023038043808380E5
:100AB000C3807047838919B19BB243F4005303E0AC
:100AC00023F400531B041B0C83817047012310B5D2
:100AD000C1F342149C4201F01F0103FA01F101D15C
:100AE0000C3003E0022C0CBF1030143003680AB144
:100AF000194301E023EA0101016010BDC1F30801BF
:100B0000818070470388194214BF0120002070477C
:100B1000090A012303FA01F1C94389B20180704730
:100B2000034B044A5A6002F188325A60704700BF92
:100B30000020024023016745FFF7F2BF024A136914
:100B400043F080031361704700200240FFF7F6BFB7
:100B5000084BDA68D10709D4DA68520708D4DB6891
:100B600013F0100F14BF03200420704701207047BA
:100B7000022070470020024010B50446FFF7E8FF4E
:100B8000012806D11CB1FFF7E3FF013CF8E705207F
:100B900010BD002C08BF052010BD000070B5054633
:100BA0004FF400500E46FFF7E7FF04280ED1084C23
:100BB0004FF40050236943F0010323612E80FFF7B7
:100BC000DBFF41F6FE7322691340236170BD00BF55
:100BD0000020024073B5002306464FF400500D4636
:100BE0000193FFF7C9FF04281AD10E4C4FF40050AF
:100BF000236943F001032361ABB23380FFF7BCFFED
:100C0000042808D102360196019B2D0C1D804FF45B
:100C10000050FFF7B1FF41F6FE73226913402361D4
:100C200002B070BD0020024038B505464FF43020B8
:100C3000FFF7A2FF042812D1094C4FF4302023699A
:100C400043F0020323616561236943F0400323619C
:100C5000FFF792FF41F6FD7322691340236138BD0F
:100C60000020024040F0BF60024B40F40030D860EA
:100C7000704700BF00ED00E0C27810B503780AB3FA
:100C8000164A03F16043D1684278C943C1F3022197
:100C9000C1F1040402FA04F40F22CA40817803F57A
:100CA00061430A4022431201D2B283F80023037841
:100CB0000122590903F01F0302FA03F3084A42F81C
:100CC000213010BD5A09012103F01F0301FA03F37B
:100CD0000349203241F8223010BD00BF00ED00E092
:100CE00000E100E003880A8810B503F441544B8802
:100CF00013438A881343CA8813430A8913434A89D2
:100D000013438A891343CA89134323439BB2038045
:100D1000838B23F400631B041B0C83830B8A0382E5
:100D200010BD038819B19BB243F0400303E023F0E8
:100D300040031B041B0C038070478181704780892E
:100D400080B27047038819B19BB243F4005303E0AB
:100D500023F400531B041B0C0380704703891942C2
:100D600014BF01200020704710B5074C40F22551F8
:100D70002046FFF7CDFE2046BDE81040012240F29C
:100D80002551FFF7A3BE00BF0038014000EB8000F3
:100D9000430018460138FDD87047402808B5024680
:100DA00009D8BDE80840C0EB401002EB8000C0004D
:100DB00080B2FFF7EBBF4FF47A70FFF7E7FF013A1D
:100DC00092B2002AF7D108BD38B5044606F084FA7D
:100DD00080B20246002330B1013880B2215C2E2956
:100DE00008BF0346F7E713B9013A202010E0013BA2
:100DF000202182B29A4205DAA55C0130302D0AD159
:100E0000A154F6E738BD655C0133302D03D1605441
:100E100099B29142F7DB38BD0309092B00F00F00AE
:100E200094BF3033373309280B7094BF30303730DC
:100E3000002348708B70704713B50A46044601A919
:100E4000C0B2FFF7E9FF200A1146FFF7E5FF9DF862
:100E5000043093709DF80530D3709DF806301371FF
:100E600002B010BD13B50A46044601A9C0B2FFF78F
:100E7000D3FF9DF8043001A993719DF80530C4F3A8
:100E80000720D371FFF7C8FF9DF8043001A9137143
:100E90009DF80530C4F307405371FFF7BDFF9DF87F
:100EA000043001A993709DF80530200ED370FFF730
:100EB000B3FF9DF8043013709DF805305370002384
:100EC000137202B010BDF8B50D46069C00212170CA
:100ED0002978752931D16E78632E01D1017807E028
:100EE000692E01D1018803E06C2E40F0A7800168D3
:100EF000AF78682F17D1632E05D12146BDE8F840A1
:100F00000078FFF789BF692E05D12146BDE8F8407A
:100F10000088FFF791BF6C2E33D12146BDE8F84021
:100F20000068FFF79FBF2B2F2BD111B1277001262F
:100F300028E020202070012624E073297ED16978E2
:100F4000632902D190F9001007E0692902D1B0F9B4
:100F5000001002E06C2971D10168A8782B280AD111
:100F6000002903DA2D202070012608E008BF202088
:100F70002070012606E000294FF0000602DA4942FF
:100F800000E00026174618464FF0300E002806DA1B
:100F9000013FBFB2013004F807E000B2F6E703EA10
:100FA000E373134418BF01309BB218BF00B20A2785
:100FB0004FF02E0C9E4210D2013B9BB2C3EB020EAF
:100FC00086451FBFB1FBF7FE07FB1E113031E15410
:100FD0000CBF04F803C07146ECE70023A3547A2148
:100FE000284606F0B3F848B3AB782B2B0FD1601C22
:100FF000FFF7EAFE204606F06FF90123834205D28F
:10100000E25C202A0BD101339BB2F7E7F8BD204602
:10101000FFF7DAFE204606F05FF901230BE02278A5
:10102000234403F8012C20232370F8BDE25C202A1E
:10103000F5D101339BB28342F8D3F8BDF8BD00006F
:101040000A4B1A8892060FD509480A499A880388DC
:1010500009880133C3F3080389B28B4218BF0649DC
:10106000D2B21CBFCA540380704700BF0038014091
:10107000FA160020FC1600202019002010B50446A6
:1010800040210548FFF73EFD0028F9D021460248DF
:10109000FFF734FD012010BD0038014010B5441E9B
:1010A00014F8010F10B1FFF7E9FFF9E710BD0000D8
:1010B00008B540210248FFF725FD0028F9D008BDFA
:1010C00000380140044B1888044B80B21B889BB247
:1010D000C01A18BF01207047FA160020FC16002025
:1010E00010B50948094C2188038889B29BB29942FE
:1010F000054AF8D013880133C3F30803138013881B
:10110000034A9BB2D05C10BDFC160020FA160020EA
:101110002019002070B51E468AB00AAC24F81A0DBA
:1011200005AD134620460A4600950549FFF7CBFE5C
:101130002846FFF7B3FF3046FFF7B0FF0AB070BD97
:101140003C75000870B51E468AB00AAC44F81C0D08
:1011500005AD134620460A4600950549FFF7B3FE44
:101160002846FFF79BFF3046FFF798FF0AB070BD97
:10117000457500081FB5002300900C2269460848F9
:10118000ADF80430ADF80630ADF80830ADF80A20FF
:10119000ADF80C30FFF724FC05B05DF804FB00BF90
:1011A0000038014030B5012185B0284C44F20500DB
:1011B000FFF706FB4FF40073ADF80030032518234A
:1011C000694620468DF803308DF80250FFF7F4F998
:1011D0004FF480636946ADF80030204648238DF80F
:1011E000033004F540548DF80250FFF7E5F902A8EA
:1011F000FFF75AFC02A92046FFF746FC1448FFF708
:10120000B9FF252301258DF8043001A80F238DF89F
:1012100006308DF805508DF80750FFF72DFD0022A0
:10122000204640F22551FFF751FC204640F225515F
:10123000FFF76EFC074A00231380074A2946204621
:101240001380FFF737FC05B030BD00BF0008014038
:1012500080841E00FC160020FA16002008B5FFF757
:10126000A1FFBDE80840FFF77FBD0000034B01224E
:101270001A805A6801325A60704700BF600400202B
:101280000B4B0021198059600A4B0B4A1B68F02058
:10129000B3FBF2F34FF47A725343084A013B5360B5
:1012A000074B83F82300072391601360704700BF4A
:1012B000600400200000002040420F0010E000E029
:1012C00000ED00E02DE9F84F254B264D01281CBF0D
:1012D000AA461D46894614462349244A06BF9A4613
:1012E00088469046FFF728FC2846FFF79DFC042817
:1012F000074630D14FF6FF7BB9F1000F08BF4FF41E
:101300007A74013405F1100624F001043444C5EB6D
:101310000A0AA64217D0B9F1000F03D13AF8061015
:1013200089B203E0731B4B4433F8101C594501D1BB
:101330000236EEE7B0450DD93046FFF72FFC042802
:101340000746F5D007E04FF011312846FFF742FC81
:10135000074600E08027FFF7F9FB3846BDE8F88F25
:1013600000F0000800F40008FFF70008FFF3000891
:1013700010B5FFF7E1FB0748FFF756FC04280446C9
:1013800003D10548FFF750FC0446FFF7DFFB20467A
:1013900010BD00BF00F0000800F400080131C1F3E7
:1013A0004F0100239AB291420AD9B3F5FC7F09D0CC
:1013B000054A1A445200128820F813200133F1E73D
:1013C00004207047802070470878000438B50A462A
:1013D00004460D4601460020FFF774FFC0B2042802
:1013E00001D080B238BD2A4621460120FFF76AFFAE
:1013F000C0B238BD38B5164B1D68D3F80044B5F1FE
:10140000113F07D1B4F1113F01D104201DE0621C4E
:101410000ED104E06B1C0BD1B4F1113F08D10022B6
:1014200011460120FFF74EFFC0B204280DD1ECE7B2
:10143000FFF79EFFC0B2042807D1013504D1013463
:1014400014BF4020202000E0402080B238BD00BF03
:1014500000F00008054AC000138800F0380023F0AF
:1014600038031B041B0C03431380704700300140FA
:1014700030B5012189B04FF48050FFF7A1F9012167
:101480000520FFF79DF901210420FFF799F94FF49A
:1014900080713348FFF7E5F8032410234FF480757B
:1014A00002A92F488DF80B30ADF808508DF80A408E
:1014B000FFF782F829462A48FFF7D3F8A023ADF8B2
:1014C000083002A9182326488DF80B308DF80A4001
:1014D000FFF772F84023ADF8083002A948232048EE
:1014E0008DF80B308DF80A40FFF766F84FF48273E1
:1014F000ADF80E304FF40063ADF810304FF40073C8
:10150000ADF81630382300240125ADF8183003A9B2
:1015100007231448ADF81C30ADF80C40ADF812406C
:10152000ADF81450ADF81A40FFF7DCFB21460D482A
:10153000FFF708FC29460B48FFF7F3FB0221094897
:10154000FFF70CFC0028F9D00648FFF7F8FBADF8D0
:101550000600BDF806309BB2ADF8063009B030BDCC
:1015600000080140003001401FB501214FF4006028
:10157000FFF726F90023ADF80A30ADF806304FF634
:10158000FF73ADF80830094B094A1B68094CB3FBDF
:10159000F2F304A9013B21F80C3D2046FEF7B6FD0D
:1015A00001212046FEF7FAFE04B010BD0000002025
:1015B00040420F00002C014072B6064B9B8C9BB240
:1015C00062B6054A91889380994282BF11680131C1
:1015D00011607047002C01402C17002008B5012035
:1015E000FFF7C2FF034B00219A8C034B19609A80CE
:1015F00008BD00BF002C01402C170020024B002228
:101600009A805A801A8070475C1800202DE9F041BA
:101610000646884686B001210720FFF7DDF8012144
:101620000D20FFF7CDF803240823182501A93C4815
:10163000ADF804308DF807508DF80640FEF7BCFF7A
:10164000ADF804408DF807508DF80640002506AC33
:1016500001A93448FEF7B0FF24F8105DADF80C6026
:10166000314E324F202321464FF08040ADF80A30F2
:10167000ADF80E50FEF74AFD21463046FEF746FD16
:1016800021463846FEF742FD602321464FF0804058
:10169000ADF80830ADF81450ADF81650ADF8105054
:1016A000ADF81250ADF80A50ADF80C50ADF80E8000
:1016B000FEF7BAFD21464FF08040FEF7F9FD2146C6
:1016C0004FF08040FEF736FE21463046FEF768FDBB
:1016D00021463046FEF7A8FD21463046FEF7E8FDDC
:1016E00021463046FEF726FE21463846FEF7E0FD4D
:1016F00021463846FEF71EFE4FF0804213889BB20B
:1017000043F00103138033889BB243F0010333801D
:101710003B889BB243F001033B8006B0BDE8F081FB
:1017200000080140000C0140000400400008004097
:10173000154810B5838A5BB90488C18882894FF047
:101740008043A3F84040A3F83C14A3F8402410BD04
:10175000038803EB4301C3EBC10399B2C38803EBD6
:101760004302C3EBC2039AB2838903EB4300C3EB8A
:10177000C0034FF08040A0F8401004499BB28A8714
:10178000A1F8403010BD00BF401B00200004004005
:101790002DE9FF414FF08042138C2949294E0B80DF
:1017A000338C294D4B802B8C0F468B800023138468
:1017B0000446338420212B84DFF89080C8B1ADF833
:1017C000061048F60A211046ADF8081001A9ADF838
:1017D0000A30ADF80430FEF799FC01A93046FEF757
:1017E00095FC01A92846FEF791FC0123A8F81430C6
:1017F00017E040F20A63ADF80A00ADF80610ADF844
:10180000040001A91046ADF80830FEF77FFC01A9DD
:101810003046FEF77BFC01A92846FEF777FCA8F8C6
:101820001440FFF785FF3A884FF080431A847A8886
:10183000A3F82024BA88A3F8202804B0BDE8F081DA
:101840005C1800200004004000080040401B0020FD
:1018500038B50B4D0024204605F01AF8094905F06B
:101860006BF804F079F8084905F066F805F02AFAF3
:101870000134B4F57C7F45F8040FECD138BD00BFCE
:10188000541B0020DE40CC3B00803848FA28034B34
:1018900028BFFA20A3F8E20F704700BF401B0020CA
:1018A0001B4B10B5B0F57C7FA3F8DC0F24BFA0F56F
:1018B0007C7080B2821DB3F8E24F53F8222062435D
:1018C000120C02F540721A8000F5A87292B2B2F5BD
:1018D0007C7F24BFA0F5287082B202F5A87080B288
:1018E000B0F57C7F24BFA2F5287080B2911D063030
:1018F00053F8211053F8202061436243090C120C65
:1019000001F5407102F54072D9809A8110BD00BF87
:10191000401B00201349144BB1F8E80F00229A80B5
:101920005A801A8020F0070292B2C006A1F8E82F70
:101930000DD5B1F8EA0F022809D84FF4805018806D
:1019400042F001024FF488505880A1F8E82F19881E
:101950004FF0804211845A88044B1A840022A3F865
:1019600020247047401B00205C1800200004004029
:10197000064BB3F8E82F20B142F01002A3F8E82F8D
:10198000704722F01002A3F8E82F7047401B002098
:10199000024BB3F8E80FC0F300107047401B002063
:1019A000021C08B518BF0122FFF7F2FF904205D0D4
:1019B0001046FFF7DDFF024B01221A8008BD00BF71
:1019C0009A160020054BB3F8EA2F82421FBFA3F8F6
:1019D000EA0F034B01221A80704700BF401B002012
:1019E0009A160020094B00309A8A18BF01208242C3
:1019F0000AD0B3F8EA2F012A04D1D3F8EC3FB3F1AF
:101A0000011F01D0FFF7C4BE704700BF401B00207C
:101A100008B5FFF7F3FD154B00224FF440715A82D1
:101A20009A82A3F8DC2FA3F8DE2FA3F8E02FA3F807
:101A3000E22FA3F8E42FA3F8E62FA3F8E82F032260
:101A4000A3F8EA2FA3F8EC2FA3F8EE2F9981D98001
:101A50001980D9811981598019825981998001226F
:101A600040F20A60BDE80840FFF7D0BD401B0020EF
:101A700010B54FF4004086B0FEF756FE012140F24B
:101A80000520FEF79DFE002306A98DF803300322F2
:101A900001938DF8083004932023012421F8183D88
:101AA0008DF8022016484FF4602203928DF8094009
:101AB0008DF81440FEF780FD01A91248FEF7B0FE34
:101AC0000723224605210F48FEF7F2FE0D48214666
:101AD000FEF7CAFE0B48FEF7D0FE0A48FEF7D2FE1C
:101AE0000028FAD10748FEF7D1FE0648FEF7D3FEDC
:101AF0000028FAD101210348FEF7D1FE06B010BD3F
:101B0000000801400024014010B504460248FEF7D9
:101B100016FF2080012010BD0024014008B5FFF70A
:101B2000A7FCBDE808400220FFF794BC38B54FF48D
:101B3000807105463148FEF796FD00BF00BF00BF2B
:101B400000BF00BF00BF00BF00BF00BF00BF00BF9D
:101B500000BF00BF00BF00BF47F6FD712848FFF778
:101B6000ECF801212648FFF7F9F80028F9D02448BD
:101B7000FFF7E5F84FF480712048FEF772FD00BFD3
:101B800000BF00BF00BF00BF00BF00BF00BF00BF5D
:101B900000BF00BF00BF00BF00BF00BF4FF4807197
:101BA0001648FEF760FD00BF00BF00BF00BF00BFCA
:101BB00000BF00BF00BF00BF00BF00BF00BF00BF2D
:101BC00000BF00BF4FF440410D48FFF7B6F80121B8
:101BD0000B48FFF7C3F80028F9D00948FFF7AFF822
:101BE00004464FF480710548FEF73BFDC4F30D0336
:101BF00084F480402B80C0F3803038BD0008014061
:101C000000300140034640F24C4200F400600028DE
:101C100012BF4FF47A700020642213F4806F18BF53
:101C200010469A0548BF0A30DA0548BF0130DBB2DA
:101C300048BF80B20B80704738B54FF480710546BD
:101C40003148FEF710FD00BF00BF00BF00BF00BF5E
:101C500000BF00BF00BF00BF00BF00BF00BF00BF8C
:101C600000BF00BF4FF6FF712848FFF766F801215B
:101C70002648FFF773F80028F9D02448FFF75FF8EB
:101C80004FF480712048FEF7ECFC00BF00BF00BF9E
:101C900000BF00BF00BF00BF00BF00BF00BF00BF4C
:101CA00000BF00BF00BF00BF4FF480711648FEF7B1
:101CB000DAFC00BF00BF00BF00BF00BF00BF00BF15
:101CC00000BF00BF00BF00BF00BF00BF00BF00BF1C
:101CD0004FF440410D48FFF730F801210B48FFF762
:101CE0003DF80028F9D00948FFF729F804464FF4D9
:101CF00080710548FEF7B5FCC4F30D0384F4804001
:101D00002B80C0F3803038BD000801400030014016
:101D100038B504460D464F484FF48071FEF7A3FCDA
:101D200000BF00BF00BF00BF00BF00BF00BF00BFBB
:101D300000BF00BF00BF00BF00BF00BF00BF47F62D
:101D4000FD714548FEF7F9FF01214348FFF706F80A
:101D50000028F9D04048FEF7F2FF4FF480713D486B
:101D6000FEF77FFC00BF00BF00BF00BF00BF00BF89
:101D700000BF00BF00BF00BF00BF00BF00BF00BF6B
:101D800000BF4FF480713348FEF76DFC00BF00BF09
:101D900000BF00BF00BF00BF00BF00BF00BF00BF4B
:101DA00000BF00BF00BF00BF00BF47F6FE712A485A
:101DB000FEF7C3FF01212848FEF7D0FF0028F9D025
:101DC0002548FEF7BCFFC0F30D0020804FF4807162
:101DD0002048FEF746FC00BF00BF00BF00BF00BFA9
:101DE00000BF00BF00BF00BF00BF00BF00BF00BFFB
:101DF00000BF00BF4FF480711648FEF734FC00BFEF
:101E000000BF00BF00BF00BF00BF00BF00BF00BFDA
:101E100000BF00BF00BF00BF00BF00BF4FF4404184
:101E20000D48FEF78AFF01210B48FEF797FF0028B7
:101E3000F9D00948FEF783FF04464FF48071054846
:101E4000FEF70FFCC4F30D0384F480402B80C0F335
:101E5000803038BD000801400030014008B5FFF770
:101E600007FBBDE808400320FFF7F4BA38B5054684
:101E70000C4633484FF48071FEF7F5FB00BF00BFFE
:101E800000BF00BF00BF00BF00BF00BF00BF00BF5A
:101E900000BF00BF00BF00BF00BF48F201012948DA
:101EA000FEF74BFF01212748FEF758FF0028F9D025
:101EB0002448FEF744FF00BF00BF00BF00BF00BFC3
:101EC00000BF00BF00BF00BF00BF00BF00BF00BF1A
:101ED00000BF00BF4FF6FF711A48FEF72EFF012129
:101EE0001848FEF73BFF0028F9D01648FEF727FFF9
:101EF0004FF6FF7128801348FEF71FFF012111489C
:101F0000FEF72CFF0028F9D00E48FEF718FF2080BE
:101F100000BF00BF00BF00BF00BF00BF00BF00BFC9
:101F200000BF00BF00BF00BF00BF00BF00BF4FF435
:101F300080710348FEF795FB2088C0F3803038BDE0
:101F40000008014000300140024642F2107342F6A0
:101F5000F82100F48050002812BF184600204FF4EA
:101F60007A7112F4006F18BF0846130648BF643038
:101F7000510644BF00F10A0398B2930644BF0130F2
:101F800080B27047034640F24C4201B20029AEBF16
:101F90004FF47A700020642213F4804F08BF10467B
:101FA0009A0458BF0A30DB045CBF013080B270472E
:101FB00070B505460C464C484FF48071FEF753FB54
:101FC00000BF00BF00BF00BF00BF00BF00BF00BF19
:101FD00000BF00BF00BF00BF00BF00BF00BF48F28E
:101FE00001014248FEF7A9FE01214048FEF7B6FE76
:101FF0000028F9D03D48FEF7A2FE00BF00BF00BF99
:1020000000BF00BF00BF00BF00BF00BF00BF00BFD8
:1020100000BF00BF00BF00BF4FF6FF713348FEF79F
:102020008CFE01213148FEF799FE0028F9D02F4897
:10203000FEF785FE4FF6FF7128802C48FEF77DFEE7
:1020400001212A48FEF78AFE0028F9D02748FEF72A
:1020500076FE208000BF00BF00BF00BF00BF00BFF2
:1020600000BF00BF00BF00BF00BF00BF00BF00BF78
:1020700000BF4FF480711C48FEF7F3FA42F6F821D6
:102080002A8842F2107302F48056002E04BF002307
:102090004FF47A7112F4006F18BF0B46160648BF52
:1020A0006433510640F24C4144BF0A339BB296065A
:1020B00044BF01339BB220882B802288C0F380303C
:1020C00013B2002BAEBF4FF47A730023642112F4D5
:1020D000804F08BF0B46910458BF0A33D2045CBF3F
:1020E00001339BB2238070BD0008014000300140E5
:1020F00038B505460C462B484FF48071FEF7B3FA0D
:1021000000BF00BF00BF00BF00BF00BF00BF00BFD7
:1021100000BF00BF48F202112348FEF70EFE012166
:102120002148FEF71BFE0028F9D01F48FEF707FEE6
:1021300000BF00BF00BF00BF00BF00BF00BF00BFA7
:1021400000BF00BF4FF6FF711748FEF7F6FD0121F3
:102150001548FEF703FE0028F9D01348FEF7EFFDFF
:102160004FF6FF7128801048FEF7E7FD01210E4869
:10217000FEF7F4FD0028F9D00B48FEF7E0FD2080C3
:1021800000BF00BF00BF00BF00BF00BF00BF00BF57
:1021900000BF00BF4FF480710248FEF762FA0120D1
:1021A00038BD00BF000801400030014010B54FF4B9
:1021B000807104462448FEF756FA00BF00BF00BFF6
:1021C00000BF00BF00BF00BF00BF00BF00BF48F29C
:1021D00020011E48FEF7B1FD01211C48FEF7BEFD9F
:1021E0000028F9D01948FEF7AAFD00BF00BF00BFC4
:1021F00000BF00BF00BF00BF00BF00BF00BF4FF661
:10220000FF711248FEF799FD01211048FEF7A6FD67
:102210000028F9D00D48FEF792FD208000BF00BFD6
:1022200000BF00BF00BF00BF00BF00BF00BF00BFB6
:102230004FF480710448FEF714FAB4F9003001201D
:1022400043F30E03238010BD00080140003001401D
:102250000388024630B440689BB101FB00F31C4682
:102260000025158093FBF0F5491B0B44191B91FBCE
:10227000F0F1214491FBF0F030BC00B29360D160EA
:1022800070479368D468EDE7002310B5838283809C
:102290000360438B0446012B0AD11430FFF786FFFD
:1022A000B4F914305B001BB2A3801B0223602DE045
:1022B000022B12D11430FFF7BFFCB4F91430B3F580
:1022C000005FA4BFA3F58043A382B4F914309B0040
:1022D0001BB2A3801B02236018E0032B16D114301D
:1022E000FFF712FCA18A4FF4A573A1F5006109B2B2
:1022F000A182090159434FF4B47391FBF3F10648ED
:1023000009B2FFF7A5FFA08000022060A388238206
:102310002368A36010BD00BF340600200023838221
:10232000838003600382836070470000838810B558
:102330000382036804468360438B012B0AD1143067
:10234000FFF734FFB4F914305B001BB2A3801B020B
:1023500023602DE0022B12D11430FFF76DFCB4F98D
:102360001430B3F5005FA4BFA3F58043A382B4F992
:1023700014309B001BB2A3801B02236018E0032BC8
:1023800016D11430FFF7C0FBA18A4FF4A573A1F555
:10239000006109B2A182090159434FF4B47391FB62
:1023A000F3F1084809B2FFF753FFA0800002206054
:1023B000228AA3889B1A6382A26823689B1AE3601F
:1023C00010BD00BF34060020B0F90030002B0FD044
:1023D000BCBF5B421BB24FF0807292FBF3F38B42A7
:1023E00001DCC91AFBE7002901DA1944FBE7416067
:1023F000704700002DE9F04F4FEA012E2EF0404EBD
:102400002EF0FF0E0EF1604E8EFB0E45A30F43EA39
:102410008503BC4E4FEAA57C5A42A3FB064506FB4A
:102420000C26A40F3544B84E44EA8504B74F264421
:1024300006FB0CF407FB0C22A3FB0789F51791445C
:102440004FEA987803FB0542B14CA6FB036748EAC4
:102450008908444404FB0CF51744B60FAD4A46EA1C
:1024600087064FEAE479324403FB0956A4FB03458F
:1024700002FB0CFCD71735444FEA9478A64E03FBB9
:1024800007C448EA8508A2FB032346448EFB06677F
:102490002344940FA14A44EA83042244B30FC1F3B6
:1024A000815443EA8703022CC3EB020C85B013442A
:1024B00000F02581032C00F01F81012C08BF9C46F1
:1024C00001F1551202F5AA424FEA022A2AF0404AC7
:1024D0002AF0FF0A0AF1604A8AFB0A45A30F43EA81
:1024E0008503884E4FEAA57E5F42A3FB064506FBA7
:1024F0000E76A40F3544844E44EA8504DFF80C823E
:10250000264406FB0EF408FB0E77A3FB0889F5179B
:1025100003FB0545B9444FEA98787D4C48EA8908A1
:102520004444A046A6FB03672F44B50F794E45EA05
:1025300087052E444FEAE479CDE90289B04640F29E
:10254000E22B04FB0EF7039D4FEAE67903FB0577C8
:10255000A4FB034506FB0EFECDE9008980FB0C8938
:102560003D44019FC2F3815203FB07EC4FEA947E86
:10257000694CA6FB03674EEA850E4FEA98737444D4
:1025800043EA89038AFB04450BFB03FB4FEA967E73
:102590006744624E4EEA870EA30F4FEA2B44DFF8E2
:1025A00080B1764443EA850304F54074022AC3EB04
:1025B000060EABF80040334400F09B80032A00F085
:1025C0009580012A08BF9E4601F1AA1101F52A4112
:1025D0000A0222F0404222F0FF0202F1604282FB36
:1025E0000245A30F43EA8503464E4FEAA57C5F42AE
:1025F000A3FB064506FB0C76A40F3544424E44EA85
:102600008504DFF80881264406FB0CF408FB0C77F0
:10261000A3FB0889F51703FB0545B9444FEA9878F1
:102620003B4C48EA89084444A046A6FB03672F4474
:10263000B50F384E45EA87052E444FEAE479CDE9D7
:102640000289B04640F2E22A04FB0CF7039D4FEAF0
:10265000E67903FB0577A4FB0345CDE900898EFBF2
:10266000008906FB0CFC3D444FEA947E019F2A4CF6
:102670004EEA850E4FEA987503FB07CC7444A6FB1F
:10268000036745EA890582FB04230AFB05F46744D6
:10269000B60F224D46EA8706920F2414C1F38151EA
:1026A000354442EA830204F540740229A5EB020393
:1026B000ABF806402A4417D0032913D0012908BFDC
:1026C000134640F2E22283FB0001830F43EA8103B9
:1026D00002FB03F31B1403F54073ABF80C3005B099
:1026E000BDE8F08F5342ECE75B42EAE7C3F1000E2E
:1026F0006AE7CEF1000E67E7C3F1000CE0E6CCF12B
:10270000000CDDE69D2B16FF60DC780B1CBB8CFCFF
:1027100020B5311D00732BC800C7EAB8C03C412D5D
:10272000401B0020B1F5803F10B50446084604DC8C
:10273000114B9942B8BF184601E04FF480306368EE
:10274000D118B4F90030002B01FB03F107DD00289C
:10275000AEBF01F58001A1F58001404206E00028EE
:10276000AEBFA1F5800101F580014042FFF742FEB6
:10277000BDE81040FEF7DCBF0000FFFFF7B51823EF
:102780000124164D02AE8DF80730012103230420E9
:102790008DF80630FEF714F826F8044D3146284629
:1027A000FDF70AFF002221462846FDF75EFF21467D
:1027B0000520FEF705F821460948FDF75BFF4FF4B9
:1027C000004731462846ADF80470FDF7F5FE224675
:1027D00039462846FDF749FF03B0F0BD0008014027
:1027E0000002300010B50E4C012211462046FDF7C4
:1027F0003CFF00224FF400412046FDF736FF00BFAA
:1028000000BF00BF00BF00BF00BF00BF00BF00BFD0
:1028100000BF00BF00BF00BF00BF00BF10BD00BFB2
:102820000008014010B5074C002220460121FDF7A9
:102830001CFF2046BDE8104001224FF40041FDF787
:1028400014BF00BF0008014007B54FF40073ADF896
:10285000043018238DF8073001A9032305488DF8AB
:102860000630FDF7A9FE0120FEF790FA03B05DF8EF
:1028700004FB00BF0008014007B5FEF719FC01206A
:10288000FEF784FA4FF40073ADF8043048238DF856
:10289000073001A9032304488DF80630FDF78CFEAC
:1028A00003B05DF804FB00BF000801402DE9F041D2
:1028B0000646884605460024AB1BDBB2434506D2DC
:1028C00015F8017B3846FEF7D9FB7C40F4E720463B
:1028D000BDE8F041FEF7D2BB70B504460D46067860
:1028E0003046FEF7CBFB64782046FEF7C7FB74400A
:1028F0002846FEF7C3FB85EA0400BDE87040FEF7FA
:10290000BDBB00000A4AFF2191800A490023538081
:1029100013809160084A3F219180084953801380B9
:102920009160074A0121918013805380704700BF56
:102930001C060020DC040020201B00208218002040
:10294000A416002008B5FFF719FF074B00221A60F4
:102950005A609A60DA601A825A829A82FEF77EFC86
:10296000BDE80840FFF7CEBF4418002007B54FF47C
:102970004070FEF777F9114BE02283F82320012104
:102980000420FDF71DFF0223ADF80430102301A938
:102990000B488DF8073003238DF80630FDF70CFE49
:1029A000FFF7D0FFFFF73EFFFFF766FFFEF716FECB
:1029B000FEF766FC03B05DF804FB00BF00ED00E02D
:1029C0000008014008B5114B114C1B6811482360E9
:1029D000FDF796FD1048FDF793FD1048FDF790FDBB
:1029E0000F48FDF7AFFFFDF775FE0E4B0020186096
:1029F00058609860FDF78EFE0120FDF7DEFC0A4B63
:102A00001868FDF7D7FC23689847FEE704F0FF1F1E
:102A10002C1B002000080140000C01400010014068
:102A20000038014010E000E000F0FF1F064A138864
:102A300043B1064B51889B8C5B1A9BB2642B84BFBD
:102A400000231380704700BF34170020002C014082
:102A5000034B00221A805A809A80DA80704700BFA8
:102A600034170020F0B5364B87B09B78013B032B21
:102A700063D8DFE803F0020E284AFFF7E5FEFFF710
:102A8000B1FE304B1D782846FEF7F8FA2E4B1C7825
:102A900046E001AEFFF7D8FEFFF7A4FE10220021AA
:102AA000304604F005FB00242849304604F0B6FB0C
:102AB0002546375D01343846FEF7E0FA102C85EAEA
:102AC0000705F6D118E001AEFFF7BEFEFFF78AFE5C
:102AD00010220021304604F0EBFA00241C49304655
:102AE00004F09CFB2546375D01343846FEF7C6FAF4
:102AF000102C85EA0705F6D12846FEF7BFFAFFF746
:102B000091FEFFF7B9FE012018E0124CFFF79CFE82
:102B1000FFF768FE25782846FEF7B0FA2488240AD5
:102B20002046FEF7ABFA85EA0400FEF7A7FAFFF7A6
:102B300079FEFFF7A1FE012000E0002007B0F0BD04
:102B4000121900203C1B002030060020B57500083B
:102B5000BC750008B6040020054B072100229980AF
:102B600001215A80DA801A8159819A81704700BF09
:102B70002C18002038B51622FF21334804F098FAAB
:102B8000FEF738FCC0B204282F4C0AD01622FF21D1
:102B90002D4804F08DFAFEF72DFCC0B204280FD1A9
:102BA00007E016212046FEF7F9FBC0B204280CD03E
:102BB000ECE716212448FEF7F1FBC0B2042804D04C
:102BC0001622FF21204804F073FA23881E4D272B7C
:102BD00024D0FFF7C1FF2B88202B02D8FFF7BCFFC2
:102BE00012E0212B08D116212846FEF7D7FB01233E
:102BF0006B810023AB8107E0262B05D816212846E0
:102C0000FEF7CCFB0023AB8127231049104823801B
:102C100004F004FB16210C48FEF7D8FB6388043B44
:102C20009BB2022B82BF084B00225A806389032B80
:102C300082BF054B01225A81A3893F2B82BF024BE1
:102C400000229A8138BD00BF2C180020C9750008E9
:102C50003A180020F7B501210420FDF7B1FD482600
:102C60001023032501A94648ADF8043004248DF84B
:102C700007608DF80650FDF79FFC01210420FDF749
:102C80009FFD0DEB04013E488DF80760ADF8044050
:102C90008DF80650FDF790FC3A4B3B4E5B88A34203
:102CA00068D0052B66D0062B02D10623338065E061
:102CB0003480002540243248FDF7D0FC013CC20698
:102CC00048BF0135A4B248BFADB2002CF3D1302DBE
:102CD0001ED80F2D1DD92D4C254648F6B800FEF7FD
:102CE00055F8B4F90030002B04DA012202212448FF
:102CF000FDF7BBFC48F6B800FEF748F8B5F9003020
:102D0000002BEADA002202211D48FDF7AEFCE4E7C1
:102D10000124402700251A48FDF7A0FC013F430786
:102D200048BF0135BFB248BFADB2002FF3D1302D3F
:102D30001ED80F2D20D9154C254648F6B800FEF7B1
:102D400025F8B4F90030002B04DA012202210C48E6
:102D5000FDF78BFC48F6B800FEF718F8B5F900301F
:102D6000002BEADA002202210548FDF77EFCE4E7A9
:102D700024B90523338001E0002C96D103B0F0BDC7
:102D8000000801402C180020B80400202800002072
:102D900037B5FFF7EFFEFFF75DFF334B334C9A8CEF
:102DA000334B1A80334A4FF4805313806389012BCD
:102DB00003D141F2010111800AE0022B03D141F25B
:102DC0000201118004E0032B04BF41F203011180D2
:102DD000A2892949002A08BF01224A6001220A80EB
:102DE000264A012B538315460AD1FFF737F80DF118
:102DF000060101A8FFF7DCF8BDF806307BB92DE02D
:102E0000022B07D1FEF78AFE0DF10600FEF78EFEBB
:102E100028B123E0032B02D1FEF72AFE1EE0002397
:102E20006B831648FFF730FA154800254560A388E4
:102E3000D4F806100380FFF7C7FAFEF7E9FDFEF7A6
:102E400007FD104B2846A3F8E25FFEF791FD032033
:102E5000FEF7B8FDFEF75EFD03B030BD0A4A1388E9
:102E600043F080031380DCE7002C01402C18002085
:102E7000F8160020B60400203406002010170020A9
:102E800018190020401B00203C1B002008B50C4AEC
:102E90000C4B12889B8C9B1A42F210729BB293428D
:102EA0000CD90020FEF77CFD074B1A88012A05D1BA
:102EB00000221A80BDE80840FEF72CBD08BD00BF07
:102EC000F8160020002C01409A16002008B5044B8B
:102ED0001B881B0602D50348FFF728FA142008BDFB
:102EE0003C1B00201017002008B5FEF751FD044BD5
:102EF00010B996221A8008BD4FF4FA721A8008BDE4
:102F00002800002008B50C4B1B889BB9FFF7AAFDD1
:102F10000A4B9B78752B0DD1FFF796FCFFF762FCEF
:102F200006210748FFF7C2FCFFF77CFCBDE808401C
:102F3000FFF7A2BC08BD00BFEC170020121900204B
:102F400030180020F8B54B4B1C88002C40F09080C6
:102F5000494E4A4D30782C8000F04000FEF742FD8B
:102F6000307800F01000FEF71BFD454B31461B8802
:102F7000042B0CD1337813F0010F0CBF0320002079
:102F8000FEF720FD76788C787000CB781CE0052B5E
:102F90000CD1337813F0020F0CBF03200020FEF792
:102FA00011FD36794C7970008B790DE0062B22D11A
:102FB000337813F0040F0CBF03200020FEF702FD4E
:102FC000F6790C7A4B7A700004F07F07E401DA019D
:102FD00006F07F0604F47E549B03344403F4FE138E
:102FE0001C4402F46072E6023A4407D56FEA0434E6
:102FF0006FEA143402E020464FF4FC720B789B0613
:103000001BD5204B204E1B8813F0800F08D0304674
:10301000FFF78CF9326821461C48FFF783FB1AE062
:103020001A4A3168536820460B44B2F900105943DC
:10303000FFF7E0F9FEF77CFB0DE0FEF727FC1046FA
:10304000B0F57C7F02DBA0F57C70F9E780B2FEF77B
:1030500027FCFEF76DFB2B88012B04D1074B0022C8
:103060001A80FEF757FC0A4B9A8C0A4B1A80F8BD5F
:10307000F8BD00BFEC170020DC0500209A160020E8
:10308000B80400203C1B0020101700201819002055
:10309000002C0140F8160020034B1B881B0602D5AC
:1030A0000248FFF743B970473C1B0020101700206F
:1030B00008B50A4B0A4A1B8813F0800F06D0094B4B
:1030C0009988094B19800523137004E00548FFF720
:1030D00025F901231370072008BD00BF3C1B002009
:1030E0009C1600201017002010190020024B0348E6
:1030F0001978FFF7F1BB00BF9C16002010190020C3
:10310000074BD88850B11A8912B90138188101E0EB
:10311000013A1A811889B0FA80F04009704700BF5F
:10312000301B0020024A938801339380704700BF10
:10313000301B0020024B00221A81DA809A807047EF
:10314000301B0020024B00221A805A809A80704760
:10315000AC16002008B5FDF7C3FF064B99884A1C42
:1031600092B2382A19449A80887184BF38229A8092
:1031700008BD00BFAC1600200A2801D03B2807D1AB
:10318000044B00219A8801201A449171998070475C
:1031900000207047AC160020044A00239380044AA4
:1031A000044813805380FDF779BF00BF301B002017
:1031B000AC160020CE75000808B5FFF7BBFF044B26
:1031C00000221A805A800348BDE80840FDF766BF18
:1031D000AC160020CE75000838B5054604F07CF822
:1031E00029460246084804F0A5F8044648B928468E
:1031F000FDF754FF0548FDF751FF054B01209C7179
:1032000038BD002038BD00BFB2160020507600083F
:10321000AC1600202DE9F0410746884604F05CF822
:10322000104C024606463946204604F083F805460F
:10323000A8B9A01903F034FF06B2A8F80060384618
:10324000FDF72CFF0848FDF729FF3046074B2A46BB
:103250000721FDF75FFF25700120BDE8F081002008
:10326000BDE8F081B21600207A760008507600089A
:103270002DE9F0410746884604F02EF8104C02462E
:1032800006463946204604F055F80546A8B9A01967
:1032900003F00AFF0646C8F800003846FDF7FEFEB8
:1032A0000848FDF7FBFE3046074B2A460A21FDF78A
:1032B00049FF25700120BDE8F0810020BDE8F081C4
:1032C000B21600207A7600085076000810B507483C
:1032D000FDF7E4FE0648FDF7E1FEBDE810400548B5
:1032E000054B00220E21C068FDF72CBFD1750008E8
:1032F000E1750008441800205076000810B52C48ED
:103300002C4CFDF7CBFE2C48FDF7C8FE2B4B0022C2
:103310000521B4F90000FDF7FDFE2948FDF7BEFECA
:10332000264B00220521B4F90200FDF7F3FE2548E3
:10333000FDF7B4FE244B00220521B4F90A00FDF785
:10334000E9FE6389022B07D0032B09D0012B0BD197
:103350001E48FDF7A3FE0AE01D48FDF79FFE06E0AC
:103360001C48FDF79BFE02E01B48FDF797FE1B483B
:10337000FDF794FE114B00220A21B4F90400FDF779
:10338000C9FE1748FDF78AFE0C4B00220A21D4F82B
:103390000600FDF7D7FE1348FDF780FEB4F90C00D8
:1033A000064B00220521BDE81040FDF7B3BE00BF6B
:1033B000E77500082C1800200476000850760008F5
:1033C0000D76000818760008277600082B7600088E
:1033D0003A76000848760008537600085A760008C6
:1033E0006B7600087C7600080023836043600360EE
:1033F000C360036143618361C1617047F0B5891A9D
:10340000B1F5004F02DBA1F58031F9E7C1F5FF43CB
:103410007F331B0C1B040468194481FB0445230CF7
:10342000846843EA05430161C360BCB181FB044584
:10343000260C46EA05462F14B6F1011F77F100016C
:10344000AABF4FF4803146614161416911F5803F67
:10345000BCBF1049416141690B44C3604468B4B1C9
:10346000C369D11AB1F5004F02DBA1F58031F9E74C
:10347000C1F5FF437F331B0C1B040B4484FB034546
:103480008361210CC36841EA05415B1AC360C261D4
:10349000F0BD00BF0000FFFF044B4FF480429A6074
:1034A000002283E80300DA60704700BF6804002050
:1034B00008B5044BD9689860FEF79CFFBDE808404A
:1034C000FEF736B96804002008B5054B0146D86000
:1034D0009868FEF78FFFBDE80840FEF729B900BFE6
:1034E0006804002008B5054BD96801449868D96084
:1034F000FEF780FFBDE80840FEF71AB96804002017
:1035000008B50848FDF7CAFD074B002258680A2194
:10351000064BB0F90000FDF715FEBDE80840044871
:10352000FDF7BCBD84760008680400201C77000805
:103530005076000808B50848FDF7B0FD074B00229B
:1035400058680A21064B4068FDF7FCFDBDE80840BD
:103550000448FDF7A3BD00BF927600086804002070
:103560001C7700085076000808B54FF48040FFF73C
:103570009FFF0E490E4BCA6809681A60096800224D
:10358000D9604FF480415A609A601A619A82DA8257
:103590009A619A83DA831A845A6219855A85DA62A3
:1035A00019865A869A869A6308BD00BF680400206F
:1035B000F01700202DE9F843814688461F461F4C2E
:1035C0001F48204D1646234600220A210068FDF7B9
:1035D000B9FDE8680821234608410022FDF7B2FD45
:1035E0002868234600220821B0F90400FDF7AAFD4F
:1035F0002346484600220821FDF78CFD2346002281
:1036000008214046FDF786FD3846FEF7BBFC234601
:103610000022052100B2FDF77DFD3046FEF794FC47
:1036200023460022062100B2FDF774FD0648FDF78F
:1036300035FDBDE8F843C820FDF7A8BB1C7700089E
:10364000301B00206804002050760008F7B50746BC
:103650000E461F4C1F48204D234600220A210068B9
:10366000FDF770FDE8680821234608410022FDF7B8
:1036700069FD2868234600220821B0F90400FDF7FF
:1036800061FD234638B200220821FDF743FD0022E8
:10369000234610460821FDF73DFD0DF10601304699
:1036A000FEF7B0FA23460022052100B2FDF732FDF5
:1036B000234600220521BDF90600FDF72BFD074832
:1036C000FDF7ECFCC820FDF761FB03B0F0BD00BFC7
:1036D0001C770008301B002068040020507600088A
:1036E00073B5704C44F28910FFF7FCFE636803F574
:1036F0008343093363606C4B1A68E3681168CB1A23
:10370000B3F5000F02DB03F17F4304E013F5000F74
:10371000B8BF03F18073E160A168624D0B44A36000
:10372000538B012B51D16420FDF730FB0DF10201C9
:103730006846FEF79BFBBDF80000FEF705FC05465A
:10374000BDF80200FEF71EFC05B910B1A36B0133F2
:10375000A3636420FDF71AFB0DF1060101A8FEF733
:10376000C7FCBDF9043022691A442261B4F914205F
:103770009A42C4BF4B4A9382B4F916209A42BCBF06
:10378000484AD382BDF90630A2691A44A261B4F94D
:103790001C209A42C4BF434A9383B4F91E209A4224
:1037A000BCBF404AD383238C01332384FFF7A8FC9A
:1037B000002851D0BDF80230BDF80020BDF9061038
:1037C000BDF90400FFF7F6FE46E0022B41D164206C
:1037D000FDF7DCFA01A90DF10200FEF799FA0646A1
:1037E0000DF10601BDF80200FEF70CFA16B9AB6B3D
:1037F0000133AB63BDF80430626A1A446262B4F903
:1038000028209342BCBF274A1385B4F92A2093424B
:10381000C4BF244A5385BDF80630E26A1A44E26206
:10382000B4F930209342BCBF1E4A1386B4F932204B
:103830009342C4BF1B4A5386A38E0133A386FFF76E
:103840005FFC48B1BDF80210BDF80400FFF7FEFEB2
:1038500002E0AB6B0133AB63A36B124DB3F5806F2A
:103860001BD86B6803F12053B3F1A04F04D943F286
:1038700039030120AB6313E0AB680C4A03F1FF137B
:1038800003F57F4393420AD94FF48040FFF710FEBF
:103890002868FFF719FE012002E0012000E0002067
:1038A00002B070BDF017002068040020FEFFFF0189
:1038B00038B5484B484C1B685B8B012B36D14748C9
:1038C000FDF7ECFB464B00220821B4F91400FDF78C
:1038D00039FC434B00220821B4F91600FDF732FCF5
:1038E0002569B4F920003E4B0022082195FBF0F039
:1038F000FDF728FC3B48FDF7D1FB46F2A810FDF789
:1039000045FA3948FDF7CAFB354B00220821B4F9C6
:103910001C00FDF717FCB4F91E00314B00220821F2
:10392000FDF710FCB4F92000A56937E0022B43D164
:103930002E48FDF7B3FB2A4B00220821B4F92800DA
:10394000FDF700FC264B00220821B4F92A00FDF700
:10395000F9FB656AB4F93400214B0022082195FB7C
:10396000F0F0FDF7EFFB1F48FDF798FB46F2A810BB
:10397000FDF70CFA1E48FDF791FB194B00220821B8
:10398000B4F93000FDF7DEFBB4F93200144B00222D
:103990000821FDF7D7FBB4F93400E56A104B00228B
:1039A000082195FBF0F0FDF7CDFB0E48FDF776FB07
:1039B00046F2A810FDF7EAF90E48FDF76FFBA06B81
:1039C000074B00220821FDF7BDFBBDE83840054844
:1039D000FDF764BB68040020F0170020997600080A
:1039E0001C77000850760008A1760008A976000828
:1039F000B0760008B776000838B5074D074CEB687D
:103A00004FF480402360FFF753FD00236360A36001
:103A10002B681B68E36038BD680400200017002095
:103A200070B544F28910FFF75DFD1B4A1B485368CF
:103A3000114603F5834309335360036804461E6847
:103A4000D368F31AB3F5000F02DB03F17F4304E000
:103A500013F5000FB8BF03F180738A680E4D13444D
:103A60008B600F4A03F1FF1303F57F439342CE604F
:103A700010D94FF48040FFF71BFD2868FFF724FDA5
:103A80006B68A96803F5000393FBF1F362680120FA
:103A9000138070BD002070BD001700206804002056
:103AA000FEFFFF0110B50C46FFF702FD0F4B10495A
:103AB0000322DA80CA680968002009689A601961DF
:103AC0004FF6FF710022998000211C60DA60C3E983
:103AD0000601C3E90801C3E90A01C3E90C011A643C
:103AE000DA639A63DA649A645A6410BD4806002067
:103AF00068040020214810B5214C224B00220A21E5
:103B00000068FDF71FFBE068082108411D4B0022FB
:103B1000FDF718FB206908211A4B08410022FDF728
:103B200011FBE3682069181AB0F5000F02DB00F101
:103B30007F4004E010F5000FB8BF00F1807008214D
:103B40000841104B0022FDF7FDFAB4F904000D4BBB
:103B500000220821FDF7DEFA00221046094B082159
:103B6000FDF7D8FA00221046064B0821FDF7D2FADD
:103B7000BDE810400448FDF791BA00BF301B00209B
:103B8000480600201C7700085076000838B5134C12
:103B9000A068002821D0124B5B68B3F9005023685D
:103BA00003FB05F508DDA842ADBF401B0023A36061
:103BB000A060A068FFF788FCA368084A002B0BDA16
:103BC00069428B42CBBF0023ED1893609560A068DB
:103BD000FFF77AFC012038BD012038BD48060020DF
:103BE000680400202DE9F041FFF7D0FF064608B138
:103BF0000026BDE060490A68CB68002A1344CB6008
:103C0000884614DDB3F1807F19DB8B88C8F80C007F
:103C1000591CB8F9060009B28842A8F804100EDC55
:103C200052420233C8F80020A8F8043007E0002B05
:103C300005DA03F18073CB608B88013B8B804F4D9D
:103C4000D8F80C006B684C4FB3F900305843FFF7BD
:103C50003BFC2B68D8F800E01B68BEF1000FC8F8E9
:103C6000103010DAB7F90420002A0CDA4FF4804043
:103C7000FFF71EFCB96B7B6C686819444910FEF7AE
:103C8000A3FB012674E0B8F904703B4A002F03DB64
:103C9000B2F90610B9420ADC00220023C8E9062363
:103CA000C8E90823C8E90A23C8E90C2360E0D468FE
:103CB000E41AB4F5000F02DB04F17F4404E014F5CC
:103CC000000FB8BF04F18074D8E906010019D8E9E3
:103CD0000A2341EBE471013243F10003BEF1000F0E
:103CE000254DC8E90601C8E90A231EDD03F010F8D6
:103CF000002FA86335DDD5E90C23241A002CB8BFAA
:103D00006442D5E90801001941EBE471013243F145
:103D10000003C5E90C23C5E9080102F0F9FF2B6C8B
:103D2000E863A3421DDA2C641BE002F0F1FFD5E941
:103D30000C23241A002CB8BF64426864D5E908013A
:103D4000001941EBE471013243F10003C5E90C2392
:103D5000C5E9080102F0DCFFEB6CA864A342B8BF20
:103D6000EC64FFF7CDF900283FF442AFFFF7C2FE45
:103D70003046BDE8F08100BF4806002068040020FE
:103D8000F8B53A4C3A48FDF789F923684FF47A7050
:103D900043431B135843374D374B03220A2100136B
:103DA000FDF7D0F93548FDF779F92B46A06B0022D5
:103DB0000A21FDF7C7F9324E2B46E06B00220A219B
:103DC000FDF7C0F92B4600220A21206CFDF7BAF955
:103DD0003046FDF763F946F2A810FCF7D7FF2948F3
:103DE000FDF75CF92B46606C00220A21FDF7AAF969
:103DF0002B46A06C00220A21FDF7A4F92B460022D5
:103E00000A21E06CFDF79EF93046FDF747F946F2CE
:103E1000A810FCF7BBFF1C48FDF740F9636CA06BD2
:103E2000002218440A212B464010FDF78BF9A76B9E
:103E3000606C2B4600220A21381AFDF783F93046C0
:103E4000FDF72CF946F2A810FCF7A0FF0F48FDF78C
:103E500025F90F4B002258680A212B464068FDF7D0
:103E600071F93046BDE8F840FDF718B94806002062
:103E7000C17600081C770008CA760008CF760008D3
:103E800050760008DA760008E57600089276000899
:103E900068040020002230B51446144B14485A60C0
:103EA0009A60DA6015186C6014500832B2F5805FC1
:103EB0004FF00001F6D101225A824FF400729A822B
:103EC0000C4A802012681882B2F90420D9825A83E1
:103ED00092FBF0F2D2019A834FF6FF721983DA83D4
:103EE000198459629962D962196330BD8004002037
:103EF000980600206804002038B51A481A4C1B4D5B
:103F0000234600220A210068FDF71CF92346686A4F
:103F100000220821FDF716F92346E86A002208214D
:103F2000FDF710F92346A86A00220821FDF70AF9D7
:103F30002346286B00220821FDF704F92346B5F932
:103F40001E0000220821FDF7FDF8B5F920002346E8
:103F500000220821FDF7F6F8BDE838400448FDF7D7
:103F60009DB800BF301B00201C7700088004002093
:103F700050760008F8B5964EF58A3446012D22D0C9
:103F800009D3022D40F02081B6F914100022B6F9B1
:103F900012609048A2E0B6F91C1011B90123F38217
:103FA00013E18D4C2031236809B2B3F90420306845
:103FB000B183FFF723FA226833681268D968606812
:103FC000FEF7B0FB01E1338B13B9C723338301E064
:103FD000013B3383258B7E4B632D7F4E6CD832683B
:103FE000B2F90400DA6A10441A68D862D1689A6A91
:103FF00011441A6B996201321A63002D5CD190FB57
:10400000F2F091FBF2F2B3F91E10D86200299A6225
:104010001ADBB3F91200884216DDB3F9101000293B
:10402000B3F920106B4BD5BF03EBC10353F831003C
:1040300059681218D6BF521843F831205A60FFF75A
:104040005FF808B1FFF758FFB4F91000A18B604B7F
:1040500082B211440028A183198C15DD0131B3F916
:10406000140009B28842198422DC00211984D98BFA
:10407000B3F91250481C00B28542D88318DC524272
:1040800002311A82D98313E0013909B20029198457
:104090000EDA998A01391984D98B013909B20029BC
:1040A000D98305DA52421A82DA8A0132DA828CE046
:1040B0000023A362E36223633368B4F91C10B3F9ED
:1040C000042020686162FFF799F93268236812685A
:1040D000D9687068FEF726FB002576E093B28B4224
:1040E00002F101020CDA50F8335095FBF6F540F876
:1040F000335000EBC3035D6895FBF6F55D60EDE7BB
:1041000000231D461846334E63609AB291420EDD7D
:1041100006EBC2077F6856F832200133D21B002A13
:10412000B8BF52429042BCBF10460125EDE705B131
:1041300060606568022395FBF3F500231F461E4669
:104140001846DFF890E06560A3609AB2914211DDF5
:104150000EEBC20CDCF804C05EF832200133CCEB6D
:104160000202002AB8BF52429542C2BFB6180130BF
:104170000127EAE707B1A660A368DFF858E093FBE0
:10418000F0F000231F461E461D46A060E3609AB271
:10419000914211DD0EEBC20CDCF804C05EF8322057
:1041A0000133CCEB0202002AB8BF52429042BEBF9C
:1041B000B61801350127EAE707B1E660E36893FB2B
:1041C000F5F30125E36000E001252846F8BD00BFB6
:1041D00080040020980600206804002038B5104DA7
:1041E000104C1148FCF75AFF2B466068002208214A
:1041F000FCF7A8FF2B46A06800220821FCF7A2FFCD
:10420000E0680A4C2B4600220821FCF79BFF204661
:10421000FCF744FF2046BDE83840FCF73FBF00BF35
:104220001C77000880040020F07600085076000813
:104230002DE9F041DFF8C0802C4E0025B8F914308C
:10424000ACB29C424CDA28B2294B00220821FCF780
:1042500061FFB8F910006043B0F5004F02DBA0F534
:10426000803004E010F5004FB8BF00F58030204BDF
:1042700000220821FCF766FF06EBC40756F834005D
:104280001B4B00220821FCF75DFF194B002208217F
:104290007868FCF757FF56F834007B684FF0020E41
:1042A000184490FBFEF0124B00220821FCF74AFF55
:1042B00056F8344078680E4B00220821201AFCF78B
:1042C00041FF002210460A4B0821FCF73BFF09483A
:1042D000FCF7E4FE4CF25030FCF758FD0135ADE739
:1042E0000448BDE8F041FCF7D9BE00BF98060020A5
:1042F0001C7700085076000880040020114B4FF412
:10430000804159604FF4004199604FF44041D960B9
:104310004FF480311961A1F5A0315961A1F58041B7
:104320009961A1F580410022D961A1F580411A80EF
:104330005A8019625A645A651A65DA649A64C3F835
:10434000882070473C17002038B51D481D4C1E4D75
:10435000234600220A210068FCF7F4FE2868234661
:1043600000220821B0F90400FCF7ECFE286823467F
:1043700000220821B0F91200FCF7E4FE134B0222E0
:10438000586C42F210735843082123460014FCF77E
:10439000D9FE0022234610460821FCF7D3FE002256
:1043A000234610460821FCF7CDFE00222346104686
:1043B0000821FCF7C7FEBDE838400548FCF76EBE93
:1043C000301B00201C770008680400203C170020E8
:1043D0005076000870B5334C012023880F2B60D82D
:1043E0004AF6AA2223FA00F500FA03F31A4052BB58
:1043F00045F255521A40002A53D004EB8503596800
:10440000294B61641A6858681268FEF78BF9FEF749
:1044100077FE08B1FFF798FF6388224A1BB940F284
:10442000F313538001E0013B538060881D4B08B1BA
:10443000002070BD1A88123501321A8043F8250019
:10444000C3F8880070BD184E616C336870681A68D4
:10445000FEF768F9FEF754FE08B1FFF775FF336801
:104460001235B3F9122054F8253061881344D4F87A
:1044700088200C48013244F82530C4F8882019B946
:1044800040F2CF71418001E00139418060880549E7
:104490000028CDD1B3FBF2F30C8841F8253001346C
:1044A0000C8070BD3C170020680400202DE9F84FF7
:1044B00042F21076DFF8F8B1794CDFF8F8915846FF
:1044C000FCF7ECFD4B46A06C00220821FCF73AFEFD
:1044D0004B46E06C00220821FCF734FEDFF8D8A13F
:1044E0004B46206D00220821FCF72CFE4B46002293
:1044F0000821606DFCF726FE5046FCF7CFFD46F222
:10450000A810FCF743FC6748FCF7C8FDA06C4EF60A
:1045100060257043DFF8A48101224346082100147E
:10452000FCF710FEE06C43467043012208210014A2
:10453000FCF708FE206D4346704301220821001459
:10454000FCF700FE606D4346704301220821001411
:10455000FCF7F8FD5046FCF7A1FD46F2A810FCF769
:1045600015FC5148FCF79AFDA06C504F68433B4640
:10457000002208210014FCF7E5FDE06C3B4668438F
:10458000002208210014FCF7DDFD206D3B46684346
:10459000002208210014FCF7D5FD606D3B466843FE
:1045A000002208210014FCF7CDFD5046FCF776FDF3
:1045B00046F2A810FCF7EAFB5846FCF76FFD4B46A5
:1045C000A06D00220A21FCF7BDFD4B46E06D0022E4
:1045D0000A21FCF7B7FD4B46206E00220A21FCF7AA
:1045E000B1FD4B4600220A21606EFCF7ABFD504640
:1045F000FCF754FD46F2A810FCF7C8FB2948FCF76D
:104600004DFDA06D43467043012208210014FCF7C4
:1046100099FDE06D43467043012208210014FCF728
:1046200091FD206E43467043012208210014FCF7DF
:1046300089FD606E43467043012208210014FCF797
:1046400081FD5046FCF72AFD46F2A810FCF79EFBC0
:104650001548FCF723FDA06D3B4668430022082166
:104660000014FCF76FFDE06D3B4668430022082113
:104670000014FCF767FD206E3B46684300220821CA
:104680000014FCF75FFD606E3B4668430022001497
:104690000821FCF757FD5046BDE8F84FFCF7FEBC7B
:1046A0003C170020027700081177000818770008EF
:1046B000F87600081C770008507600080A77000892
:1046C00038B51C481C4C1D4D234600220A210068A9
:1046D000FCF738FD2868234600220821B0F90400C1
:1046E000FCF718FD2868234600220821B0F91200C3
:1046F000FCF710FD2868234600220821B0F91400B9
:10470000FCF708FD0022234610460821FCF702FDB5
:104710000022234610460821FCF7FCFC0022234619
:1047200010460821FCF7F6FCBDE838400448FCF7C9
:10473000B5BC00BF301B00201C77000868040020B7
:104740005076000870B5244D2C882E46012C15D0CB
:104750000BD3022C3DD10120FDF722F90020FEF7FA
:10476000A7FE0024FDF7D6F818E00020FDF718F9A1
:10477000FDF7D0F82B8801332B802BE0FEF7C0FC2F
:1047800008B1FFF79DFFFCF79DFC044610B3FCF752
:10479000A7FC33880024013333801BE0204602F05D
:1047A00077F80E4902F0C8F84FF08F4102F0C4F8D4
:1047B00002F088FAFEF77CFE013444F62060FCF734
:1047C000E5FA652CEAD14FF48040FEF771FE012432
:1047D00000E00124204670BD280600200AD7233CB3
:1047E000084B4FF480321A60074A1288052A0BBF23
:1047F000064A074A9A609A600CBF064A064A5A60FF
:10480000704700BFC4180020B8040020EFFF1F004D
:1048100094AA2A001100E0FF6C55D5FF08B502F0FC
:1048200037F8064902F088F84FF08F4102F084F81B
:1048300002F048FA024B186008BD00BF0AD7233CBB
:10484000C41800204BF20B634343034A9360034BAD
:1048500058435060704700BFC4180020F549FFFF5F
:1048600038B51D4C0228A0811C4D04D159B96B6884
:10487000B3F9001007E0012807D1002908BF012182
:104880000029B8BF4942E18101E00023E381A26829
:10489000134B20689A42DEBF124A0F4B9A6062683F
:1048A000114B9A42A2BF114A0B4B5A60FEF700FE11
:1048B000EB68E3612B681A6800232262E26201223E
:1048C0006362A3622261A382E2822383236463641E
:1048D000A4F8483038BD00BFC41800206804002088
:1048E000DB380E00DC380E0025C7F1FF24C7F1FFCE
:1048F0002DE9F047664C2369002B09DD42F2C40024
:10490000FEF7F0FD636A03F503530433636207E0C7
:104910006048FEF7E7FD636AA3F50353043B636257
:104920005D4DE26A2B681868831AB3F5000F02DB4D
:1049300003F17F4304E013F5000FB8BF03F1807368
:10494000A26AA6681A44A6F5E323A3F26E439A422C
:104950004F49A262E06206DB0B6AC86913440B632D
:104960004B6A03444B636768494B07F5E32101F247
:104970006E418A4206DC196AD86911449963596A02
:104980000144D963A38A4248002B37D0038B012B03
:1049900032D9B0F80C90D0F83480B9F1020FD0F8C9
:1049A0003CE0D0F830C0816B02D1B0F90E3011E09C
:1049B000CEEB0803C1EB0C0AB9F1010F93FBFAF33C
:1049C00008D1B0F90E000028B8BF4042002BACBFA0
:1049D00003464342C644614403FB11E1206C184482
:1049E0005B0091FBF3F3616C20640B446364B4F8E7
:1049F00048300133A4F848300023A38202F5633322
:104A0000264903F237238B429CBF0123E382E38ACA
:104A100093B1B24201DABA420EDC22691C4B002A81
:104A2000CCBF4FF0FF3201221A610023E382238BB7
:104A3000013323830123A382238B154E062B23D915
:104A400044F28812736A03F50353043393421BD86C
:104A5000F069FEF739FD4FF48040FEF729FDB38978
:104A6000022B06D0B6F84810336C6A6893FBF1F35A
:104A70001380B4F84830616C686891FBF3F1FDF77E
:104A8000A3FC0120BDE8F0870020BDE8F08700BF4F
:104A9000C41800203CDFFFFF680400206E1C0700E4
:104AA00008B5431E9AB2102A1ED80123934040F243
:104AB00055121A401AB913F4AA3F0ED108BD0B4B78
:104AC0001B685B8B013B9BB2012B06D90848FCF7A6
:104AD000E5FABDE80840FEF75FBB064A0123013056
:104AE00010805380044A938008BD00BF68040020F2
:104AF00020770008AC160020301B002038B58A4B08
:104B00001A881C46911E102900F20481DFE811F07A
:104B1000110002012F0002014D0002016F0002018D
:104B200099000201C3000201D5000201D500020173
:104B3000D5007E4CA388012B04D1FEF715FDFEF7AE
:104B4000F1FAE7E040F2E680FEF7CAFD002800F047
:104B5000E180E38833B14CF25030FCF717F9744828
:104B6000FCF79CFAFEF7A4FEFEF726FBD2E06F4CA2
:104B7000A388012B04D1FEF73FFFFEF7D3FAC9E06B
:104B800040F2C880FEF74CFF002800F0C380E388A5
:104B900033B14CF25030FCF7F9F86548FCF77EFA77
:104BA000FEF7AEFCFEF708FBB4E0604CA388012BD7
:104BB00008D140F28D614FF48030FEF773FFFEF7AD
:104BC000B1FAA7E040F2A680FFF70CF8002800F049
:104BD000A180E38833B14CF25030FCF7D7F8544849
:104BE000FCF75CFAFFF7CCF8FEF7E6FA92E04F4CE0
:104BF000A388012B0BD14F4B4FF4C8121A6000222F
:104C00009A605A60FFF746F9FEF78CFA82E040F2AC
:104C10008180FFF7AFF900287CD0E38833B14CF2F4
:104C20005030FCF7B3F84248FCF738FAFFF7D6FAF1
:104C3000FFF7FEFAFEF7C0FA3F4B404A1968536887
:104C40001EE03A4CA388012B04D1FFF757FBFEF777
:104C500069FA5FE05ED9FFF7BDFB00285AD0E38810
:104C600033B14CF25030FCF791F83148FCF716FAAA
:104C7000FFF71CFCFEF7A0FA304A2F4B51681B6867
:104C80000B44B2F900104FF480405943FDF7B2FBDA
:104C9000FCF74EFD3EE0254B9A88012A08D1C82139
:104CA000D9801A81264B00221A80FEF73BFA31E0A8
:104CB00030D9FFF747FD68B32AE01C4DA8880128CA
:104CC00012D1122A04D100210220FFF7C9FD08E009
:104CD000102A0BBF1B4B0021B3F900100846FFF749
:104CE000BFFDFEF71FFA15E014D9FFF701FE88B1EA
:104CF000EB8833B14CF25030FCF748F80C48FCF725
:104D0000CDF92388122B01D0FEF7FAFBFEF712FC37
:104D1000FEF752FAFCF7D6F928B1FCF7E1F9BDE845
:104D20003840FEF749BA38BDAC160020301B0020D1
:104D300050760008BC040020D0170020C8170020BF
:104D400028060020A01600202DE9F04FDFF8D4B18E
:104D5000DFF8D49185B00027FDF776FDFDF742FD21
:104D60006848FCF79BF9684B1B88052B07D0062B7E
:104D700009D0042B0AD16548FCF790F906E0644895
:104D8000FCF78CF902E06348FCF788F9624C634851
:104D9000FCF784F9624A0121638951601180614AFC
:104DA0008B42538326460AD1FDF758F80DF10E01C8
:104DB00003A8FDF7FDF8BDF80E307BB910E0022B1B
:104DC00007D1FCF7ABFE0DF10E00FCF7AFFE28B1EA
:104DD00006E0032B02D1FCF74BFE01E0ABF81A70A2
:104DE0005048FDF751FAFCF713FE0120FCF7D8FDFF
:104DF0000020FCF7E7FDFCF78DFDA388C9F80470DF
:104E0000D6F806104848A9F80030FDF7DDFADFF8BB
:104E100018810024204601F03BFD444901F08CFD3F
:104E20004FF08F4101F088FD01F04CFF0021FDF7AC
:104E3000E1FAFCF77DFC202C94BF44F6206041F29F
:104E400088300134FBF7A2FF652CE3D1384C35489C
:104E5000FDF76CFA2046DBF80010FEF7C5FAFEF706
:104E600071F9FEF799F930492E48FEF715FB314BE1
:104E700000251C60FFF7B4FC4FF47A70FBF78DFF40
:104E80000020FEF721FB4FF6FF73AA462A4C0022B2
:104E900002212A482380FBF7E8FB0194284B1B885A
:104EA0009BB2002BFAD04FF00002254B254C0AF1A3
:104EB000010A1C481A80C4F800A0FDF737FA224BFB
:104EC0005B88009333B1FFF719FE002D40F07E821E
:104ED0003125E3E7FCF7F6F80028F4D0FEF73AF9BD
:104EE000FEF74AF90028EAD01848FEF775F998B39A
:104EF000BDF80020164B1A80164B01221A8005B00F
:104F0000BDE8F08F50770008B804002066770008ED
:104F10006C770008717700082C1800205076000884
:104F200034060020D0170020C81700200AD7233CE1
:104F3000BC0400208004002028000020000801405C
:104F400060040020301B0020AC160020757700089C
:104F5000EC17002098160020A148FEF73DF9002824
:104F60007FF4FAAE9F48FEF737F918B1FEF7AEF9B5
:104F7000FEF712F99C48FEF72FF920B10123E380D8
:104F80002381FEF709F99948FEF726F928B1022393
:104F9000E38001232381FEF7FFF89548FEF71CF913
:104FA00028B10323E38001232381FEF7F5F891481C
:104FB000FEF712F928B10423E38001232381FEF7D1
:104FC000EBF88D48FEF708F928B10523E3800123AB
:104FD0002381FEF7E1F88948FEF7FEF828B10623A1
:104FE000E38001232381FEF7D7F88548FEF7F4F824
:104FF00028B10723E38001232381FEF7CDF8814800
:10500000FEF7EAF828B10823E38001232381FEF7A5
:10501000C3F87D48FEF7E0F828B10923E3800123B7
:105020002381FEF7B9F87948FEF7D6F860B116216A
:105030007748FCF7B3F9B388A8F80030D6F8063003
:10504000C8F80430FEF7A8F87248FEF7C5F860B15A
:10505000B8F800301621B380D8F804306C48C6F890
:105060000630FCF7B3F9FEF797F86B48FEF7B4F893
:1050700018B1FEF743F9FEF78FF86848FEF7ACF871
:1050800018B1FDF769FDFEF787F86548FEF7A4F84B
:1050900018B104237380FEF77FF86248FEF79CF88E
:1050A00018B105237380FEF777F85F48FEF794F890
:1050B00020B1574B06225A80FEF76EF85B48FEF788
:1050C0008BF818B1524B5F80FEF766F85848FEF730
:1050D00083F820B14E4B01225A81FEF75DF8554806
:1050E000FEF77AF820B14A4B02225A81FEF754F8B3
:1050F0005148FEF771F820B1454B03225A81FEF763
:105100004BF84E48FEF768F818B1414B5F81FEF747
:1051100043F80DF10E014A48FEF77CF840B1BDF9A5
:105120000E303B4A002BB8BF5B429381FEF734F848
:105130004448FEF751F818B1354B9F81FEF72CF823
:105140004148FEF749F828B1FEF7DAF9FEF7F2F91F
:10515000FEF722F83D48FEF73FF820B10723A9F8F3
:105160000030FEF719F83A48FEF736F818B1C9F8DA
:105170000470FEF711F837493748FEF74BF808B1CD
:10518000FEF70AF835493648FEF772F808B1FEF71F
:1051900003F83448FEF720F810B10120FFF780FC37
:1051A0003148FEF719F810B10320FFF779FC2F48BA
:1051B000FEF712F810B10520FFF772FC2C48FEF73D
:1051C0000BF810B10B20FFF76BFC2A48FEF704F830
:1051D00010B10720FFF764FC2748FDF7FDFF4DE005
:1051E00078770008807700088C77000894770008AB
:1051F0009C770008A4770008AC770008B477000813
:10520000BC770008C4770008CC770008D477000882
:105210002C180020DD770008E3770008EC77000801
:10522000F5770008007800080A780008137800086D
:10523000197800082A7800083A7800084A780008A7
:10524000537800085C780008657800086C780008DE
:1052500072780008C817002079780008CC17002061
:105260007F780008867800086E7800087478000857
:105270008D780008937800089678000818B1FEF73A
:10528000ADFFFDF789FF5B48FDF7A6FF10B10920D0
:10529000FFF706FC5848FDF79FFF18B1FFF706F926
:1052A000FDF77AFF0DF10E015448FDF7B3FF40B151
:1052B000BDF90E00642358430002FEF705F9FDF71F
:1052C0006BFF0DF10E014E48FDF7A4FF40B1BDF993
:1052D0000E00642358430002FEF704F9FDF75CFF5B
:1052E0000DF10E014748FDF795FFE8B1BDF90E300D
:1052F000182B03DC1923ADF80E3004E0642BC4BF77
:105300006423ADF80E30BDF90E0001F0C1FA3E493C
:1053100001F012FB4FF08F4101F00EFB01F0D2FCC7
:10532000FEF7C6F8FDF738FF3848FDF755FF10B116
:105330000D20FFF7B5FB0DF10E013548FDF76AFFB3
:1053400030B1BDF90E20334B0F201A60FFF7A8FBD8
:105350003148FDF741FF10B11120FFF7A1FB0DF11E
:105360000E012E48FDF756FFA0B1BDF90E3013F126
:10537000B40F04DA4FF64C73ADF80E3004E0B42BE2
:10538000C4BFB423ADF80E30BDF90E00FFF75AFAD2
:10539000FDF702FF0DF10E012148FDF73BFF00284C
:1053A0003FF48DADBDF90E30182B03DC1923ADF899
:1053B0000E3004E0642BC4BF6423ADF80E30BDF999
:1053C0000E00FFF72BFAFDF7E7FE78E5013DADB2E1
:1053D000002D7FF463AD019BB3F90030002BBFF6C5
:1053E0005DAD104AD368DB4303F0020343F400339E
:1053F000136153E59C7800089F780008A87800089E
:10540000AF780008B67800080AD7233CBF780008B8
:10541000C7780008A0160020D0780008D6780008C9
:10542000E17800080008014043B270B5002B844CBD
:10543000BCBF002222802288052A00F20081DFE81A
:1054400012F00600540071008700AA00C900D0289D
:105450002DD0902832D0002B80F2F18000F00F0385
:10546000032B00F070000FD17649C2B2FF25402A0D
:105470000A704B708D7002D0502A05D117E00123BD
:1054800023800B23A3802AE06F4A1588AB421CD1EE
:105490006C49C2B2FF26102A0A704B708E700DD074
:1054A00040F2BA80302A00F0C080502A0DD1674BFC
:1054B00000221A80664B01221A8070BD634B0022C5
:1054C0001A80634B04221A8070BD702840F0B780A8
:1054D0005C4A9D42537040F0AF8004232380002338
:1054E000E3805C4B9B8C638070BDE3885A4AD05448
:1054F0000133A0889BB28342E380C0F089800023FF
:1055000019465D1CDBB2834203D2D35C59402B4663
:10551000F7E74E4B00221A804D4A032010800029E5
:1055200036D02FE0474B987078B104284FF0000335
:1055300001D9752809D1454A23801380444A0221A4
:10554000444B11809B8C638070BD0023238070BD11
:10555000E388414AD0540133A0889BB28342E38060
:1055600056D3002319465D1CDBB2834203D2D35CC1
:1055700059402B46F7E7354B00221A80344A022067
:10558000108029B101221A80344AD3680133D360D4
:10559000002323803CE0E388042B37D8DFE803F0C6
:1055A000030D10131600512802D1052222802DE090
:1055B00046282BD00022228028E04C28FAD125E072
:1055C0004128F7D122E05328F4D11FE04828F1D137
:1055D000FDF7F8F9E388042B17D8DFE803F0030898
:1055E0000B0E1100512810D0002323800DE04D2810
:1055F000FAD10AE04F28F7D107E04428F4D104E0BB
:105600004528F1D1FFF7A0FBEEE7E3880133E38003
:10561000104B9B8C638070BD002A7FF456AF022331
:1056200023800C4B9B8C638070BD084B00221A803A
:10563000074B05221A8070BD002B3FF44EAF70BDA2
:105640003417002012190020B8040020EC170020A5
:1056500098160020002C0140DC0500204418002092
:105660002DE988480024FDF781F9AE4BDFF8B492AC
:10567000B3F90030002B04DA00220221AA48FAF71D
:10568000F4FFAA4BAA4E1C80AA4FAB4BAB4DDFF8E0
:10569000BCA21C803C802C80AAF80040748034801E
:1056A000B480FDF775FBFDF7D3F94FF400433B8061
:1056B0004FF6FF73002202219B48A9F80030FAF749
:1056C000D4FFB9F90030AB46002BD04604DA0122F2
:1056D00002219548FAF7C9FFFBF7F4FC18B1FBF774
:1056E000FFFCFFF7A1FEFDF7A1F9B8F800309BB26F
:1056F000013B062B31D8DFE803F004070C1116211B
:105700002800AAF80040AEE7FDF7FCFBA8F800402F
:1057100023E0FDF717FCA8F800401EE0FDF7BCFCF5
:10572000A8F8004019E0FDF78FF8FDF75BF8ABF83B
:105730000040FDF7BDFCA8F800000EE0ABF800400B
:10574000FDF7B6FCA8F8000007E0FDF7CFFCFDF779
:1057500069F8FDF791F8A8F80040FDF797FB784B42
:105760001B889BB2002BB7D0754B1C80FBF724FF26
:10577000B9F90000002877DD724DB0F5FA7F2B886B
:1057800003F101039BB22B8062D16F4A11880C296F
:105790005ED8012202FA01F111F4825F2CD111F0DE
:1057A000240F14D111F0120F52D0B3F5FA7F03D1A8
:1057B00002215D48FAF759FF2B88B3F57A7F53D35E
:1057C0000022022158482C80FAF74FFF4CE0B3F535
:1057D000FA7F03D102215448FAF747FF2B88B3F52B
:1057E0002F7F04D1002202214F48FAF73EFF2B8879
:1057F000B3F5487FE0D125E0B3F5FA7F03D102216C
:105800004948FAF732FF2B88B3F5167F04D10022FE
:1058100002214548FAF729FF2B88B3F52F7F04D1E1
:10582000012202214048FAF720FF2B88B3F5487F78
:1058300004D1002202213C48FAF717FF2B88B3F568
:10584000617FB9D1012202213748FAF70EFFB3E791
:10585000834209DB344B344ADB682C80DB4303F0A2
:10586000020343F4003313613B883249012B34D0E7
:10587000022B3FF431AF23F4FE4292B2B2F5004F57
:1058800016D007D8012A28D018D3032A2FD0142ADB
:105890003DD021E748F20200824221D016D348F2DF
:1058A00003039A4223D048F214039A422FD013E7FD
:1058B000C3F30E030B803223A9F80030FDF706FB7B
:1058C0006FEA40406FEA5040388005E7C3F30E03AB
:1058D0000B804FF4FA73A9F80030FDF705FBFBE6E7
:1058E000C3F30E030B806423A9F80030F4E6B388F9
:1058F000328801339BB29A42B380BFF4EDAE0C4BB9
:105900005B886FEA43436FEA53433B80E4E64FF41E
:10591000967333800123738048F20303B4803B8085
:10592000DAE600BF28000020000801403C1B0020F0
:105930007804002030060020B6040020EC17002078
:1059400060040020B4040020B80400209816002051
:1059500020F00040704700BF00B51D4A20F0004312
:10596000934283B019DDB3F1FF4F05DB014600F030
:10597000D9FE03B05DF804FB694600F02BF800F097
:105980000300012818D002280ED0D0B10199009848
:1059900000F092F900F10040EBE70022002100F056
:1059A000A3FD03B05DF804FB01220199009800F00B
:1059B0009BFD00F10040DCE70199009800F07CF9C4
:1059C000D7E701220199009800F08EFDD1E700BFD2
:1059D000D80F493F2DE9F04FAA4A20F000449442E5
:1059E00089B067DDA84A0D469442074601461CDC93
:1059F0000028A64940F3EA8000F094FEA44B24F06E
:105A00000F049C42064663D0A24900F08BFE01467B
:105A10003046296000F086FE9E4900F083FE012397
:105A20006860184609B0BDE8F08F9B4A944261DD7A
:105A3000B4F1FF4F46DAE615863EA4EBC654204685
:105A400001F040F900F024FF034620461946059373
:105A500000F068FE4FF0874100F06EFF804601F0D5
:105A600031F900F015FF044640462146069400F047
:105A700059FE4FF0874100F05FFF0021079001F0D1
:105A8000EFF8002800F0C3802046002101F0E8F87C
:105A9000002814BF012302238048022101900091B5
:105AA0003246294605A800F0CBF9002FC0F2A580A8
:105AB000034603E0002208604A600023184609B04C
:105AC000BDE8F08F00F02EFE002368602860F5E747
:105AD000734900F027FE7349044600F023FE014697
