:020000040800F2
:10000000804D00203D420008394200083942000876
:100010003942000839420008394200080000000057
:10002000000000000000000000000000394200084D
:100030003942000800000000394200086517000836
:1000400039420008394200083942000839420008A4
:100050003942000839420008394200083942000894
:100060003942000839420008394200083942000884
:100070003942000839420008394200083942000874
:1000800095350008A13500083942000839420008BA
:100090003942000839420008394200083942000854
:1000A0003942000839420008394200083942000844
:1000B0003942000839420008394200087935000801
:1000C00085350008394200083942000839420008E5
:1000D0003942000839050008394200083942000851
:1000E0003942000839420008394200080000000087
:1000F0000000000000000000000000000000000000
:1001000000000000000000005FF808F110B5074C87
:1001100040F22551204604F02DFB2046BDE810405A
:10012000012240F2255104F003BB00BF003801401A
:1001300000EB8000430018460138FDD87047402886
:1001400008B5024609D8BDE80840C0EB401002EBF4
:100150008000C00080B2FFF7EBBF4FF47A70FFF76A
:10016000E7FF013A92B2002AF7D108BD02888388DE
:1001700010B5541C234044889C421FBF8468A1547E
:100180000380012008BF002010BD70B50646013A6B
:100190004D1E8C18A54205D015F8011F3046FFF7FB
:1001A000E5FFF7E770BD428803889B1A9BB21A04EB
:1001B00041BF808801301B1898B258BF184670475D
:1001C0004188038880885B1A99B20BB2002BBEBFAE
:1001D000421C8B181BB2C01A80B2704738B5044657
:1001E00006F092F880B20246002330B1013880B2A6
:1001F000215C2E2908BF0346F7E713B9013A2020F6
:1002000010E0013B202182B29A4205DAA55C013060
:10021000302D0AD1A154F6E738BD655C0133302D8D
:1002200003D1605499B29142F7DB38BD10B5302448
:100230000C70632805D90C78643801340C70C0B296
:10024000F7E730211170092805D911780A380131F2
:100250001170C0B2F7E73030187010BD70B542F2BF
:100260000F763025049C0D70B04207D90D78A0F5AB
:100270001C50013510380D7080B2F5E73021117037
:10028000B0F57A7F06D31178A0F57A70013111703C
:1002900080B2F5E730221A70632805D91A786438DD
:1002A00001321A7080B2F7E730232370092805D98C
:1002B00023780A380133237080B2F7E7059B30308A
:1002C000187070BD10B50C468B1C4A1CFFF7AEFFB2
:1002D0000023E37010BD13B50B1D0193CB1C0093DD
:1002E0004A1C8B1C0C46FFF7B9FF0023637102B058
:1002F00010BD0309092B00F00F0094BF30333733D2
:1003000009280B7094BF30303730002348708B7051
:10031000704713B50A46044601A9C0B2FFF7E9FFCA
:10032000200A1146FFF7E5FF9DF8043093709DF811
:100330000530D3709DF80630137102B010BD13B5AF
:100340000A46044601A9C0B2FFF7D3FF9DF8043066
:1003500001A993719DF80530C4F30720D371FFF70D
:10036000C8FF9DF8043001A913719DF80530C4F34E
:1003700007405371FFF7BDFF9DF8043001A993704A
:100380009DF80530200ED370FFF7B3FF9DF80430C1
:1003900013709DF8053053700023137202B010BD26
:1003A000F8B50D46069C002121702978752931D1B8
:1003B0006E78632E01D1017807E0692E01D10188A2
:1003C00003E06C2E40F0A7800168AF78682F17D14A
:1003D000632E05D12146BDE8F8400078FFF789BFBC
:1003E000692E05D12146BDE8F8400088FFF791BF8E
:1003F0006C2E33D12146BDE8F8400068FFF79FBF5F
:100400002B2F2BD111B12770012628E0202020703E
:10041000012624E073297ED16978632902D190F9FD
:10042000001007E0692902D1B0F9001002E06C2940
:1004300071D10168A8782B280AD1002903DA2D2070
:100440002070012608E008BF20202070012606E069
:1004500000294FF0000602DA494200E00026174664
:1004600018464FF0300E002806DA013FBFB20130C7
:1004700004F807E000B2F6E703EAE373134418BF99
:1004800001309BB218BF00B20A274FF02E0C9E42DB
:1004900010D2013B9BB2C3EB020E86451FBFB1FBDE
:1004A000F7FE07FB1E113031E1540CBF04F803C006
:1004B0007146ECE70023A3547A21284605F05EFE3E
:1004C00048B3AB782B2B0FD1601CFFF787FE20467B
:1004D00005F01AFF0123834205D2E25C202A0BD1EA
:1004E00001339BB2F7E7F8BD2046FFF777FE2046C1
:1004F00005F00AFF01230BE02278234403F8012CC6
:1005000020232370F8BDE25C202AF5D101339BB291
:100510008342F8D3F8BDF8BD002110B50446084663
:100520008BB2E25C013132B100EB800302EB43039A
:10053000303B98B2F4E710BD0A4B1A8892060FD5EB
:1005400009480A499A88038809880133C3F30C03D0
:1005500089B28B4218BF0649D2B21CBFCA5403806D
:10056000704700BF003801405C0800205E08002092
:100570001229002010B504464021054804F0F4F883
:100580000028F9D02146024804F0EAF8012010BD05
:100590000038014010B5441E14F8010F10B1FFF7E8
:1005A000E9FFF9E710BD000008B54021024804F05A
:1005B000DBF80028F9D008BD00380140044B18884A
:1005C000044B80B21B889BB2C01A18BF0120704731
:1005D0005C0800205E08002010B50948094C2188FD
:1005E000038889B29BB29942054AF8D01388013337
:1005F000C3F30C0313801388034A9BB2D05C10BD75
:100600005E0800205C0800201229002070B51E46FC
:100610008AB00AAC24F81A0D05AD134620460A46E6
:1006200000950549FFF7BCFE2846FFF7B3FF3046AB
:10063000FFF7B0FF0AB070BD2C64000870B51E460D
:100640008AB00AAC44F81C0D05AD134620460A4694
:1006500000950549FFF7A4FE2846FFF79BFF3046AB
:10066000FFF798FF0AB070BD3564000870B51646F4
:10067000013986B0451E4418A54208D015F8010F6F
:1006800001A9FFF736FE01A8FFF784FFF4E7304623
:10069000FFF780FF06B070BD1FB5002300900C224D
:1006A00069460848ADF80430ADF80630ADF80830BA
:1006B000ADF80A20ADF80C3003F0C4FF05B05DF8CA
:1006C00004FB00BF0038014030B5012185B0284C43
:1006D00044F2050003F038FF4FF40073ADF800302A
:1006E00003251823694620468DF803308DF8025003
:1006F00003F024FE4FF480636946ADF800302046D5
:1007000048238DF8033004F540548DF8025003F06F
:1007100015FE02A803F0FAFF02A9204603F0E6FF47
:100720001448FFF7B9FF252301258DF8043001A8EF
:100730000F238DF806308DF805508DF8075005F021
:1007400091FB0022204640F2255103F0F1FF2046A4
:1007500040F2255104F00EF8074A00231380074A9F
:1007600029462046138003F0D7FF05B030BD00BFF7
:100770000008014080841E005E0800205C08002004
:1007800008B5FFF7A1FFBDE80840FFF7BFBC0000B8
:10079000014608B5064805F001FC0121044805F0B2
:1007A0000EFC0028F9D0024805F0FAFBC0B208BDE3
:1007B00000300140FF20FFF7EBBFFFF7FBBF000059
:1007C00008B51021034803F00EFEBDE80840FFF70E
:1007D000F4BF00BF0008014010B5064C322323606F
:1007E000FFF7EBFFFFF7E6FFFF2802D02368002B9F
:1007F000F8D110BD84000020020638B504460D462D
:1008000007D500217720FFF7F7FF01283AD804F039
:100810007F0410211C4803F0E6FD10211A4803F064
:10082000E4FDFFF7D9FFFF2826D12046FFF7B0FFF0
:10083000280EFFF7ADFFC5F30740FFF7A9FFC5F38B
:100840000720FFF7A5FFE8B2FFF7A2FF402C15D065
:10085000482C14BF01208720FFF79AFF4C2C01D1B0
:10086000FFF7ABFF0A24FFF7A5FF03060AD5013CFB
:1008700014F0FF04F7D138BDFF2038BD9520FFF7F5
:1008800087FFEFE738BD00BF000801404FF6FF7358
:1008900010B58CB0ADF80230244B00245A6842F0F9
:1008A000F0025A605A6842F470625A60A3F54F43EE
:1008B000F43B01934FF4405304910A930290802338
:1008C00001A91B48069305940794089409940B9476
:1008D000039405F07FFA0DF10203029301A910239E
:1008E00014480393069405F075FA0121104805F0A9
:1008F0008FFA01210F4805F08BFA012203210E48DF
:1009000005F043FB202005F09DFA0028FAD00022D4
:100910000321094805F039FB0021054805F078FA64
:100920000021044805F074FA0CB010BD000002402C
:100930001C00024030000240003001400E4B70B5F8
:1009400005460E461C460A225A60FFF733FFFF2871
:1009500003D160680028F8D170BDFE2809D1B1B27A
:100960002846FFF793FFFFF728FFFFF726FF012038
:1009700070BD002070BD00BF840000204FF6FF73E3
:1009800030B50D4604468DB02348ADF8023005F071
:10099000A9F9224805F0A6F9214B4FF440520193E2
:1009A0000A9200230DF1020201A91B48029207934B
:1009B0000893059309930B9303930693049505F00D
:1009C00009FA1023039301A9802314480693029483
:1009D00005F000FA0121104805F01AFA01210F482C
:1009E00005F016FA012203210E4805F0CEFA202068
:1009F00005F028FA0028FAD00021074805F008FA87
:100A00000021064805F004FA00220321054805F0FC
:100A1000BCFA0DB030BD00BF1C00024030000240E7
:100A20000C3001400030014070B506460D46FFF71E
:100A3000D3FEFF28044617D12846FFF7A9FEFD2D57
:100A400014D04FF400713046FFF798FF2046FFF7AF
:100A50009FFE2046FFF79CFEFFF7ACFE00F01F0054
:100A6000431F5842584170BD002070BD012070BD29
:100A7000054AC000138800F0380023F038031B0437
:100A80001B0C0343138070470030014030B5012137
:100A900089B04FF4805003F057FD0121052003F089
:100AA00053FD0121042003F04FFD1021364803F0CF
:100AB0009AFC1025032402A93348ADF808508DF89C
:100AC0000B508DF80A4003F039FC29462E4803F0FC
:100AD0008AFCA023ADF8083002A918232A488DF813
:100AE0000B308DF80A4003F029FC4023ADF80830A4
:100AF00002A9482324488DF80B308DF80A4003F0F2
:100B00001DFC4FF48273ADF80E300223ADF81230A5
:100B10004FF40073ADF81630382300240125ADF8EA
:100B2000183003A907231948ADF81C30ADF80C4064
:100B3000ADF81040ADF81450ADF81A4005F0FAF9D0
:100B40002146124805F02FFA2946104805F011FAFF
:100B500002210E4805F033FA0028F9D00B4805F0C1
:100B60001FFAADF80600BDF8063009489BB2ADF893
:100B7000063005F0B7F8074805F0B4F8012108463B
:100B800003F0D6FC09B030BD000801400030014040
:100B90001C0002403000024037B50E4C0E4D1021B3
:100BA000204603F020FC284605F092F92846002153
:100BB00005F0DFF9E023ADF8043028238DF8073085
:100BC00001A9032320468DF8063003F0B7FB03B0DC
:100BD00030BD00BF000801400030014010B5094C95
:100BE0002378DB0707D41021074803F0FEFBFFF74B
:100BF000F3FDFFF7E5FDFFF7CFFF237843F0010397
:100C0000237010BD0000002000080140F7B5002847
:100C100040F08980454B1A781E4612F0020F02D030
:100C20001878C0B280E0424D19236B606B68002BCE
:100C3000FCD1FFF72BFF0720FFF71AFF0A24013C26
:100C4000FFF7BBFD14F0FF04F9D121464020FFF768
:100C5000D3FD012855D164234FF4D57148206B6032
:100C6000FFF7CAFD012830D101AFFFF7A3FD3855CA
:100C70000134042CF9D19DF80630012B41D19DF8A7
:100C80000730AA2B3DD16B681BB96B68002B38D09D
:100C900007E04FF08041E920FFF7AEFD0028F2D1D8
:100CA000F3E700217A20FFF7A7FD50BB0446FFF7CA
:100CB00081FD38550134042CF9D19DF8043013F02E
:100CC000400F14BF0C2404241CE02146E920FFF748
:100CD00093FD022835BF02240124E92741276B68D0
:100CE00013B96B686BB106E000213846FFF784FD4D
:100CF0000028F4D1F5E74FF400715020FFF77CFD98
:100D000000B100242C72FFF75BFD3CB13378012069
:100D100003F0FE033370FFF7ABFE01E0FFF75EFF69
:100D20003078C0B200E0012003B0F0BD0000002028
:100D30008400002018B9034B1878C0B27047012016
:100D4000704700BF0000002038B50D461C46114614
:100D500080BB7BB3194B1B78DA072DD4184B1B7A59
:100D60001B0758BF4902012C0CD15120FFF744FD4D
:100D7000D0B94FF400712846FFF7E0FDB0FA80F4D7
:100D8000640911E05220FFF737FD68B94FF4007194
:100D90002846FFF7D3FD18B1013C05F50075F5D1E4
:100DA00000214C20FFF728FDFFF70AFD201C18BF8B
:100DB000012038BD042038BD032038BD00000020CC
:100DC0008400002070B50D4616461C4600283DD113
:100DD000002B3BD0204B1A78D00739D41B78590709
:100DE00038D41E4B1B7A1A0758BF7602012C0CD13F
:100DF00031465820FFF700FD08BBFE212846FFF7CB
:100E000013FEB0FA80F464091AE013F0060F03D061
:100E10002146D720FFF7F0FC31465920FFF7ECFCC4
:100E200070B9FC212846FFF7FFFD18B1013C05F51C
:100E30000075F6D1FD210020FFF7F6FD00B9012471
:100E4000FFF7BEFC201C18BF012070BD042070BD40
:100E5000032070BD022070BD00000020840000202F
:100E60007FB515460446002840F01781052917D1A3
:100E70001378012B0AD005D3022B40F00E810123F9
:100E800053700DE1FFF7AAFE204609E1854B1922B8
:100E90005A605C68002CFCD1FFF7F8FD2046FFE0AB
:100EA000814B1B78DB0700F1FA800E2900F2F080FD
:100EB000DFE811F00F001A0058005D00EE00EE00B0
:100EC000EE00EE00EE00EE00B100B600BE00CD0078
:100ED000DD001021754803F088FAFFF77DFCB0F1C2
:100EE000FF0418BF0124D4E000214920FFF784FC4F
:100EF000044608B10124CCE010216846FFF71EFD2E
:100F00000028F7D09DF800309DF808109B09012BB0
:100F10009DF8093006D1013303EB012189B2890222
:100F20002960B6E09DF807209DF80500920002EBCD
:100F300091119DF806200131920202F440621144A1
:100F40009DF80A2000F00F0000EBD2105A0002308A
:100F500002F006028318DBB289B2093B01FA03F3FF
:100F60002B6096E04FF400731380002491E04D4E07
:100F7000337A03F0040303F0FF01DBB10021CD203D
:100F8000FFF73AFC0028B5D1FFF717FC102168469F
:100F9000FFF7D4FC0028ADD03024013CFFF70DFC56
:100FA00014F0FF04F9D19DF80A301A091023934078
:100FB0002B606EE04920FFF71FFC0446002899D102
:100FC00010216846FFF7BAFC002893D0367A9DF8C6
:100FD0000A2006F0020606F0FF009DF80B306EB105
:100FE000520002F07E0202EBD3135A1C9DF80D3022
:100FF0009B09013B02FA03F32B604AE0D90001F0A0
:101000001801C2F3840201EB5311531C01FB03339B
:1010100004462B603DE0234B00241B7A137038E01C
:1010200000214920FFF7E8FB00287FF463AF06E0CA
:1010300000214A20FFF7E0FB00287FF45BAF10217E
:101040002846FFF77BFCB0FA80F4640921E0002118
:101050007A20FFF7D1FB00287FF44CAF2C1DFFF75F
:10106000A9FB05F8010BA542F9D1002411E00021EC
:10107000CD20FFF7C1FB00287FF43CAFFFF79DFBBD
:1010800040212846FFF75AFCB0FA80F4640900E0DA
:101090000424FFF795FB204602E0042000E0032033
:1010A00004B070BD84000020000000200008014052
:1010B0000D4A536813F0FF031EBF03F1FF33DBB289
:1010C0005360136813F0FF031FBF03F1FF3306499A
:1010D000DBB20B60D3680021D16023B9034A1378D7
:1010E00003F0F90313707047840000200000002013
:1010F00070B504460E46154602F030FB204602F05D
:101100005FFB4BF6FF72032363700223E370E36916
:101110000020A0706660A560DA804FF480625A817A
:101120004FF480429A81044A988018811A602046C0
:1011300002F0A2FA80B270BDA0860100084A08B58C
:101140001388084901339BB21380074A0748136884
:1011500001331360064AFFF7CBFF002008BD00BF34
:1011600052030020F80700202C4900202C0000200A
:10117000E8070020064A07491388074801339BB255
:101180001380064A136801331360054AFFF7B0BFA6
:1011900052030020F80700202C0000202C490020DA
:1011A000E8070020024A03490348FFF7A1BF00BF38
:1011B000E8070020F80700202C000020024A1368EE
:1011C00001331360704700BF2C49002037B5044637
:1011D00000284FD10121082003F0B6F903238DF830
:1011E0000630142302AD8DF80730402325F8043D66
:1011F00029464D4803F0A2F804238DF8073029460C
:101200004FF400634848ADF8043003F097F801222A
:101210004021454803F0EBF80A20FEF789FF002241
:101220004021414803F0E3F80A20FEF781FF092C32
:101230001BD93D4803F0D4F8020616D501224021FF
:10124000394803F0D4F80A20FEF772FF002280210B
:10125000354803F0CCF80A20FEF76AFF3248012235
:10126000802103F0C4F801205CE00134142CCED1BD
:10127000002057E00128FBD10146082003F064F963
:1012800003238DF80630142302AC8DF807304FF499
:10129000806324F8043D2146234803F04FF80423DB
:1012A0008DF8073021464FF400631F48ADF8043035
:1012B00003F044F8002401224FF480611A4803F03F
:1012C00096F80A20FEF734FF00224FF4806116489A
:1012D00003F08DF80A20FEF72BFF092C1ED91248C7
:1012E00003F07EF8030519D501224FF480610E4802
:1012F00003F07DF80A20FEF71BFF00224FF4006187
:10130000094803F074F80A20FEF712FF064801228C
:101310004FF4006103F06BF8012003E00134142C5A
:10132000C9D1A5E703B030BD000C0140024608B5A5
:1013300006490B7B012B05D00120FEF7F9FE1AB1FF
:10134000013AF6E7002008BD012008BD2C0000206E
:1013500010B50E4C4000A0600D4822606360E16053
:1013600002F0A2FC28B10B4A01201368013313607C
:1013700010BDBDF80830012B06D142F21070FFF706
:10138000D5FF003018BF012010BD00BFE8070020C6
:101390002C0000202C49002010B50E4C4000A0600D
:1013A0000D4822606360E16002F028FC28B10B4A1E
:1013B000012013680133136010BDBDF80830012B04
:1013C00006D142F21070FFF7B1FF003018BF0120C4
:1013D00010BD00BFF80700202C0000202C49002081
:1013E00013B5064B1C780123009313460A460146A9
:1013F0002046FFF7ADFF02B010BD00BF244900201A
:1014000013B5064B1C780123009313460A46014688
:101410002046FFF7C1FF02B010BD00BF24490020E5
:1014200008B50122FFF7DCFF20B1034A0120136851
:101430000133136008BD00BF2C490020F7B50C46EE
:101440001E46174612B93270104613E00DF107011F
:10145000FFF7E6FF012560B96119C9B2BD40C91B9C
:10146000013D9DF807308D401D4045FA01F1317076
:1014700000E0284603B0F0BD07B502AB03F8011D3C
:1014800001221946FFF7BCFF20B1044A012013686E
:101490000133136003B05DF804FB00BF2C4900204A
:1014A0002DE9F34106460F469846154602B30DF165
:1014B0000701FFF7B5FF0124C0B93919C9B2AC4023
:1014C000491B013C8C409DF8073008FA01F1C9B274
:1014D00023EA04030C4043EA040130468DF8071068
:1014E000FFF7CAFF003018BF012002E0204600E0ED
:1014F000104602B0BDE8F081034601220621022019
:10150000FFF7CEBF0346012206210220FFF796BF58
:101510002DE9F8439846BDF824300A240D46B3FB64
:10152000F4F104FB1133BDF8209003EB01110746E1
:10153000C9B200201646FFF79FFFB9FBF4F104FB88
:10154000119909EB0111C9B20120FFF795FFB8FB12
:10155000F4F104FB118808EB0111C9B20220FFF776
:101560008BFFB6FBF4F104FB116606EB0111C9B267
:101570000420FFF781FFB5FBF4F104FB115505EBE7
:101580000111A7F5FA67C9B20520FFF775FF97FBB0
:10159000F4F104FB117404EB0111C9B20620BDE89B
:1015A000F843FFF769BF000038B50024084D072253
:1015B000084920462C80FFF713FF20B92B889BB2E7
:1015C0001BB1288038BD204638BD012038BD00BF82
:1015D0005203002025490020024608B50A20FEF7E4
:1015E000A7FD1046FFF788FFBDE8084042F21070E3
:1015F000FEF79EBD73B506460C4C0A2000252580DB
:10160000FEF796FD0DF10700FFF77CFF9DF8070040
:101610002388801B9BB218BF01202BB16FEA40408A
:101620006FEA5040258080B202B070BD52030020A6
:1016300038B544F62060FEF77BFD134B68221D464B
:101640001A700A246420FEF773FDFFF7ADFF20B97E
:10165000013CA4B2002CF5D10EE00A240020FFF7D3
:10166000BBFF6420FEF76BFD0020FFF7C3FF30B126
:10167000013CA4B2002CF1D10020287038BD034BEE
:101680001860012038BD00BF244900202C490020EB
:1016900038B5334D0446294607220020FFF7A0FE47
:1016A000294600284ED12B78C3F3021202EB8202A6
:1016B00003F00F0303EB420323806B78C3F30212A2
:1016C00002EB820203F00F0303EB42036380A8786E
:1016D00010F0400F4FEA201300F00F020AD003F081
:1016E00001039D002B4402EB4303820608D50C3313
:1016F000A38006E003F0030303EB830302EB430341
:10170000A3800B79C3F3011202EB820203F00F03F3
:1017100003EB4203E3804B79C3F3001082000244E1
:1017200003F00F0303EB420323818B7901201A0995
:1017300003F00F0302EB820203F5FA6303EB4203AB
:10174000638138BD40F2E273002063810123208071
:101750006080A0802381E380FFF730FD38BD00BFAB
:101760002549002010B50D4C012323826369013304
:10177000636102F0C5F9238B9BB213B9092323835C
:1017800003E0238B013B9BB22383238B9BB21BB9CA
:10179000BDE81040FFF78CBC10BD00BF84000020E6
:1017A0000C4B0021198259610B4B0C4A1B68F0202D
:1017B000B3FBF2F34FF47A725343094A013B53608F
:1017C000084B83F8230007209160106083F82310F2
:1017D000704700BF840000205C00002040420F00E2
:1017E00010E000E000ED00E01FB501214FF40060C3
:1017F00002F0AAFE0023ADF80A30ADF806304FF62D
:10180000FF73ADF80830094B094A1B68094CB3FB5C
:10181000F2F304A9013B21F80C3D204601F0C6FE7D
:101820000121204601F00CFF04B010BD5C00002037
:1018300040420F00002C014072B6064B9B8C9BB2BD
:1018400062B6054A91889380994282BF116801313E
:1018500011607047002C01406C08002072B6074BE5
:101860009B8C9BB262B6064A91881068994284BFED
:1018700001301060938003EB00407047002C014062
:101880006C08002008B50120FFF7AEFF034B0021D4
:101890009A8C034B19609A8008BD00BF002C014050
:1018A0006C080020F7B518230124164D02AE8DF800
:1018B00007300121032304208DF8063002F044FE96
:1018C00026F8044D3146284602F038FD0022214614
:1018D000284602F08CFD2146052002F035FE214607
:1018E000094802F089FD4FF4004731462846ADF81B
:1018F000047002F023FD22463946284602F077FDA7
:1019000003B0F0BD000801400002300010B50E4CDD
:1019100001221146204602F06AFD00224FF40041E8
:10192000204602F064FD00BF00BF00BF00BF00BF43
:1019300000BF00BF00BF00BF00BF00BF00BF00BFAF
:1019400000BF00BF10BD00BF0008014010B5074C2C
:1019500000222046012102F04AFD2046BDE8104049
:1019600001224FF4004102F042BD00BF00080140D7
:1019700007B54FF40073ADF8043018238DF8073025
:1019800001A9032305488DF8063002F0D7FC012099
:10199000FEF7CEFB03B05DF804FB00BF000801407A
:1019A00007B5FEF701FE0120FEF7C2FB4FF40073FE
:1019B000ADF8043048238DF8073001A9032304480B
:1019C0008DF8063002F0BAFC03B05DF804FB00BFEE
:1019D000000801402DE9F0410646884605460024EE
:1019E000AB1BDBB2434506D215F8017B3846FEF748
:1019F000C1FD7C40F4E72046BDE8F041FEF7BABDEA
:101A00000A4AFF2191800A49002353801380916084
:101A1000084A3F2191800849538013809160074A0A
:101A20000121918013805380704700BFD0070020B0
:101A30007403002014490020BC280020080800205E
:101A400008B5FFF72FFF074B00221A605A609A6013
:101A5000DA601A825A829A82FEF792FEBDE8084046
:101A6000FFF7CEBF8428002007B54FF4407004F084
:101A7000EFF9114BE02283F823200121042002F02A
:101A800063FD0423ADF80430102301A90B488DF841
:101A9000073003238DF8063002F050FCFFF7D0FF2B
:101AA000FFF754FFFFF77CFFFFF7ECFEFFF778FE30
:101AB00003B05DF804FB00BF00ED00E0000801404A
:101AC00008B5114B114C1B681148236002F0DAFB7A
:101AD000104802F0D7FB104802F0D4FB0F4802F088
:101AE00063FD02F0B9FC0E4B00201860586098604E
:101AF00002F0D2FC012001F0B2FD0A4B186801F09F
:101B0000ABFD23689847FEE704F0FF1F2049002043
:101B100000080140000C0140001001400038014065
:101B200010E000E000F0FF1F034B00221A805A80F3
:101B30009A80DA80704700BF74080020F0B5364BF9
:101B400087B09B78013B032B63D8DFE803F0020EDC
:101B5000284AFFF70DFFFFF7D9FE304B1D782846C6
:101B6000FEF708FD2E4B1C7846E001AEFFF700FFA4
:101B7000FFF7CCFE10220021304604F091FA002439
:101B80002849304604F062FB2546375D013438466B
:101B9000FEF7F0FC102C85EA0705F6D118E001AE3F
:101BA000FFF7E6FEFFF7B2FE10220021304604F0F8
:101BB00077FA00241C49304604F048FB2546375D7F
:101BC00001343846FEF7D6FC102C85EA0705F6D11D
:101BD0002846FEF7CFFCFFF7B9FEFFF7E1FE012034
:101BE00018E0124CFFF7C4FEFFF790FE2578284658
:101BF000FEF7C0FC2488240A2046FEF7BBFC85EAD9
:101C00000400FEF7B7FCFFF7A1FEFFF7C9FE0120B5
:101C100000E0002007B0F0BD002900203C49002072
:101C2000E0070020EE640008F46400084E03002082
:101C3000074A50B1138801339BB20A2B138005D990
:101C400048F20202034B1A8070471080704700BFB1
:101C5000E2070020E0070020014B1868704700BF32
:101C6000FC28002010B542EA4112BDF80C40A0F259
:101C7000BC7042EA4020BDF80820640844EA4214DF
:101C800044EAC3239BB203EB004010BD30B5BDF85E
:101C9000104042EA41116508BDF80C40A0F2BC704A
:101CA00045EA441444EAC32341EA40219BB2024A74
:101CB00003EB0143136030BDFC2800202DE9F34104
:101CC0000E46044690461F462C4D002303702946BD
:101CD00004F034FA69463046294EFEF7FCFA0DF15D
:101CE0000101204604F02AFA3146204604F026FA83
:101CF00069465FFA88F0FEF7E5FA0DF1010120462A
:101D000004F01CFA3146204604F018FA6946F8B28D
:101D1000FEF7D8FA0DF10101204604F00FFA29462A
:101D2000204604F00BFA174D69469DF82000FEF797
:101D3000C9FA0DF10101204604F000FA29462046B7
:101D400004F0FCF969469DF82400FEF7BBFA0DF19A
:101D50000101204604F0F2F92946204604F0EEF98C
:101D600069469DF82800FEF7ADFA0DF10101204605
:101D700004F0E4F902B0BDE8F08100BF006500089E
:101D800002650008286400082DE9F047274B284D1C
:101D9000284AAB612723EB6129460346264803F016
:101DA00091FFA84600283DD10446DFF89090D8F86E
:101DB0001860337883B3304604F0A6FA032825D997
:101DC000F378303B092B21D800273D46304604F0FC
:101DD0009BFA1FFA87FA50450BD916F80A300137DB
:101DE000A3F13002092A9EBF6A1C05F8093095B29A
:101DF000ECE7042D28BF0425002305F809300F481F
:101E0000FEF78AFBA04238BF204684B208490A4840
:101E100003F036FF0028CAD0074803F01BFE204617
:101E2000BDE8F0870020BDE8F08700BF9E000020DD
:101E3000540300208B6500087404002080080020F3
:101E400010B51148FEF7BCF90C281BD945210E48E6
:101E5000FEF78CF90D4C09210B48FEF787F9042297
:101E60000B490948FEF791F921780748FEF77EF9FA
:101E700061780548FEF77AF9A1780348BDE810407B
:101E8000FEF774B910BD00BF04290020002900200E
:101E9000DC0700202DE9F043C84D8FB02846FEF73F
:101EA0008FF93D2840F2488252212846C44C2E88A2
:101EB000FEF75CF900212846FEF758F90422C149D3
:101EC0002846FEF762F921782846FEF74FF9617837
:101ED0002846FEF74BF9A1782846FEF747F9237804
:101EE000402B40F0CC806378032B21D1B6490B788E
:101EF0009B0618D44B78CA785B004B708B7803EB49
:101F0000C2134B800B798A795B000B714B7903EB21
:101F1000C213A1F80530CB794A7A5B00CB710B7AFA
:101F200003EBC2130B810A222846FEF72EF9F3E1D8
:101F3000072B24D1A44C012221462846FEF725F97F
:101F40000122A1182846FEF720F90122A11C2846EB
:101F5000FEF71BF90122E11C2846FEF716F923794A
:101F60002BB1013B03EB83035B0003F57A73022281
:101F700005A99248ADF81430FEF707F9CCE10B2B18
:101F800040F0CA819149002208688B880190104670
:101F9000ADF80830A1F1240401230EA9014411F881
:101FA000341C175D194218BF47F0800705A95B0074
:101FB000232A57549BB206D0802B02BF013080B237
:101FC00001230132E9E715227C48FEF7DEF89DF88F
:101FD0003530BDF9292003F00F0303EB021304226F
:101FE0000DEB020175480193FEF7CFF89DF83630EE
:101FF000BDF92B2003F00F0303EB021304220DEBBA
:1020000002016E480193FEF7C0F89DF83730BDF924
:102010002D2003F00F0303EB021304220DEB02014A
:1020200066480193FEF7B1F89DF83530BDF92F20D1
:102030001B0903EB021304220DEB02015F4801931D
:10204000FEF7A3F89DF83630BDF931201B0903EBEC
:10205000021304220DEB020158480193FEF795F894
:102060009DF83730BDF933201B0903EB021304221E
:102070000DEB020151480193FEF787F84CE1002B6C
:1020800040F04A8162780B2A40F04681A2782A2AE1
:1020900014D8282A25D2242A00F0BD80252A00F051
:1020A000DC80232A40F03881DFF824911F4639F87C
:1020B0000C290124ADF81420984691E02D2A34D043
:1020C00057D32E2A00F0EC807F2A40F02581DFF8DC
:1020D00004911C4639F80E290127ADF814209846C2
:1020E00000E11F469846DFF8EC90012439F80E29EC
:1020F000ADF814200EAB434413F8243C17F8091034
:10210000234218BF41F080012C48FEF72FF86400ED
:102110000D2FA4B200F00081802C02BF08F101084D
:102120001FFA88F801240137E4E71F469846DFF8D4
:10213000A890012439F80729ADF814200EAB4344C8
:1021400013F8243C17F80910234218BF41F080010E
:102150001A48FEF70BF86400062FA4B200F0DC80EA
:10216000802C02BF08F101081FFA88F8012401370A
:10217000E4E71F469846DFF86490012439F80D29FA
:10218000ADF814200EAB434413F8243C17F80910A3
:10219000234218BF41F080010848FDF7E7FF6400C3
:1021A0000C2FA4B200F0B880802C02BF08F1010807
:1021B0001FFA88F801240137E4E700BF0429002052
:1021C00000290020DC070020D0060020F4060020B3
:1021D000DC060020DE060020D7060020DD060020F9
:1021E0000EAB434413F8243C17F80910234218BFE0
:1021F00041F080015248FDF7B9FF64000B2FA4B2F3
:1022000000F08A80802C02BF08F101081FFA88F8CC
:1022100001240137E4E71F469846DFF8289101249E
:1022200059F8160905900EAB434413F8243C17F8EF
:102230000910234218BF41F080014148FDF796FF85
:102240006400152FA4B267D0802C02BF08F10108EA
:102250001FFA88F801240137E5E71C469846DFF8A5
:10226000E890012739F80A29ADF814200EAB434451
:1022700013F8243C14F809103B4218BF41F08001C8
:102280002F48FDF773FF7F00092CBFB244D0802F89
:1022900002BF08F101081FFA88F801270134E5E7B9
:1022A0001C469846DFF8A490012759F812090590BA
:1022B0000EAB434413F8243C14F809103B4218BFFA
:1022C00041F080011E48FDF751FF7F00112CBFB285
:1022D00022D0802F02BF08F101081FFA88F80127D9
:1022E0000134E5E70EAB434413F8243C14F809101D
:1022F0003B4218BF41F080011148FDF737FF7F00D6
:102300000D2CBFB208D0802F02BF08F101081FFAC0
:1023100088F801270134E5E72B889B1B9AB213B29A
:10232000002B04DA064B9B88013313441BB2AA88A6
:1023300001361640AA6893550FB0BDE8F08300BF80
:1023400004290020E6060020DA060020E20600202C
:1023500073B50121082002F0F7F80123ADF804302D
:10236000482301A925488DF8073003238DF806304E
:1023700001F0E4FF224B0B221A80224B64221A80C8
:1023800041F6FF72204B00251D80204B204E1D8002
:10239000204B214C9A80214A5D801D809A60FEF777
:1023A00001FF682325803370FFF742F901280546B5
:1023B00004D11B48FFF76CF900B125802488164D25
:1023C000BCB9FA20FDF7BBFE2046FEF7FFFEFA205F
:1023D000FDF7B5FEFEF7E6FE68232C803370FFF7AD
:1023E00027F90128044604D10D48FFF751F900B13F
:1023F0002C800C4801F0B2F902B070BD000C014015
:10240000500300200E080020102900207E08002024
:1024100024490020042900207C0800208008002096
:10242000600800202C00002013B50D4C2046FDF75D
:10243000BAFEB0F5805F10D9A068618801AB4FF497
:1024400080520144074803F0ABF9FFF7F1FB6388C2
:1024500003F58052A3881340638002B010BD00BF13
:10246000042900202801002030B5012287B0364918
:10247000364802F081FF002863D1354B1B88CBB969
:102480003448FFF781FC0130334980B2FDF723FF68
:102490003249334803F0DAFE32496FF48063C818DA
:1024A00003F04CFE30492E4803F048FE2F4A304BD3
:1024B0001A6023E02F4C2088E388228961890290EA
:1024C00060880190A08800902348FFF7F7FB23491C
:1024D000234803F0BBFE2049A1F5806003F02EFEE7
:1024E00021491F4803F02AFE2588A388E288218914
:1024F0006089019564880094FFF7C8FB184C0A2294
:1025000021461D4802F060FFD8B91C4904F58060DF
:1025100003F09CFE04F5806003F0F6FE84F80104ED
:1025200004F5806003F0F0FE05AB024604F580611F
:10253000114803F035F920B9114B5880188001205B
:1025400000E0022007B030BD8B6500089C0400202D
:102550007C08002004650008800C00200B65000842
:1025600080080020810C0020086500080000214C34
:10257000FC28002060080020280100200F650008CA
:102580000429002008B5094B1A881AB941F64B52A4
:102590001A8001E0013A1A801B8833B9044803F01D
:1025A000BFF9BDE80840FFF743BB08BD1029002074
:1025B0002801002070B5434C88B023880BB9FFF781
:1025C000BDFA414B9B78722B02D0732B31D070E057
:1025D0003E4B1B886BB10020FEF7F8FDFEF7E2FDD5
:1025E0003B4B682204A81A70FFF752F8394801F0F3
:1025F000B5F8394B5A89ADF810201A898DF8122098
:10260000DA888DF813209A888DF814205A881B8850
:102610008DF815208DF81630FFF7AAF9FFF776F937
:10262000072104A8FFF7D6F9FFF790F9FFF7B8F9EB
:1026300046E0264B1B88002B3BD0238823B1FFF7B5
:1026400029FCFFF7FDFB3BE01946244D35F807292F
:10265000ADF81020012208AE0E4416F8106C585D3B
:10266000164218BF40F0800002AE5200062B98556B
:1026700092B206D0802A02BF013189B20122013311
:10268000E9E7FEF78FFD9DF80E50114B68221A7096
:1026900001959DF80D50BDF808009DF80C309DF88F
:1026A0000B209DF80A100095FEF732FF094801F053
:1026B00055F8238813B1FFF7C3FB01E0FFF7EAFBEE
:1026C00008B070BD80280020002900207C08002070
:1026D000244900202C00002060080020D70600209C
:1026E000034B1B880BB1FFF7ABBBFFF7D3BB00BF9E
:1026F00080280020024B00221A81DA809A807047DD
:1027000030490020024B00221A805A809A8070477C
:102710001008002008B5FDF75FFF064B99884A1C9A
:1027200092B2382A19449A80887184BF38229A80DC
:1027300008BD00BF100800200A2801D03B2807D19F
:10274000044B00219A8801201A44917199807047A6
:102750000020704710080020044A00239380044A98
:10276000044813805380FDF715BF00BF3049002097
:10277000100800203065000808B5FFF7BBFF044BC8
:1027800000221A805A800348BDE80840FDF702BFC6
:10279000100800203065000838B5054603F0B4FD88
:1027A00029460246084803F0DDFD044648B928469C
:1027B000FDF7F0FE0548FDF7EDFE054B01209C718D
:1027C00038BD002038BD00BF16080020896500080C
:1027D0001008002010B50748FDF7DCFE0648FDF79D
:1027E000D9FEBDE810400548054B00220E21C06807
:1027F000FDF724BF336500084365000884280020E6
:102800008965000808B5FDF7D9FE28B1FDF7E4FE9B
:10281000BDE80840FFF7B0BF08BD00002DE9F04754
:10282000002094B0FEF7D2FCFEF7BCFC7F4B682280
:102830001A70FEF7FDFE002800F0EE807C4C0722A7
:1028400021460020FEF7CCFD002840F0E1802378EF
:10285000A278C3F3021A0AEB8A0A03F00F0303EB10
:102860004A0A637812F0400FC3F3021909EB890991
:1028700003F00F0303EB490902F00F064FEA22139E
:102880000AD003F0010399000B4406EB43069306BC
:1028900008D50C36B6B205E003F0030303EB83035F
:1028A00006EB430623796348C3F3011808EB880855
:1028B00003F00F0303EB48086379C3F30017BA0072
:1028C000174403F00F0303EB4707A3791D0903F037
:1028D0000F0303F5FA6305EB850503EB4505FDF7EB
:1028E00059FE5548FDF756FE544B2078002204212E
:1028F000FDF78CFE524A01214D48FDF7B7FE4F4BC4
:10290000607800220421FDF781FE4D4A01214D48E7
:10291000FDF7ACFE494BA07800220421FDF776FEBE
:10292000474A01214848FDF7A1FE444BE0780022C8
:102930000421FDF76BFE424A01214448FDF796FE53
:102940003E4B207900220421FDF760FE3C4A012124
:102950003F48FDF78BFE394B607900220421FDF7DB
:1029600055FE374A01213B48FDF780FE334B607925
:1029700000220421FDF74AFE374A01213748FDF7BE
:1029800075FEADB23648FDF705FE28B22C4B00228D
:102990000721FDF73BFE3846294B00220721FDF7B2
:1029A00035FE2D4B002207214046FDF72FFE2D4816
:1029B000FDF7F0FD30B2224B00220721FDF726FE85
:1029C00048461F4B00220721FDF720FE5046224BB0
:1029D00000220721FDF71AFE43463A46294604A87D
:1029E0008DE84006FFF76AF904A8FDF7D3FD1A4801
:1029F000FDF7D0FD3346424639468DE800062846AD
:102A0000FFF730F9144B00220E21FDF717FE06E008
:102A10001548FDF7BFFD02E01448FDF7BBFD144863
:102A200000F09CFE14B0BDE8F08700BF24490020F0
:102A300025490020496500085A65000863650008BB
:102A40006165000826490020274900202849002008
:102A5000294900202A490020896500082B490020C7
:102A6000656500086E650008776500088C650008DC
:102A70002C0000202DE9F041484FFEF779FFFEF7CA
:102A800045FF4748FDF786FD4648FDF783FDFFF704
:102A900039FEFFF761FE4FF6FF73434D002204211C
:102AA000424800246B80264601F0A1FC404A138A6C
:102AB0009BB2002BFBD03E4B00221A823D4B0136CD
:102AC0001E60B7F80280B8F1000F05D0FFF79AFE3C
:102AD000002C52D1C724E9E7FDF770FD0028F5D09E
:102AE000FFF718FEFFF728FE0028EAD03248FFF76C
:102AF00053FE38B1314B0122A3F80080304B1A80CD
:102B0000BDE8F0812F48FFF747FE0028B5D12E48D9
:102B1000FFF742FE18B1FFF75DFEFFF71DFE2B48E1
:102B2000FFF73AFE20B12A48FDF734FDFFF714FE07
:102B30002848FFF731FE20B12548FDF72BFDFFF7B0
:102B40000BFE2548FFF728FE20B12148FDF722FDA6
:102B5000FFF702FE2148FFF71FFE20B11C48FDF7DA
:102B600019FDFFF7F9FD1E48FFF716FE0028A8D053
:102B7000FFF754FEFFF7F0FDA3E7013CA4B2002CE1
:102B800094D1B5F90230002B90DA084AD368DB43C0
:102B900003F0040343F48023136187E71008002047
:102BA000A8650008896500080000002000080140B1
:102BB0008400002030490020BF65000880280020E4
:102BC000E4070020C2650008CA650008D665000851
:102BD000DF650008EF650008F5650008FE65000880
:102BE0000766000842B270B5002A9A4EBCBF0023A7
:102BF000338033880546032B964C00F0CE8003D8F3
:102C0000012B4CD009D968E0052B00F00881C0F0F9
:102C1000E780642B00F0358170BD002A80F242818C
:102C2000FEF71CFE8C4B8D4A186005F07003FF21E7
:102C300005F00F05302B13705570917009D003D833
:102C400023B3102B05D023E1402B06D0502B40F0AE
:102C50001F81BDE87040FFF71DB9072D08D00B2D6F
:102C60000AD0032D40F01E81012333800B2306E0A0
:102C70000123238006236EE0012333802B23B380BE
:102C80000023F380764B9B8C738070BD0B2D744BAF
:102C90000CBF0222642222809B8C638070BDE3887B
:102CA000704AD0540133A0889BB28342E380C0F0C5
:102CB000E480002319465C1CDBB2834203D2D35C60
:102CC00059402346F7E7684B00221A80674A0320E1
:102CD0001080002900F0818079E0604B2A289870EC
:102CE0001AD8282834D2232844D00DD8451E032DC5
:102CF00050D85D4A002313805C4A23800221584B40
:102D000011809B8C638070BD242837D0252841D149
:102D1000032333800D23B2E72E2833D007D82C2885
:102D20004F4B4FF003021DD922800A221CE073286A
:102D30002CD07F280CD072282CD14B4A0023138032
:102D40004A4A33800221464B11809B8C738070BDB0
:102D5000032323801123A3800023E380404B9B8C1B
:102D6000638070BD22801022A2800022E2809B8CB2
:102D7000638070BD032323800F23ECE703232380AC
:102D80001B23E8E7032323801723E4E7032323809F
:102D90000A23E0E70023338070BDE388314AD05432
:102DA0000133A0889BB28342E38066D30023194697
:102DB0005C1CDBB2834203D2D35C59402346F7E765
:102DC000294B00221A80294A0220108029B10122B1
:102DD0001A80274AD3680133D360002333804CE044
:102DE000E388042B47D8DFE803F0030D1013160027
:102DF000512802D1052232803DE046283BD00022F6
:102E0000328038E04C28FAD135E04128F7D132E061
:102E10005328F4D12FE04828F1D1FEF751FEE38882
:102E2000042B27D8DFE803F003080B0E110051280C
:102E300020D0002333801DE04D28FAD11AE04F281E
:102E4000F7D117E04428F4D114E04528F1D1FFF779
:102E500011FEEEE774080020DC07002000290020A6
:102E6000002C0140D006002080280020E40700202C
:102E700084280020F3880133F3800B4B9B8C7380F4
:102E800070BD0A4B9870FFF705F80023238070BDD2
:102E9000702B07D1064B1B88AB4200D015B9042319
:102EA0003380EDE670BD00BF002C014000290020FA
:102EB000500300202DE988480024FEF7D5FDA04BE3
:102EC000DFF87C92B3F90230002B04DA00220421EF
:102ED0009C4801F08CFA9C4B9C4E1C809C4F9D4B57
:102EE0009D4DDFF884A21C803C802C80AAF8004015
:102EF00074803480B480FFF72BFAFEF715FE4FF490
:102F000000433B804FF6FF73002204218D48A9F84F
:102F1000023001F06CFAB9F90230AB46002BD04612
:102F200004DA01220421874801F061FA0725FDF740
:102F300045FB18B1FDF750FBFFF754FEFFF774FA9D
:102F4000B8F800309BB2013B062B26D8DFE803F02F
:102F500004070C23111A1F00AAF80040ADE7FFF781
:102F600029FBA8F8004018E0FFF7BAFBA8F80040DA
:102F700013E0FEF7FDFCFEF7C9FCABF80040A8F833
:102F800000500AE0ABF80040A8F8005005E0FEF75A
:102F9000DDFCFEF705FDA8F80040704B1B8A9BB2D4
:102FA000002BC4D06D4B1C82FEF746FCB9F9020021
:102FB000002877DD6A4DB0F5FA7F2B8803F1010315
:102FC0009BB22B8062D1674A11880C295ED80122FE
:102FD00002FA01F111F4825F2CD111F0240F14D107
:102FE00011F0120F52D0B3F5FA7F03D104215548E6
:102FF00001F0FDF92B88B3F57A7F53D30022042129
:1030000050482C8001F0F3F94CE0B3F5FA7F03D17E
:1030100004214C4801F0EBF92B88B3F52F7F04D144
:1030200000220421474801F0E2F92B88B3F5487FDC
:10303000E0D125E0B3F5FA7F03D10421414801F046
:10304000D6F92B88B3F5167F04D1002204213D4820
:1030500001F0CDF92B88B3F52F7F04D10122042193
:10306000384801F0C4F92B88B3F5487F04D1002219
:103070000421344801F0BBF92B88B3F5617FB9D145
:10308000012204212F4801F0B2F9B3E7834209DBA2
:103090002C4B2C4ADB682C80DB4303F0040343F405
:1030A000802313613B882A49012B2ED0022B3FF449
:1030B0003DAF23F4FE4292B2B2F5004F10D005D8D6
:1030C000012A22D012D3032A29D02FE748F2020086
:1030D00082421DD012D348F203039A421FD025E743
:1030E000C3F30E030B803223A9F80230FFF7BCF9BB
:1030F0006FEA40406FEA5040388017E7C3F30E0391
:103100000B804FF4FA73A9F80230FFF73BFA0DE792
:10311000C3F30E030B806423A9F8023006E7B388DB
:10312000328801339BB29A42B380BFF4FFAE074BA3
:103130005B886FEA43436FEA53433B80F6E600BF88
:1031400000000020000801403C4900202001002030
:10315000E00700204E03002080280020840000208B
:103160004C03002050030020E40700207F2810B506
:1031700016D931B1FF2812D80A4B803833F8100025
:1031800010BD084A32F811408BB2844203D001319D
:103190008029F7D10B4603F18000C0B210BD00209A
:1031A00010BD00BF1066000810B5002307495A0083
:1031B00001F5807434F8134034B1844201D00133F6
:1031C000F4E78B18B3F8E00210BD00BF10660008EA
:1031D000084B10B553F820400121204601F0D8F9E2
:1031E0002046002101F0D4F92046BDE8104001211D
:1031F00001F0B6B9D06A0008084B10B553F820406A
:103200000121204601F0C4F92046002101F0C0F957
:103210002046BDE81040002101F0A2B9D06A0008A4
:103220002DE9F3410746134C8500631998681B6923
:103230000121184301F088F903238DF8063004EBCF
:1032400047041C238DF80730238B02AEDFF828805B
:1032500026F8043D314658F8270001F06FF8454440
:10326000A38B3146A868ADF8043001F067F802B0CE
:10327000BDE8F081D06A000804000020F7B50746D9
:103280000E4E032306EB40068DF8063004238DF81E
:103290000730338B02AD0A4C25F8043D294654F81B
:1032A000200001F04BF804EB8704B38B2946A0689B
:1032B000ADF8043001F042F803B0F0BDD06A000868
:1032C0000400002070B5184C85002C440E46206A7E
:1032D000012101F02DF94FF6FF7314498022CB60D4
:1032E00000230B618B61CB618B62A36A4A6116F08C
:1032F000010F4FF440524A620B600C4606D0102377
:103300008B600B4B2B44186902F064FDB30709D5A1
:103310000023A360064B05491D44A869BDE8704021
:1033200002F058BD70BD00BFD06A000840490020BF
:103330000400002010B40C4B0C6849688000D96070
:103340000A4912F480420144896A18BF20221A6295
:1033500010225C6019609A60054B034918440069AB
:1033600010BC02F037BD00BF40490020D06A000801
:103370000400002010B40C4B0C6849688000D96030
:103380000A4912F400420144896A18BF20221A62D5
:1033900000225C6019609A60054B034918448069FB
:1033A00010BC02F017BD00BF40490020D06A0008E1
:1033B00004000020CA0738B504460D4605D5084B61
:1033C00003EB8003186902F08DFCAB0707D50448B6
:1033D00000EB84008069BDE8384002F083BC38BD52
:1033E000040000202DE9F74305460F46404C904667
:1033F0006619994602F028FD01238DF8073096F8EA
:10340000303001A88DF8043096F832308DF8053050
:1034100096F834308DF8063002F024FD780217D487
:1034200096F8363001A88DF8043096F838308DF8CB
:10343000053096F83A308DF8063002F013FD2D4B2A
:1034400003EB85031A6A93889BB243F480739380DD
:10345000B9F1020F49D118F0010F21D0631993F887
:103460003C2001A88DF8042093F83E2093F84030CA
:103470008DF805208DF8063002F0F4FC1D4BB905DF
:1034800003EB85031B691A6842F002021A601A688E
:1034900042F008021A6042BF1A6842F004021A6041
:1034A00018F0020F21D0631993F8422001A88DF87B
:1034B000042093F8442093F846308DF805208DF8C9
:1034C000063002F0CFFC0B4B03EB8505AB691A68A5
:1034D00042F002021A601A6842F008021A60FA0406
:1034E00042BF1A6842F004021A6003B0BDE8F083DC
:1034F000D06A0008040000202DE9F3478A461D4EDB
:103500009946371800238DF805308DF806308DF870
:10351000073097F8303002AC04F8043D05462046E9
:10352000904602F09FFC1AF4800F06D197F83630CF
:1035300020468DF8043002F095FCB9F1020F15D148
:1035400018F0010F07D0731993F83C3020468DF81E
:10355000043002F087FC18F0020F07D0354495F8CC
:10356000423020468DF8043002F07CFC02B0BDE809
:10357000F08700BFD06A0008014800F06BBC00BFB4
:103580002C00002008B5024800F03EF9002008BDDC
:103590002C000020014800F0A7B900BF2C0000203B
:1035A000014800F02FBA00BF2C000020224A0388F7
:1035B00090429BB212D002F5006290420ED0B0F160
:1035C000804F0BD0A2F59832904207D002F580626E
:1035D000904203D002F58062904203D14A8823F0E2
:1035E00070031343154A904208D002F5806290425E
:1035F0001FBF23F44073CA889BB2134303808B8898
:1036000083850B8803850C4B98420FD003F500632C
:1036100098420BD003F54063984207D003F58063CE
:10362000984203D003F58063984201D10B7A038658
:1036300001238382704700BF002C0140001000402E
:10364000038819B19BB243F0010303E023F00103A7
:103650001B041B0C0380704780F30888704780F3BD
:10366000108870474FF0FF32826110220273FF22F0
:103670000261FDF763BD0000037B70B5012B0446BA
:1036800005D0037B102B02D0037B002B62D1207866
:10369000314D55F82020138823F001031B041B0C27
:1036A0001380FFF7EBFD2078FFF7A6FDE378022BF0
:1036B00003D161782078FFF77DFE2078FFF788FD41
:1036C0002078FFF7ADFD2378E16955F823000388E2
:1036D0009BB243F00103038002F078FC626920781A
:1036E00012F4801F07D01C4B53F820100B889BB29C
:1036F00043F040030B80D10712D555F8201002F09B
:10370000FE068B899BB243F001038B818B8923F0EA
:10371000FE031B041B0C8B818B899BB233438B8173
:10372000530007D555F820100B8823F480631B0441
:103730001B0C0B80E378022B02D16178FFF7C2FDEE
:10374000E378207862786169FFF74CFE01232373E8
:10375000002070BD012070BD24000020037B10B547
:10376000012B044604D0037B102B01D0037B13BB39
:103770002078FFF783FD2078104B53F82020138822
:1037800023F001031B041B0C1380FFF735FDE378C6
:10379000022B03D161782078FFF70CFEE3782078C4
:1037A00062786169FFF7A8FE00204FF0FF332073B5
:1037B0002061A36110BD012010BD00BF24000020C6
:1037C0000F4A1049034611604BF6FF71D1804FF448
:1037D000806151814FF4804100209181032110814B
:1037E000908059700221D9704FF0FF311873987092
:1037F00018615860986058619961DA61704700BF3C
:103800006C490020A0860100837810B5012B047854
:10381000344B38D142685268002A34D1027B012AE5
:1038200002D0027B062A2ED153F824204FF2FF0348
:103830009382C378012B53D1938823F400731B0424
:103840001B0C9380938823F480631B041B0C9380D0
:1038500006238361138B9C0705D58369012B02D056
:1038600083690133F6D18369012B02D08369013367
:1038700003D1BDE81040FFF7F5BE4FF0FF33836181
:10388000012303732CE053F824309A8A02F4706207
:103890000261102202734FF2FF029A820269D1057F
:1038A0000AD51A886FEA42426FEA524292B21A80EF
:1038B0001A88C2F30E021A80026992050AD51A8884
:1038C0006FEA42426FEA524292B21A801A88C2F3F9
:1038D0000E021A800369036901692046FDF74AFC5C
:1038E000002010BD240000204FF0FF3370B43F4A89
:1038F000836103783E4952F8234051F823502268EF
:103900002A4253D04268466900215160720461D452
:103910008278002A5ED1374A52F82320918821F418
:1039200000610904090C918005218161918A490790
:1039300005D48169012902D081690131F6D18169FB
:1039400001291DD0816901311AD04FF0FF313602B3
:1039500081611BD4118889B241F400711180062164
:103960008161118B890705D58169012902D081699F
:103970000131F6D18169012902D08169013102D179
:1039800070BCFFF76FBE4FF0FF3181611A4951F8EB
:103990002360316821F001013160918821F40071C8
:1039A0000904090C91800122027313E0134A216873
:1039B00052F8232011420DD1114A216852F82320D8
:1039C000114207D00C49102251F8231002734968A4
:1039D00042685160094A0A4952F8232051F82330BD
:1039E0002A4313436360002070BC70474C000020E2
:1039F000406B00082400002014000020386B0008F1
:103A0000306B00084FF0FF3370B4374A836103789E
:103A1000364952F8234051F8235022682A4243D0B5
:103A20008268002151604269160451D48278002ACC
:103A30004ED12F4A52F82320118889B241F40071E7
:103A40001180918821F400610904090C91800621FC
:103A50008161118B890705D58169012902D08169AE
:103A60000131F6D18169012902D08169013102D188
:103A700070BCFFF7F7BD4FF0FF3181611D4951F870
:103A80002360316821F001013160918821F40071D7
:103A90000904090C9180918821F480510904090CD2
:103AA00091800122027313E0134A216852F8232007
:103AB00011420DD1114A216852F82320114207D03A
:103AC0000C49102251F82310027349688268516032
:103AD000094A0A4952F8232051F823302A43134354
:103AE0006360002070BC70474C000020286B000809
:103AF000240000201C000020206B0008186B000828
:103B0000F8B50F4D00244FF0FF36102755F824006C
:103B100088B1836943B98661077303695BB9FF2381
:103B20000361FDF70BFB06E0836901331EBF836968
:103B300003F1FF3383610134022CE7D1F8BD00BFEC
:103B40005400002038B5C3780446012B02D0022B64
:103B50000AD047E00278264B53F8222093889BB284
:103B600043F48063938041E00078214D55F8202094
:103B7000938823F400731B041B0C938093889BB2DF
:103B800043F400639380237B062B01D001290ED1DF
:103B900062696168FFF7CEFB227855F822108B88A6
:103BA00023F480531B041B0C8B80124B13E0237BEC
:103BB0000A2B01D0022919D16269A168FFF7DAFB4B
:103BC000A378227833B955F822108B889BB243F43E
:103BD00080538B80084B53F82220136843F0010375
:103BE000136003E010230373012038BD002038BDAB
:103BF00024000020140000201C00002038B5037BA6
:103C0000044698074BD4237B032B48D0237B052BFA
:103C100045D0237B002B42D0237B102B3FD0626901
:103C2000022312F0807F23731E4D23781AD10621C0
:103C300055F82300A161018B890705D5A1690129E8
:103C400002D0A1690131F6D1A169012902D0A1698F
:103C5000013104D12046BDE83840FFF703BD4FF0E5
:103C6000FF31A161A17881B955F823100B889BB26F
:103C700043F480730B80D30303D501212046FFF763
:103C800061FF032323731F23A3612378002055F8CA
:103C9000232093889BB243F40073938038BD0120A6
:103CA00038BD00BF2400002038B5037B04469907C7
:103CB00000F1CB80037B032B00F0C780037B052B37
:103CC00000F0C380037B002B00F0BF80037B102B30
:103CD00000F0BB800223037343695D4D13F0807FC6
:103CE00016D106228261027855F822100A8B9207BB
:103CF00005D5A269012A02D0A2690132F6D1A269D2
:103D0000012A7CD0A269013279D04FF0FF32A26142
:103D1000E278022A07D1A2685268012A02BF43F45E
:103D200000136361E2706169CB0371D4A378002B47
:103D30006ED1237855F823301A8892B242F48072FB
:103D40001A801F22A2619A8AD00705D4A269012A8B
:103D500002D0A2690132F6D1A269012A4FD0A2692C
:103D600001324CD04FF0FF32A261E2699289B2F584
:103D7000804F18D1A268926802F0FE021A820422D3
:103D8000A2619A8A920705D4A269012A02D0A26987
:103D90000132F6D1A269012A31D0A26901322ED0B6
:103DA0004FF0FF32A2619A8A1A8B0322A2619A8A8B
:103DB000100605D4A269012A02D0A2690132F6D107
:103DC000A269012A1BD0A269013218D04FF0FF323C
:103DD0008903A26122D4A268127B1A820322A26103
:103DE0009A8A120605D4A269012A02D0A269013278
:103DF000F6D1A369012B02D0A369013304D1204677
:103E0000BDE83840FFF72EBC4FF0FF33A36105E05B
:103E1000E178022902D12046FFF794FE052323739F
:103E2000A378227843B955F822100B889BB243F44B
:103E300080730B801F23A36155F8222000209388F4
:103E40009BB243F40073938038BD012038BD00BF9E
:103E50002400002073B50023ADF80630914E03789E
:103E6000044656F823309A8A02F0DF02ADF80620A5
:103E70008278FAB9BDF80620D5071DD54FF0FF327C
:103E80008261C2699289B2F5804F13D1027B052A03
:103E900007D18268926842F00102D2B21A820A23E4
:103EA00005E04268926802F0FE021A82062323733C
:103EB0000423A361002542E1BDF8062002F00202BE
:103EC00092B2002A69D0C17802290BD1027B062A5E
:103ED00001D1426803E0027B0A2A03D1826852685A
:103EE000013201E04FF0FF32A261227B0A2A0DD19C
:103EF00001290BD1A268556845B91A8892B242F4DB
:103F000000721A809A8A1B8B217318E1237B0A2B7B
:103F100005D1012903D102212046FFF713FE2378A2
:103F200056F823309A8A1A8B227B0A2A0ED1A2686D
:103F30005268012A0AD11A8822F480621204120CF3
:103F40001A801A8892B242F400721A80626912F4DE
:103F50008035AFD1217B06291AD1900318D462682D
:103F6000127B1A820322A2619A8A110605D4A269E1
:103F7000012A02D0A2690132F6D1A369012B00F017
:103F8000C980A369013300F0C5804FF0FF33A361FE
:103F900003212046FFF7D6FDD1E0BDF806100A0642
:103FA0004BD5017B062948D1C178012982D14168CE
:103FB0004D6865B1086804781C824B68013B4B6012
:103FC0004B68002B3FF476AF0130086072E742691E
:103FD00012F4000101BF1A8892B242F400721A80F2
:103FE0009A8822F400721204120C9A809A8822F4A1
:103FF00080621204120C9A800622826181B99A8A28
:1040000002F084027AB1A269012A0CD0A2690132BD
:10401000F5D108E0A269012A05D0A269013202D0D7
:104020009A8A1606F6D4A369012B73D0A3690133CB
:1040300070D04FF0FF33A3617FE0BDF8062050063B
:104040007FF538AF227B0A2A7FF434AFE278012A69
:104050007FF430AFA1684A68022A0A6817D11B8A28
:104060001370237856F82320138823F480631B04ED
:104070001B0C138013889BB243F400731380A36856
:104080005A68013A5A601A6801321A6013E04968A6
:104090001B8A0129137007D1A2685368013B536042
:1040A00009E000BF24000020A3681A6801321A60EA
:1040B0005A68013A5A60A3685D68002D7FF4FAAE31
:1040C000237856F823309A8822F400721204120CD6
:1040D0009A809A8822F480621204120C9A809A8A3A
:1040E0001A8A6269910241BF22F4001262610222BF
:1040F000E2700622A2611A8B920705D5A269012AF5
:1041000002D0A2690132F6D1A269012A02D0A269C5
:10411000013204D12046FFF7A5FA05460FE04FF023
:10412000FF32A2611A8892B242F480621A801A8821
:1041300022F400621204120C1A8001232373284611
:1041400002B070BD384B82B01A6842F001021A60AA
:104150005968364A0A405A601A6822F0847222F47A
:1041600080321A601A6822F480221A605A6822F497
:10417000FE025A604FF41F029A60002200920192E0
:104180001A6842F480321A601A6802F4003201920E
:10419000009A01320092019A1AB9009AB2F5A06F02
:1041A000F2D11A6812F4003218BF01220192019A6A
:1041B000012A05D01E4B4FF000629A6002B0704792
:1041C0001C4A116841F010011160116821F00301CF
:1041D0001160116841F0020111605A685A605A6812
:1041E0005A605A6842F480625A605A6822F47C121B
:1041F0005A605A6842F4E8125A601A6842F08072B3
:104200001A601968084A8901FBD5516821F0030139
:104210005160516841F0020151605A6802F00C028D
:10422000082AFAD1C6E700BF001002400000FFF8DC
:1042300000ED00E000200240FEE7000008B50C4A57
:104240000C4B0D498B4204D252F8040F43F8040B77
:10425000F8E70A480A494FF000028842B8BF40F820
:10426000042BFADBFFF76EFFBDE80840FEF722BE25
:10427000E46B00080000002084000020840000207F
:104280007C49002008B5264B984206D10121042024
:1042900000F072F9002104203CE0224B984206D144
:1042A0000121082000F068F90021082032E01E4BAF
:1042B000984206D10121102000F05EF90021102063
:1042C00028E01A4B984206D10121202000F054F931
:1042D000002120201EE0164B984206D101214020EB
:1042E00000F04AF90021402014E0124B984206D118
:1042F0000121802000F040F9002180200AE00E4BCF
:1043000098420BD101214FF4807000F035F9002163
:104310004FF48070BDE8084000F02EB908BD00BF22
:1043200000080140000C0140001001400014014051
:1043300000180140001C014000200140CA782DE90E
:10434000F041D40648BF8C780E8802F00F0348BFB6
:10435000234316F0FF0F1ED0016800244FF0010E1A
:104360004FF00F0C0EFA04F737EA06050FD1A5003F
:104370000CFA05F821EA080103FA05F5282A41EAB2
:10438000050101D1476102E0482A08BF07610134F5
:10439000082CE7D10160FF2E20D9416800244FF09E
:1043A000010E4FF00F0C04F108050EFA05F535EA81
:1043B00006070FD1A7000CFA07F821EA080103FA53
:1043C00007F7282A41EA070101D1456102E0482A9E
:1043D00008BF05610134082CE5D14160BDE8F081DA
:1043E000806880B2704701617047416170470AB1CF
:1043F00001617047416170470028164A30B500F4EA
:104400004015B4BFD3695368B5F5401F84B206D1D7
:10441000556823F0706325F0706555600EE0C202A8
:1044200055BF420D03221201C0F303454CBFAA4001
:1044300004FA02F223EA020343F0706319B1420D59
:10444000120194402343034A0028B4BFD361536050
:1044500030BD00BF000001400D4B1A6842F0010260
:104460001A6059680B4A0A405A601A6822F084722E
:1044700022F480321A601A6822F480221A605A6884
:1044800022F4FE025A604FF41F029A60704700BF88
:10449000001002400000FFF8034A536823F00303B2
:1044A00018435060704700BF001002401C4A10B50E
:1044B000536803F00C03042B01D0082B01D0194BD7
:1044C0000EE053685168C3F38343CC0303F1020346
:1044D00002D55168890301D5134900E011494B43C6
:1044E000036053681149C3F30313CC5C0368E340D2
:1044F00043605468C4F302240C5D23FA04F484601E
:104500005468C4F3C2240C5DE340C3605268C2F334
:1045100081320A44127CB3FBF2F3036110BD00BF89
:104520000010024000127A0000093D0070000020D7
:10453000044B5A6909B1104301E022EA00005861B6
:10454000704700BF00100240044B9A6909B1104344
:1045500001E022EA00009861704700BF00100240AD
:10456000044BDA6909B1104301E022EA0000D86186
:10457000704700BF00100240044BDA6809B11043D5
:1045800001E022EA0000D860704700BF001002403E
:10459000044B1A6909B1104301E022EA00001861D6
:1045A000704700BF0010024008B5214B98420BD164
:1045B00001214FF48040FFF7DFFFBDE808400021F4
:1045C0004FF48040FFF7D8BF1A4B984208D1012121
:1045D0004FF40030FFF7DCFF00214FF4003022E001
:1045E000154B984208D101214FF48020FFF7D0FFEE
:1045F00000214FF4802016E0104B984208D1012191
:104600004FF40020FFF7C4FF00214FF400200AE020
:104610000B4B98420BD101214FF48010FFF7B8FFEC
:1046200000214FF48010BDE80840FFF7B1BF08BD7E
:10463000003801400044004000480040004C004069
:104640000050004070B50E460446038ACA889BB2EB
:1046500023F440531343038282898988338992B2B9
:104660000B43718922F4B0520B4322F00C02134326
:104670009BB28381838AB2899BB223F4407386B054
:104680001343838201A8FFF711FF174A039B049D80
:104690003168944218BF1D4619226A43A3896426D3
:1046A00013F4004F14BF4D008D00B2FBF5F5B5FBC0
:1046B000F6F0A28900010109120406FB115307D587
:1046C000D9003231B1FBF6F202F00702104306E0E6
:1046D0001A013232B2FBF6F303F00F03184380B233
:1046E000208106B070BD00BF003801404B8810B576
:1046F0000C88028A23438C88C98892B223430B43D7
:1047000022F4706213439BB2038210BD0023038026
:1047100043808380C3807047838919B19BB243F47F
:10472000005303E023F400531B041B0C83817047E8
:10473000012310B5C1F342149C4201F01F0103FA9A
:1047400001F101D10C3003E0022C0CBF1030143009
:1047500003680AB1194301E023EA0101016010BDB9
:10476000C1F30801818070470388194214BF0120FA
:1047700000207047090A012303FA01F1C94389B2F5
:104780000180704701380A44914204D011F8013B7E
:1047900000F8013FF8E7704700F10B010023DA0150
:1047A00042EA530310F8012B1344884203F0FF033D
:1047B000F5D118467047000003685A1C02601B7848
:1047C00098B2A0F16102192A02D8203880B270474D
:1047D0007F2882BF024A9B1813F8800C704700BFE5
:1047E000486B0008F0B585B004AC44F80C1D0546D4
:1047F0001E46114639B12046FFF7DEFF0139002879
:10480000F8D100203BE02B78002B32D1002E30D0A5
:10481000012034E02A2B0FD002A8FFF7CDFF074676
:104820002046FFF7C9FF874201461BD1002FEFD07A
:10483000029B1B783F2BEDD100231A460299481C9E
:1048400002900C7849783F2C0CBF013201233F299C
:10485000F4D02A29F2D00399FFF7C4FF0028D7D15A
:10486000039B197801A8FFF7A7FF002EC9D00029E4
:10487000C7D0019B04AC029544F8043DD8E705B0CD
:10488000F0BD026810B58AB111460B4611F8014B14
:104890001F2C09D93A2CF8D1511C8B4206D1127821
:1048A000302A03D101330360002010BD4FF0FF30E8
:1048B00010BD08B580B1036873B11A7862B1D988A8
:1048C0008288914208D15878FCF734FA10F0010F31
:1048D00014BF0320002008BD092008BDCA7E8B7EBE
:1048E000032843EA022301BF487D0A7D42EA0022F1
:1048F00043EA024318467047F8B5037904460BB9FA
:104900000020F8BDC56A00F1300701232A46394668
:104910004078FCF757FA90B9236AA269EB1A9342E0
:104920002071EDD2E678012EEAD9A36939461D44FB
:104930002A4601236078FCF745FA013EF3E701209F
:10494000F8BDC36A70B58B4206460D4611D0FFF71D
:10495000D3FF044670B92A46012306F1300170786E
:10496000FCF7F2F900281CBF4FF0FF350124F56277
:1049700000E00024204670BD002310B503714FF005
:10498000FF33C3620446FFF7DCFFC0B994F82F225F
:1049900094F82E3243EA02234AF65522934210D16C
:1049A000D4F86630084A23F07F4393420AD0D4F803
:1049B000820020F07F40801A18BF012010BD032024
:1049C00010BD022010BD00BF464154002DE9FF413B
:1049D00000230360804608461546FFF752FF071E76
:1049E000C0F2F180814E56F82740002C00F0ED8097
:1049F000C8F80040237883B16078FCF79BF9C107C1
:104A00000BD4002D00F0E38000F0040303F0FF005E
:104A1000002B00F0E8800A20E5E00023F8B22370C4
:104A20006070FCF7F3F8C20700F1D3800DB14307C3
:104A3000F1D400212046FFF79FFF01281CD104F587
:104A4000FB71002211F8043C03B10B684DF82230D1
:104A50000132042A01F11001F4D100275DF827503A
:104A60002DB129462046FFF787FF08B90BE0022049
:104A70000137042FF2D1AEE0032800F0AF8008B177
:104A80000D20B0E0054694F83C2094F83B3043EA12
:104A90000223B3F5007FF3D194F8463094F8470031
:104AA00094F8407053EA002008BF606D7B1E012B14
:104AB000A061E770E4D894F83D30A370002BDFD0FC
:104AC0005A1E1A42DCD194F842E094F8412042EA9E
:104AD0000E2E1EF00F0FA4F808E0D1D194F8441068
:104AE00094F8432094F83FC052EA012294F83E1013
:104AF00008BF226D51EA0C21C2D000FB07F801EB80
:104B00001E1CC4446245BBD3CCEB0202B2FBF3F3E0
:104B1000002BB5D040F6F572934203F1020701EB8A
:104B200005020CEB050110D94FF6F57C634557D90A
:104B30006761E5612262A162BEF1000FA0D1E36D61
:104B40004FF0030C6362BB0018E04FF0010C67618B
:104B5000E5612262A162BEF1000F91D0BCF1020FAB
:104B60004FEA470318BFDB19424418BF07F001079B
:104B700062621CBF07EB53034FF0010C03F2FF13FB
:104B8000B0EB532FFFF47CAF4FF0FF332361E360B2
:104B900080236371B38894F8592001339BB2B380AA
:104BA000E38094F8583084F800C043EA0223A4F864
:104BB000303294F8612094F86030002043EA0223F8
:104BC000A4F832320FE00B200DE00C200BE0284659
:104BD00009E0032007E003287FF452AF012002E040
:104BE0004FF0020CB3E704B0BDE8F081C80000202C
:104BF00043690239023B99423DBF8378806A01FBD9
:104C00000300002070470129F8B506460C465DD91F
:104C1000436999425AD20378022B29D0032B39D009
:104C2000012B53D101EB5105016A01EB5521FFF72F
:104C300088FE10B14FF0FF30F8BD316A6F1CC5F32C
:104C40000805354401EB5721304695F83050FFF701
:104C500078FE0028EED1C7F308073E4496F83000EE
:104C6000E30745EA00204CBF0009C0F30B00F8BD84
:104C7000016A01EB1421FFF764FE0028DAD1640019
:104C800004F4FF74331993F8310093F8303043EA99
:104C90000020F8BD016A01EBD411FFF752FE002895
:104CA000C8D1A30003F4FE7404F1300333449878B0
:104CB000DA7800045B7840EA0260344440EA03207A
:104CC00094F83030184320F07040F8BD0120F8BD52
:104CD00070B5044682680D46012AE18001D10220A8
:104CE00070BD036859698A42F9D252B9197803290B
:104CF00001D1596A21B919898D42F0D2586A15E05B
:104D00000A469E783601B542114620680CD3FFF75B
:104D10007AFF431C024618D00128E0D923685B695A
:104D20009842DCD2AD1BEEE7FFF762FFE26000289D
:104D3000D5D0236800EB1510303305F00F0503EBD9
:104D4000451520616561002070BD012070BD0129FD
:104D50002DE9F04106460C4615466ED94369994245
:104D60006BD20378022B3AD0032B48D0012B64D1AD
:104D700001EB5107016A01EB5721FFF7E2FD002823
:104D80005CD107F10108C7F3080714F001043744A8
:104D900017BF97F83030EBB203F00F0343EA051367
:104DA00018BFDBB287F83030316A0123337101EB71
:104DB00058213046FFF7C5FD00283FD1C8F3080849
:104DC000B04414B1C5F3071506E098F83020C5F3D8
:104DD000032522F00F02154388F8305029E0016ABC
:104DE00001EB1421FFF7ADFD40BB640004F4FF7438
:104DF000331983F830502D1283F8315019E0016ACD
:104E000001EBD411FFF79DFDC0B9A40004F4FE74BA
:104E100004F130033344DA783444120602F070426D
:104E200015432A1284F830505A702A0C2D0E9A70AD
:104E3000DD7001233371BDE8F0810220BDE8F0810F
:104E4000F8B505460F4631B9C66896B143699E422A
:104E500028BF01260EE0FFF7D6FE01283FD9441CEB
:104E600002D14FF0FF30F8BD6B69984238D33E460F
:104E700000E0012634466B6901349C4204D3012EC4
:104E800001D80020F8BD022421462846FFF7BBFECA
:104E900030B1411CE5D0012821D0B442EBD1F0E77C
:104EA0006FF0704221462846FFF751FFA8B957B965
:104EB0002B69EC605A1C0ED0013B2B616B7943F0DF
:104EC00001036B7107E0224639462846FFF73FFF92
:104ED0000028EDD001E02046F8BD0128C1D0012016
:104EE000F8BD2DE9F843C68804460136B3B20F4633
:104EF00013B90420BDE8F8830369002BF9D016F03C
:104F00000F085CD1C16801330361006819B90389D6
:104F10009E42EED253E08378013B13EA16134ED142
:104F2000FFF771FE0128054602D80220BDE8F8838C
:104F3000421C02D10120BDE8F883206843699D42EC
:104F400037D3002FD5D0E168FFF77AFF0546002858
:104F50003ED00128E9D0431CECD02068FFF7CCFC00
:104F60000028E7D1236803F1300203F50C739A425D
:104F700002D002F8010BFAE7226829461046FFF733
:104F800037FE0027D0624FF0010923689A789742D4
:104F90000CD283F804902068FFF7AEFC0028C9D13A
:104FA00022680137D36A0133D362EEE7DA6AD71B8E
:104FB000DF62E56029462068FFF71AFE206123685A
:104FC000E680303303EB481363610020BDE8F883CB
:104FD0000720BDE8F88300002DE9F74F4FF6FF7971
:104FE0004FF0FF0806464446A0F82090316930682B
:104FF000FFF7A7FC002840F0818075692B78002B13
:1050000073D0E52B65D0E97A0F0701F03F0202D596
:105010000F2A5ED101E00F2A47D1D6F81CB0BBF1B0
:10502000000F5BD0580605D503F0BF04F3886A7BF8
:10503000338402E0A34250D1424695F80D8090455A
:105040004AD12F78012027F040077B1E0D275F43B0
:105050004FF0000A2B4B1AF803106A1892F801E07F
:105060006A5C42EA0E2288B11046FEF79DF8272FAF
:10507000019032D87A1C3BF817000092FEF794F8A2
:105080000199814229D1009A174601E04A4524D16D
:105090000AF1010ABAF10D0FDCD12B7859062AD595
:1050A00048B33BF8173033B317E024B92846FFF76D
:1050B00073FB40451BD0B369DA7AD20709D405F1F6
:1050C0000B00854215D015F8011B13F8012B9142F6
:1050D000F7D0A6F8209000E09046FF24002130464B
:1050E000FFF7FFFE002881D008E0042006E02046FC
:1050F00004E0002002E0013CE4B2EFE703B0BDE8C9
:10510000F08F00BFC86B00082DE9F74F0B780746FA
:105110002F2B884601D05C2B01D108F10108002417
:10512000BC6098F800301F2B60D821463846FFF746
:10513000CFFD7C6116E100213BF81120202A00F010
:10514000A6802E2A00F0A38009B144F00304024691
:1051500032F8020D2E2801D0013EF9D14FF0000A9D
:1051600055464FF008093BF811004A1C002840F052
:105170009080BB691A78E52A04BF05221A70B9F13C
:10518000080F04BFAD00EDB205F00C030C2B00F0CE
:10519000CD8005F00302032A00F0C880A10709D4DE
:1051A00005F00305012D08BF44F01004042B08BFCF
:1051B00044F00804BB690021DC723846FFF788FD23
:1051C00010B93846FFF708FFBB69DB7A002840F0CA
:1051D000B0805A0700F1C6807969CB7ADB0640F1CE
:1051E000AF803B681878FFF779FBB86098F800301B
:1051F00044462F2B08F10108F8D05C2BF6D0D7F8E5
:105200001CB004F1FF39ABF10205002619F8010FBB
:1052100006F101081F281AD92F2818D05C2816D0AB
:10522000B8F1290F00F098800121FDF79FFF0028B9
:1052300000F092807F2806D84C4911F8012F12B156
:105240009042FAD188E025F8020F4646DEE7202892
:10525000A0440BEB460234BF04240024002E7BD074
:1052600032F8021D202901D02E2901D1013EF5E797
:1052700000222BF81620BA690BEB460002F10B0551
:10528000202195423FF457AF02F8011BF9E70131A5
:1052900052E7202803D02E2805D1B24208D044F08E
:1052A000030411465FE7CA4504D2B24218D155E063
:1052B000CA4553D3B9F10B0F04D144F003044FF0A6
:1052C0000B0956E7B24203D044F003043FF651AF56
:1052D000AD00EDB232464FF00B094FF0080AE0E79F
:1052E0007F280CD900210192FDF740FF019A18B1E7
:1052F0001F4B184410F8800C44F0020428B11D4BD9
:1053000013F8011F29B18842FAD144F003045F2049
:1053100006E0A0F1410189B2192913D845F0020530
:10532000B96901F80A000AF1010ABAE744F0020477
:1053300034E7042816D113F0040F08BF052011E04C
:1053400005200FE0A0F1610189B219299EBF203824
:1053500045F0010580B2E3E7062003E0B9F10B0F49
:10536000B6D1AAE703B0BDE8F08F00BFD46B000848
:10537000486B0008DD6B00081FB5019004A840F8D9
:10538000041D00911446FFF77CFA011E14DB0D4B3F
:1053900053F8210008B100220270019808B10022E0
:1053A000027043F8210050B1012C07D10022694658
:1053B00001A8FFF70BFB02E00B2000E0002004B087
:1053C00010BD00BFC80000202DE9F04F95B001913D
:1053D00014460546002800F0A6810023036002F071
:1053E0001E0201A90AA8FFF7F1FA002840F0D481B3
:1053F00004AB1093B64B01990AA81193FFF784FEF2
:105400000F9F10B9002F08BF062014F01C0F04F0E6
:105410001F0600F06181002800F0FF80042840F0A2
:10542000BB81109C0C22214607A8119FFFF7AAF907
:105430009DF82730DB0765D50023E3724FF00108A4
:1054400011930B2207A92046FFF79CF9B8F1050F2D
:1054500001D8434615E04346B81E30F8022F82B10A
:10546000102102F0010E0EEB430313F4803F1CBF2A
:1054700083F4883383F0210301394FEA5202F0D1DB
:10548000EBE7072203F00F0000F13001392988BF54
:1054900000F13701013A02A810441B094170F1D113
:1054A00014A97E20114401F8480C9A4204D0E15C12
:1054B000202901D00133F8E72344072A9DBF14A90E
:1054C000891811F8481C202103F8011BA3EB0401E3
:1054D00098BF01320729F0D900210AA8FFF7F8FB8D
:1054E00048B90AA8FFF778FD28B908F10108B8F112
:1054F000640FA6D14FE1042840F019819DF82730B0
:10550000E37211979DF827309C070AD5002437F8DD
:1055100014300BB10134FAE719340D23B4FBF3F462
:1055200000E0012400210AA8FFF7D2FB002840F088
:10553000FC8007460E990A98FFF703FA002840F00E
:10554000F4800F9B1B78E52B00D033B90137BC42A8
:1055500004D1013C00F0F18007E0074601210AA8D0
:10556000FFF7BFFC0028E5D0DFE0BDF82E100AA849
:10557000091BFFF7ADFB002840F00E811098FFF7E4
:105580000BF94FF00F0800900E990A98FFF7D9F920
:105590008646002840F000810F9B9DF80020E1B274
:1055A000DDF844905A7318739876D8764A1E0D2009
:1055B00042434FF6FF7A704683F80B80454F5045C3
:1055C00018BF39F812001EF807C00EF1010E03F8DB
:1055D0000C0018BF01324FEA102B9C44002808BF72
:1055E0005046BEF10D0F8CF801B0E7D14FF6FF7EAB
:1055F000704502D039F812200AB941F04001197003
:105600000A9B01221A7100210AA8FFF76AFC0028F0
:1056100040F0C280013CB7D18FE0FB7A13F0110F4C
:1056200040F0B980600700F1A480310761D5FCF734
:1056300013FB03124FF00008B873FB730A9C030CB2
:10564000000E3B7487F80B8087F81C8087F81D805C
:1056500087F81E8087F81F80787420783946FFF716
:105660003DF9012387F81A8087F81B8087F814809A
:1056700087F8158023718046002838D098427AD95F
:105680006369984277D28246D4F82C9063699A4530
:1056900075D251462046FFF7B6FA834600286ED0F1
:1056A000012868D0B0F1FF3F67D000225146204664
:1056B000FFF74DFB00286FD123695A1C05D0013339
:1056C0002361637943F001036371DA46DEE700BFCB
:1056D000CE000020C86B000800285DD1FB7AD806F8
:1056E00057D4A10701D5DA0755D4330701D546F0C1
:1056F0002006DDF828800024D8F82C302F62EB61DA
:10570000AE71EC7198F800003946FFF7E7F82861B0
:10571000FB692046EB60B8F80630AC60AC61C5F8B8
:105720000080AB8038E0092036E0042833D0002820
:1057300032D146F008060F9F77E70E990A98FFF7D7
:1057400000F948BB0F9B03F120029A4202D003F8F4
:10575000010BFAE70B2210990F98FFF713F8109B33
:105760000F9ADB7A03F0180313730A9B01221A7154
:10577000DFE7082010E002200EE001200CE00A988C
:1057800008F1FF33C3604946FFF7DBF80028ACD0CF
:1057900002E0042000E0072015B0BDE8F08F00BF54
:1057A0002DE9F74F9A460023CAF80030044689468F
:1057B0001746FFF77EF8002840F0AF80E079002818
:1057C00040F0AB80A379990740F1A680A368FB4223
:1057D0005DD204F509730093019041E001295ED088
:1057E0004A1C5ED02369616103B92161A3795B061C
:1057F0005AD4D4F800B061695846FFF7F9F9002887
:105800004DD07D0A00EB06085DD09BF8023072197E
:105810009A4288BF9D1B2B46424649469BF8010091
:10582000FBF7D0FA00283CD1A169C8EB01018D42F9
:105830000BD94FF4007209EB412104F12400FEF76B
:10584000A1FFA37923F04003A3716D02A368A944CB
:105850002B44A360DAF800307F1B2B44CAF80030D9
:10586000AFB1A368C3F30802002A3CD12068867850
:10587000013E06EA532616F0FF06B7D16BB921693F
:105880000029ABD1FFF7DCFA01460028A6D1A368B6
:10589000E26893423AD9E36038E06169F2E70220B6
:1058A00000E00120E07138E020680123A26904F1E2
:1058B00024014078FBF786FA0028F2D1A37923F07F
:1058C0004003A37195E7A369984502D1C4F81880F5
:1058D00009E004F12403009A9342F7D09DF80420D4
:1058E00003F8012BF7E7A0684946C0F30800C0F5AC
:1058F0000075BD4228BF3D4620442A462430FEF7AD
:1059000041FFA37943F04003A3719FE7A3790020EF
:1059100043F02003A37100E0072003B0BDE8F08F3F
:1059200070B50546FEF7C5FF002855D1AB7903F0E9
:10593000200202F0FF00002A4ED05B060DD5286839
:105940000123AA6905F124014078FBF73BFA0028FE
:1059500040D1AB7923F04003AB71E9692868FEF7C9
:10596000F0FF0446002837D12E6AF37A43F0200373
:10597000F372EB683377EB681B127377EB89B377BD
:10598000EB7BF3772B691A12B3761B0C33751B1262
:10599000F2767375FCF760F90312B075F375030CBA
:1059A000000E70763376B474F474AB79012223F070
:1059B0002003AB712B681A712C682046FEF79CFF00
:1059C00050B9024601466078FBF74AFA003018BF2A
:1059D000012070BD012070BD70BD000010B586B003
:1059E0000191044640B3002201A902A8FEF7EEFF90
:1059F000F8B9029B0199236003ABA361144B2046C5
:105A0000E361FFF781FBE8B9616939B1CB7ADB0665
:105A10000ED5029B1878FEF761FFA060029B002163
:105A2000DB882046A380FFF753F90428034605D1FD
:105A300005200023236008E0092006E0002BF8D1B0
:105A4000184602E00428F3D0F3E706B010BD00BF0B
:105A5000CE00002010B50446FEF72BFF00B92060F1
:105A600010BD00002DE9F04F85B004460E46FEF74C
:105A700020FF0746002840F0FB8026B9014620465B
:105A8000FFF726F9E7E04FF0FF08454601ABA361B9
:105A9000794BDFF8E891E36104202169002966D0A1
:105AA0002068FEF74EFF002862D163691A78002A49
:105AB00063D0E52A53D02E2A51D0D97A01F03F0184
:105AC00021F0200008284AD00F293ED1510606D5E2
:105AD00002F0BF05E28893F80D80228401E0AA421B
