:020000040800F2
:10000000A00B0020513A00084D3A00084D3A000874
:100010004D3A00084D3A00084D3A00080000000033
:100020000000000000000000000000004D3A000841
:100030004D3A0008000000004D3A00085108000841
:100040004D3A00084D3A00084D3A00084D3A000874
:100050004D3A00084D3A00084D3A0008CD19000805
:100060004D3A00084D3A00084D3A00084D3A000854
:100070007D1A00084D3A00084D3A00084D3A000834
:100080004D3A00084D3A00084D3A00084D3A000834
:100090004D3A00084D3A00084D3A00084D3A000824
:1000A0004D3A00084D3A00084D3A00084D3A000814
:1000B0004D3A0008151000084D3A00084D3A000866
:1000C0004D3A00084D3A00084D3A00084D3A0008F4
:1000D0004D3A0008290600084D3A00084D3A00083C
:1000E000B50F00084D3A00084D3A00080000000026
:1000F0000000000000000000000000000000000000
:1001000000000000000000005FF808F1224A0388A8
:1001100090429BB212D002F5006290420ED0B0F134
:10012000804F0BD0A2F59832904207D002F5806242
:10013000904203D002F58062904203D14A8823F0B6
:1001400070031343154A904208D002F58062904232
:100150001FBF23F44073CA889BB2134303808B886C
:1001600083850B8803850C4B98420FD003F5006301
:1001700098420BD003F54063984207D003F58063A3
:10018000984203D003F58063984201D10B7A03862D
:1001900001238382704700BF002C01400010004003
:1001A000038C70B523F001031B041B0C0384028C29
:1001B0008688038B0D8823F073031B041B0C1D43DF
:1001C00022F002020C894B881204120C23431343C1
:1001D000144AB6B290429BB20FD002F50062904230
:1001E0000BD002F54062904207D002F58062904247
:1001F00003D002F5806290420ED14C8923F00803AF
:100200001C438B8824F0040426F4407223438E8917
:10021000CC893443224396B2CA888680058382867D
:10022000038470BD002C0140038C30B523F0100313
:100230001B041B0C0384038C8588028B0C8822F41E
:10024000E6421204120C42EA042223F0200394B284
:100250001B040A891B0C43EA02134A88ADB243EA25
:100260000213124A9BB2904203D002F50062904200
:1002700015D123F080034A899BB243EA02124FF65C
:10028000BF7313408A8825F4406543EA02138A89C4
:100290009BB245EA8205CA8945EA8205ADB2CA88A1
:1002A000858004830287038430BD00BF002C014099
:1002B000038C30B523F480531B041B0C0384038C84
:1002C0008488828B0D8822F4E6421204120C23F4F7
:1002D000005342EA05221B040D891B0C43EA053337
:1002E0004D88A4B243EA05330A4D92B2A8429BB2AC
:1002F00003D005F50065A84205D18D8924F480441A
:1003000044EA8514A4B284808283CA88A0F840207D
:10031000038430BD002C0140038819B19BB243F027
:10032000010303E023F001031B041B0C038070474F
:10033000B0F8443029B16FEA43436FEA53439BB2AC
:1003400001E0C3F30E03A0F84430704783899BB2E9
:100350000AB1194301E023EA010181817047FFF7E7
:10036000F5BF038A828911EA030092B203D01142D9
:1003700014BF012000207047C94389B20182704731
:1003800010B5074C40F22551204603F061FE20468F
:10039000BDE81040012240F2255103F037BE00BFF6
:1003A0000038014000EB8000430018460138FDD8BA
:1003B000704738B5044604F049F980B2024600237C
:1003C00030B1013880B2215C2E2908BF0346F7E71F
:1003D00013B9013A202010E0013B202182B29A4259
:1003E00005DAA55C0130302D0AD1A154F6E738BDFD
:1003F000655C0133302D03D1605499B29142F7DB33
:1004000038BD0309092B00F00F0094BF3033373398
:1004100009280B7094BF30303730002348708B7040
:10042000704713B50A46044601A9C0B2FFF7E9FFB9
:10043000200A1146FFF7E5FF9DF8043093709DF800
:100440000530D3709DF80630137102B010BD13B59E
:100450000A46044601A9C0B2FFF7D3FF9DF8043055
:1004600001A993719DF80530C4F30720D371FFF7FC
:10047000C8FF9DF8043001A913719DF80530C4F33D
:1004800007405371FFF7BDFF9DF8043001A9937039
:100490009DF80530200ED370FFF7B3FF9DF80430B0
:1004A00013709DF8053053700023137202B010BD15
:1004B000F8B50D46069C002121702978752931D1A7
:1004C0006E78632E01D1017807E0692E01D1018891
:1004D00003E06C2E40F0A7800168AF78682F17D139
:1004E000632E05D12146BDE8F8400078FFF789BFAB
:1004F000692E05D12146BDE8F8400088FFF791BF7D
:100500006C2E33D12146BDE8F8400068FFF79FBF4D
:100510002B2F2BD111B12770012628E0202020702D
:10052000012624E073297ED16978632902D190F9EC
:10053000001007E0692902D1B0F9001002E06C292F
:1005400071D10168A8782B280AD1002903DA2D205F
:100550002070012608E008BF20202070012606E058
:1005600000294FF0000602DA494200E00026174653
:1005700018464FF0300E002806DA013FBFB20130B6
:1005800004F807E000B2F6E703EAE373134418BF88
:1005900001309BB218BF00B20A274FF02E0C9E42CA
:1005A00010D2013B9BB2C3EB020E86451FBFB1FBCD
:1005B000F7FE07FB1E113031E1540CBF04F803C0F5
:1005C0007146ECE70023A3547A21284603F078FF14
:1005D00048B3AB782B2B0FD1601CFFF7EAFE204607
:1005E00004F034F80123834205D2E25C202A0BD1C7
:1005F00001339BB2F7E7F8BD2046FFF7DAFE20464D
:1006000004F024F801230BE02278234403F8012CA2
:1006100020232370F8BDE25C202AF5D101339BB280
:100620008342F8D3F8BDF8BD0A4B1A8892060FD55D
:1006300009480A499A88038809880133C3F30803E3
:1006400089B28B4218BF0649D2B21CBFCA5403807C
:10065000704700BF0038014082030020840300205F
:100660007705002010B504464021054803F0EAFC58
:100670000028F9D02146024803F0E0FC012010BD1B
:100680000038014010B5441E14F8010F10B1FFF7F7
:10069000E9FFF9E710BD000008B54021024803F06A
:1006A000D1FC0028F9D008BD00380140044B18885F
:1006B000044B80B21B889BB2C01A18BF0120704740
:1006C000820300208403002010B50948094C2188CA
:1006D000038889B29BB29942054AF8D01388013346
:1006E000C3F3080313801388034A9BB2D05C10BD88
:1006F00084030020820300207705002070B51E4689
:100700008AB00AAC24F81A0D05AD134620460A46F5
:1007100000950549FFF7CCFE2846FFF7B3FF3046AA
:10072000FFF7B0FF0AB070BDC247000870B51E46A3
:100730008AB00AAC44F81C0D05AD134620460A46A3
:1007400000950549FFF7B4FE2846FFF79BFF3046AA
:10075000FFF798FF0AB070BDCB4700081FB5002314
:1007600000900C2269460848ADF80430ADF8063018
:10077000ADF80830ADF80A20ADF80C3003F0D0FB2E
:1007800005B05DF804FB00BF003801407FB5284C80
:10079000012144F2050003F0F7FA4FF40073ADF8BD
:1007A000003003251823694620468DF803308DF864
:1007B000025003F0CDF94FF480636946ADF8003084
:1007C000204648238DF8033004F540548DF802503C
:1007D00003F0BEF902A803F007FC02A9204603F0CB
:1007E000F3FB1448FFF7BAFF252300258DF80430EA
:1007F0000126022301A88DF805308DF806508DF8EA
:10080000076003F08DFD2A46204640F2255103F093
:10081000FDFB204640F2255103F01AFC064B314601
:100820001D80064B20461D8003F0E4FB04B070BD24
:100830000008014080841E00840300208203002001
:1008400008B5FFF7A3FFBDE80840FFF799BD00001A
:10085000034B01221A805A6801325A60704700BF68
:100860002C0000200B4B0021198059600A4B0B4AC9
:100870001B68F020B3FBF2F34FF47A725343084A3B
:10088000013B5360074B83F82300072391601360FB
:10089000704700BF2C0000200400002040420F00E1
:1008A00010E000E000ED00E02DE9F84F254B264D6B
:1008B00001281CBFAA461D46894614462349244ADE
:1008C00006BF9A468846904603F0D6FB284603F0BA
:1008D0004BFC0428074630D14FF6FF7BB9F1000FDF
:1008E00008BF4FF47A74013405F1100624F00104B6
:1008F0003444C5EB0A0AA64217D0B9F1000F03D160
:100900003AF8061089B203E0731B4B4433F8101C0D
:10091000594501D10236EEE7B0450DD9304603F016
:10092000DDFB04280746F5D007E04FF011312846DB
:1009300003F0F0FB074600E0802703F0A7FB3846F2
:10094000BDE8F88F00F0000800F40008FFF7000889
:10095000FFF3000810B503F08FFB074803F004FC19
:100960000428044603D1054803F0FEFB044603F0C7
:100970008DFB204610BD00BF00F0000800F4000809
:100980000131C1F34F0100239AB291420AD9B3F564
:10099000FC7F09D0054A1A445200128820F813201F
:1009A0000133F1E704207047802070470878000485
:1009B00038B50A4604460D4601460020FFF774FF8D
:1009C000C0B2042801D080B238BD2A462146012099
:1009D000FFF76AFFC0B238BD38B5164B1D68D3F8B3
:1009E0000044B5F1113F07D1B4F1113F01D104200A
:1009F0001DE0621C0ED104E06B1C0BD1B4F1113F61
:100A000008D1002211460120FFF74EFFC0B2042892
:100A10000DD1ECE7FFF79EFFC0B2042807D10135E6
:100A200004D1013414BF4020202000E0402080B2D7
:100A300038BD00BF00F00008014608B5064803F0C5
:100A4000D9FC0121044803F0E6FC0028F9D0024853
:100A500003F0D2FCC0B208BD0030014070B50646BC
:100A6000094C0D462046082103F0C9F846F08000E5
:100A7000FFF7E2FFFF20FFF7DFFF08212870204685
:100A800003F0BBF8012070BD0008014073B51646A5
:100A90000C460DF107011D46FFF7E0FF0121A01BE9
:100AA00001FA06F201309DF80730013A82401A40FF
:100AB00042FA00F0287002B070BD000070B5064622
:100AC0000D46094C0821204603F099F806F07F00F6
:100AD000FFF7B2FF2846FFF7AFFF2046082103F0DB
:100AE0008CF8012070BD00BF00080140F7B5174623
:100AF0000D461E4604460DF10701FFF7AFFF012129
:100B000001FA07F2E81B0130013A9DF80710824014
:100B100006FA00F0C0B221EA020102401143204669
:100B20008DF80710FFF7CAFF03B0F0BD054AC000FB
:100B3000138800F0380023F038031B041B0C034318
:100B4000138070470030014030B5012189B04FF467
:100B5000805003F019F90121052003F015F9012156
:100B60000420082503F010F90821384803F045F85F
:100B7000032410230DEB050134488DF80B30ADF83C
:100B800008508DF80A4002F0E3FF29462F4803F091
:100B900034F8A0230DEB0501ADF808302B481823DD
:100BA0008DF80B308DF80A4002F0D2FF40230DEB98
:100BB0000501ADF80830254848238DF80B308DF835
:100BC0000A4002F0C5FF4FF48273ADF80E300223E5
:100BD000ADF812304FF40073ADF81630382300240E
:100BE0000125ADF8183003A907231948ADF81C30CA
:100BF000ADF80C40ADF81040ADF81450ADF81A4007
:100C000003F0C4FB2146124803F0F9FB29461048C3
:100C100003F0DBFB02210E4803F0FDFB0028F9D0B6
:100C20000B4803F0E9FBADF80600BDF806300948B3
:100C30009BB2ADF8063003F0B5FA074803F0B2FAFC
:100C40000121084603F094F809B030BD00080140C6
:100C5000003001401C0002403000024001231A46CF
:100C600007216B20FFF742BF01231A4603216A20A8
:100C7000FFF73CBF0023012206216B20FFF736BFA0
:100C80000346032202216B20FFF730BF01461920E3
:100C9000FFF714BF01461920FFF7E0BE0346032209
:100CA00002211A20FFF722BF0346032202211A2045
:100CB000FFF7ECBE0346022204211B20FFF716BFFC
:100CC0000346022204211B20FFF7E0BE0346022256
:100CD00004211C20FFF70ABF0346022204211C2026
:100CE000FFF7D4BE10B5044600F00703032202212B
:100CF0001A20FFF7FBFEC4F30113022201211B207F
:100D0000BDE81040FFF7F2BE13B5032204460DF113
:100D1000060302211A20FFF7B9FE0DF10703022294
:100D200001211B20FFF7B2FE9DF8063003F00703F8
:100D3000237002B010BD10B5044600F00703032273
:100D400002211D20FFF7D2FEC4F30013012203216C
:100D50001D20BDE81040FFF7C9BE13B503220446AD
:100D60000DF1060302211D20FFF790FE0DF1070390
:100D7000012203211D20FFF789FE9DF807301B018A
:100D800003F010029DF8063003F0070313442370AC
:100D900002B010BD38B50D4C0025214675202570D8
:100DA000FFF75CFE01280BD12378682B0DD0712B47
:100DB00008D0122B08D0422B14BF2846042038BD7F
:100DC000284638BD022038BD032038BDAC010020C4
:100DD0002DE9F04180460F4616461D460A209DF833
:100DE0001840FFF7DFFA4046FFF74AFF3846FFF7A3
:100DF00061FF3046FFF752FF2846FFF767FF2046A6
:100E0000FFF744FFBDE8F041FFF734BF73B50C4670
:100E10000A2016461D46FFF7C5FA0DF10700FFF739
:100E20004FFF9DF807300A20A34214BF022400247C
:100E3000FFF7B8FA0DF10700FFF736FF9DF807300E
:100E40000A20B3421CBF44F00404A4B2FFF7AAFA7C
:100E50000DF10700FFF740FF9DF807300A20AB4275
:100E600018BF44F00804FFF79DFA0DF10700FFF7E3
:100E700011FF9DF807209DF818309A4218BF44F0E2
:100E80001004204602B070BD2DE9F8438146884623
:100E900017461E460A209DF820509DF82440FFF773
:100EA00081FA4846FFF7ECFE4046FFF703FF38465D
:100EB000FFF718FF3046FFF709FF2846FFF73BFF13
:100EC0002046FFF7E3FEBDE8F843FFF7D3BE73B556
:100ED0000C460A2016461D46FFF764FA0DF107007E
:100EE000FFF7EEFE9DF807300A20A34214BF02244C
:100EF0000024FFF757FA0DF10700FFF705FF9DF8F3
:100F000007300A20B3421CBF44F00404A4B2FFF728
:100F100049FA0DF10700FFF7DFFE9DF807300A20C0
:100F2000AB4218BF44F00804FFF73CFA0DF107008C
:100F3000FFF7B0FE9DF807209DF81C300A209A426A
:100F400018BF44F01004FFF72DFA0DF10700FFF76A
:100F500004FF9DF807209DF818309A4218BF44F00E
:100F60002004204602B070BDB0F900206423534332
:100F70004FF4AA7293FBF2F303F6456303807047C4
:100F8000B0F90020642353434FF4AA7293FBF2F3A9
:100F900003F634030380704742F21073B0F9002067
:100FA00053434FF44F5293FBF2F303F6C413038001
:100FB00070470000124B1A68D0041DD55969C90446
:100FC0001AD54FF4805122F4805259610D481A60AD
:100FD0000D4A918C0088014489B211870B49012088
:100FE00008800B49002008804FF6FB71118291891F
:100FF00089B241F0040191814FF480525A617047E7
:1010000000040140F804002000040040A201002078
:1010100086070020F8B55E4D02212846FFF7A1F9AA
:101020000128074665D102212846FFF7A5F9594B4B
:10103000594C1B88AA8E13449BB2AB862688B6B245
:10104000002E4BD0238801339BB2238023889BB290
:10105000022B11D84FF40061504802F0D0FD504AE5
:101060001388013303F03F03138013884D4A9BB26A
:10107000D35C4D4A13803CE023889BB20A2B10D8E6
:10108000494C4FF4006123884448DD0702D502F043
:10109000B4FD01E002F0B3FD2388C3F34E032380C7
:1010A00027E023884FF400619BB20B2B3B480BD108
:1010B00002F0A3FD3D4B1A88394B92B21B889BB2BC
:1010C0009A4216D0278014E002F097FD00220221F8
:1010D0002846FFF744F9002323800AE04FF400611B
:1010E0002E4802F08AFD324602212846FFF737F9E2
:1010F0002680274C04212046FFF733F9012845D1EB
:1011000004212046FFF738F9224B1B88228F134415
:101110009BB22387264B1A8892B2002A28D01A88BD
:1011200092B2082A24D81A88013292B21A80214A2F
:101130001188C1F34E01118018498968C90441BF63
:10114000118889B241F0800111801B889BB2082B65
:101150001CD919481949038809880133DBB289B2BF
:101160008B4213D012881649D2B2CA540380F8BDFC
:101170000F4D0022042106481B88124CFFF7EFF8A0
:1011800000232B80236843F480532360F8BD00BF05
:101190000004004088070020CE0400200008014021
:1011A00080030020400300203C000020A401002018
:1011B000A201002086070020D4040020CC040020D7
:1011C00086030020000401401449154A38B50B88F5
:1011D0001288013303F03F0392B2934219D0114AAF
:1011E000114DD0540B80AB89012413F0020F12D1A2
:1011F0000E4B28461C80AB8C022110339BB2AB8671
:10120000FFF7BAF8284622460221FFF7A8F8204641
:1012100038BD002038BD204638BD00BFA4010020E5
:10122000800300204003002000040040CE04002082
:10123000013938B5451E4418A54204D015F8010FF0
:10124000FFF7C2FFF8E738BD024A00231380024AC5
:101250001380704780030020A4010020044B1888ED
:10126000044B80B21B889BB2C01A18BF0120704784
:10127000D4040020CC040020044A13880133DBB2DC
:1012800013801388024A9BB2D05C7047CC040020C4
:1012900086030020024A00231380024A138070470D
:1012A000CC040020D4040020B0F5614F124A134B47
:1012B00019D0B0F5E13F0DD0B0F5165F13D172B67D
:1012C00040F24131118062B672B640F2E2421A80B9
:1012D00062B6704772B64521118062B672B654226A
:1012E0001A8062B6704772B68B21118062B672B6F0
:1012F000D0221A8062B6704788070020F8040020C8
:1013000007B501284FF40061ADF8041006D10A4872
:1013100002F073FC10238DF8073002E000238DF8F3
:101320000730032301A904488DF8063002F010FCB1
:1013300003B05DF804FB00BF0008014007B54FF49F
:1013400080530128ADF804300CBF482300238DF8EA
:10135000073001A9032304488DF8063002F0F8FB9A
:1013600003B05DF804FB00BF00080140044B0128F6
:101370001A680CBF42F4805222F480521A607047FF
:101380000004014070B501218AB0042002F0FCFC89
:101390000121042002F0F8FC0121022002F000FDEE
:1013A0004FF6FF73ADF810303E4B3F4A1B683F4E7F
:1013B000B3FBF2F30AA9013B002421F81C3D30469F
:1013C000ADF81240ADF80E40FEF7A0FE3046012108
:1013D000FEF7A2FF06A93046ADF81840ADF81A4056
:1013E000ADF81C40ADF81E40ADF82040ADF82240ED
:1013F000ADF82440ADF82640FEF7D2FE06A93046EF
:10140000FEF712FF1D2301258DF80030304603231F
:1014100002218DF801308DF802408DF80350FEF75F
:10142000ABFF04213046FEF7A7FF684602F078FFC5
:101430002946284602F0A8FC0C21204602F016FCA2
:101440004FF480560C2301A88DF8093001968DF8D1
:1014500008408DF80A5002F0D5FC2046FFF786FFC1
:10146000282330468DF800308DF801508DF8024069
:101470008DF8035002F000FD684602F051FF4FF472
:10148000E130FFF711FF0A4B1C800A4B1C800A4B0E
:101490001C800A4B1C800A4B1C800A4B1C800AB023
:1014A00070BD00BF0400002000127A00000400405C
:1014B00080030020A4010020CE040020CC040020E2
:1014C000D4040020A20100201FB50121084602F02B
:1014D00067FC0023ADF80A30ADF806304FF6FF7315
:1014E000ADF808300A4B0B4A1B6804A9B3FBF2F3B2
:1014F000013B21F80C3D4FF08040FEF707FE012133
:101500004FF08040FEF708FF05B05DF804FB00BF18
:101510000400002040420F0072B64FF080439B8CC5
:101520009BB262B6044A91889380994282BF116847
:1015300001311160704700BF8804002008B5012008
:10154000FFF7C2FF4FF080439A8C024B00211960D5
:101550009A8008BD88040020F7B518230124164D91
:1015600002AE8DF807300121032304208DF80630E8
:1015700002F00AFC26F8044D3146284602F0E8FA4B
:1015800000222146284602F03CFB2146052002F0BD
:10159000FBFB2146094802F039FB4FF40047314676
:1015A0002846ADF8047002F0D3FA224639462846A0
:1015B00002F027FB03B0F0BD00080140000230003C
:1015C00010B50E4C01221146204602F01AFB0022F3
:1015D0004FF40041204602F014FB00BF00BF00BFE3
:1015E00000BF00BF00BF00BF00BF00BF00BF00BF03
:1015F00000BF00BF00BF00BF10BD00BF000801401A
:1016000010B5074C00222046012102F0FAFA2046CC
:10161000BDE8104001224FF4004102F0F2BA00BFD1
:101620000008014007B54FF40073ADF804301823EB
:101630008DF8073001A9032305488DF8063002F024
:1016400087FA0120FEF7AEFE03B05DF804FB00BF91
:101650000008014007B5FFF71FF80120FEF7A2FEC2
:101660004FF40073ADF8043048238DF8073001A91A
:10167000032304488DF8063002F06AFA03B05DF8DF
:1016800004FB00BF000801402DE9F04105460C466F
:1016900000F10E08002615F8017B3846FEF7E2FF40
:1016A000A84586EA0706F6D12046FEF7DBFF86EA64
:1016B0000400C0B2BDE8F041FEF7D4BF2DE9F0410F
:1016C0000646884605460024AB1BDBB2434506D2DE
:1016D00015F8017B3846FEF7C5FF7C40F4E720464D
:1016E000BDE8F041FEF7BEBF0A4AFF2191800A49DA
:1016F0000023538013809160084A3F21918008495C
:10170000538013809160074A012191801380538098
:10171000704700BF880100204700002078070020A4
:1017200034050020CC02002008B5FFF715FF074B59
:1017300000221A605A609A60DA601A825A829A828B
:10174000FFF77EF8BDE80840FFF7CEBFFC0400209D
:1017500007B54FF4407002F0D9FD114BE02283F839
:1017600023200121042002F00FFB0423ADF80430F4
:10177000102301A90B488DF8073003238DF806309C
:1017800002F0E6F9FFF7D0FFFFF73AFFFFF762FF3D
:10179000FFF7D4FEFFF766F803B05DF804FB00BF67
:1017A00000ED00E00008014008B5114B114C1B682A
:1017B0001148236002F070F9104802F06DF91048EA
:1017C00002F06AF90F4802F05DFB02F065FA0E4B79
:1017D000002018605860986002F07EFA012002F044
:1017E000B8F80A4B186802F0B1F823689847FEE78A
:1017F00004F0FF1F8C07002000080140000C01408E
:10180000001001400038014010E000E000F0FF1F30
:10181000064A13884BB14FF080439B8C51885B1A6A
:101820009BB2642B84BF0023138070479004002078
:10183000034B00221A805A809A80DA80704700BFDA
:1018400090040020F0B5364B87B09B78013B032B0A
:1018500063D8DFE803F0020E284AFFF7E3FEFFF744
:10186000AFFE304B1D782846FEF7FCFE2E4B1C7851
:1018700046E001AEFFF7D6FEFFF7A2FE10220021E0
:10188000304602F0CFFD00242849304602F080FEA9
:101890002546375D01343846FEF7E4FE102C85EA14
:1018A0000705F6D118E001AEFFF7BCFEFFF788FE92
:1018B00010220021304602F0B5FD00241C493046BC
:1018C00002F066FE2546375D01343846FEF7CAFE53
:1018D000102C85EA0705F6D12846FEF7C3FEFFF770
:1018E0008FFEFFF7B7FE012018E0124CFFF79AFEBB
:1018F000FFF766FE25782846FEF7B4FE2488240A02
:101900002046FEF7AFFE85EA0400FEF7ABFEFFF7C8
:1019100077FEFFF79FFE012000E0002007B0F0BD3A
:10192000740500209C070020CC0100208948000895
:101930008F48000840000020054A00231380D38010
:1019400013815380538193809381024A13707047AF
:101950009401002046000020174A002310B5138090
:10196000164A19461380164A1046138002F1C00425
:101970005180918022F8061FA2424FF00003F7D158
:10198000104AC0F8C430136053609360D360136191
:101990005361536293619362D361D36213620A4AC3
:1019A000C0F8C830D380C0F8CC3013801381538086
:1019B00053819380938110BDA202002084070020F0
:1019C000D00100209C040020A402002030B5022099
:1019D0008DB002F051FA0821214802F010F9214B94
:1019E000214D1B880021032B0CBF9D23BB231F48C7
:1019F0002B7002F06DFC00211D4802F069FC1D4BAC
:101A0000002401930F2304934FF480530A931A4B3D
:101A100001A902931548802306930594079408941E
:101A200009940B94039402F035FC102301A910488B
:101A300003930295069402F02DFC01210B4802F05D
:101A400047FC01210A4802F043FC202002F054FC2C
:101A500001220221054802F046FC0DB030BD00BF56
:101A600000080140A2020020D20200201C00024017
:101A7000300002400C300140AC0100202DE9F04F55
:101A8000002287B00221B94802F02DFC202002F08C
:101A900033FC0821B64802F0B0F8B64BB64C1D88AE
:101AA000B64B032D59789A7842EA01227BD1D97836
:101AB000ADF814201A7942EA0122ADF808205979CC
:101AC0009A7942EA0122ADF80A20D9791A7A42EAD3
:101AD0000122ADF80C20597A9A7A42EA0122ADF837
:101AE0000E20D97A1A7B42EA0122ADF810205A7BE7
:101AF0009B7B43EA0223ADF812302388012B40F28E
:101B0000DA8040F6462743F2A746002323809C4B09
:101B10009C4CD3F81880BDF908C004FB08F2586A41
:101B2000D3F800B0604407FB002006FB0B00DA6826
:101B3000954DBDF90AE005FB0200DA69996A624336
:101B4000714407FB01215A68BDF90CA006FB021184
:101B50001A69D3F8089005FB0211DA6A401352445F
:101B600001921A6A49135443019AC3F8248007FB6F
:101B7000024206FB09265A69C3F818C005FB026633
:101B8000DA6976139A625A68C3F80CB01A611A6A55
:101B90001860C3F81CE05960DA62C3F820A0C3F8EB
:101BA00014909E6087E0D87819795E7941EA002127
:101BB0009879DF7940EA06201E7A022D46EA072648
:101BC000ADF814605F7A9E7AADF80A1046EA0726EF
:101BD000ADF80E60DF7A1E7BADF80C0046EA0726F2
:101BE000ADF810605E7B9B7BADF8082043EA0623CE
:101BF000ADF8123013B2019309B200B240F0CC80BC
:101C00002388012B5E4B09D89D69019AAA4205D110
:101C1000DD69A94202D1196A88424CD040F6462EAD
:101C200043F2A747D3F81880564D0021218005FBC9
:101C300008F15C6A019AD3F800B014440EFB041456
:101C400007FB0B44D968504EBDF90AC006FB01449E
:101C5000D969986A694360440EFB001059681A6A92
:101C600007FB01001969554306FB0100BDF90CA0F3
:101C7000D96AD3F8089051440EFB015107FB0917AC
:101C80005A69641306FB0277019A40139A61DA6974
:101C90007F139A625A68C3F824801A611A6AC3F8DB
:101CA0000CB01C60C3F81CC05860DA62C3F820A0F6
:101CB000C3F814909F60354D06262888D5F8C830A3
:101CC00006FB0056B6F90420B6F906109A1AD5F8A4
:101CD000CC30B6F902702A4C5B1AD5F8C41001302A
:101CE000D4F800E080B2C91B6768A4680B2888BFDD
:101CF000002071443A442344C5F8C410C5F8C820F4
:101D0000C5F8CC30A6F802E0B780F4802880032024
:101D100091FBF0F1B1F5004F92FBF0F293FBF0F381
:101D200004DA1B488142B8BF014601E047F6FF7163
:101D3000184809B2B2F5004F0180014604DA144890
:101D40008242B8BF024601E047F6FF7212B2B3F515
:101D5000004F4A8004DA0E4A9342B8BF134601E0AE
:101D600047F6FF731BB28B80C9E000BF1C00024026
:101D700000080140A202002084070020AC010020DE
:101D80009C04002035EEFFFF99E8FFFFD001002002
:101D90000080FFFFA4020020012D40F085802388F1
:101DA000072B6C4B0AD89D69019AAA4206D1DD69BE
:101DB000A94203D1196A884200F0A18040F6124579
:101DC00040F63419D3F800C000212180019A05FBA8
:101DD0000CF15C6AD3F818801444444409FB0414E1
:101DE0005D4ED968D3F804B006FB0144BDF90A7012
:101DF00005FB0BF1986AD3F81CE03844704409FBEA
:101E000000101A69BDF90CA0D96A06FB02001A6A13
:101E1000514411449A68C3F82480554309FB015585
:101E20005A69C3F80CC006FB0255019AC3F828E0B2
:101E30009A6162131A6042135A601A6AE412DA62F3
:101E40009A68B4F5004F5A614FEA6532DF61C3F812
:101E500010B0C3F820A09A604FEAE0204FEAE525D1
:101E600004DA3E4B9C42B8BF1C4601E047F6FF74C3
:101E70003B4B24B2B0F5004F1C8004DA374A904245
:101E8000B8BF104601E047F6FF7000B2B5F5004F4D
:101E9000588004DA314A9542B8BF154601E047F64A
:101EA000FF752DB29D802AE0019B89009A00B2F552
:101EB000004F4FEA800304DA28488242B8BF024646
:101EC00001E047F6FF72264812B2B1F5004F0280DA
:101ED000024604DA21488142B8BF014601E047F6D4
:101EE000FF7109B2B3F5004F518004DA1B498B42F0
:101EF000B8BF0B4601E047F6FF731BB29380194A47
:101F0000138801331380164BBDF90E201C46DA806E
:101F1000BDF910201A81BDF912205A81124A128887
:101F200002F00702042A07D0052A09D0022A0AD1A2
:101F300005A8FFF719F806E005A8FFF721F802E069
:101F400005A8FFF729F8BDF91430A38107B0BDE853
:101F5000F08F00BF9C04002051F8FFFF0080FFFFBE
:101F6000A40200208407002040000020124B13B57B
:101F70001B88DB061DD501F037FF0024072301A8CD
:101F80008DF804308DF8074002F0CAF9022001F004
:101F900073FF22460221094802F0A5F90C2301A88B
:101FA0008DF804308DF8074002F0BAF9202002F0D5
:101FB000A3F902B010BD00BF400000201C00024089
:101FC0002DE9FF412B4B1B88DB064FD50121082053
:101FD00001F0DAFE022528230327694626488DF8FA
:101FE0000330ADF800508DF8027001F0B1FD012111
:101FF000084601F03BFE0823002601240DEB0300F8
:102000008DF80D304FF0070802958DF80C608DF8B3
:102010000E4001F0F7FE0B2328468DF805308DF8B1
:1020200004808DF806608DF8074001F025FF01A8B7
:1020300002F076F90C2320208DF804308DF805800D
:102040008DF806608DF8074002F056F901A802F0FD
:1020500067F932462946094802F045F9202002F086
:102060004BF922463946064802F0BBF904B0BDE8F8
:10207000F08100BF40000020000C01401C00024025
:102080000030014008B50A4B1B88DB060FD5102134
:102090003720FEF713FD0220FEF784F901213820D6
:1020A000FEF70CFDBDE808400220FEF77BB908BD35
:1020B0004000002001211120FEF700BD07B50A20D5
:1020C000FEF770F90DF107011320FEF7C7FC9DF82C
:1020D0000710132021F0070141F00501FEF7EEFC87
:1020E0000A20FEF75FF90DF107014C20FEF7B6FC60
:1020F0009DF807104C2041F00301FEF7DFFC0A2099
:10210000FEF750F90DF107014E20FEF7A7FC9DF8F0
:1021100007104E2021F03F0141F00F01FEF7CEFCE9
:102120004FF47A70FEF73EF90A20FEF73BF90DF105
:1021300007014F20FEF792FC9DF807104F2001F099
:10214000100141F02301FEF7B9FC0A20FEF72AF93D
:102150000DF107015020FEF781FC9DF8071050207B
:1021600001F0100141F00301FEF7A8FC03B05DF897
:1021700004FB13B50A20FEF715F90DF10701132032
:10218000FEF76CFC9DF807400A20053C18BF0124AF
:10219000FEF708F90DF107014C20FEF75FFC9DF8F2
:1021A00007300A20332B1CBF44F00204A4B2FEF710
:1021B000F9F80DF107014E20FEF750FC9DF80730AD
:1021C0000A200F2B18BF44F00404FEF7EBF80DF1C2
:1021D00007014F20FEF742FC9DF807300A20232B11
:1021E00018BF44F00804FEF7DDF80DF10701502098
:1021F000FEF734FC9DF80730032B18BF44F01004A1
:10220000204602B010BD07B514200DF10701FEF7FE
:1022100025FC9DF80710142021F0070141F003016F
:10222000FEF74CFC0DF107016420FEF717FC9DF84A
:102230000710642021F0700141F06001FEF73EFCC0
:102240000DF107016520FEF709FC9DF807106520D8
:1022500021F07F0141F00801FEF730FC03B05DF88A
:1022600004FB0000084B4FF400521A81DA809A8078
:1022700001210022DA819A815A819A825A821A8235
:10228000DA8219835A807047D604002038B522229A
:10229000FF21234802F0C6F8FEF79EFBC0B20428D7
:1022A0001F4D0AD02222FF211D4802F0BBF8FEF785
:1022B00093FBC0B204280FD107E022212846FEF785
:1022C0005FFBC0B204280CD0ECE722211448FEF7D3
:1022D00057FBC0B2042804D02222FF21104802F08C
:1022E000A1F82B880E4C212B19D0FFF7BBFF2388B8
:1022F000202B08D122212046FEF742FB00236380D9
:10230000E382012323832123064907482B8002F01F
:102310003FF9BDE8384022210148FEF749BB38BDEE
:10232000D60400209B480008F0040020B0F90020EB
:102330000E4B22219A80B0F90220DA80B0F90420F5
:102340001A81B0F906205A81B0F908209A81B0F9B3
:102350000A20DA81B0F90C201A82B0F90E205A82D4
:10236000B0F9102018469A82FEF722BBD60400204E
:1023700013B5154C002220464FF4805101F041FC6A
:102380004FF48053ADF8043010238DF8073001A9C5
:10239000022320468DF8063001F0DAFB00222046A9
:1023A0004FF4807101F02DFC4FF48073ADF80430D0
:1023B00018238DF8073001A9032320468DF8063035
:1023C00001F0C6FB02B010BD00080140012807B5AE
:1023D00009D100224FF400610B4801F012FC1823D0
:1023E0008DF8073002E000238DF807304FF40063CA
:1023F000ADF8043001A9032303488DF8063001F03D
:10240000A7FB03B05DF804FB00080140012807B5F5
:1024100009D100224FF480510B4801F0F2FB182340
:102420008DF8073002E000238DF807304FF4805319
:10243000ADF8043001A9022303488DF8063001F0FD
:1024400087FB03B05DF804FB0008014043F67F62A0
:1024500030B589B0ADF80820204A2149126801251D
:10246000B2FBF1F21F4C013A0023ADF804202946DB
:10247000602240F60900ADF80A30ADF80630ADF83C
:102480001020ADF81C30ADF81E30ADF81830ADF8A6
:102490001A30ADF81430ADF81630ADF8125001F026
:1024A00073FC01A92046FDF731FE04A92046FDF783
:1024B000FFFE2946042001F067FCFEF763FF04A934
:1024C0002046FDF76DFE29462046FDF731FF2946DF
:1024D0002046FDF721FF09B030BD00BF04000020F9
:1024E00040420F00002C014070B50E462B4B2C498A
:1024F0000022082EDA811A825A829A815A811A8120
:10250000DA809A800546A1F840201C4607D30C2E9D
:1025100001D9642E03D10020FEF7F2FE02E0002074
:10252000FFF754FF082D0BD30C2D01D9642D07D1D3
:102530000120FEF7E5FEFEF787FE0123E38204E0BB
:102540000120FFF743FF0023E3820A2E0AD30C2E5B
:1025500001D9642E06D10020FEF708FF0020FEF707
:10256000EDFE02E00020FFF751FF0A2D10D30C2DE5
:1025700001D9642D0CD10120FEF7E0FE094A136851
:1025800043F480531360FEF785FE0123238370BD5F
:102590000120FFF73BFF0023238370BDB202002020
:1025A000002C014000040140074B00226521DA8124
:1025B0001A825A82998259809A80DA801A815A81C5
:1025C0009A81DA821A837047B20200200B4B5B8833
:1025D000053B072B0BD8DFE803F0040A0F0F0F0FA2
:1025E0000F0F074B4FF47A72A3F84020704740F268
:1025F000DC52034BA3F84020704700BFB20200201A
:10260000002C014030B59F4C85B0A38A652B03D1C7
:10261000FFF71CFFFFF7ACFE6088A18A994D884246
:1026200005D0FFF761FFFFF7D1FF6B88AB826388AE
:10263000053B072B00F2E580DFE803F0B318043E0A
:102640006C6C8888E388002B00F00F818D4AD28A59
:10265000002A40F00A81013B03EB83035B0003F592
:102660007A73894A9BB2A2F84030FEE0A288854B7B
:10267000002A00F0FA80013A022A834D12D0032A80
:1026800010D0BAB932215982A521198201224FF402
:1026900080517E48DA8101F0B4FA4FF4E163A5F885
:1026A0004030E2E0DA81A5221A8240F21453A5F804
:1026B0004030DAE00022CEE0A388724A002B00F01E
:1026C000D4800021D181D28A002A00F0CE80013B43
:1026D000022B06D0032B0FD0002B40F0C6806C4B92
:1026E00000E06C4B18689B880190062101A8ADF8AA
:1026F0000830FEF79DFDB8E0674B072118689A88FF
:102700009B79019001A8ADF808208DF80A30FEF7FA
:102710008FFDAAE0A3885B4A002B00F0A680002171
:10272000D181D28A002A00F0A080013B022B04D084
:10273000032B40F09A80594B00E0594B1868042154
:1027400001900DEB0100FEF773FD8EE0A3884D4A6A
:10275000002B00F08A800021D181D28A002A00F06B
:102760008480013B022B06D0032B0ED0002B7CD1A2
:1027700001AB4C4A01E04C4A01AB1068516803C3FD
:10278000082101A8FEF754FD6FE0484A01AB10682C
:102790005168127A03C3092101A81A70FEF748FD97
:1027A00063E0A288374B002A5FD0D98A00295CD128
:1027B000198B002959D1511E002904D014DB033A8A
:1027C000012A52D910E032215982A5210122198211
:1027D0002E484FF48051DA8101F013FA2A4B4FF45E
:1027E000FA62A3F8402040E000224FF480512748CD
:1027F000E28101F006FA244B4FF47A72A3F84020EC
:1028000033E0A1881F4B81B3DA8A72BB1A8B62BB9B
:10281000013902291C4D12D0032916D0D9B9322111
:102820005982A521198201224FF480511748DA817B
:1028300001F0E7F940F29E73A5F8403015E0D98128
:1028400040F21A43A5F840300FE0D98140F2DC5342
:10285000A5F8403009E04FF480510C48DA8101F0CE
:10286000D0F940F2DC53A5F84030238943B1013B55
:1028700003EB83035B0003F57A73034A9BB29386F1
:1028800005B030BDB2020020002C0140000801401C
:10289000564700085C470008624700086D4700087B
:1028A0006947000871470008794700088147000818
:1028B00007B50F4A5388093B012B16D85389A3B19A
:1028C000D28A92B1013B0B2B05D00C2B05D00A2BE1
:1028D0000BD1084B02E0084B00E0084B18680421BC
:1028E00001900DEB0100FEF7A3FC03B05DF804FBC3
:1028F000B20200208A4700088E470008924700086D
:1029000010B5104CE389E3B1638A0BB1013B6382DC
:10291000638A012B05D100224FF480510A4801F04F
:1029200070F9238A13B1074A013B1382238A012BD2
:1029300001D1FFF74BFE628A024B12B91A8A02B923
:10294000DA8110BDB202002000080140F7B5012174
:10295000082001F019FA48238DF8073001A9032354
:10296000434840248DF80630ADF8044001F0F0F8FB
:102970000121082001F008FA202301A93C48ADF804
:10298000043001F0E5F83B4B3B4EDB8A012B68D06D
:10299000022B66D00C2B02D10C23338065E001237F
:1029A00033800025324801F025F9013C420648BF3A
:1029B0000135A4B248BFADB2002CF3D1302D1ED8E2
:1029C0000F2D1DD92D4C254648F6B800FDF7EAFC21
:1029D000B4F90030002B04DA01220421284801F068
:1029E00010F948F6B800FDF7DDFCB5F90030002B12
:1029F000EADA00220421224801F003F9E4E7012485
:102A0000402700251A4801F0F5F8013F830648BF2A
:102A10000135BFB248BFADB2002FF3D1302D1ED863
:102A20000F2D20D9154C254648F6B800FDF7BAFC05
:102A3000B4F90030002B04DA01220421104801F01F
:102A4000E0F848F6B800FDF7ADFCB5F90030002B12
:102A5000EADA002204210A4801F0D3F8E4E724B9B5
:102A60000223338001E0002C96D103B0F0BD00BFFB
:102A7000000C0140D604002042000020000000208D
:102A80000008014008B5FFF701FCFFF75FFFFEF704
:102A90005BF80A4A0620138843F4004343F010030E
:102AA0001380FEF743F8FEF747FF054A0023138023
:102AB000044A1380BDE80840FFF776BD40000020BF
:102AC00034000020D204002030B5494B8BB01C8864
:102AD000002C40F08A80FEF7B5FE464B9B78302BE9
:102AE0005FD002D82F2B31D07FE0762B0ED0772B02
:102AF0007BD1FEF797FDFEF763FD12213E48FEF7FE
:102B0000DDFDFEF77DFDFEF7A5FD6EE023462146C7
:102B10003A4D012255F8120901900AA8084410F80C
:102B2000240C5C5D104218BF44F0800405A85200DC
:102B3000112B1C5492B206D0802A02BF013189B2F7
:102B400001220133E9E7FFF7F1FB4EE02C4BDB8A72
:102B5000002B4AD02B4D214635F80D390122ADF816
:102B6000143023460AAC0C4414F8144C585D14423B
:102B700018BF40F0800001AC52000C2B185592B2E7
:102B800006D0802A02BF013189B201220133E9E770
:102B90009DF804100C2928D80DF10500FEF748FB1C
:102BA00023E0174B8DF814401B8BCBB9FEF73AFD91
:102BB000FEF706FD112105A8FEF780FDFEF720FDBA
:102BC000FEF748FD11E09DF814100F29EED84B1CBC
:102BD0008DF81430FEF750FB0AAB194401F8130CC2
:102BE000FEF73CFB0028EED1E0E70BB030BD00BFA4
:102BF000D004002074050020DA04002059010020D0
:102C0000B2020020540100200E4B1B88CBB90E4BA2
:102C10005B78072B15D10D4A0D4B1178198011F0F7
:102C2000400F517804D0927859819A81FFF740BEC5
:102C3000598091789980D1781279D9801A81FFF7DB
:102C4000E1BC7047D004002074050020470100203B
:102C5000B20200201D4B10B51B881B0634D572B67E
:102C60001B4A1C4B114603F10C0053F8044B8342E2
:102C700042F8044BF9D11B88138062B6164B0D2223
:102C80001A70164A128812F0020F1A4619D00B88D1
:102C90004FF67D7103F5FF433F339BB28B420C48E7
:102CA0000DD8438803F5FF433F339BB28B4206D8D0
:102CB000838803F5FF433F339BB28B4201D9052341
:102CC0001370074B01221A8010BD00BF9C07002023
:102CD00094010020A40200204600002040000020B3
:102CE0003400002008B5074B1B881B0603D5064B94
:102CF0001B88012B04D0FEF71FFE044B01221A7023
:102D0000072008BD9C07002034000020460000205A
:102D100008B5044B04481978FEF7B6FC034B0022B3
:102D20001A8008BD460000209401002034000020D5
:102D3000024B00221A805A809A807047F4020020C9
:102D400008B5FDF7C1FC064B99884A1C92B2382A97
:102D500019449A80887184BF38229A8008BD00BFC8
:102D6000F40200200A2801D03B2807D1044B00219F
:102D70009A8801201A449171998070470020704709
:102D8000F4020020044A00239380044A044813807C
:102D90005380FDF777BC00BF90070020F4020020AD
:102DA000A048000838B5054601F050FC2946024607
:102DB000084801F079FC044648B92846FDF762FC52
:102DC0000548FDF75FFC054B01209C7138BD0020D4
:102DD00038BD00BFFA020020D3480008F4020020EA
:102DE00010B50748FDF74EFC0648FDF74BFCBDE863
:102DF00010400548054B00220E21C068FDF796BC27
:102E0000A3480008B3480008FC040020D348000889
:102E100070B53748374C384DFDF734FC3748FDF76F
:102E200031FC2B4600220521B4F90000FDF766FCB9
:102E30003348344EFDF726FC2B4600220521B4F919
:102E40001600FDF75BFC3048FDF71CFC3346B4F977
:102E5000040000220821FDF751FC3346B4F90600B6
:102E600000220821FDF74AFC2B4600220821B4F974
:102E70000800FDF743FC2548FDF704FC3346B4F990
:102E80000A0000220821FDF739FC3346B4F90C0092
:102E900000220821FDF732FC2B4600220821B4F95C
:102EA0000E00FDF72BFC1A48FDF7ECFB3346B4F996
:102EB000100000220821FDF721FC3346B4F912006E
:102EC00000220821FDF71AFC2B4600220821B4F944
:102ED0001400FDF713FC0F48FDF7D4FB2B46B4F9A3
:102EE000180000220521BDE87040FDF707BC00BFB7
:102EF000B9480008D6040020D3480008D648000886
:102F0000DF480008F6480008EA480008FA480008C8
:102F100006490008124900082DE9F843FEF782FB34
:102F2000FEF74EFB8348FDF7ADFB834B1B88022B5E
:102F300007D00C2B09D0012B0AD18048FDF7A2FB4A
:102F400006E07F48FDF79EFB02E07E48FDF79AFB16
:102F50007D48FDF797FBFFF7EBFEFFF713FF4FF6FA
:102F6000FF737A4E002204217948002533802F46D2
:102F700000F047FEDFF83482764A13889BB2002BBC
:102F8000FBD0744B744C002201371A802760B8F8CC
:102F90000290B9F1000F04D0002D40F0B780C72592
:102FA000EAE7FDF783FB0028F6D0FFF7C9FEFFF73D
:102FB000D9FE0028EBD06948FFF7F4FE38B1684B22
:102FC0000122A3F80090674B1A80BDE8F883664899
:102FD000FFF7E8FE18B1FFF703FFFFF7D3FE6348E2
:102FE000FFF7E0FE20B10123E3802381FFF7CAFE53
:102FF0005F48FFF7D7FE28B10223E3800123238136
:10300000FFF7C0FE5B48FFF7CDFE28B10323E38046
:1030100001232381FFF7B6FE5748FFF7C3FE28B10F
:103020000423E38001232381FFF7ACFE5348FFF71D
:10303000B9FE28B122215248FDF7A2FCFFF7A2FEFB
:103040005048FFF7AFFE28B122214D48FDF7B0FCF4
:10305000FFF798FE4C48FFF7A5FE18B1FFF7D8FE22
:10306000FFF790FE4948FFF79DFE20B1444B012237
:10307000DA82FFF787FE4648FFF794FE20B1404B07
:103080000222DA82FFF77EFE4248FFF78BFE20B174
:103090003B4B0C22DA82FFF775FE3F48FFF782FEBA
:1030A00020B1374B0022DA82FFF76CFE3B48FFF776
:1030B00079FE20B1324B01221A83FFF763FE3848B4
:1030C000FFF770FE20B12E4B00221A83FFF75AFE45
:1030D0003448FFF767FE58B1294B4FF400521A816C
:1030E000DA809A800022DA819A815A81FFF74AFEBB
:1030F0002D48FFF757FE00283FF449AF204B002230
:103100009A825A821A82FFF73DFE40E7013DADB236
:10311000002D7FF431AFB6F90030002BBFF62CAF95
:103120000B4AD368DB4303F0040343F480231361A9
:1031300022E700BF23490008420000204A49000856
:10314000524900088D480008D348000800000020BC
:10315000000801402C00002090070020354900089D
:10316000D0040020A002002038490008444900088B
:103170004C490008544900085C49000864490008AB
:10318000D60400206D490008734900087C490008F6
:1031900086490008904900089A490008A04900089B
:1031A000AB490008B6490008BD490008F4020020F8
:1031B00043B270B5002B8D4CBCBF00222280228808
:1031C000052A00F21181DFE812F0060043006000DA
:1031D0009100B400D300D02825D090282AD0002B0D
:1031E00080F20281824A00F00F03158800F070001F
:1031F000AB4240F0E0807F49C2B2FF26102A0A703D
:103200004B708E7016D009D8002A40F0D48002236B
:1032100023804FF080439B8C638070BD302A10D098
:10322000502A40F0C880744B00221A80734B012250
:103230001A8070BD704B00221A80704B04221A80D5
:1032400070BD6D4B00221A806C4B05221A8070BD38
:10325000E3886B4AD0540133A0889BB28342E38059
:10326000C0F0A480002319465D1CDBB2834203D268
:10327000D35C59402B46F7E75F4B00221A805F4A28
:1032800003201080002951D04AE05A4B2F28987013
:1032900019D004D80138032825D8002318E076284F
:1032A00006D077284FF0000312D030281BD10FE052
:1032B000032323801723A3800023E3804FF0804360
:1032C0009B8C638070BD032323801023A380F3E7CE
:1032D000494A02211380494A238011804FF08043DC
:1032E0009B8C638070BD0023238070BDE388444ABB
:1032F000D0540133A0889BB28342E38056D300238D
:1033000019465D1CDBB2834203D2D35C59402B4685
:10331000F7E7394B00221A80384A0220108029B181
:1033200001221A80374AD3680133D36000232380F7
:103330003CE0E388042B37D8DFE803F0030D1013DB
:103340001600512802D1052222802DE046282BD0DC
:103350000022228028E04C28FAD125E04128F7D12C
:1033600022E05328F4D11FE04828F1D1FEF71CFADF
:10337000E388042B17D8DFE803F003080B0E1100D5
:10338000512810D0002323800DE04D28FAD10AE007
:103390004F28F7D107E04428F4D104E04528F1D1C3
:1033A000FFF7BAFDEEE7E3880133E3804FF0804397
:1033B0009B8C638070BD072B0CD10E49C2B2FF26D7
:1033C000402A0A704B708E7004D10123238006239B
:1033D000A38071E7702807D1064A9D42537000D040
:1033E00013B90423238067E770BD00BF9004002059
:1033F0004200002074050020D0040020A00200201C
:1034000047010020FC0400202DE9F04F002485B086
:10341000FEF79EF9B94BDFF8E4A2B3F90030002BB8
:1034200004DA00220421B64800F0EBFBB54BDFF8CC
:10343000F482B54DB54EB64FDFF8ECB21C80A8F85B
:103440000040ABF8004034806C802C80AC803C8025
:10345000FFF718FBFEF7ECF94FF4004333804FF60B
:10346000FF7300220421A648AAF8003000F0C9FB2F
:10347000BAF90030CDF80C80002BDFF88892B846FE
:1034800004DA012204219E4800F0BBFBFDF70EF98F
:1034900018B1FDF719F9FFF78BFEFEF7B9F9B9F886
:1034A00000309BB2013B062B31D8DFE803F0040764
:1034B0000C1116212800934B1C80A9E7FFF704FB91
:1034C000A9F8004023E0FFF79FFBA9F800401EE0A9
:1034D000FFF7C0FBA9F8004019E0FEF7A3F8FEF7DC
:1034E0006FF8039B1C80FFF7FDFBA9F800000EE0BE
:1034F000039B1C80FFF7F6FBA9F8000007E0FFF72D
:1035000007FCFEF77DF8FEF7A5F8A9F80040814B0F
:103510001B889BB2002BB9D07E4B1C80FDF7FCFFB3
:10352000BAF90000002877DD7B4FB0F5FA7F3B88C1
:1035300003F101039BB23B8062D1784A11880C29C8
:103540005ED8012202FA01F111F4825F2CD111F050
:10355000240F14D111F0120F52D0B3F5FA7F03D11A
:103560000421674800F04DFB3B88B3F57A7F53D3C5
:103570000022042162483C8000F043FB4CE0B3F59C
:10358000FA7F03D104215E4800F03BFB3B88B3F592
:103590002F7F04D100220421594800F032FB3B88E0
:1035A000B3F5487FE0D125E0B3F5FA7F03D10421DC
:1035B000534800F026FB3B88B3F5167F04D1002268
:1035C00004214F4800F01DFB3B88B3F52F7F04D149
:1035D000012204214A4800F014FB3B88B3F5487FE0
:1035E00004D100220421464800F00BFB3B88B3F5D0
:1035F000617FB9D101220421414800F002FBB3E709
:10360000834209DB3E4B3E4ADB683C80DB4303F0F0
:10361000040343F48023136133883C4A591E012973
:1036200040F2888123F4FE4189B2B1F5004F55D0B4
:103630001CD80C2900F0B3800CD803297DD002D807
:1036400000294ED076E10A2900F087800B2900F08E
:1036500098806FE10E2900F0EA80C0F0AE800F295B
:1036600000F00D81102900F04E8163E148F20B005B
:10367000814200F0868011D848F20200814255D084
:1036800033D348F20300814257D048F20A00814206
:1036900040F05081C3F30E0313805EE048F20E0049
:1036A000814200F0BF800ED848F20C00814276D0F3
:1036B00048F20D00814240F03D81C3F30E031380B8
:1036C000174B1C8079E048F20F00814200F0D48053
:1036D00048F21000814200F003812BE13223AAF866
:1036E000003048F20A03338024E1C3F30E03138051
:1036F0004FF4FA73AAF800301CE100BF000000206C
:1037000000080140A002002036000020CC0100206B
:10371000400000202C0000203E000020420000203D
:10372000D2040020D00400209C070020C3F30E0325
:1037300013806423AAF80030FCE0AB882A880133A8
:103740009BB29A42AB8080F0F5807C4B5B886FEA3D
:1037500043436FEA53433380ECE0FEF707FCFEF788
:10376000FBF80620FDF7E2F9FDF778FAFEF7A2FC78
:103770000F232B800B236B8048F20303AC80338034
:10378000D8E0C3F30E033380FDF774FA01232B80D6
:103790000C236B8048F20303AC803380CAE0C3F390
:1037A0000E033380FDF760FA01232B800D236B801D
:1037B00048F20303AC803380BCE0FDF7EBFAB8F8C5
:1037C000003080B223F4A37323F001039BB25C4A60
:1037D000A8F80030D0B104285A4907D143F4B27395
:1037E00043F00103138003230B800BE0022817BF73
:1037F00043F4817343F4A2731380012306BF138043
:1038000008800B8048F20E03338093E04E4A138801
:1038100001339BB2192B138040F28C8048F20203D3
:10382000338087E0C3F30E031380474B1C80B8F846
:10383000003003F00703052B02D1FEF73FFC12E036
:10384000042B09D1102300930323019400220221A9
:103850001846FDF719FB06E003230094002202211D
:103860001846FDF7B5FA64232B800F236B8048F2CE
:103870000303AC8033805DE0C3F30E031380B8F81C
:10388000003003F00703052B02D1FEF772FC12E0B3
:10389000042B09D110230093032301940022022159
:1038A0001846FDF714FB06E00323009400220221D2
:1038B0001846FDF7ABFA48B9BBF8003043F0800377
:1038C000ABF8003048F21003338033E01E4A0E2379
:1038D0003380138801339BB20A2B13809ED829E0D2
:1038E000C3F30E031380B8F8003003F00703052B71
:1038F00002D1FEF788FC01E0FEF7C4FBFEF760FB97
:103900000120FDF713F9BBF800304FF4967203F075
:1039100080039BB23BB101236B8048F20303AC8070
:103920002A80338006E0AB8002236B8048F20303D9
:103930002A803380FEF7E4FFA8E500BF36000020B0
:1039400040000020A2020020D204002080F308885A
:10395000704780F310887047384B82B01A6842F085
:1039600001021A605968364A0A405A601A6822F001
:10397000847222F480321A601A6822F480221A605B
:103980005A6822F4FE025A604FF41F029A60002225
:10399000009201921A6842F480321A601A6802F4A6
:1039A00000320192009A01320092019A1AB9009AEB
:1039B000B2F5A06FF2D11A6812F4003218BF0122DA
:1039C0000192019A012A05D01E4B4FF000629A60C5
:1039D00002B070471C4A116841F010011160116873
:1039E00021F003011160116841F0020111605A6871
:1039F0005A605A685A605A6842F480625A605A683B
:103A000022F47C125A605A6842F4E8125A601A682A
:103A100042F080721A601968084A8901FBD5516822
:103A200021F003015160516841F0020151605A6870
:103A300002F00C02082AFAD1C6E700BF00100240CB
:103A40000000FFF800ED00E000200240FEE700006B
:103A500008B50C4A0C4B0D498B4204D252F8040FA6
:103A600043F8040BF8E70A480A494FF0000288427D
:103A7000B8BF40F8042BFADBFFF76EFFBDE8084043
:103A8000FFF7C2BCC4490008000000202C00002041
:103A90002C000020A007002008B5264B984206D134
:103AA0000121042000F088F9002104203CE0224B91
:103AB000984206D10121082000F07EF9002108205B
:103AC00032E01E4B984206D10121102000F074F91B
:103AD0000021102028E01A4B984206D10121202015
:103AE00000F06AF9002120201EE0164B984206D112
:103AF0000121402000F060F90021402014E0124B29
:103B0000984206D10121802000F056F90021802042
:103B10000AE00E4B98420BD101214FF4807000F067
:103B20004BF900214FF48070BDE8084000F044B923
:103B300008BD00BF00080140000C0140001001401A
:103B40000014014000180140001C01400020014009
:103B5000CA782DE9F041D40648BF8C780E8802F06F
:103B60000F0348BF234316F0FF0F1ED00168002447
:103B70004FF0010E4FF00F0C0EFA04F737EA06056E
:103B80000FD1A5000CFA05F821EA080103FA05F5A2
:103B9000282A41EA050101D1476102E0482A08BF0D
:103BA00007610134082CE7D10160FF2E20D941685C
:103BB00000244FF0010E4FF00F0C04F108050EFA2F
:103BC00005F535EA06070FD1A7000CFA07F821EA38
:103BD000080103FA07F7282A41EA070101D14561E4
:103BE00002E0482A08BF05610134082CE5D1416094
:103BF000BDE8F081806880B2704701617047416123
:103C000070470AB101617047416170470028164A48
:103C100030B500F44015B4BFD3695368B5F5401F03
:103C200084B206D1556823F0706325F07065556045
:103C30000EE0C20255BF420D03221201C0F303453C
:103C40004CBFAA4004FA02F223EA020343F0706375
:103C500019B1420D120194402343034A0028B4BF16
:103C6000D361536030BD00BF0000014001F0030389
:103C700001F0FC0101F1804101F5803110B59B009C
:103C80008C680F229A4024EA02028A608A6898406F
:103C90001043886010BD00000D4B1A6842F001020D
:103CA0001A6059680B4A0A405A601A6822F08472F6
:103CB00022F480321A601A6822F480221A605A684C
:103CC00022F4FE025A604FF41F029A60704700BF50
:103CD000001002400000FFF8034A536823F003037A
:103CE00018435060704700BF001002401C4A10B5D6
:103CF000536803F00C03042B01D0082B01D0194B9F
:103D00000EE053685168C3F38343CC0303F102030D
:103D100002D55168890301D5134900E011494B438D
:103D2000036053681149C3F30313CC5C0368E34099
:103D300043605468C4F302240C5D23FA04F48460E5
:103D40005468C4F3C2240C5DE340C3605268C2F3FC
:103D500081320A44127CB3FBF2F3036110BD00BF51
:103D60000010024000127A0000093D0018000020F7
:103D7000044B5A6909B1104301E022EA000058617E
:103D8000704700BF00100240044B9A6909B110430C
:103D900001E022EA00009861704700BF0010024075
:103DA000044BDA6909B1104301E022EA0000D8614E
:103DB000704700BF00100240044BDA6809B110439D
:103DC00001E022EA0000D860704700BF0010024006
:103DD000044B1A6909B1104301E022EA000018619E
:103DE000704700BF00100240044B00221A605A6066
:103DF0009A60DA60024A5A61704700BF00040140CD
:103E0000FFFF0F00827970B50168037942B3CE439A
:103E1000184A03F18043156803F582333540156075
:103E20005468344054601C682143196001689468E8
:103E3000CD432C409460D3682B40D3604379102B42
:103E400006D193680B439360D3681943D16070BD6A
:103E500003F1804303F582331A681143196070BD82
:103E600003F1804303F582331A6822EA01021A60E3
:103E700070BD00BF00040140014B5861704700BF96
:103E80000004014008B5214B98420BD101214FF4A9
:103E90008040FFF791FFBDE8084000214FF48040CB
:103EA000FFF78ABF1A4B984208D101214FF4003026
:103EB000FFF78EFF00214FF4003022E0154B9842AF
:103EC00008D101214FF48020FFF782FF00214FF439
:103ED000802016E0104B984208D101214FF40020B9
:103EE000FFF776FF00214FF400200AE00B4B9842C9
:103EF0000BD101214FF48010FFF76AFF00214FF42E
:103F00008010BDE80840FFF763BF08BD00380140DE
:103F10000044004000480040004C00400050004079
:103F200070B50E460446038ACA889BB223F44053F8
:103F30001343038282898988338992B20B43718942
:103F400022F4B0520B4322F00C0213439BB2838144
:103F5000838AB2899BB223F4407386B01343838271
:103F600001A8FFF7C3FE174A039B049D31689442E2
:103F700018BF1D4619226A43A389642613F4004F13
:103F800014BF4D008D00B2FBF5F5B5FBF6F0A2892C
:103F900000010109120406FB115307D5D900323183
:103FA000B1FBF6F202F00702104306E01A013232CA
:103FB000B2FBF6F303F00F03184380B2208106B082
:103FC00070BD00BF003801404B8810B50C88028AD4
:103FD00023438C88C98892B223430B4322F4706236
:103FE00013439BB2038210BD002303804380838070
:103FF000C3807047838919B19BB243F4005303E037
:1040000023F400531B041B0C83817047012310B55C
:10401000C1F342149C4201F01F0103FA01F101D1E6
:104020000C3003E0022C0CBF1030143003680AB1CE
:10403000194301E023EA0101016010BDC1F3080149
:10404000818070470388194214BF01200020704707
:10405000090A012303FA01F1C94389B201807047BB
:10406000034B044A5A6002F188325A60704700BF1D
:104070000020024023016745FFF7F2BF024A13699F
:1040800043F080031361704700200240FFF7F6BF42
:10409000084BDA68D10709D4DA68520708D4DB681C
:1040A00013F0100F14BF0320042070470120704745
:1040B000022070470020024010B50446FFF7E8FFD9
:1040C000012806D11CB1FFF7E3FF013CF8E705200A
:1040D00010BD002C08BF052010BD000070B50546BE
:1040E0004FF400500E46FFF7E7FF04280ED1084CAE
:1040F0004FF40050236943F0010323612E80FFF742
:10410000DBFF41F6FE7322691340236170BD00BFDF
:104110000020024073B5002306464FF400500D46C0
:104120000193FFF7C9FF04281AD10E4C4FF4005039
:10413000236943F001032361ABB23380FFF7BCFF77
:10414000042808D102360196019B2D0C1D804FF4E6
:104150000050FFF7B1FF41F6FE732269134023615F
:1041600002B070BD0020024038B505464FF4302043
:10417000FFF7A2FF042812D1094C4FF43020236925
:1041800043F0020323616561236943F04003236127
:10419000FFF792FF41F6FD7322691340236138BD9A
:1041A000002002404FF6FE730268134003600023B4
:1041B000036043608360C360284B984201D1284A62
:1041C00027E0284B984201D1254A2AE0264B984205
:1041D00001D1234A2DE0254B984201D1204A30E0FD
:1041E000234B984201D11E4A33E0224B984204D11E
:1041F0001B4A536843F470032EE01F4B984204D1CE
:10420000174A536843F0706326E01C4B984204D170
:104210001B4A536843F00F031EE01A4B984204D127
:10422000174A536843F0F00316E0174B984204D145
:10423000134A536843F470630EE0144B984204D160
:104240000F4A536843F4704306E0114B984204D17F
:104250000B4A536843F470235360704708000240D0
:10426000000002401C0002403000024044000240B6
:10427000580002406C0002408000024008040240E6
:10428000000402401C040240300402404404024086
:10429000580402400A6A10B58C68036814430A691E
:1042A00023F4FF4314434A6923F0700314438A69DB
:1042B0001443CA6914434A6A14438A6A2243134363
:1042C0000360CB6843600B6883604B68C36010BDBC
:1042D00019B1036843F0010303E04FF6FE7302686F
:1042E00013400360704703680AB1194301E023EAF1
:1042F0000101016070470000C3004CBF014B024B3D
:1043000058607047000402400000024040F0BF6067
:10431000024B40F40030D860704700BF00ED00E071
:10432000C27810B503780AB3164A03F16043D16826
:104330004278C943C1F30221C1F1040402FA04F432
:104340000F22CA40817803F561430A4022431201DB
:10435000D2B283F8002303780122590903F01F0326
:1043600002FA03F3084A42F8213010BD5A0901212C
:1043700003F01F0301FA03F30349203241F822300E
:1043800010BD00BF00ED00E000E100E003880A88F6
:1043900010B503F441544B8813438A881343CA88E9
:1043A00013430A8913434A8913438A891343CA89E9
:1043B000134323439BB20380838B23F400631B04CA
:1043C0001B0C83830B8A038210BD038819B19BB237
:1043D00043F0400303E023F040031B041B0C038065
:1043E000704783889BB20AB1194301E023EA0101B7
:1043F0008180704781817047808980B270470388CF
:1044000019B19BB243F4005303E023F400531B049F
:104410001B0C038070470389194214BF0120002040
:104420007047000070B4840746D0541E002A41D063
:10443000CDB2034602E0621EE4B3144603F8015B0A
:104440009A07F8D1032C2ED9CDB245EA05250F2CB9
:1044500045EA054519D9264603F11002103E0F2EF4
:1044600042F8105C42F80C5C42F8085C42F8045CCC
:1044700002F11002F2D8A4F1100222F00F0204F0AF
:104480000F041032032C13440DD91E462246043A61
:10449000032A46F8045BFAD8221F22F003020432F2
:1044A000134404F003042CB1C9B21C4403F8011BEB
:1044B000A342FBD170BC704714460346C2E700BF5D
:1044C00070B411F0FF0434D085070FD00378002BAF
:1044D0005AD09C422BD0431C05E013F8012B002A34
:1044E0004FD0944223D09A071846F6D10E0206F414
:1044F0007F462643036846EA064601E050F8043F3B
:1045000086EA0305A5F10132A3F1013122EA050291
:1045100021EA0303134313F0803FEFD0037823B95C
:1045200032E010F8013F002B2ED09C42F9D170BC34
:10453000704784070BD00378002BF8D0431C03E0AE
:1045400002780133002AF2D099071846F8D10268A0
:10455000A2F1013323EA020313F0803F08D150F89F
:10456000042FA2F1013323EA020313F0803FF6D0B7
:104570000378002BDBD010F8013F002BFBD170BC7F
:104580007047104670BC7047184670BC704700BF3B
:1045900080EA0102844612F0030F4FD111F0030F9D
:1045A00032D14DF8044D11F0040F51F8043B0BD0FB
:1045B000A3F101329A4312F0803F04BF4CF8043B50
:1045C00051F8043B16D100BF51F8044BA3F101325E
:1045D0009A4312F0803FA4F101320BD14CF8043B16
:1045E000A24312F0803F04BF51F8043B4CF8044B47
:1045F000EAD023460CF8013B13F0FF0F4FEA3323B8
:10460000F8D15DF8044B704711F0010F06D011F896
:10461000012B0CF8012B002A08BF704711F0020F84
:10462000BFD031F8022B12F0FF0F16BF2CF8022B6F
:104630008CF8002012F47F4FB3D1704711F8012B92
:104640000CF8012B002AF9D1704700BF20F00301BC
:1046500010F00300C0F1000051F8043B00F1040C1D
:104660004FEACC0C6FF000021CBF22FA0CF213438D
:104670004FF0010C4CEA0C2C4CEA0C4CA3EB0C0256
:1046800022EA030212EACC1204BF51F8043B0430C0
:10469000F4D0C2F1000102EA0102B2FA82F2C2F1E0
:1046A0001F0200EBD2007047002A3FD040EA01030E
:1046B00013F00303F0B425D1032A23D904680D684D
:1046C000AC421FD1043A33D0A4F1013525EA0404E9
:1046D00014F0803F2FD1071D0D1D0DE057F8043B4E
:1046E0000E68A3F10134B34224EA03040AD1043A68
:1046F0001ED014F0803F21D1032A2946384605F107
:104700000405EBD803780C78013A9C420BD17AB1BE
:1047100014B915E062B173B110F8013F11F8014FFF
:10472000013AA342F6D0181BF0BC70471046704700
:104730001046F0BC70471846F0BC70470020F3E705
:104740002046F1E72D00002000002E000030000080
:1047500000020201000173686F6F740D7265636F70
:104760006E0D7265636F66660DCC010398CC010413
:10477000CC736875747465720A766964656F6F6E60
:104780000A766964656F6F66660ACC010032CC01F7
:1047900001E7CC01024D746F6F206C617267652078
:1047A000776964746800746F6F206C61726765204C
:1047B000707265636973696F6E00302E30002D0072
:1047C000450073692B7A0073692B00736C2B7A0098
:1047D0006D707520617420535049204F4B0A00754D
:1047E00063006D707520535220006D70752041522A
:1047F00020006D707520444C504620006D7075206F
:10480000475220004D5055363035302C20004D5049
:1048100055363030302C20004D5055393235302C43
:10482000200049434D32303630322C20004F56455F
:104830005253414D504C45442C2000464153542086
:104840004759524F2C200046415354204143432C9A
:1048500020004759524F2046494C5445522C2000C5
:104860004143432046494C5445522C2000544C456A
:104870003530313242004153353034384100504FE9
:104880005441444335002D200076302E34330076D9
:10489000322E782046313033543800656E6458002B
:1048A0003E20004E5420427573204572726F727321
:1048B0000D0A006372633A2000506172616D657485
:1048C0006572732073746F72656420696E2053651E
:1048D0007475700D0A004C61796F75743A20004D43
:1048E0006F64756C6549643A20004163635363618A
:1048F0006C653A202000202C20004163635A6572C9
:104900006F3A202020004779726F5363616C653ADB
:1049100020004170706C7941636346696C74657204
:104920003A20000D0A48656C6C6F2C204920616D9F
:1049300020494D55004051006E7462757365727266
:104940006F72730073747265616D31007374726598
:10495000616D320073747265616D330073747265DA
:10496000616D340072657472696576650073746F89
:10497000726500676574736574757000736574693A
:1049800064696D7531007365746964696D753200B1
:104990007365746964696D753300636C7269640072
:1049A00073657461636366696C7400636C726163E0
:1049B0006366696C7400636C7261636300636C723C
:0549C0006779726F0031
:1049C800FFFF000000A24A040000000000000000F1
:1049D800010203040607080900000000010203049D
:0C49E80001020304060708090204060887
:0400000508000000EF
:00000001FF
